{
  "contractName": "DragonBlock",
  "abi": [
    {
      "inputs": [],
      "stateMutability": "nonpayable",
      "type": "constructor"
    },
    {
      "anonymous": false,
      "inputs": [
        {
          "indexed": false,
          "internalType": "uint256",
          "name": "campaignId",
          "type": "uint256"
        }
      ],
      "name": "CampaignCreation",
      "type": "event"
    },
    {
      "inputs": [
        {
          "internalType": "uint256",
          "name": "",
          "type": "uint256"
        }
      ],
      "name": "campaigns",
      "outputs": [
        {
          "internalType": "address",
          "name": "owner",
          "type": "address"
        },
        {
          "internalType": "uint256",
          "name": "id",
          "type": "uint256"
        },
        {
          "internalType": "enum DragonBlock.CampaignStatus",
          "name": "status",
          "type": "uint8"
        },
        {
          "internalType": "uint256",
          "name": "weiLimit",
          "type": "uint256"
        },
        {
          "internalType": "uint256",
          "name": "donatedWei",
          "type": "uint256"
        },
        {
          "internalType": "uint256",
          "name": "creationTime",
          "type": "uint256"
        },
        {
          "internalType": "uint256",
          "name": "revisionTime",
          "type": "uint256"
        },
        {
          "internalType": "uint16",
          "name": "weekDuration",
          "type": "uint16"
        }
      ],
      "stateMutability": "view",
      "type": "function",
      "constant": true
    },
    {
      "inputs": [
        {
          "internalType": "address",
          "name": "",
          "type": "address"
        }
      ],
      "name": "dstBalances",
      "outputs": [
        {
          "internalType": "uint256",
          "name": "",
          "type": "uint256"
        }
      ],
      "stateMutability": "view",
      "type": "function",
      "constant": true
    },
    {
      "inputs": [],
      "name": "minter",
      "outputs": [
        {
          "internalType": "address",
          "name": "",
          "type": "address"
        }
      ],
      "stateMutability": "view",
      "type": "function",
      "constant": true
    },
    {
      "inputs": [
        {
          "internalType": "address",
          "name": "",
          "type": "address"
        }
      ],
      "name": "ssjVaults",
      "outputs": [
        {
          "internalType": "uint256",
          "name": "",
          "type": "uint256"
        }
      ],
      "stateMutability": "view",
      "type": "function",
      "constant": true
    },
    {
      "inputs": [
        {
          "internalType": "uint256",
          "name": "_weiLimit",
          "type": "uint256"
        },
        {
          "internalType": "uint16",
          "name": "_weekDuration",
          "type": "uint16"
        }
      ],
      "name": "createCampaign",
      "outputs": [],
      "stateMutability": "payable",
      "type": "function",
      "payable": true
    },
    {
      "inputs": [
        {
          "internalType": "uint256",
          "name": "_campaignWindow",
          "type": "uint256"
        }
      ],
      "name": "getCampaigns",
      "outputs": [
        {
          "components": [
            {
              "internalType": "address",
              "name": "owner",
              "type": "address"
            },
            {
              "internalType": "uint256",
              "name": "id",
              "type": "uint256"
            },
            {
              "internalType": "enum DragonBlock.CampaignStatus",
              "name": "status",
              "type": "uint8"
            },
            {
              "internalType": "uint256",
              "name": "weiLimit",
              "type": "uint256"
            },
            {
              "internalType": "uint256",
              "name": "donatedWei",
              "type": "uint256"
            },
            {
              "internalType": "uint256",
              "name": "creationTime",
              "type": "uint256"
            },
            {
              "internalType": "uint256",
              "name": "revisionTime",
              "type": "uint256"
            },
            {
              "internalType": "uint16",
              "name": "weekDuration",
              "type": "uint16"
            }
          ],
          "internalType": "struct DragonBlock.Campaign[]",
          "name": "",
          "type": "tuple[]"
        }
      ],
      "stateMutability": "view",
      "type": "function",
      "constant": true
    },
    {
      "inputs": [
        {
          "internalType": "uint256",
          "name": "_id",
          "type": "uint256"
        }
      ],
      "name": "donateCampaign",
      "outputs": [],
      "stateMutability": "payable",
      "type": "function",
      "payable": true
    },
    {
      "inputs": [
        {
          "internalType": "uint256",
          "name": "_id",
          "type": "uint256"
        }
      ],
      "name": "reportCampaign",
      "outputs": [],
      "stateMutability": "nonpayable",
      "type": "function"
    },
    {
      "inputs": [
        {
          "internalType": "uint256",
          "name": "_id",
          "type": "uint256"
        },
        {
          "internalType": "bool",
          "name": "_approval",
          "type": "bool"
        }
      ],
      "name": "voteForCampaign",
      "outputs": [],
      "stateMutability": "nonpayable",
      "type": "function"
    },
    {
      "inputs": [],
      "name": "finalizeCampaigns",
      "outputs": [],
      "stateMutability": "nonpayable",
      "type": "function"
    },
    {
      "inputs": [
        {
          "internalType": "uint256",
          "name": "_id",
          "type": "uint256"
        },
        {
          "internalType": "bool",
          "name": "_approval",
          "type": "bool"
        }
      ],
      "name": "revisionCampaign",
      "outputs": [],
      "stateMutability": "nonpayable",
      "type": "function"
    },
    {
      "inputs": [],
      "name": "becomeSSJ",
      "outputs": [],
      "stateMutability": "payable",
      "type": "function",
      "payable": true
    },
    {
      "inputs": [],
      "name": "becomeNormalUser",
      "outputs": [],
      "stateMutability": "nonpayable",
      "type": "function"
    },
    {
      "inputs": [],
      "name": "terminate",
      "outputs": [],
      "stateMutability": "nonpayable",
      "type": "function"
    }
  ],
  "bytecode": "0x608060405234801561001057600080fd5b5033600860006101000a81548173ffffffffffffffffffffffffffffffffffffffff021916908373ffffffffffffffffffffffffffffffffffffffff16021790555060c860016000735b38da6a701c568545dcfcb03fcb875f56beddc473ffffffffffffffffffffffffffffffffffffffff1673ffffffffffffffffffffffffffffffffffffffff16815260200190815260200160002081905550613aca806100ba6000396000f3fe6080604052600436106100dc5760003560e01c806324005d581161007f5780637ae47317116100595780637ae473171461027d5780638ffff8b0146102ba578063bc7586fe146102d6578063fb58ca82146102e0576100dc565b806324005d58146101fb5780632c780755146102245780636a288ef914610240576100dc565b80630c08bf88116100bb5780630c08bf881461016057806312abd90514610177578063141961bc146101a057806317b3cdd2146101e4576100dc565b80623e63ab146100e15780630494a01f1461011e5780630754617214610135575b600080fd5b3480156100ed57600080fd5b5061010860048036038101906101039190612589565b610309565b60405161011591906125cf565b60405180910390f35b34801561012a57600080fd5b50610133610321565b005b34801561014157600080fd5b5061014a610a27565b60405161015791906125f9565b60405180910390f35b34801561016c57600080fd5b50610175610a4d565b005b34801561018357600080fd5b5061019e60048036038101906101999190612678565b610b48565b005b3480156101ac57600080fd5b506101c760048036038101906101c291906126b8565b610e13565b6040516101db989796959493929190612779565b60405180910390f35b3480156101f057600080fd5b506101f9610ea6565b005b34801561020757600080fd5b50610222600480360381019061021d91906126b8565b610ffb565b005b61023e60048036038101906102399190612823565b6112c2565b005b34801561024c57600080fd5b5061026760048036038101906102629190612589565b611559565b60405161027491906125cf565b60405180910390f35b34801561028957600080fd5b506102a4600480360381019061029f91906126b8565b611571565b6040516102b191906129f1565b60405180910390f35b6102d460048036038101906102cf91906126b8565b611842565b005b6102de611afb565b005b3480156102ec57600080fd5b5061030760048036038101906103029190612678565b611c90565b005b60026020528060005260406000206000915090505481565b6000808054905090505b6000811115610a245760006005811115610348576103476126e5565b5b60006001836103579190612a42565b8154811061036857610367612a76565b5b906000526020600020906008020160020160009054906101000a900460ff166005811115610399576103986126e5565b5b1480156103e257506000806001836103b19190612a42565b815481106103c2576103c1612a76565b5b9060005260206000209060080201600501546103de9190612aa5565b4210155b156104ee57600460006001836103f89190612a42565b8152602001908152602001600020805490506003600060018461041b9190612a42565b815260200190815260200160002080549050111561049257600160006001836104449190612a42565b8154811061045557610454612a76565b5b906000526020600020906008020160020160006101000a81548160ff02191690836005811115610488576104876126e5565b5b02179055506104ed565b600260006001836104a39190612a42565b815481106104b4576104b3612a76565b5b906000526020600020906008020160020160006101000a81548160ff021916908360058111156104e7576104e66126e5565b5b02179055505b5b60036005811115610502576105016126e5565b5b60006001836105119190612a42565b8154811061052257610521612a76565b5b906000526020600020906008020160020160009054906101000a900460ff166005811115610553576105526126e5565b5b14801561059c575060008060018361056b9190612a42565b8154811061057c5761057b612a76565b5b9060005260206000209060080201600601546105989190612aa5565b4210155b1561075e57600660006001836105b29190612a42565b815260200190815260200160002080549050600560006001846105d59190612a42565b81526020019081526020016000208054905011156106d857600160006001836105fe9190612a42565b8154811061060f5761060e612a76565b5b906000526020600020906008020160020160006101000a81548160ff02191690836005811115610642576106416126e5565b5b02179055506000806001836106579190612a42565b8154811061066857610667612a76565b5b9060005260206000209060080201600601819055506005600060018361068e9190612a42565b815260200190815260200160002060006106a89190612477565b600660006001836106b99190612a42565b815260200190815260200160002060006106d39190612477565b61075d565b600460006001836106e99190612a42565b815481106106fa576106f9612a76565b5b906000526020600020906008020160020160006101000a81548160ff0219169083600581111561072d5761072c6126e5565b5b02179055506107476001826107429190612a42565b611f5b565b61075c6001826107579190612a42565b612161565b5b5b60016005811115610772576107716126e5565b5b60006001836107819190612a42565b8154811061079257610791612a76565b5b906000526020600020906008020160020160009054906101000a900460ff1660058111156107c3576107c26126e5565b5b1480156108ce575062093a8060006001836107de9190612a42565b815481106107ef576107ee612a76565b5b906000526020600020906008020160070160009054906101000a900461ffff1661ffff1661081d9190612b0a565b62ffffff1660006001836108319190612a42565b8154811061084257610841612a76565b5b90600052602060002090600802016005015461085e9190612aa5565b421015806108cd575060006001826108769190612a42565b8154811061088757610886612a76565b5b90600052602060002090600802016003015460006001836108a89190612a42565b815481106108b9576108b8612a76565b5b906000526020600020906008020160040154145b5b15610a1157600560006001836108e49190612a42565b815481106108f5576108f4612a76565b5b906000526020600020906008020160020160006101000a81548160ff02191690836005811115610928576109276126e5565b5b021790555061094260018261093d9190612a42565b612245565b6000806001836109529190612a42565b8154811061096357610962612a76565b5b906000526020600020906008020160000160009054906101000a900473ffffffffffffffffffffffffffffffffffffffff1690508073ffffffffffffffffffffffffffffffffffffffff166108fc60006001856109c09190612a42565b815481106109d1576109d0612a76565b5b9060005260206000209060080201600401549081150290604051600060405180830381858888f19350505050158015610a0e573d6000803e3d6000fd5b50505b8080610a1c90612b47565b91505061032b565b50565b600860009054906101000a900473ffffffffffffffffffffffffffffffffffffffff1681565b600860009054906101000a900473ffffffffffffffffffffffffffffffffffffffff1673ffffffffffffffffffffffffffffffffffffffff163373ffffffffffffffffffffffffffffffffffffffff1614610add576040517f08c379a0000000000000000000000000000000000000000000000000000000008152600401610ad490612bf3565b60405180910390fd5b600860009054906101000a900473ffffffffffffffffffffffffffffffffffffffff1673ffffffffffffffffffffffffffffffffffffffff166108fc479081150290604051600060405180830381858888f19350505050158015610b45573d6000803e3d6000fd5b50565b6000600260003373ffffffffffffffffffffffffffffffffffffffff1673ffffffffffffffffffffffffffffffffffffffff1681526020019081526020016000205411610bca576040517f08c379a0000000000000000000000000000000000000000000000000000000008152600401610bc190612c85565b60405180910390fd5b60036005811115610bde57610bdd6126e5565b5b60008381548110610bf257610bf1612a76565b5b906000526020600020906008020160020160009054906101000a900460ff166005811115610c2357610c226126e5565b5b14610c63576040517f08c379a0000000000000000000000000000000000000000000000000000000008152600401610c5a90612d17565b60405180910390fd5b610c7f33600560008581526020019081526020016000206123ca565b15610cbf576040517f08c379a0000000000000000000000000000000000000000000000000000000008152600401610cb690612da9565b60405180910390fd5b610cdb33600660008581526020019081526020016000206123ca565b15610d1b576040517f08c379a0000000000000000000000000000000000000000000000000000000008152600401610d1290612e3b565b60405180910390fd5b8015610d9a5760056000838152602001908152602001600020339080600181540180825580915050600190039060005260206000200160009091909190916101000a81548173ffffffffffffffffffffffffffffffffffffffff021916908373ffffffffffffffffffffffffffffffffffffffff160217905550610e0f565b60066000838152602001908152602001600020339080600181540180825580915050600190039060005260206000200160009091909190916101000a81548173ffffffffffffffffffffffffffffffffffffffff021916908373ffffffffffffffffffffffffffffffffffffffff1602179055505b5050565b60008181548110610e2357600080fd5b90600052602060002090600802016000915090508060000160009054906101000a900473ffffffffffffffffffffffffffffffffffffffff16908060010154908060020160009054906101000a900460ff16908060030154908060040154908060050154908060060154908060070160009054906101000a900461ffff16905088565b6000600260003373ffffffffffffffffffffffffffffffffffffffff1673ffffffffffffffffffffffffffffffffffffffff1681526020019081526020016000205411610f28576040517f08c379a0000000000000000000000000000000000000000000000000000000008152600401610f1f90612c85565b60405180910390fd5b60003390508073ffffffffffffffffffffffffffffffffffffffff166108fc600260003373ffffffffffffffffffffffffffffffffffffffff1673ffffffffffffffffffffffffffffffffffffffff168152602001908152602001600020549081150290604051600060405180830381858888f19350505050158015610fb2573d6000803e3d6000fd5b506000600260003373ffffffffffffffffffffffffffffffffffffffff1673ffffffffffffffffffffffffffffffffffffffff1681526020019081526020016000208190555050565b6000805490508110611042576040517f08c379a000000000000000000000000000000000000000000000000000000000815260040161103990612ecd565b60405180910390fd5b60016005811115611056576110556126e5565b5b6000828154811061106a57611069612a76565b5b906000526020600020906008020160020160009054906101000a900460ff16600581111561109b5761109a6126e5565b5b146110db576040517f08c379a00000000000000000000000000000000000000000000000000000000081526004016110d290612f5f565b60405180910390fd5b6000600160003373ffffffffffffffffffffffffffffffffffffffff1673ffffffffffffffffffffffffffffffffffffffff168152602001908152602001600020541161115d576040517f08c379a000000000000000000000000000000000000000000000000000000000815260040161115490612fcb565b60405180910390fd5b60018060003373ffffffffffffffffffffffffffffffffffffffff1673ffffffffffffffffffffffffffffffffffffffff16815260200190815260200160002060008282546111ac9190612a42565b9250508190555060076000828152602001908152602001600020339080600181540180825580915050600190039060005260206000200160009091909190916101000a81548173ffffffffffffffffffffffffffffffffffffffff021916908373ffffffffffffffffffffffffffffffffffffffff1602179055506001600760008381526020019081526020016000208054905011156112bf5760036000828154811061125c5761125b612a76565b5b906000526020600020906008020160020160006101000a81548160ff0219169083600581111561128f5761128e6126e5565b5b021790555042600082815481106112a9576112a8612a76565b5b9060005260206000209060080201600601819055505b50565b60646005836112d19190612feb565b6112db9190613074565b341461131c576040517f08c379a000000000000000000000000000000000000000000000000000000000815260040161131390613117565b60405180910390fd5b6000821161135f576040517f08c379a0000000000000000000000000000000000000000000000000000000008152600401611356906131a9565b60405180910390fd5b60008161ffff16116113a6576040517f08c379a000000000000000000000000000000000000000000000000000000000815260040161139d90613261565b60405180910390fd5b60006040518061010001604052803373ffffffffffffffffffffffffffffffffffffffff1681526020016000805490508152602001600060058111156113ef576113ee6126e5565b5b815260200184815260200160008152602001428152602001600081526020018361ffff16815250908060018154018082558091505060019003906000526020600020906008020160009091909190915060008201518160000160006101000a81548173ffffffffffffffffffffffffffffffffffffffff021916908373ffffffffffffffffffffffffffffffffffffffff1602179055506020820151816001015560408201518160020160006101000a81548160ff021916908360058111156114bb576114ba6126e5565b5b0217905550606082015181600301556080820151816004015560a0820151816005015560c0820151816006015560e08201518160070160006101000a81548161ffff021916908361ffff16021790555050507fddc542354787cb630b12d547bef306670ab435a3efdf62eeacf8532c042390ec60016000805490506115409190612a42565b60405161154d91906125cf565b60405180910390a15050565b60016020528060005260406000206000915090505481565b6060600082116115b6576040517f08c379a00000000000000000000000000000000000000000000000000000000081526004016115ad906132f3565b60405180910390fd5b600060146001846115c79190612a42565b6115d1919061331d565b6000805490506115e19190613434565b1215611622576040517f08c379a000000000000000000000000000000000000000000000000000000000815260040161161990613514565b60405180910390fd5b6000601483611631919061331d565b6000805490506116419190613434565b9050600081121561165157600090505b600080805490506014836116659190613534565b1115611681578160008054905061167c9190612a42565b611684565b60145b905060008167ffffffffffffffff8111156116a2576116a16135c8565b5b6040519080825280602002602001820160405280156116db57816020015b6116c8612498565b8152602001906001900390816116c05790505b50905060005b8281101561183657600081856116f79190613534565b8154811061170857611707612a76565b5b9060005260206000209060080201604051806101000160405290816000820160009054906101000a900473ffffffffffffffffffffffffffffffffffffffff1673ffffffffffffffffffffffffffffffffffffffff1673ffffffffffffffffffffffffffffffffffffffff168152602001600182015481526020016002820160009054906101000a900460ff1660058111156117a7576117a66126e5565b5b60058111156117b9576117b86126e5565b5b8152602001600382015481526020016004820154815260200160058201548152602001600682015481526020016007820160009054906101000a900461ffff1661ffff1661ffff168152505082828151811061181857611817612a76565b5b6020026020010181905250808061182e906135f7565b9150506116e1565b50809350505050919050565b6000805490508110611889576040517f08c379a000000000000000000000000000000000000000000000000000000000815260040161188090612ecd565b60405180910390fd5b6001600581111561189d5761189c6126e5565b5b600082815481106118b1576118b0612a76565b5b906000526020600020906008020160020160009054906101000a900460ff1660058111156118e2576118e16126e5565b5b14611922576040517f08c379a000000000000000000000000000000000000000000000000000000000815260040161191990612f5f565b60405180910390fd5b6000346000838154811061193957611938612a76565b5b9060005260206000209060080201600401546000848154811061195f5761195e612a76565b5b90600052602060002090600802016003015461197b9190612a42565b6119859190612a42565b10156119c6576040517f08c379a00000000000000000000000000000000000000000000000000000000081526004016119bd906136b1565b60405180910390fd5b60003411611a09576040517f08c379a0000000000000000000000000000000000000000000000000000000008152600401611a0090613743565b60405180910390fd5b600061c35034611a199190613763565b14611a59576040517f08c379a0000000000000000000000000000000000000000000000000000000008152600401611a5090613806565b60405180910390fd5b3460008281548110611a6e57611a6d612a76565b5b90600052602060002090600802016004016000828254611a8e9190612aa5565b9250508190555061c35034611aa39190613074565b600160003373ffffffffffffffffffffffffffffffffffffffff1673ffffffffffffffffffffffffffffffffffffffff1681526020019081526020016000206000828254611af19190612aa5565b9250508190555050565b6000600260003373ffffffffffffffffffffffffffffffffffffffff1673ffffffffffffffffffffffffffffffffffffffff1681526020019081526020016000205414611b7d576040517f08c379a0000000000000000000000000000000000000000000000000000000008152600401611b7490613898565b60405180910390fd5b6064600160003373ffffffffffffffffffffffffffffffffffffffff1673ffffffffffffffffffffffffffffffffffffffff168152602001908152602001600020541015611c00576040517f08c379a0000000000000000000000000000000000000000000000000000000008152600401611bf790613950565b60405180910390fd5b6706f05b59d3b200003411611c4a576040517f08c379a0000000000000000000000000000000000000000000000000000000008152600401611c41906139e2565b60405180910390fd5b34600260003373ffffffffffffffffffffffffffffffffffffffff1673ffffffffffffffffffffffffffffffffffffffff16815260200190815260200160002081905550565b6000600260003373ffffffffffffffffffffffffffffffffffffffff1673ffffffffffffffffffffffffffffffffffffffff1681526020019081526020016000205411611d12576040517f08c379a0000000000000000000000000000000000000000000000000000000008152600401611d0990612c85565b60405180910390fd5b60006005811115611d2657611d256126e5565b5b60008381548110611d3a57611d39612a76565b5b906000526020600020906008020160020160009054906101000a900460ff166005811115611d6b57611d6a6126e5565b5b14611dab576040517f08c379a0000000000000000000000000000000000000000000000000000000008152600401611da290613a74565b60405180910390fd5b611dc733600360008581526020019081526020016000206123ca565b15611e07576040517f08c379a0000000000000000000000000000000000000000000000000000000008152600401611dfe90612da9565b60405180910390fd5b611e2333600460008581526020019081526020016000206123ca565b15611e63576040517f08c379a0000000000000000000000000000000000000000000000000000000008152600401611e5a90612e3b565b60405180910390fd5b8015611ee25760036000838152602001908152602001600020339080600181540180825580915050600190039060005260206000200160009091909190916101000a81548173ffffffffffffffffffffffffffffffffffffffff021916908373ffffffffffffffffffffffffffffffffffffffff160217905550611f57565b60046000838152602001908152602001600020339080600181540180825580915050600190039060005260206000200160009091909190916101000a81548173ffffffffffffffffffffffffffffffffffffffff021916908373ffffffffffffffffffffffffffffffffffffffff1602179055505b5050565b60005b600360008381526020019081526020016000208054905081101561215d576000600360008481526020019081526020016000208281548110611fa357611fa2612a76565b5b9060005260206000200160009054906101000a900473ffffffffffffffffffffffffffffffffffffffff1690506203d090600260008373ffffffffffffffffffffffffffffffffffffffff1673ffffffffffffffffffffffffffffffffffffffff16815260200190815260200160002060008282546120229190612a42565b9250508190555066b1a2bc2ec50000600260008373ffffffffffffffffffffffffffffffffffffffff1673ffffffffffffffffffffffffffffffffffffffff1681526020019081526020016000205410156121495760008190508073ffffffffffffffffffffffffffffffffffffffff166108fc600260008573ffffffffffffffffffffffffffffffffffffffff1673ffffffffffffffffffffffffffffffffffffffff168152602001908152602001600020549081150290604051600060405180830381858888f19350505050158015612101573d6000803e3d6000fd5b506000600260008473ffffffffffffffffffffffffffffffffffffffff1673ffffffffffffffffffffffffffffffffffffffff16815260200190815260200160002081905550505b508080612155906135f7565b915050611f5e565b5050565b60005b60076000838152602001908152602001600020805490508110156122415760006003600084815260200190815260200160002082815481106121a9576121a8612a76565b5b9060005260206000200160009054906101000a900473ffffffffffffffffffffffffffffffffffffffff1690506002600160008373ffffffffffffffffffffffffffffffffffffffff1673ffffffffffffffffffffffffffffffffffffffff16815260200190815260200160002060008282546122269190612aa5565b92505081905550508080612239906135f7565b915050612164565b5050565b600080828154811061225a57612259612a76565b5b90600052602060002090600802016003015460646000848154811061228257612281612a76565b5b90600052602060002090600802016004015461229e9190612feb565b6122a89190613074565b9050600581116122b857506123c7565b60005b60036000848152602001908152602001600020805490508110156123c4576000600360008581526020019081526020016000208281548110612300576122ff612a76565b5b9060005260206000200160009054906101000a900473ffffffffffffffffffffffffffffffffffffffff16905060036000858152602001908152602001600020805490508360646123519190612a42565b61235b9190613074565b600260008373ffffffffffffffffffffffffffffffffffffffff1673ffffffffffffffffffffffffffffffffffffffff16815260200190815260200160002060008282546123a99190612aa5565b925050819055505080806123bc906135f7565b9150506122bb565b50505b50565b600080600090505b828054905081101561246b578373ffffffffffffffffffffffffffffffffffffffff1683828154811061240857612407612a76565b5b9060005260206000200160009054906101000a900473ffffffffffffffffffffffffffffffffffffffff1673ffffffffffffffffffffffffffffffffffffffff1603612458576001915050612471565b8080612463906135f7565b9150506123d2565b50600090505b92915050565b50805460008255906000526020600020908101906124959190612509565b50565b604051806101000160405280600073ffffffffffffffffffffffffffffffffffffffff16815260200160008152602001600060058111156124dc576124db6126e5565b5b815260200160008152602001600081526020016000815260200160008152602001600061ffff1681525090565b5b8082111561252257600081600090555060010161250a565b5090565b600080fd5b600073ffffffffffffffffffffffffffffffffffffffff82169050919050565b60006125568261252b565b9050919050565b6125668161254b565b811461257157600080fd5b50565b6000813590506125838161255d565b92915050565b60006020828403121561259f5761259e612526565b5b60006125ad84828501612574565b91505092915050565b6000819050919050565b6125c9816125b6565b82525050565b60006020820190506125e460008301846125c0565b92915050565b6125f38161254b565b82525050565b600060208201905061260e60008301846125ea565b92915050565b61261d816125b6565b811461262857600080fd5b50565b60008135905061263a81612614565b92915050565b60008115159050919050565b61265581612640565b811461266057600080fd5b50565b6000813590506126728161264c565b92915050565b6000806040838503121561268f5761268e612526565b5b600061269d8582860161262b565b92505060206126ae85828601612663565b9150509250929050565b6000602082840312156126ce576126cd612526565b5b60006126dc8482850161262b565b91505092915050565b7f4e487b7100000000000000000000000000000000000000000000000000000000600052602160045260246000fd5b60068110612725576127246126e5565b5b50565b600081905061273682612714565b919050565b600061274682612728565b9050919050565b6127568161273b565b82525050565b600061ffff82169050919050565b6127738161275c565b82525050565b60006101008201905061278f600083018b6125ea565b61279c602083018a6125c0565b6127a9604083018961274d565b6127b660608301886125c0565b6127c360808301876125c0565b6127d060a08301866125c0565b6127dd60c08301856125c0565b6127ea60e083018461276a565b9998505050505050505050565b6128008161275c565b811461280b57600080fd5b50565b60008135905061281d816127f7565b92915050565b6000806040838503121561283a57612839612526565b5b60006128488582860161262b565b92505060206128598582860161280e565b9150509250929050565b600081519050919050565b600082825260208201905092915050565b6000819050602082019050919050565b6128988161254b565b82525050565b6128a7816125b6565b82525050565b6128b68161273b565b82525050565b6128c58161275c565b82525050565b610100820160008201516128e2600085018261288f565b5060208201516128f5602085018261289e565b50604082015161290860408501826128ad565b50606082015161291b606085018261289e565b50608082015161292e608085018261289e565b5060a082015161294160a085018261289e565b5060c082015161295460c085018261289e565b5060e082015161296760e08501826128bc565b50505050565b600061297983836128cb565b6101008301905092915050565b6000602082019050919050565b600061299e82612863565b6129a8818561286e565b93506129b38361287f565b8060005b838110156129e45781516129cb888261296d565b97506129d683612986565b9250506001810190506129b7565b5085935050505092915050565b60006020820190508181036000830152612a0b8184612993565b905092915050565b7f4e487b7100000000000000000000000000000000000000000000000000000000600052601160045260246000fd5b6000612a4d826125b6565b9150612a58836125b6565b925082821015612a6b57612a6a612a13565b5b828203905092915050565b7f4e487b7100000000000000000000000000000000000000000000000000000000600052603260045260246000fd5b6000612ab0826125b6565b9150612abb836125b6565b9250827fffffffffffffffffffffffffffffffffffffffffffffffffffffffffffffffff03821115612af057612aef612a13565b5b828201905092915050565b600062ffffff82169050919050565b6000612b1582612afb565b9150612b2083612afb565b92508162ffffff0483118215151615612b3c57612b3b612a13565b5b828202905092915050565b6000612b52826125b6565b915060008203612b6557612b64612a13565b5b600182039050919050565b600082825260208201905092915050565b7f596f752063616e6e6f74207465726d696e6174652074686520636f6e7472616360008201527f7421000000000000000000000000000000000000000000000000000000000000602082015250565b6000612bdd602283612b70565b9150612be882612b81565b604082019050919050565b60006020820190508181036000830152612c0c81612bd0565b9050919050565b7f596f7520617265206e6f742070617274206f662074686520537570657253616960008201527f79616e2053657421000000000000000000000000000000000000000000000000602082015250565b6000612c6f602883612b70565b9150612c7a82612c13565b604082019050919050565b60006020820190508181036000830152612c9e81612c62565b9050919050565b7f546865207370656369666965642063616d706169676e206973206e6f7420696e60008201527f207265766973696f6e2100000000000000000000000000000000000000000000602082015250565b6000612d01602a83612b70565b9150612d0c82612ca5565b604082019050919050565b60006020820190508181036000830152612d3081612cf4565b9050919050565b7f596f75206861766520616c726561647920617070726f7665642074686973206360008201527f616d706169676e00000000000000000000000000000000000000000000000000602082015250565b6000612d93602783612b70565b9150612d9e82612d37565b604082019050919050565b60006020820190508181036000830152612dc281612d86565b9050919050565b7f596f75206861766520616c726561647920646973617070726f7665642074686960008201527f732063616d706169676e00000000000000000000000000000000000000000000602082015250565b6000612e25602a83612b70565b9150612e3082612dc9565b604082019050919050565b60006020820190508181036000830152612e5481612e18565b9050919050565b7f546865207370656369666965642063616d706169676e20646f6573206e6f742060008201527f6578697374000000000000000000000000000000000000000000000000000000602082015250565b6000612eb7602583612b70565b9150612ec282612e5b565b604082019050919050565b60006020820190508181036000830152612ee681612eaa565b9050919050565b7f546865207370656369666965642063616d706169676e206973206e6f7420616360008201527f7469766500000000000000000000000000000000000000000000000000000000602082015250565b6000612f49602483612b70565b9150612f5482612eed565b604082019050919050565b60006020820190508181036000830152612f7881612f3c565b9050919050565b7f596f75206d7573742068617665206174206c6561737420312044535400000000600082015250565b6000612fb5601c83612b70565b9150612fc082612f7f565b602082019050919050565b60006020820190508181036000830152612fe481612fa8565b9050919050565b6000612ff6826125b6565b9150613001836125b6565b9250817fffffffffffffffffffffffffffffffffffffffffffffffffffffffffffffffff048311821515161561303a57613039612a13565b5b828202905092915050565b7f4e487b7100000000000000000000000000000000000000000000000000000000600052601260045260246000fd5b600061307f826125b6565b915061308a836125b6565b92508261309a57613099613045565b5b828204905092915050565b7f596f75206861766520746f206465706f736974203525206f662074686520776560008201527f694c696d69742100000000000000000000000000000000000000000000000000602082015250565b6000613101602783612b70565b915061310c826130a5565b604082019050919050565b60006020820190508181036000830152613130816130f4565b9050919050565b7f54686520646f6e6174696f6e206c696d6974206d75737420626520677265617460008201527f6572207468616e20300000000000000000000000000000000000000000000000602082015250565b6000613193602983612b70565b915061319e82613137565b604082019050919050565b600060208201905081810360008301526131c281613186565b9050919050565b7f5468652063616d706169676e206475726174696f6e202865787072657373656460008201527f20696e207765656b7329206d7573742062652067726561746572207468616e2060208201527f3000000000000000000000000000000000000000000000000000000000000000604082015250565b600061324b604183612b70565b9150613256826131c9565b606082019050919050565b6000602082019050818103600083015261327a8161323e565b9050919050565b7f57696e646f772073697a65206d7573742062652067726561746572207468616e60008201527f2030000000000000000000000000000000000000000000000000000000000000602082015250565b60006132dd602283612b70565b91506132e882613281565b604082019050919050565b6000602082019050818103600083015261330c816132d0565b9050919050565b6000819050919050565b600061332882613313565b915061333383613313565b9250827f7fffffffffffffffffffffffffffffffffffffffffffffffffffffffffffffff048211600084136000841316161561337257613371612a13565b5b817f800000000000000000000000000000000000000000000000000000000000000005831260008412600084131616156133af576133ae612a13565b5b827f800000000000000000000000000000000000000000000000000000000000000005821260008413600084121616156133ec576133eb612a13565b5b827f7fffffffffffffffffffffffffffffffffffffffffffffffffffffffffffffff058212600084126000841216161561342957613428612a13565b5b828202905092915050565b600061343f82613313565b915061344a83613313565b9250827f80000000000000000000000000000000000000000000000000000000000000000182126000841215161561348557613484612a13565b5b827f7fffffffffffffffffffffffffffffffffffffffffffffffffffffffffffffff0182136000841216156134bd576134bc612a13565b5b828203905092915050565b7f5468652077696e646f772073697a6520697320746f6f206c6172676500000000600082015250565b60006134fe601c83612b70565b9150613509826134c8565b602082019050919050565b6000602082019050818103600083015261352d816134f1565b9050919050565b600061353f82613313565b915061354a83613313565b9250817f7fffffffffffffffffffffffffffffffffffffffffffffffffffffffffffffff0383136000831215161561358557613584612a13565b5b817f80000000000000000000000000000000000000000000000000000000000000000383126000831216156135bd576135bc612a13565b5b828201905092915050565b7f4e487b7100000000000000000000000000000000000000000000000000000000600052604160045260246000fd5b6000613602826125b6565b91507fffffffffffffffffffffffffffffffffffffffffffffffffffffffffffffffff820361363457613633612a13565b5b600182019050919050565b7f546865206c696d697420666f7220746869732063616d706169676e206861732060008201527f6265656e20726561636865640000000000000000000000000000000000000000602082015250565b600061369b602c83612b70565b91506136a68261363f565b604082019050919050565b600060208201905081810360008301526136ca8161368e565b9050919050565b7f54686520646f6e6174696f6e206d75737420626520677265617465722074686160008201527f6e207a65726f0000000000000000000000000000000000000000000000000000602082015250565b600061372d602683612b70565b9150613738826136d1565b604082019050919050565b6000602082019050818103600083015261375c81613720565b9050919050565b600061376e826125b6565b9150613779836125b6565b92508261378957613788613045565b5b828206905092915050565b7f596f752063616e20646f6e617465206f6e6c79207573696e672073746570732060008201527f6f662035306b2077656900000000000000000000000000000000000000000000602082015250565b60006137f0602a83612b70565b91506137fb82613794565b604082019050919050565b6000602082019050818103600083015261381f816137e3565b9050919050565b7f596f752061726520616c72656164792070617274206f6620746865205375706560008201527f7253616979616e20536574210000000000000000000000000000000000000000602082015250565b6000613882602c83612b70565b915061388d82613826565b604082019050919050565b600060208201905081810360008301526138b181613875565b9050919050565b7f596f75206d75737420686f6c64206174206c656173742031303020445354207460008201527f6f206265636f6d652070617274206f662074686520537570657253616979616e60208201527f2053657421000000000000000000000000000000000000000000000000000000604082015250565b600061393a604583612b70565b9150613945826138b8565b606082019050919050565b600060208201905081810360008301526139698161392d565b9050919050565b7f596f75206861766520746f206465706f736974206174206c6561737420302e3560008201527f2045544820746f206265636f6d65206120537570657253616979616e21000000602082015250565b60006139cc603d83612b70565b91506139d782613970565b604082019050919050565b600060208201905081810360008301526139fb816139bf565b9050919050565b7f546865207370656369666965642063616d706169676e206973206e6f7420706560008201527f6e64696e67210000000000000000000000000000000000000000000000000000602082015250565b6000613a5e602683612b70565b9150613a6982613a02565b604082019050919050565b60006020820190508181036000830152613a8d81613a51565b905091905056fea264697066735822122037b00d6f8a57316244727f4c660dc81fee21aaec543d04f6702ede852fb4bfea64736f6c634300080d0033",
  "immutableReferences": {},
  "source": "// SPDX-License-Identifier: MIT\npragma solidity ^0.8.0;\n\n/**\n * @title DragonBlock Smart Contract\n * @dev A decentralized crowdfunding platform where users can create campaigns, donate, and vote using SuperSaiyan (SSJ) tokens.\n */\ncontract DragonBlock {\n\n    // Enum to represent different statuses of a campaign\n    enum CampaignStatus {\n        PENDING,\n        ACTIVE,\n        DISAPPROVED,\n        REVISION,\n        BANNED,\n        ENDED\n    }\n\n    // Struct to represent a campaign\n    struct Campaign {\n        address owner;          // Address of the campaign owner\n        uint256 id;             // Unique identifier for the campaign\n        CampaignStatus status;  // Current status of the campaign\n        uint256 weiLimit;       // Maximum amount of ETH that can be donated to the campaign\n        uint256 donatedWei;     // Total ETH donated to the campaign\n        uint256 creationTime;   // Timestamp when the campaign was created\n        uint256 revisionTime;   // Timestamp when the campaign entered the revision state\n        uint16 weekDuration;    // Duration of the campaign in weeks\n    }\n\n    event CampaignCreation(uint256 campaignId);\n\n    // Array to store all campaigns\n    Campaign[] public campaigns;\n\n    // Mapping to track DST balances of users\n    mapping(address => uint) public dstBalances;\n\n    // Mapping to track users who are part of the SuperSaiyan Set\n    mapping(address => uint256) public ssjVaults;\n\n    // Mapping to store addresses that approved or disapproved a campaign\n    mapping(uint256 => address[]) private campaignApprovals;\n    mapping(uint256 => address[]) private campaignDisapprovals;\n\n    // Mapping to store addresses that approved or disapproved a revisioned campaign\n    mapping(uint256 => address[]) private campaignRevisionApprovals;\n    mapping(uint256 => address[]) private campaignRevisionDisapprovals;\n\n    // Mapping to store addresses that reported a campaign\n    mapping(uint256 => address[]) private campaignReports;\n\n    // Address of the contract creator\n    address public minter;\n\n    /**\n     * @dev Constructor to initialize the contract\n     */\n    constructor() {\n        minter = msg.sender; // Initialize DST balance for a default address\n        dstBalances[0x5B38Da6a701c568545dCfcB03FcB875f56beddC4] = 200;\n    }\n\n    /**\n     * @dev Private function to check if an address is in an array\n     * @param _address The address to check\n     * @param _listOfAddresses The array of addresses to search\n     * @return Whether the address is in the array or not\n     */\n    function addressInArray(address _address, address[] storage _listOfAddresses) private view returns(bool) {\n        for (uint i = 0; i < _listOfAddresses.length; i++) {\n            if (_listOfAddresses[i] == _address) {\n                return true;\n            }\n        }\n        return false;\n    }\n\n    /**\n     * @dev Private function to slash SSJ users' funds\n     * @param _campaignID The ID of the campaign\n     */\n    function slashSSJUsers(uint256 _campaignID) private {\n        for (uint i = 0; i < campaignApprovals[_campaignID].length; i++) {\n            address slashedUser = campaignApprovals[_campaignID][i];\n            ssjVaults[slashedUser] -= 250000;\n            if (ssjVaults[slashedUser] < 0.05 ether) {\n                // If the SSJ User has less than 10% of the starting needed ETH\n                address payable user = payable(slashedUser);\n                user.transfer(ssjVaults[slashedUser]);\n                ssjVaults[slashedUser] = 0;\n            }\n        }\n    }\n\n    /**\n     * @dev Private function to reward SSJ users based on campaign donation percentage\n     * @param _campaignID The ID of the campaign\n     */\n    function rewardSSJUsers(uint256 _campaignID) private {\n        uint percentage = campaigns[_campaignID].donatedWei * 100 / campaigns[_campaignID].weiLimit;\n        if (percentage <= 5) {\n            return;\n        }\n\n        for (uint i = 0; i < campaignApprovals[_campaignID].length; i++) {\n            address rewardedUser = campaignApprovals[_campaignID][i];\n            ssjVaults[rewardedUser] += (100 - percentage) / campaignApprovals[_campaignID].length;\n        }\n    }\n\n    /**\n     * @dev Private function to reward users who reported a campaign\n     * @param _campaignID The ID of the campaign\n     */\n    function rewardReporters(uint256 _campaignID) private {\n        for (uint i = 0; i < campaignReports[_campaignID].length; i++) {\n            address rewardedUser = campaignApprovals[_campaignID][i];\n            dstBalances[rewardedUser] += 2;\n        }\n    }\n\n    /**\n     * @dev Public function to create a new campaign\n     * @param _weiLimit Maximum amount of ETH that can be donated to the campaign\n     * @param _weekDuration Duration of the campaign in weeks\n     */\n    function createCampaign(uint256 _weiLimit, uint16 _weekDuration) public payable {\n        require(msg.value == _weiLimit * 5 / 100, \"You have to deposit 5% of the weiLimit!\");\n        require(_weiLimit > 0, \"The donation limit must be greater than 0\");\n        require(_weekDuration > 0, \"The campaign duration (expressed in weeks) must be greater than 0\");\n\n        campaigns.push(\n            Campaign({\n                owner: msg.sender,\n                id: campaigns.length,\n                status: CampaignStatus.PENDING,\n                weiLimit: _weiLimit,\n                donatedWei: 0,\n                creationTime: block.timestamp,\n                revisionTime: 0,\n                weekDuration: _weekDuration\n            })\n        );\n\n        emit CampaignCreation(campaigns.length-1);\n    }\n\n    // Function to get a window of 20 elements starting from the last one\n    function getCampaigns(uint256 _campaignWindow) public view returns (Campaign[] memory) {\n        require(_campaignWindow > 0, \"Window size must be greater than 0\");\n        require(int256(campaigns.length) - int256(_campaignWindow-1) * 20 >= 0, \"The window size is too large\");\n\n        // Calculate the starting index for the window\n        int256 startIndex = int256(campaigns.length) - int256(_campaignWindow) * 20;\n        if (startIndex < 0) {\n            startIndex = 0;\n        }\n\n        // Calculate the actual number of elements to include in the result\n        uint256 numElements = uint256(startIndex + 20) <= campaigns.length ? 20 : campaigns.length - uint256(startIndex);\n\n        // Create a memory array to store the window of elements\n        Campaign[] memory result = new Campaign[](numElements);\n\n        // Use a loop to copy the elements to the result array\n        for (uint256 i = 0; i < numElements; i++) {\n            result[i] = campaigns[uint256(startIndex + int256(i))];\n        }\n\n        return result;\n    }\n\n\n    /**\n     * @dev Public function to donate to an active campaign\n     * @param _id The ID of the campaign\n     */\n    function donateCampaign(uint256 _id) public payable {\n        require(_id < campaigns.length, \"The specified campaign does not exist\");\n        require(campaigns[_id].status == CampaignStatus.ACTIVE, \"The specified campaign is not active\");\n        require(campaigns[_id].weiLimit - campaigns[_id].donatedWei - msg.value >= 0, \"The limit for this campaign has been reached\");\n        require(msg.value > 0, \"The donation must be greater than zero\");\n        require(msg.value % 50000 == 0, \"You can donate only using steps of 50k wei\");\n\n        campaigns[_id].donatedWei += msg.value; // Update the campaign's donatedWei field\n        dstBalances[msg.sender] += msg.value / 50000;\n    }\n\n    /**\n     * @dev Public function to report a campaign\n     * @param _id The ID of the campaign\n     */\n    function reportCampaign(uint256 _id) public {\n        require(_id < campaigns.length, \"The specified campaign does not exist\");\n        require(campaigns[_id].status == CampaignStatus.ACTIVE, \"The specified campaign is not active\");\n        require(dstBalances[msg.sender] > 0, \"You must have at least 1 DST\");\n\n        dstBalances[msg.sender] -= 1;\n        campaignReports[_id].push(msg.sender);\n\n        if (campaignReports[_id].length > 1) {\n            // More than 100 reports, then the campaign is put in revision state\n            campaigns[_id].status = CampaignStatus.REVISION;\n            campaigns[_id].revisionTime = block.timestamp;\n        }\n    }\n\n    /**\n     * @dev Public function for SSJ users to vote (approve or disapprove) a pending campaign\n     * @param _id The ID of the campaign\n     * @param _approval Whether the user approves or disapproves the campaign\n     */\n    function voteForCampaign(uint256 _id, bool _approval) public {\n        require(ssjVaults[msg.sender] > 0, \"You are not part of the SuperSaiyan Set!\");\n        require(campaigns[_id].status == CampaignStatus.PENDING, \"The specified campaign is not pending!\");\n        require(!addressInArray(msg.sender, campaignApprovals[_id]), \"You have already approved this campaign\");\n        require(!addressInArray(msg.sender, campaignDisapprovals[_id]), \"You have already disapproved this campaign\");\n\n        // Record the approval or disapproval vote\n        if (_approval) {\n            campaignApprovals[_id].push(msg.sender);\n        } else {\n            campaignDisapprovals[_id].push(msg.sender);\n        }\n    }\n\n    /**\n     * @dev Public function to finalize pending campaigns based on votes after 7 days\n     */\n    function finalizeCampaigns() public {\n        for (uint id = campaigns.length; id > 0; id--) {\n            if (campaigns[id - 1].status == CampaignStatus.PENDING && block.timestamp >= campaigns[id - 1].creationTime + 0 days) {\n                // Check if the voting period has ended\n                if (campaignApprovals[id - 1].length > campaignDisapprovals[id - 1].length) {\n                    campaigns[id - 1].status = CampaignStatus.ACTIVE;\n                } else {\n                    campaigns[id - 1].status = CampaignStatus.DISAPPROVED;\n                }\n            }\n\n            if (campaigns[id - 1].status == CampaignStatus.REVISION && block.timestamp >= campaigns[id - 1].revisionTime + 0 days) {\n                // Check if the voting period has ended\n                if (campaignRevisionApprovals[id - 1].length > campaignRevisionDisapprovals[id - 1].length) {\n                    campaigns[id - 1].status = CampaignStatus.ACTIVE;\n                    campaigns[id - 1].revisionTime = 0;\n                    delete campaignRevisionApprovals[id - 1];\n                    delete campaignRevisionDisapprovals[id - 1];\n                } else {\n                    campaigns[id - 1].status = CampaignStatus.BANNED;\n                    slashSSJUsers(id - 1);\n                    rewardReporters(id - 1);\n                }\n            }\n\n            if (campaigns[id - 1].status == CampaignStatus.ACTIVE &&\n                (block.timestamp >= campaigns[id - 1].creationTime + campaigns[id - 1].weekDuration * 1 weeks ||\n                 campaigns[id - 1].donatedWei == campaigns[id - 1].weiLimit)) {\n                campaigns[id - 1].status = CampaignStatus.ENDED;\n                rewardSSJUsers(id - 1);\n\n                address payable campaignOwner = payable(campaigns[id - 1].owner);\n                campaignOwner.transfer(campaigns[id - 1].donatedWei);\n            }\n        }\n    }\n\n    /**\n     * @dev Public function for SSJ users to vote (approve or disapprove) a revisioned campaign\n     * @param _id The ID of the campaign\n     * @param _approval Whether the user approves or disapproves the campaign\n     */\n    function revisionCampaign(uint256 _id, bool _approval) public {\n        require(ssjVaults[msg.sender] > 0, \"You are not part of the SuperSaiyan Set!\");\n        require(campaigns[_id].status == CampaignStatus.REVISION, \"The specified campaign is not in revision!\");\n        require(!addressInArray(msg.sender, campaignRevisionApprovals[_id]), \"You have already approved this campaign\");\n        require(!addressInArray(msg.sender, campaignRevisionDisapprovals[_id]), \"You have already disapproved this campaign\");\n\n        // Record the approval or disapproval vote\n        if (_approval) {\n            campaignRevisionApprovals[_id].push(msg.sender);\n        } else {\n            campaignRevisionDisapprovals[_id].push(msg.sender);\n        }\n    }\n\n    /**\n     * @dev Public function for users to become part of the SuperSaiyan Set\n     */\n    function becomeSSJ() public payable {\n        require(ssjVaults[msg.sender] == 0, \"You are already part of the SuperSaiyan Set!\");\n        require(dstBalances[msg.sender] >= 100, \"You must hold at least 100 DST to become part of the SuperSaiyan Set!\");\n        require(msg.value > 0.5 ether, \"You have to deposit at least 0.5 ETH to become a SuperSaiyan!\");\n\n        ssjVaults[msg.sender] = msg.value;\n    }\n\n    /**\n     * @dev Public function for users to exit the SuperSaiyan Set and become a normal user\n     */\n    function becomeNormalUser() public {\n        require(ssjVaults[msg.sender] > 0, \"You are not part of the SuperSaiyan Set!\");\n\n        address payable user = payable(msg.sender);\n        user.transfer(ssjVaults[msg.sender]);\n        ssjVaults[msg.sender] = 0;\n    }\n\n    /**\n     * @dev Public function for the contract creator to terminate the contract and withdraw funds\n     */\n    function terminate() public {\n        require(msg.sender == minter, \"You cannot terminate the contract!\");\n        payable(minter).transfer(address(this).balance);\n    }\n}\n",
  "sourcePath": "/ContainerFiles/contracts/DragonBlock.sol",
  "compiler": {
    "name": "solc",
    "version": "0.8.13+commit.abaa5c0e.Emscripten.clang"
  },
  "schemaVersion": "3.4.16",
  "updatedAt": "2023-12-27T19:55:27.360Z",
  "networkType": "ethereum",
  "devdoc": {
    "details": "A decentralized crowdfunding platform where users can create campaigns, donate, and vote using SuperSaiyan (SSJ) tokens.",
    "kind": "dev",
    "methods": {
      "becomeNormalUser()": {
        "details": "Public function for users to exit the SuperSaiyan Set and become a normal user"
      },
      "becomeSSJ()": {
        "details": "Public function for users to become part of the SuperSaiyan Set"
      },
      "constructor": {
        "details": "Constructor to initialize the contract"
      },
      "createCampaign(uint256,uint16)": {
        "details": "Public function to create a new campaign",
        "params": {
          "_weekDuration": "Duration of the campaign in weeks",
          "_weiLimit": "Maximum amount of ETH that can be donated to the campaign"
        }
      },
      "donateCampaign(uint256)": {
        "details": "Public function to donate to an active campaign",
        "params": {
          "_id": "The ID of the campaign"
        }
      },
      "finalizeCampaigns()": {
        "details": "Public function to finalize pending campaigns based on votes after 7 days"
      },
      "reportCampaign(uint256)": {
        "details": "Public function to report a campaign",
        "params": {
          "_id": "The ID of the campaign"
        }
      },
      "revisionCampaign(uint256,bool)": {
        "details": "Public function for SSJ users to vote (approve or disapprove) a revisioned campaign",
        "params": {
          "_approval": "Whether the user approves or disapproves the campaign",
          "_id": "The ID of the campaign"
        }
      },
      "terminate()": {
        "details": "Public function for the contract creator to terminate the contract and withdraw funds"
      },
      "voteForCampaign(uint256,bool)": {
        "details": "Public function for SSJ users to vote (approve or disapprove) a pending campaign",
        "params": {
          "_approval": "Whether the user approves or disapproves the campaign",
          "_id": "The ID of the campaign"
        }
      }
    },
    "title": "DragonBlock Smart Contract",
    "version": 1
  },
  "userdoc": {
    "kind": "user",
    "methods": {},
    "version": 1
  }
}