{
  "contractName": "DragonBlockOracle",
  "abi": [
    {
      "inputs": [],
      "stateMutability": "nonpayable",
      "type": "constructor"
    },
    {
      "anonymous": false,
      "inputs": [
        {
          "indexed": false,
          "internalType": "address",
          "name": "",
          "type": "address"
        },
        {
          "indexed": false,
          "internalType": "uint256",
          "name": "",
          "type": "uint256"
        }
      ],
      "name": "UserVerification",
      "type": "event"
    },
    {
      "inputs": [],
      "name": "minter",
      "outputs": [
        {
          "internalType": "address",
          "name": "",
          "type": "address"
        }
      ],
      "stateMutability": "view",
      "type": "function",
      "constant": true
    },
    {
      "inputs": [
        {
          "internalType": "uint256",
          "name": "",
          "type": "uint256"
        }
      ],
      "name": "requests",
      "outputs": [
        {
          "internalType": "bool",
          "name": "done",
          "type": "bool"
        },
        {
          "internalType": "uint256",
          "name": "yesVote",
          "type": "uint256"
        },
        {
          "internalType": "uint256",
          "name": "noVote",
          "type": "uint256"
        },
        {
          "internalType": "address",
          "name": "userToVerify",
          "type": "address"
        },
        {
          "internalType": "address",
          "name": "callerContract",
          "type": "address"
        }
      ],
      "stateMutability": "view",
      "type": "function",
      "constant": true
    },
    {
      "inputs": [
        {
          "internalType": "address",
          "name": "_userAddress",
          "type": "address"
        },
        {
          "internalType": "address",
          "name": "_callerContract",
          "type": "address"
        }
      ],
      "name": "verifyUser",
      "outputs": [],
      "stateMutability": "nonpayable",
      "type": "function"
    },
    {
      "inputs": [
        {
          "internalType": "uint256",
          "name": "_requestId",
          "type": "uint256"
        },
        {
          "internalType": "bool",
          "name": "_vote",
          "type": "bool"
        }
      ],
      "name": "vote",
      "outputs": [],
      "stateMutability": "nonpayable",
      "type": "function"
    }
  ],
  "bytecode": "0x608060405234801561001057600080fd5b5033600360006101000a81548173ffffffffffffffffffffffffffffffffffffffff021916908373ffffffffffffffffffffffffffffffffffffffff16021790555060016000803373ffffffffffffffffffffffffffffffffffffffff1673ffffffffffffffffffffffffffffffffffffffff16815260200190815260200160002060006101000a81548160ff021916908315150217905550610b8c806100b86000396000f3fe608060405234801561001057600080fd5b506004361061004c5760003560e01c8063075461721461005157806381d12c581461006f578063c9d27afe146100a3578063f3b9025c146100bf575b600080fd5b6100596100db565b6040516100669190610784565b60405180910390f35b610089600480360381019061008491906107da565b610101565b60405161009a959493929190610831565b60405180910390f35b6100bd60048036038101906100b891906108b0565b610194565b005b6100d960048036038101906100d4919061091c565b6105ae565b005b600360009054906101000a900473ffffffffffffffffffffffffffffffffffffffff1681565b6002818154811061011157600080fd5b90600052602060002090600502016000915090508060000160009054906101000a900460ff16908060010154908060020154908060030160009054906101000a900473ffffffffffffffffffffffffffffffffffffffff16908060040160009054906101000a900473ffffffffffffffffffffffffffffffffffffffff16905085565b6000600283815481106101aa576101a961095c565b5b906000526020600020906005020190506000803373ffffffffffffffffffffffffffffffffffffffff1673ffffffffffffffffffffffffffffffffffffffff16815260200190815260200160002060009054906101000a900460ff16610245576040517f08c379a000000000000000000000000000000000000000000000000000000000815260040161023c906109e8565b60405180910390fd5b6001600084815260200190815260200160002060003373ffffffffffffffffffffffffffffffffffffffff1673ffffffffffffffffffffffffffffffffffffffff16815260200190815260200160002060009054906101000a900460ff16156102e3576040517f08c379a00000000000000000000000000000000000000000000000000000000081526004016102da90610a54565b60405180910390fd5b8060000160009054906101000a900460ff166105a957600180600085815260200190815260200160002060003373ffffffffffffffffffffffffffffffffffffffff1673ffffffffffffffffffffffffffffffffffffffff16815260200190815260200160002060006101000a81548160ff021916908315150217905550811561038857600181600101600082825461037c9190610aa3565b925050819055506103a5565b600181600201600082825461039d9190610aa3565b925050819055505b60018160010154106105035760016000808360030160009054906101000a900473ffffffffffffffffffffffffffffffffffffffff1673ffffffffffffffffffffffffffffffffffffffff1673ffffffffffffffffffffffffffffffffffffffff16815260200190815260200160002060006101000a81548160ff02191690831515021790555060018160000160006101000a81548160ff02191690831515021790555060008160040160009054906101000a900473ffffffffffffffffffffffffffffffffffffffff1690508073ffffffffffffffffffffffffffffffffffffffff16635f52fdcd8360030160009054906101000a900473ffffffffffffffffffffffffffffffffffffffff166040518263ffffffff1660e01b81526004016104cf9190610784565b600060405180830381600087803b1580156104e957600080fd5b505af11580156104fd573d6000803e3d6000fd5b50505050505b60018160020154106105a85760008060008360030160009054906101000a900473ffffffffffffffffffffffffffffffffffffffff1673ffffffffffffffffffffffffffffffffffffffff1673ffffffffffffffffffffffffffffffffffffffff16815260200190815260200160002060006101000a81548160ff02191690831515021790555060018160000160006101000a81548160ff0219169083151502179055505b5b505050565b60026040518060a0016040528060001515815260200160008152602001600081526020018473ffffffffffffffffffffffffffffffffffffffff1681526020018373ffffffffffffffffffffffffffffffffffffffff16815250908060018154018082558091505060019003906000526020600020906005020160009091909190915060008201518160000160006101000a81548160ff021916908315150217905550602082015181600101556040820151816002015560608201518160030160006101000a81548173ffffffffffffffffffffffffffffffffffffffff021916908373ffffffffffffffffffffffffffffffffffffffff16021790555060808201518160040160006101000a81548173ffffffffffffffffffffffffffffffffffffffff021916908373ffffffffffffffffffffffffffffffffffffffff16021790555050507fbaf2b2dda2f8c816e147ef59048dc720c9f073980b2836a8da968909778283648260016002805490506107299190610af9565b604051610737929190610b2d565b60405180910390a15050565b600073ffffffffffffffffffffffffffffffffffffffff82169050919050565b600061076e82610743565b9050919050565b61077e81610763565b82525050565b60006020820190506107996000830184610775565b92915050565b600080fd5b6000819050919050565b6107b7816107a4565b81146107c257600080fd5b50565b6000813590506107d4816107ae565b92915050565b6000602082840312156107f0576107ef61079f565b5b60006107fe848285016107c5565b91505092915050565b60008115159050919050565b61081c81610807565b82525050565b61082b816107a4565b82525050565b600060a0820190506108466000830188610813565b6108536020830187610822565b6108606040830186610822565b61086d6060830185610775565b61087a6080830184610775565b9695505050505050565b61088d81610807565b811461089857600080fd5b50565b6000813590506108aa81610884565b92915050565b600080604083850312156108c7576108c661079f565b5b60006108d5858286016107c5565b92505060206108e68582860161089b565b9150509250929050565b6108f981610763565b811461090457600080fd5b50565b600081359050610916816108f0565b92915050565b600080604083850312156109335761093261079f565b5b600061094185828601610907565b925050602061095285828601610907565b9150509250929050565b7f4e487b7100000000000000000000000000000000000000000000000000000000600052603260045260246000fd5b600082825260208201905092915050565b7f596f7520617265206e6f74206120766572696669656420757365722100000000600082015250565b60006109d2601c8361098b565b91506109dd8261099c565b602082019050919050565b60006020820190508181036000830152610a01816109c5565b9050919050565b7f596f75206861766520616c726561647920766f74656421000000000000000000600082015250565b6000610a3e60178361098b565b9150610a4982610a08565b602082019050919050565b60006020820190508181036000830152610a6d81610a31565b9050919050565b7f4e487b7100000000000000000000000000000000000000000000000000000000600052601160045260246000fd5b6000610aae826107a4565b9150610ab9836107a4565b9250827fffffffffffffffffffffffffffffffffffffffffffffffffffffffffffffffff03821115610aee57610aed610a74565b5b828201905092915050565b6000610b04826107a4565b9150610b0f836107a4565b925082821015610b2257610b21610a74565b5b828203905092915050565b6000604082019050610b426000830185610775565b610b4f6020830184610822565b939250505056fea2646970667358221220e6362fba0ceb1f6289741c81d3e86fa0d5985480ff913e26a4fb6fbc5b2d0c4064736f6c634300080d0033",
  "immutableReferences": {},
  "source": "// SPDX-License-Identifier: MIT\npragma solidity ^0.8.0;\n\nimport \"./UsingOracle.sol\";\n\ncontract DragonBlockOracle {\n    \n    struct OracleRequest {\n        bool done;\n        uint256 yesVote;\n        uint256 noVote;\n        address userToVerify;\n        address callerContract;\n    }\n\n    mapping(address => bool) private verifiedUsers;\n    \n    mapping(uint256 => mapping (address => bool)) voters;\n    \n    OracleRequest[] public requests;\n\n    event UserVerification(address, uint256);\n\n    address public minter;\n\n    constructor() {\n        minter = msg.sender;\n        verifiedUsers[msg.sender] = true;\n    }\n\n    function verifyUser(address _userAddress, address _callerContract) public {\n\n        requests.push(OracleRequest({\n            done: false,\n            yesVote: 0,\n            noVote: 0,\n            userToVerify: _userAddress,\n            callerContract: _callerContract\n        }));\n\n        emit UserVerification(_userAddress, requests.length-1);\n    }\n\n    function vote(uint256 _requestId, bool _vote) public {\n\n        OracleRequest storage request = requests[_requestId];\n\n        require(verifiedUsers[msg.sender], \"You are not a verified user!\");\n        require(!voters[_requestId][msg.sender], \"You have already voted!\");\n        \n        if(!request.done) {\n\n            voters[_requestId][msg.sender] = true;\n            if(_vote) {\n                request.yesVote += 1;\n            } else {\n                request.noVote += 1;\n            }\n\n            if(request.yesVote >= 1) {\n                verifiedUsers[request.userToVerify] = true;\n                request.done = true;\n                UsingOracle caller = UsingOracle(request.callerContract);\n                caller._callback(request.userToVerify);\n            }\n\n            if(request.noVote >= 1) {\n                verifiedUsers[request.userToVerify] = false;\n                request.done = true;\n            }\n        }\n    }\n}",
  "sourcePath": "/ContainerFiles/contracts/DragonBlockOracle.sol",
  "compiler": {
    "name": "solc",
    "version": "0.8.13+commit.abaa5c0e.Emscripten.clang"
  },
  "schemaVersion": "3.4.16",
  "updatedAt": "2024-01-06T17:08:45.429Z",
  "networkType": "ethereum",
  "devdoc": {
    "kind": "dev",
    "methods": {},
    "version": 1
  },
  "userdoc": {
    "kind": "user",
    "methods": {},
    "version": 1
  }
}