{
  "contractName": "DragonBlock",
  "abi": [
    {
      "inputs": [],
      "stateMutability": "nonpayable",
      "type": "constructor"
    },
    {
      "anonymous": false,
      "inputs": [
        {
          "indexed": false,
          "internalType": "uint256",
          "name": "campaignId",
          "type": "uint256"
        }
      ],
      "name": "CampaignCreation",
      "type": "event"
    },
    {
      "inputs": [
        {
          "internalType": "uint256",
          "name": "",
          "type": "uint256"
        }
      ],
      "name": "campaigns",
      "outputs": [
        {
          "internalType": "address",
          "name": "owner",
          "type": "address"
        },
        {
          "internalType": "uint256",
          "name": "id",
          "type": "uint256"
        },
        {
          "internalType": "enum DragonBlock.CampaignStatus",
          "name": "status",
          "type": "uint8"
        },
        {
          "internalType": "uint256",
          "name": "weiLimit",
          "type": "uint256"
        },
        {
          "internalType": "uint256",
          "name": "donatedWei",
          "type": "uint256"
        },
        {
          "internalType": "uint256",
          "name": "creationTime",
          "type": "uint256"
        },
        {
          "internalType": "uint256",
          "name": "revisionTime",
          "type": "uint256"
        },
        {
          "internalType": "uint16",
          "name": "weekDuration",
          "type": "uint16"
        }
      ],
      "stateMutability": "view",
      "type": "function",
      "constant": true
    },
    {
      "inputs": [
        {
          "internalType": "address",
          "name": "",
          "type": "address"
        }
      ],
      "name": "dstBalances",
      "outputs": [
        {
          "internalType": "uint256",
          "name": "",
          "type": "uint256"
        }
      ],
      "stateMutability": "view",
      "type": "function",
      "constant": true
    },
    {
      "inputs": [],
      "name": "minter",
      "outputs": [
        {
          "internalType": "address",
          "name": "",
          "type": "address"
        }
      ],
      "stateMutability": "view",
      "type": "function",
      "constant": true
    },
    {
      "inputs": [
        {
          "internalType": "address",
          "name": "",
          "type": "address"
        }
      ],
      "name": "ssjVaults",
      "outputs": [
        {
          "internalType": "uint256",
          "name": "",
          "type": "uint256"
        }
      ],
      "stateMutability": "view",
      "type": "function",
      "constant": true
    },
    {
      "inputs": [
        {
          "internalType": "address",
          "name": "_user",
          "type": "address"
        }
      ],
      "name": "getUserCombactLvl",
      "outputs": [
        {
          "internalType": "uint256",
          "name": "",
          "type": "uint256"
        }
      ],
      "stateMutability": "view",
      "type": "function",
      "constant": true
    },
    {
      "inputs": [
        {
          "internalType": "uint256",
          "name": "_weiLimit",
          "type": "uint256"
        },
        {
          "internalType": "uint16",
          "name": "_weekDuration",
          "type": "uint16"
        }
      ],
      "name": "createCampaign",
      "outputs": [],
      "stateMutability": "payable",
      "type": "function",
      "payable": true
    },
    {
      "inputs": [
        {
          "internalType": "uint256",
          "name": "_campaignWindow",
          "type": "uint256"
        }
      ],
      "name": "getCampaigns",
      "outputs": [
        {
          "components": [
            {
              "internalType": "address",
              "name": "owner",
              "type": "address"
            },
            {
              "internalType": "uint256",
              "name": "id",
              "type": "uint256"
            },
            {
              "internalType": "enum DragonBlock.CampaignStatus",
              "name": "status",
              "type": "uint8"
            },
            {
              "internalType": "uint256",
              "name": "weiLimit",
              "type": "uint256"
            },
            {
              "internalType": "uint256",
              "name": "donatedWei",
              "type": "uint256"
            },
            {
              "internalType": "uint256",
              "name": "creationTime",
              "type": "uint256"
            },
            {
              "internalType": "uint256",
              "name": "revisionTime",
              "type": "uint256"
            },
            {
              "internalType": "uint16",
              "name": "weekDuration",
              "type": "uint16"
            }
          ],
          "internalType": "struct DragonBlock.Campaign[]",
          "name": "",
          "type": "tuple[]"
        }
      ],
      "stateMutability": "view",
      "type": "function",
      "constant": true
    },
    {
      "inputs": [
        {
          "internalType": "address",
          "name": "_owner",
          "type": "address"
        }
      ],
      "name": "getOwnedCampaigns",
      "outputs": [
        {
          "components": [
            {
              "internalType": "address",
              "name": "owner",
              "type": "address"
            },
            {
              "internalType": "uint256",
              "name": "id",
              "type": "uint256"
            },
            {
              "internalType": "enum DragonBlock.CampaignStatus",
              "name": "status",
              "type": "uint8"
            },
            {
              "internalType": "uint256",
              "name": "weiLimit",
              "type": "uint256"
            },
            {
              "internalType": "uint256",
              "name": "donatedWei",
              "type": "uint256"
            },
            {
              "internalType": "uint256",
              "name": "creationTime",
              "type": "uint256"
            },
            {
              "internalType": "uint256",
              "name": "revisionTime",
              "type": "uint256"
            },
            {
              "internalType": "uint16",
              "name": "weekDuration",
              "type": "uint16"
            }
          ],
          "internalType": "struct DragonBlock.Campaign[]",
          "name": "",
          "type": "tuple[]"
        }
      ],
      "stateMutability": "view",
      "type": "function",
      "constant": true
    },
    {
      "inputs": [],
      "name": "getTimestamp",
      "outputs": [
        {
          "internalType": "uint256",
          "name": "",
          "type": "uint256"
        }
      ],
      "stateMutability": "view",
      "type": "function",
      "constant": true
    },
    {
      "inputs": [
        {
          "internalType": "uint256",
          "name": "_id",
          "type": "uint256"
        }
      ],
      "name": "donateCampaign",
      "outputs": [],
      "stateMutability": "payable",
      "type": "function",
      "payable": true
    },
    {
      "inputs": [
        {
          "internalType": "uint256",
          "name": "_id",
          "type": "uint256"
        }
      ],
      "name": "reportCampaign",
      "outputs": [],
      "stateMutability": "nonpayable",
      "type": "function"
    },
    {
      "inputs": [
        {
          "internalType": "uint256",
          "name": "_id",
          "type": "uint256"
        }
      ],
      "name": "finalizeCampaign",
      "outputs": [],
      "stateMutability": "nonpayable",
      "type": "function"
    },
    {
      "inputs": [
        {
          "internalType": "uint256",
          "name": "_id",
          "type": "uint256"
        }
      ],
      "name": "terminateCampaign",
      "outputs": [],
      "stateMutability": "nonpayable",
      "type": "function"
    },
    {
      "inputs": [
        {
          "internalType": "uint256",
          "name": "_id",
          "type": "uint256"
        }
      ],
      "name": "finalizeRevisionCampaign",
      "outputs": [],
      "stateMutability": "nonpayable",
      "type": "function"
    },
    {
      "inputs": [
        {
          "internalType": "uint256",
          "name": "_id",
          "type": "uint256"
        },
        {
          "internalType": "bool",
          "name": "_approval",
          "type": "bool"
        }
      ],
      "name": "voteForCampaign",
      "outputs": [
        {
          "internalType": "uint256",
          "name": "",
          "type": "uint256"
        }
      ],
      "stateMutability": "nonpayable",
      "type": "function"
    },
    {
      "inputs": [
        {
          "internalType": "uint256",
          "name": "_id",
          "type": "uint256"
        },
        {
          "internalType": "bool",
          "name": "_approval",
          "type": "bool"
        }
      ],
      "name": "revisionCampaign",
      "outputs": [],
      "stateMutability": "nonpayable",
      "type": "function"
    },
    {
      "inputs": [],
      "name": "becomeSSJ",
      "outputs": [],
      "stateMutability": "payable",
      "type": "function",
      "payable": true
    },
    {
      "inputs": [],
      "name": "becomeNormalUser",
      "outputs": [],
      "stateMutability": "nonpayable",
      "type": "function"
    },
    {
      "inputs": [],
      "name": "terminate",
      "outputs": [],
      "stateMutability": "nonpayable",
      "type": "function"
    }
  ],
  "bytecode": "0x608060405234801561001057600080fd5b5033600960006101000a81548173ffffffffffffffffffffffffffffffffffffffff021916908373ffffffffffffffffffffffffffffffffffffffff1602179055506103e8600160003373ffffffffffffffffffffffffffffffffffffffff1673ffffffffffffffffffffffffffffffffffffffff1681526020019081526020016000208190555061517b806100a76000396000f3fe6080604052600436106101135760003560e01c806324be0891116100a05780638ffff8b0116100645780638ffff8b0146103a8578063bc7586fe146103c4578063db62877f146103ce578063e0968d6b146103f7578063fb58ca821461042057610113565b806324be0891146102ac5780632c780755146102e95780636a288ef9146103055780636b5ca27d146103425780637ae473171461036b57610113565b806312abd905116100e757806312abd905146101d4578063141961bc146101fd57806317b3cdd214610241578063188ec3561461025857806324005d581461028357610113565b80623e63ab1461011857806307546172146101555780630c08bf88146101805780631050d9ef14610197575b600080fd5b34801561012457600080fd5b5061013f600480360381019061013a919061364d565b61045d565b60405161014c9190613693565b60405180910390f35b34801561016157600080fd5b5061016a610475565b60405161017791906136bd565b60405180910390f35b34801561018c57600080fd5b5061019561049b565b005b3480156101a357600080fd5b506101be60048036038101906101b9919061364d565b610596565b6040516101cb91906138dc565b60405180910390f35b3480156101e057600080fd5b506101fb60048036038101906101f69190613962565b610882565b005b34801561020957600080fd5b50610224600480360381019061021f91906139a2565b610c7a565b6040516102389897969594939291906139ed565b60405180910390f35b34801561024d57600080fd5b50610256610d0d565b005b34801561026457600080fd5b5061026d610e62565b60405161027a9190613693565b60405180910390f35b34801561028f57600080fd5b506102aa60048036038101906102a591906139a2565b610e6a565b005b3480156102b857600080fd5b506102d360048036038101906102ce919061364d565b611131565b6040516102e09190613693565b60405180910390f35b61030360048036038101906102fe9190613a97565b6111e5565b005b34801561031157600080fd5b5061032c6004803603810190610327919061364d565b611535565b6040516103399190613693565b60405180910390f35b34801561034e57600080fd5b50610369600480360381019061036491906139a2565b61154d565b005b34801561037757600080fd5b50610392600480360381019061038d91906139a2565b6117e4565b60405161039f91906138dc565b60405180910390f35b6103c260048036038101906103bd91906139a2565b611ab5565b005b6103cc611eef565b005b3480156103da57600080fd5b506103f560048036038101906103f091906139a2565b612086565b005b34801561040357600080fd5b5061041e600480360381019061041991906139a2565b6123d5565b005b34801561042c57600080fd5b5061044760048036038101906104429190613962565b6126f9565b6040516104549190613693565b60405180910390f35b60026020528060005260406000206000915090505481565b600960009054906101000a900473ffffffffffffffffffffffffffffffffffffffff1681565b600960009054906101000a900473ffffffffffffffffffffffffffffffffffffffff1673ffffffffffffffffffffffffffffffffffffffff163373ffffffffffffffffffffffffffffffffffffffff161461052b576040517f08c379a000000000000000000000000000000000000000000000000000000000815260040161052290613b5a565b60405180910390fd5b600960009054906101000a900473ffffffffffffffffffffffffffffffffffffffff1673ffffffffffffffffffffffffffffffffffffffff166108fc479081150290604051600060405180830381858888f19350505050158015610593573d6000803e3d6000fd5b50565b60606000805b600080549050811015610643578373ffffffffffffffffffffffffffffffffffffffff16600082815481106105d4576105d3613b7a565b5b906000526020600020906008020160000160009054906101000a900473ffffffffffffffffffffffffffffffffffffffff1673ffffffffffffffffffffffffffffffffffffffff160361063057818061062c90613bd8565b9250505b808061063b90613bd8565b91505061059c565b5060008167ffffffffffffffff8111156106605761065f613c20565b5b60405190808252806020026020018201604052801561069957816020015b61068661353b565b81526020019060019003908161067e5790505b5090506000805b600080549050811015610876578573ffffffffffffffffffffffffffffffffffffffff16600082815481106106d8576106d7613b7a565b5b906000526020600020906008020160000160009054906101000a900473ffffffffffffffffffffffffffffffffffffffff1673ffffffffffffffffffffffffffffffffffffffff1603610863576000818154811061073957610738613b7a565b5b9060005260206000209060080201604051806101000160405290816000820160009054906101000a900473ffffffffffffffffffffffffffffffffffffffff1673ffffffffffffffffffffffffffffffffffffffff1673ffffffffffffffffffffffffffffffffffffffff168152602001600182015481526020016002820160009054906101000a900460ff1660058111156107d8576107d7613722565b5b60058111156107ea576107e9613722565b5b8152602001600382015481526020016004820154815260200160058201548152602001600682015481526020016007820160009054906101000a900461ffff1661ffff1661ffff168152505083838151811061084957610848613b7a565b5b6020026020010181905250818061085f90613bd8565b9250505b808061086e90613bd8565b9150506106a0565b50819350505050919050565b6000600260003373ffffffffffffffffffffffffffffffffffffffff1673ffffffffffffffffffffffffffffffffffffffff1681526020019081526020016000205411610904576040517f08c379a00000000000000000000000000000000000000000000000000000000081526004016108fb90613cc1565b60405180910390fd5b6003600581111561091857610917613722565b5b6000838154811061092c5761092b613b7a565b5b906000526020600020906008020160020160009054906101000a900460ff16600581111561095d5761095c613722565b5b1461099d576040517f08c379a000000000000000000000000000000000000000000000000000000000815260040161099490613d53565b60405180910390fd5b62093a80600083815481106109b5576109b4613b7a565b5b9060005260206000209060080201600601546109d19190613d73565b4210610a12576040517f08c379a0000000000000000000000000000000000000000000000000000000008152600401610a0990613e3b565b60405180910390fd5b610a2e3360056000858152602001908152602001600020612a7e565b15610a6e576040517f08c379a0000000000000000000000000000000000000000000000000000000008152600401610a6590613ecd565b60405180910390fd5b610a8a3360066000858152602001908152602001600020612a7e565b15610aca576040517f08c379a0000000000000000000000000000000000000000000000000000000008152600401610ac190613f5f565b60405180910390fd5b610ae63360036000858152602001908152602001600020612a7e565b15610b26576040517f08c379a0000000000000000000000000000000000000000000000000000000008152600401610b1d90614017565b60405180910390fd5b610b423360046000858152602001908152602001600020612a7e565b15610b82576040517f08c379a0000000000000000000000000000000000000000000000000000000008152600401610b7990614017565b60405180910390fd5b8015610c015760056000838152602001908152602001600020339080600181540180825580915050600190039060005260206000200160009091909190916101000a81548173ffffffffffffffffffffffffffffffffffffffff021916908373ffffffffffffffffffffffffffffffffffffffff160217905550610c76565b60066000838152602001908152602001600020339080600181540180825580915050600190039060005260206000200160009091909190916101000a81548173ffffffffffffffffffffffffffffffffffffffff021916908373ffffffffffffffffffffffffffffffffffffffff1602179055505b5050565b60008181548110610c8a57600080fd5b90600052602060002090600802016000915090508060000160009054906101000a900473ffffffffffffffffffffffffffffffffffffffff16908060010154908060020160009054906101000a900460ff16908060030154908060040154908060050154908060060154908060070160009054906101000a900461ffff16905088565b6000600260003373ffffffffffffffffffffffffffffffffffffffff1673ffffffffffffffffffffffffffffffffffffffff1681526020019081526020016000205411610d8f576040517f08c379a0000000000000000000000000000000000000000000000000000000008152600401610d8690613cc1565b60405180910390fd5b60003390508073ffffffffffffffffffffffffffffffffffffffff166108fc600260003373ffffffffffffffffffffffffffffffffffffffff1673ffffffffffffffffffffffffffffffffffffffff168152602001908152602001600020549081150290604051600060405180830381858888f19350505050158015610e19573d6000803e3d6000fd5b506000600260003373ffffffffffffffffffffffffffffffffffffffff1673ffffffffffffffffffffffffffffffffffffffff1681526020019081526020016000208190555050565b600042905090565b6000805490508110610eb1576040517f08c379a0000000000000000000000000000000000000000000000000000000008152600401610ea8906140a9565b60405180910390fd5b60016005811115610ec557610ec4613722565b5b60008281548110610ed957610ed8613b7a565b5b906000526020600020906008020160020160009054906101000a900460ff166005811115610f0a57610f09613722565b5b14610f4a576040517f08c379a0000000000000000000000000000000000000000000000000000000008152600401610f419061413b565b60405180910390fd5b6000600160003373ffffffffffffffffffffffffffffffffffffffff1673ffffffffffffffffffffffffffffffffffffffff1681526020019081526020016000205411610fcc576040517f08c379a0000000000000000000000000000000000000000000000000000000008152600401610fc3906141a7565b60405180910390fd5b60018060003373ffffffffffffffffffffffffffffffffffffffff1673ffffffffffffffffffffffffffffffffffffffff168152602001908152602001600020600082825461101b91906141c7565b9250508190555060076000828152602001908152602001600020339080600181540180825580915050600190039060005260206000200160009091909190916101000a81548173ffffffffffffffffffffffffffffffffffffffff021916908373ffffffffffffffffffffffffffffffffffffffff16021790555060016007600083815260200190815260200160002080549050111561112e576003600082815481106110cb576110ca613b7a565b5b906000526020600020906008020160020160006101000a81548160ff021916908360058111156110fe576110fd613722565b5b0217905550426000828154811061111857611117613b7a565b5b9060005260206000209060080201600601819055505b50565b6000612328600a600160008573ffffffffffffffffffffffffffffffffffffffff1673ffffffffffffffffffffffffffffffffffffffff1681526020019081526020016000205461118291906141fb565b106111915761232890506111e0565b600a600160008473ffffffffffffffffffffffffffffffffffffffff1673ffffffffffffffffffffffffffffffffffffffff168152602001908152602001600020546111dd91906141fb565b90505b919050565b60646005836111f491906141fb565b6111fe9190614284565b341461123f576040517f08c379a000000000000000000000000000000000000000000000000000000000815260040161123690614327565b60405180910390fd5b66b1a2bc2ec500008211611288576040517f08c379a000000000000000000000000000000000000000000000000000000000815260040161127f906143b9565b60405180910390fd5b60006611c37937e080008361129d91906143d9565b146112dd576040517f08c379a00000000000000000000000000000000000000000000000000000000081526004016112d49061447c565b60405180910390fd5b6112e633611131565b67016345785d8a00006112f991906141fb565b82111561133b576040517f08c379a00000000000000000000000000000000000000000000000000000000081526004016113329061450e565b60405180910390fd5b60088161ffff1611611382576040517f08c379a0000000000000000000000000000000000000000000000000000000008152600401611379906145c6565b60405180910390fd5b60006040518061010001604052803373ffffffffffffffffffffffffffffffffffffffff1681526020016000805490508152602001600060058111156113cb576113ca613722565b5b815260200184815260200160008152602001428152602001600081526020018361ffff16815250908060018154018082558091505060019003906000526020600020906008020160009091909190915060008201518160000160006101000a81548173ffffffffffffffffffffffffffffffffffffffff021916908373ffffffffffffffffffffffffffffffffffffffff1602179055506020820151816001015560408201518160020160006101000a81548160ff0219169083600581111561149757611496613722565b5b0217905550606082015181600301556080820151816004015560a0820151816005015560c0820151816006015560e08201518160070160006101000a81548161ffff021916908361ffff16021790555050507fddc542354787cb630b12d547bef306670ab435a3efdf62eeacf8532c042390ec600160008054905061151c91906141c7565b6040516115299190613693565b60405180910390a15050565b60016020528060005260406000206000915090505481565b6000600581111561156157611560613722565b5b6000828154811061157557611574613b7a565b5b906000526020600020906008020160020160009054906101000a900460ff1660058111156115a6576115a5613722565b5b146115e6576040517f08c379a00000000000000000000000000000000000000000000000000000000081526004016115dd90614658565b60405180910390fd5b60008082815481106115fb576115fa613b7a565b5b9060005260206000209060080201600501546116179190613d73565b4211611658576040517f08c379a000000000000000000000000000000000000000000000000000000000815260040161164f906146ea565b60405180910390fd5b6000818154811061166c5761166b613b7a565b5b906000526020600020906008020160000160009054906101000a900473ffffffffffffffffffffffffffffffffffffffff1673ffffffffffffffffffffffffffffffffffffffff163373ffffffffffffffffffffffffffffffffffffffff161461170b576040517f08c379a00000000000000000000000000000000000000000000000000000000081526004016117029061477c565b60405180910390fd5b6004600082815260200190815260200160002080549050600360008381526020019081526020016000208054905011156117925760016000828154811061175557611754613b7a565b5b906000526020600020906008020160020160006101000a81548160ff0219169083600581111561178857611787613722565b5b02179055506117e1565b6002600082815481106117a8576117a7613b7a565b5b906000526020600020906008020160020160006101000a81548160ff021916908360058111156117db576117da613722565b5b02179055505b50565b606060008211611829576040517f08c379a00000000000000000000000000000000000000000000000000000000081526004016118209061480e565b60405180910390fd5b6000601460018461183a91906141c7565b6118449190614838565b600080549050611854919061494f565b1215611895576040517f08c379a000000000000000000000000000000000000000000000000000000000815260040161188c90614a2f565b60405180910390fd5b60006014836118a49190614838565b6000805490506118b4919061494f565b905060008112156118c457600090505b600080805490506014836118d89190614a4f565b11156118f457816000805490506118ef91906141c7565b6118f7565b60145b905060008167ffffffffffffffff81111561191557611914613c20565b5b60405190808252806020026020018201604052801561194e57816020015b61193b61353b565b8152602001906001900390816119335790505b50905060005b82811015611aa9576000818561196a9190614a4f565b8154811061197b5761197a613b7a565b5b9060005260206000209060080201604051806101000160405290816000820160009054906101000a900473ffffffffffffffffffffffffffffffffffffffff1673ffffffffffffffffffffffffffffffffffffffff1673ffffffffffffffffffffffffffffffffffffffff168152602001600182015481526020016002820160009054906101000a900460ff166005811115611a1a57611a19613722565b5b6005811115611a2c57611a2b613722565b5b8152602001600382015481526020016004820154815260200160058201548152602001600682015481526020016007820160009054906101000a900461ffff1661ffff1661ffff1681525050828281518110611a8b57611a8a613b7a565b5b60200260200101819052508080611aa190613bd8565b915050611954565b50809350505050919050565b6000805490508110611afc576040517f08c379a0000000000000000000000000000000000000000000000000000000008152600401611af3906140a9565b60405180910390fd5b60016005811115611b1057611b0f613722565b5b60008281548110611b2457611b23613b7a565b5b906000526020600020906008020160020160009054906101000a900460ff166005811115611b5557611b54613722565b5b14611b95576040517f08c379a0000000000000000000000000000000000000000000000000000000008152600401611b8c9061413b565b60405180910390fd5b62093a8060008281548110611bad57611bac613b7a565b5b906000526020600020906008020160070160009054906101000a900461ffff1661ffff16611bdb9190614af2565b62ffffff1660008281548110611bf457611bf3613b7a565b5b906000526020600020906008020160050154611c109190613d73565b421115611c52576040517f08c379a0000000000000000000000000000000000000000000000000000000008152600401611c4990614bc7565b60405180910390fd5b60003460008381548110611c6957611c68613b7a565b5b90600052602060002090600802016004015460008481548110611c8f57611c8e613b7a565b5b906000526020600020906008020160030154611cab91906141c7565b611cb591906141c7565b1015611cf6576040517f08c379a0000000000000000000000000000000000000000000000000000000008152600401611ced90614c33565b60405180910390fd5b60003411611d39576040517f08c379a0000000000000000000000000000000000000000000000000000000008152600401611d3090614cc5565b60405180910390fd5b60006601c6bf5263400034611d4e91906143d9565b14611d8e576040517f08c379a0000000000000000000000000000000000000000000000000000000008152600401611d8590614d57565b60405180910390fd5b3460008281548110611da357611da2613b7a565b5b90600052602060002090600802016004016000828254611dc39190613d73565b925050819055506601c6bf5263400034611ddd9190614284565b600160003373ffffffffffffffffffffffffffffffffffffffff1673ffffffffffffffffffffffffffffffffffffffff1681526020019081526020016000206000828254611e2b9190613d73565b925050819055506008600082815260200190815260200160002060405180604001604052803373ffffffffffffffffffffffffffffffffffffffff16815260200134815250908060018154018082558091505060019003906000526020600020906002020160009091909190915060008201518160000160006101000a81548173ffffffffffffffffffffffffffffffffffffffff021916908373ffffffffffffffffffffffffffffffffffffffff16021790555060208201518160010155505050565b6000600260003373ffffffffffffffffffffffffffffffffffffffff1673ffffffffffffffffffffffffffffffffffffffff1681526020019081526020016000205414611f71576040517f08c379a0000000000000000000000000000000000000000000000000000000008152600401611f6890614de9565b60405180910390fd5b6101f4600160003373ffffffffffffffffffffffffffffffffffffffff1673ffffffffffffffffffffffffffffffffffffffff168152602001908152602001600020541015611ff5576040517f08c379a0000000000000000000000000000000000000000000000000000000008152600401611fec90614ea1565b60405180910390fd5b6706f05b59d3b20000341015612040576040517f08c379a000000000000000000000000000000000000000000000000000000000815260040161203790614f33565b60405180910390fd5b34600260003373ffffffffffffffffffffffffffffffffffffffff1673ffffffffffffffffffffffffffffffffffffffff16815260200190815260200160002081905550565b6001600581111561209a57612099613722565b5b600082815481106120ae576120ad613b7a565b5b906000526020600020906008020160020160009054906101000a900460ff1660058111156120df576120de613722565b5b1461211f576040517f08c379a000000000000000000000000000000000000000000000000000000000815260040161211690614fc5565b60405180910390fd5b600080828154811061213457612133613b7a565b5b906000526020600020906008020160070160009054906101000a900461ffff1661215e9190614fe5565b61ffff166000828154811061217657612175613b7a565b5b9060005260206000209060080201600501546121929190613d73565b4210156121d4576040517f08c379a00000000000000000000000000000000000000000000000000000000081526004016121cb906146ea565b60405180910390fd5b600081815481106121e8576121e7613b7a565b5b906000526020600020906008020160000160009054906101000a900473ffffffffffffffffffffffffffffffffffffffff1673ffffffffffffffffffffffffffffffffffffffff163373ffffffffffffffffffffffffffffffffffffffff1614612287576040517f08c379a000000000000000000000000000000000000000000000000000000000815260040161227e90615093565b60405180910390fd5b60056000828154811061229d5761229c613b7a565b5b906000526020600020906008020160020160006101000a81548160ff021916908360058111156122d0576122cf613722565b5b02179055506122de81612b2b565b6005600082815260200190815260200160002060006122fd91906135ac565b60066000828152602001908152602001600020600061231c91906135ac565b600080828154811061233157612330613b7a565b5b906000526020600020906008020160000160009054906101000a900473ffffffffffffffffffffffffffffffffffffffff1690508073ffffffffffffffffffffffffffffffffffffffff166108fc6000848154811061239357612392613b7a565b5b9060005260206000209060080201600401549081150290604051600060405180830381858888f193505050501580156123d0573d6000803e3d6000fd5b505050565b600360058111156123e9576123e8613722565b5b600082815481106123fd576123fc613b7a565b5b906000526020600020906008020160020160009054906101000a900460ff16600581111561242e5761242d613722565b5b1461246e576040517f08c379a000000000000000000000000000000000000000000000000000000000815260040161246590614fc5565b60405180910390fd5b600080828154811061248357612482613b7a565b5b90600052602060002090600802016006015461249f9190613d73565b4210156124e1576040517f08c379a00000000000000000000000000000000000000000000000000000000081526004016124d8906146ea565b60405180910390fd5b600081815481106124f5576124f4613b7a565b5b906000526020600020906008020160000160009054906101000a900473ffffffffffffffffffffffffffffffffffffffff1673ffffffffffffffffffffffffffffffffffffffff163373ffffffffffffffffffffffffffffffffffffffff1614612594576040517f08c379a000000000000000000000000000000000000000000000000000000000815260040161258b9061477c565b60405180910390fd5b600660008281526020019081526020016000208054905060056000838152602001908152602001600020805490501115612645576001600082815481106125de576125dd613b7a565b5b906000526020600020906008020160020160006101000a81548160ff0219169083600581111561261157612610613722565b5b0217905550600080828154811061262b5761262a613b7a565b5b9060005260206000209060080201600601819055506126f6565b60046000828154811061265b5761265a613b7a565b5b906000526020600020906008020160020160006101000a81548160ff0219169083600581111561268e5761268d613722565b5b021790555061269c8161309a565b6126a581613346565b6126ae81612b2b565b6126b78161342a565b6005600082815260200190815260200160002060006126d691906135ac565b6006600082815260200190815260200160002060006126f591906135ac565b5b50565b600080600260003373ffffffffffffffffffffffffffffffffffffffff1673ffffffffffffffffffffffffffffffffffffffff168152602001908152602001600020541161277c576040517f08c379a000000000000000000000000000000000000000000000000000000000815260040161277390613cc1565b60405180910390fd5b600060058111156127905761278f613722565b5b600084815481106127a4576127a3613b7a565b5b906000526020600020906008020160020160009054906101000a900460ff1660058111156127d5576127d4613722565b5b14612815576040517f08c379a000000000000000000000000000000000000000000000000000000000815260040161280c90614658565b60405180910390fd5b62093a806000848154811061282d5761282c613b7a565b5b9060005260206000209060080201600501546128499190613d73565b421061288a576040517f08c379a000000000000000000000000000000000000000000000000000000000815260040161288190615125565b60405180910390fd5b6128a63360036000868152602001908152602001600020612a7e565b156128e6576040517f08c379a00000000000000000000000000000000000000000000000000000000081526004016128dd90613ecd565b60405180910390fd5b6129023360046000868152602001908152602001600020612a7e565b15612942576040517f08c379a000000000000000000000000000000000000000000000000000000000815260040161293990613f5f565b60405180910390fd5b81156129c15760036000848152602001908152602001600020339080600181540180825580915050600190039060005260206000200160009091909190916101000a81548173ffffffffffffffffffffffffffffffffffffffff021916908373ffffffffffffffffffffffffffffffffffffffff160217905550612a36565b60046000848152602001908152602001600020339080600181540180825580915050600190039060005260206000200160009091909190916101000a81548173ffffffffffffffffffffffffffffffffffffffff021916908373ffffffffffffffffffffffffffffffffffffffff1602179055505b600260003373ffffffffffffffffffffffffffffffffffffffff1673ffffffffffffffffffffffffffffffffffffffff16815260200190815260200160002054905092915050565b600080600090505b8280549050811015612b1f578373ffffffffffffffffffffffffffffffffffffffff16838281548110612abc57612abb613b7a565b5b9060005260206000200160009054906101000a900473ffffffffffffffffffffffffffffffffffffffff1673ffffffffffffffffffffffffffffffffffffffff1603612b0c576001915050612b25565b8080612b1790613bd8565b915050612a86565b50600090505b92915050565b60046005811115612b3f57612b3e613722565b5b60008281548110612b5357612b52613b7a565b5b906000526020600020906008020160020160009054906101000a900460ff166005811115612b8457612b83613722565b5b03612e485760005b6004600083815260200190815260200160002080549050811015612ce7576000600460008481526020019081526020016000208281548110612bd157612bd0613b7a565b5b9060005260206000200160009054906101000a900473ffffffffffffffffffffffffffffffffffffffff16905060066000848152602001908152602001600020805490506004600085815260200190815260200160002080549050612c369190613d73565b6064600560008681548110612c4e57612c4d613b7a565b5b906000526020600020906008020160030154612c6a91906141fb565b612c749190614284565b612c7e9190614284565b600260008373ffffffffffffffffffffffffffffffffffffffff1673ffffffffffffffffffffffffffffffffffffffff1681526020019081526020016000206000828254612ccc9190613d73565b92505081905550508080612cdf90613bd8565b915050612b8c565b5060005b6006600083815260200190815260200160002080549050811015612e46576000600660008481526020019081526020016000208281548110612d3057612d2f613b7a565b5b9060005260206000200160009054906101000a900473ffffffffffffffffffffffffffffffffffffffff16905060066000848152602001908152602001600020805490506004600085815260200190815260200160002080549050612d959190613d73565b6064600560008681548110612dad57612dac613b7a565b5b906000526020600020906008020160030154612dc991906141fb565b612dd39190614284565b612ddd9190614284565b600260008373ffffffffffffffffffffffffffffffffffffffff1673ffffffffffffffffffffffffffffffffffffffff1681526020019081526020016000206000828254612e2b9190613d73565b92505081905550508080612e3e90613bd8565b915050612ceb565b505b600580811115612e5b57612e5a613722565b5b60008281548110612e6f57612e6e613b7a565b5b906000526020600020906008020160020160009054906101000a900460ff166005811115612ea057612e9f613722565b5b03613096576000808281548110612eba57612eb9613b7a565b5b906000526020600020906008020160030154606460008481548110612ee257612ee1613b7a565b5b906000526020600020906008020160040154612efe91906141fb565b612f089190614284565b905060058111612f185750613097565b6000606482612f279190614284565b6064600560008681548110612f3f57612f3e613b7a565b5b906000526020600020906008020160030154612f5b91906141fb565b612f659190614284565b612f6f91906141fb565b905060005b6003600085815260200190815260200160002080549050811015613092576000600360008681526020019081526020016000208281548110612fb957612fb8613b7a565b5b9060005260206000200160009054906101000a900473ffffffffffffffffffffffffffffffffffffffff1690506005600086815260200190815260200160002080549050600360008781526020019081526020016000208054905061301e9190613d73565b836130299190614284565b600260008373ffffffffffffffffffffffffffffffffffffffff1673ffffffffffffffffffffffffffffffffffffffff16815260200190815260200160002060008282546130779190613d73565b9250508190555050808061308a90613bd8565b915050612f74565b5050505b5b50565b60005b60036000838152602001908152602001600020805490508110156133425760006003600084815260200190815260200160002082815481106130e2576130e1613b7a565b5b9060005260206000200160009054906101000a900473ffffffffffffffffffffffffffffffffffffffff1690506658d15e17628000600260008373ffffffffffffffffffffffffffffffffffffffff1673ffffffffffffffffffffffffffffffffffffffff168152602001908152602001600020600082825461316591906141c7565b92505081905550600a600160008373ffffffffffffffffffffffffffffffffffffffff1673ffffffffffffffffffffffffffffffffffffffff16815260200190815260200160002060008282546131bc91906141c7565b9250508190555066b1a2bc2ec50000600260008373ffffffffffffffffffffffffffffffffffffffff1673ffffffffffffffffffffffffffffffffffffffff16815260200190815260200160002054108061325757506101f4600160008373ffffffffffffffffffffffffffffffffffffffff1673ffffffffffffffffffffffffffffffffffffffff16815260200190815260200160002054105b1561332e5760008190508073ffffffffffffffffffffffffffffffffffffffff166108fc600260008573ffffffffffffffffffffffffffffffffffffffff1673ffffffffffffffffffffffffffffffffffffffff168152602001908152602001600020549081150290604051600060405180830381858888f193505050501580156132e6573d6000803e3d6000fd5b506000600260008473ffffffffffffffffffffffffffffffffffffffff1673ffffffffffffffffffffffffffffffffffffffff16815260200190815260200160002081905550505b50808061333a90613bd8565b91505061309d565b5050565b60005b600760008381526020019081526020016000208054905081101561342657600060076000848152602001908152602001600020828154811061338e5761338d613b7a565b5b9060005260206000200160009054906101000a900473ffffffffffffffffffffffffffffffffffffffff1690506002600160008373ffffffffffffffffffffffffffffffffffffffff1673ffffffffffffffffffffffffffffffffffffffff168152602001908152602001600020600082825461340b9190613d73565b9250508190555050808061341e90613bd8565b915050613349565b5050565b60005b600860008381526020019081526020016000208054905081101561353757600060086000848152602001908152602001600020828154811061347257613471613b7a565b5b906000526020600020906002020160000160009054906101000a900473ffffffffffffffffffffffffffffffffffffffff1690508073ffffffffffffffffffffffffffffffffffffffff166108fc6008600086815260200190815260200160002084815481106134e5576134e4613b7a565b5b9060005260206000209060020201600101549081150290604051600060405180830381858888f19350505050158015613522573d6000803e3d6000fd5b5050808061352f90613bd8565b91505061342d565b5050565b604051806101000160405280600073ffffffffffffffffffffffffffffffffffffffff168152602001600081526020016000600581111561357f5761357e613722565b5b815260200160008152602001600081526020016000815260200160008152602001600061ffff1681525090565b50805460008255906000526020600020908101906135ca91906135cd565b50565b5b808211156135e65760008160009055506001016135ce565b5090565b600080fd5b600073ffffffffffffffffffffffffffffffffffffffff82169050919050565b600061361a826135ef565b9050919050565b61362a8161360f565b811461363557600080fd5b50565b60008135905061364781613621565b92915050565b600060208284031215613663576136626135ea565b5b600061367184828501613638565b91505092915050565b6000819050919050565b61368d8161367a565b82525050565b60006020820190506136a86000830184613684565b92915050565b6136b78161360f565b82525050565b60006020820190506136d260008301846136ae565b92915050565b600081519050919050565b600082825260208201905092915050565b6000819050602082019050919050565b61370d8161360f565b82525050565b61371c8161367a565b82525050565b7f4e487b7100000000000000000000000000000000000000000000000000000000600052602160045260246000fd5b6006811061376257613761613722565b5b50565b600081905061377382613751565b919050565b600061378382613765565b9050919050565b61379381613778565b82525050565b600061ffff82169050919050565b6137b081613799565b82525050565b610100820160008201516137cd6000850182613704565b5060208201516137e06020850182613713565b5060408201516137f3604085018261378a565b5060608201516138066060850182613713565b5060808201516138196080850182613713565b5060a082015161382c60a0850182613713565b5060c082015161383f60c0850182613713565b5060e082015161385260e08501826137a7565b50505050565b600061386483836137b6565b6101008301905092915050565b6000602082019050919050565b6000613889826136d8565b61389381856136e3565b935061389e836136f4565b8060005b838110156138cf5781516138b68882613858565b97506138c183613871565b9250506001810190506138a2565b5085935050505092915050565b600060208201905081810360008301526138f6818461387e565b905092915050565b6139078161367a565b811461391257600080fd5b50565b600081359050613924816138fe565b92915050565b60008115159050919050565b61393f8161392a565b811461394a57600080fd5b50565b60008135905061395c81613936565b92915050565b60008060408385031215613979576139786135ea565b5b600061398785828601613915565b92505060206139988582860161394d565b9150509250929050565b6000602082840312156139b8576139b76135ea565b5b60006139c684828501613915565b91505092915050565b6139d881613778565b82525050565b6139e781613799565b82525050565b600061010082019050613a03600083018b6136ae565b613a10602083018a613684565b613a1d60408301896139cf565b613a2a6060830188613684565b613a376080830187613684565b613a4460a0830186613684565b613a5160c0830185613684565b613a5e60e08301846139de565b9998505050505050505050565b613a7481613799565b8114613a7f57600080fd5b50565b600081359050613a9181613a6b565b92915050565b60008060408385031215613aae57613aad6135ea565b5b6000613abc85828601613915565b9250506020613acd85828601613a82565b9150509250929050565b600082825260208201905092915050565b7f596f752063616e6e6f74207465726d696e6174652074686520636f6e7472616360008201527f7421000000000000000000000000000000000000000000000000000000000000602082015250565b6000613b44602283613ad7565b9150613b4f82613ae8565b604082019050919050565b60006020820190508181036000830152613b7381613b37565b9050919050565b7f4e487b7100000000000000000000000000000000000000000000000000000000600052603260045260246000fd5b7f4e487b7100000000000000000000000000000000000000000000000000000000600052601160045260246000fd5b6000613be38261367a565b91507fffffffffffffffffffffffffffffffffffffffffffffffffffffffffffffffff8203613c1557613c14613ba9565b5b600182019050919050565b7f4e487b7100000000000000000000000000000000000000000000000000000000600052604160045260246000fd5b7f596f7520617265206e6f742070617274206f662074686520537570657253616960008201527f79616e2053657421000000000000000000000000000000000000000000000000602082015250565b6000613cab602883613ad7565b9150613cb682613c4f565b604082019050919050565b60006020820190508181036000830152613cda81613c9e565b9050919050565b7f546865207370656369666965642063616d706169676e206973206e6f7420696e60008201527f207265766973696f6e2100000000000000000000000000000000000000000000602082015250565b6000613d3d602a83613ad7565b9150613d4882613ce1565b604082019050919050565b60006020820190508181036000830152613d6c81613d30565b9050919050565b6000613d7e8261367a565b9150613d898361367a565b9250827fffffffffffffffffffffffffffffffffffffffffffffffffffffffffffffffff03821115613dbe57613dbd613ba9565b5b828201905092915050565b7f546865207265766973696f6e20697320746f6f206f6c642c20796f752063616e60008201527f6e6f7420766f746520616e796d6f726521000000000000000000000000000000602082015250565b6000613e25603183613ad7565b9150613e3082613dc9565b604082019050919050565b60006020820190508181036000830152613e5481613e18565b9050919050565b7f596f75206861766520616c726561647920617070726f7665642074686973206360008201527f616d706169676e00000000000000000000000000000000000000000000000000602082015250565b6000613eb7602783613ad7565b9150613ec282613e5b565b604082019050919050565b60006020820190508181036000830152613ee681613eaa565b9050919050565b7f596f75206861766520616c726561647920646973617070726f7665642074686960008201527f732063616d706169676e00000000000000000000000000000000000000000000602082015250565b6000613f49602a83613ad7565b9150613f5482613eed565b604082019050919050565b60006020820190508181036000830152613f7881613f3c565b9050919050565b7f596f75206861766520766f74656420746869732063616d706169676e2077686960008201527f6c65206974207761732070656e64696e672c207468657265666f726520796f7560208201527f2063616e6e6f7420766f746520666f7220746865207265766973696f6e000000604082015250565b6000614001605d83613ad7565b915061400c82613f7f565b606082019050919050565b6000602082019050818103600083015261403081613ff4565b9050919050565b7f546865207370656369666965642063616d706169676e20646f6573206e6f742060008201527f6578697374000000000000000000000000000000000000000000000000000000602082015250565b6000614093602583613ad7565b915061409e82614037565b604082019050919050565b600060208201905081810360008301526140c281614086565b9050919050565b7f546865207370656369666965642063616d706169676e206973206e6f7420616360008201527f7469766500000000000000000000000000000000000000000000000000000000602082015250565b6000614125602483613ad7565b9150614130826140c9565b604082019050919050565b6000602082019050818103600083015261415481614118565b9050919050565b7f596f75206d7573742068617665206174206c6561737420312044535400000000600082015250565b6000614191601c83613ad7565b915061419c8261415b565b602082019050919050565b600060208201905081810360008301526141c081614184565b9050919050565b60006141d28261367a565b91506141dd8361367a565b9250828210156141f0576141ef613ba9565b5b828203905092915050565b60006142068261367a565b91506142118361367a565b9250817fffffffffffffffffffffffffffffffffffffffffffffffffffffffffffffffff048311821515161561424a57614249613ba9565b5b828202905092915050565b7f4e487b7100000000000000000000000000000000000000000000000000000000600052601260045260246000fd5b600061428f8261367a565b915061429a8361367a565b9250826142aa576142a9614255565b5b828204905092915050565b7f596f75206861766520746f206465706f736974203525206f662074686520776560008201527f694c696d69742100000000000000000000000000000000000000000000000000602082015250565b6000614311602783613ad7565b915061431c826142b5565b604082019050919050565b6000602082019050818103600083015261434081614304565b9050919050565b7f54686520646f6e6174696f6e206c696d6974206d75737420626520677265617460008201527f6572207468616e20302e30352045544800000000000000000000000000000000602082015250565b60006143a3603083613ad7565b91506143ae82614347565b604082019050919050565b600060208201905081810360008301526143d281614396565b9050919050565b60006143e48261367a565b91506143ef8361367a565b9250826143ff576143fe614255565b5b828206905092915050565b7f54686520646f6e6174696f6e206c696d6974206d7573742062652061206d756c60008201527f7469706c65206f6620302e303035204554480000000000000000000000000000602082015250565b6000614466603283613ad7565b91506144718261440a565b604082019050919050565b6000602082019050818103600083015261449581614459565b9050919050565b7f596f757220636f6d62616374206c6576656c20697320746f6f206c6f7720666f60008201527f7220746865207265717565737465642045544821000000000000000000000000602082015250565b60006144f8603483613ad7565b91506145038261449c565b604082019050919050565b60006020820190508181036000830152614527816144eb565b9050919050565b7f5468652063616d706169676e206475726174696f6e202865787072657373656460008201527f20696e207765656b7329206d7573742062652067726561746572207468616e2060208201527f3800000000000000000000000000000000000000000000000000000000000000604082015250565b60006145b0604183613ad7565b91506145bb8261452e565b606082019050919050565b600060208201905081810360008301526145df816145a3565b9050919050565b7f546865207370656369666965642063616d706169676e206973206e6f7420706560008201527f6e64696e67210000000000000000000000000000000000000000000000000000602082015250565b6000614642602683613ad7565b915061464d826145e6565b604082019050919050565b6000602082019050818103600083015261467181614635565b9050919050565b7f596f752063616e2066696e616c697a652069742061667465722037206461797360008201527f2100000000000000000000000000000000000000000000000000000000000000602082015250565b60006146d4602183613ad7565b91506146df82614678565b604082019050919050565b60006020820190508181036000830152614703816146c7565b9050919050565b7f596f752063616e6e6f742066696e616c697a6520746869732063616d7061696760008201527f6e20617320796f7520617265206e6f7420746865206f776e6572210000000000602082015250565b6000614766603b83613ad7565b91506147718261470a565b604082019050919050565b6000602082019050818103600083015261479581614759565b9050919050565b7f57696e646f772073697a65206d7573742062652067726561746572207468616e60008201527f2030000000000000000000000000000000000000000000000000000000000000602082015250565b60006147f8602283613ad7565b91506148038261479c565b604082019050919050565b60006020820190508181036000830152614827816147eb565b9050919050565b6000819050919050565b60006148438261482e565b915061484e8361482e565b9250827f7fffffffffffffffffffffffffffffffffffffffffffffffffffffffffffffff048211600084136000841316161561488d5761488c613ba9565b5b817f800000000000000000000000000000000000000000000000000000000000000005831260008412600084131616156148ca576148c9613ba9565b5b827f8000000000000000000000000000000000000000000000000000000000000000058212600084136000841216161561490757614906613ba9565b5b827f7fffffffffffffffffffffffffffffffffffffffffffffffffffffffffffffff058212600084126000841216161561494457614943613ba9565b5b828202905092915050565b600061495a8261482e565b91506149658361482e565b9250827f8000000000000000000000000000000000000000000000000000000000000000018212600084121516156149a05761499f613ba9565b5b827f7fffffffffffffffffffffffffffffffffffffffffffffffffffffffffffffff0182136000841216156149d8576149d7613ba9565b5b828203905092915050565b7f5468652077696e646f772073697a6520697320746f6f206c6172676500000000600082015250565b6000614a19601c83613ad7565b9150614a24826149e3565b602082019050919050565b60006020820190508181036000830152614a4881614a0c565b9050919050565b6000614a5a8261482e565b9150614a658361482e565b9250817f7fffffffffffffffffffffffffffffffffffffffffffffffffffffffffffffff03831360008312151615614aa057614a9f613ba9565b5b817f8000000000000000000000000000000000000000000000000000000000000000038312600083121615614ad857614ad7613ba9565b5b828201905092915050565b600062ffffff82169050919050565b6000614afd82614ae3565b9150614b0883614ae3565b92508162ffffff0483118215151615614b2457614b23613ba9565b5b828202905092915050565b7f546865207370656369666965642063616d706169676e206973206e6f206d6f7260008201527f65206163746976652c20746865206f776e65722073686f756c642066696e616c60208201527f697a652069740000000000000000000000000000000000000000000000000000604082015250565b6000614bb1604683613ad7565b9150614bbc82614b2f565b606082019050919050565b60006020820190508181036000830152614be081614ba4565b9050919050565b7f54686520646f6e6174696f6e2076616c756520697320746f6f20686967682100600082015250565b6000614c1d601f83613ad7565b9150614c2882614be7565b602082019050919050565b60006020820190508181036000830152614c4c81614c10565b9050919050565b7f54686520646f6e6174696f6e206d75737420626520677265617465722074686160008201527f6e207a65726f0000000000000000000000000000000000000000000000000000602082015250565b6000614caf602683613ad7565b9150614cba82614c53565b604082019050919050565b60006020820190508181036000830152614cde81614ca2565b9050919050565b7f596f752063616e20646f6e617465206f6e6c79207573696e672073746570732060008201527f6f6620302e303030352045544800000000000000000000000000000000000000602082015250565b6000614d41602d83613ad7565b9150614d4c82614ce5565b604082019050919050565b60006020820190508181036000830152614d7081614d34565b9050919050565b7f596f752061726520616c72656164792070617274206f6620746865205375706560008201527f7253616979616e20536574210000000000000000000000000000000000000000602082015250565b6000614dd3602c83613ad7565b9150614dde82614d77565b604082019050919050565b60006020820190508181036000830152614e0281614dc6565b9050919050565b7f596f75206d75737420686f6c64206174206c656173742035303020445354207460008201527f6f206265636f6d652070617274206f662074686520537570657253616979616e60208201527f2053657421000000000000000000000000000000000000000000000000000000604082015250565b6000614e8b604583613ad7565b9150614e9682614e09565b606082019050919050565b60006020820190508181036000830152614eba81614e7e565b9050919050565b7f596f75206861766520746f206465706f736974206174206c6561737420302e3560008201527f2045544820746f206265636f6d65206120537570657253616979616e21000000602082015250565b6000614f1d603d83613ad7565b9150614f2882614ec1565b604082019050919050565b60006020820190508181036000830152614f4c81614f10565b9050919050565b7f546865207370656369666965642063616d706169676e206973206e6f7420616360008201527f7469766521000000000000000000000000000000000000000000000000000000602082015250565b6000614faf602583613ad7565b9150614fba82614f53565b604082019050919050565b60006020820190508181036000830152614fde81614fa2565b9050919050565b6000614ff082613799565b9150614ffb83613799565b92508161ffff048311821515161561501657615015613ba9565b5b828202905092915050565b7f596f752063616e6e6f74207465726d696e61746520746869732063616d70616960008201527f676e20617320796f7520617265206e6f7420746865206f776e65722100000000602082015250565b600061507d603c83613ad7565b915061508882615021565b604082019050919050565b600060208201905081810360008301526150ac81615070565b9050919050565b7f5468652063616d706169676e20697320746f6f206f6c642c20796f752063616e60008201527f6e6f7420766f746520616e796d6f726521000000000000000000000000000000602082015250565b600061510f603183613ad7565b915061511a826150b3565b604082019050919050565b6000602082019050818103600083015261513e81615102565b905091905056fea2646970667358221220b95bc1940aed3b02d5fe5ecf67d1ac2ed421445bab1cc3e70db8db98d575f9fd64736f6c634300080d0033",
  "immutableReferences": {},
  "source": "// SPDX-License-Identifier: MIT\npragma solidity ^0.8.0;\n\n/**\n * @title DragonBlock Smart Contract\n * @dev A decentralized crowdfunding platform where users can create campaigns, donate, and vote using SuperSaiyan (SSJ) tokens.\n */\ncontract DragonBlock {\n\n    // Enum to represent different statuses of a campaign\n    enum CampaignStatus {\n        PENDING,\n        ACTIVE,\n        DISAPPROVED,\n        REVISION,\n        BANNED,\n        ENDED\n    }\n\n    // Struct to represent a campaign\n    struct Campaign {\n        address owner;          // Address of the campaign owner\n        uint256 id;             // Unique identifier for the campaign\n        CampaignStatus status;  // Current status of the campaign\n        uint256 weiLimit;       // Maximum amount of ETH that can be donated to the campaign\n        uint256 donatedWei;     // Total ETH donated to the campaign\n        uint256 creationTime;   // Timestamp when the campaign was created\n        uint256 revisionTime;   // Timestamp when the campaign entered the revision state\n        uint16 weekDuration;    // Duration of the campaign in weeks\n    }\n\n    event CampaignCreation(uint256 campaignId);\n\n    // Array to store all campaigns\n    Campaign[] public campaigns;\n\n    // Mapping to track DST balances of users\n    mapping(address => uint) public dstBalances;\n\n    // Mapping to track users who are part of the SuperSaiyan Set\n    mapping(address => uint256) public ssjVaults;\n\n    // Mapping to store addresses that approved or disapproved a campaign\n    mapping(uint256 => address[]) private campaignApprovals;\n    mapping(uint256 => address[]) private campaignDisapprovals;\n\n    // Mapping to store addresses that approved or disapproved a revisioned campaign\n    mapping(uint256 => address[]) private campaignRevisionApprovals;\n    mapping(uint256 => address[]) private campaignRevisionDisapprovals;\n\n    // Mapping to store addresses that reported a campaign\n    mapping(uint256 => address[]) private campaignReports;\n\n    struct Donation {\n        address donator;\n        uint256 donatedWei;\n    }\n    mapping (uint256 => Donation[]) private donators;\n\n    // Address of the contract creator\n    address public minter;\n\n    /**\n     * @dev Constructor to initialize the contract\n     */\n    constructor() {\n        minter = msg.sender; // Initialize DST balance for a default address\n        dstBalances[msg.sender] = 1000;\n    }\n\n    /**\n     * @dev Private function to check if an address is in an array\n     * @param _address The address to check\n     * @param _listOfAddresses The array of addresses to search\n     * @return Whether the address is in the array or not\n     */\n    function addressInArray(address _address, address[] storage _listOfAddresses) private view returns(bool) {\n        for (uint i = 0; i < _listOfAddresses.length; i++) {\n            if (_listOfAddresses[i] == _address) {\n                return true;\n            }\n        }\n        return false;\n    }\n\n    /**\n     * @dev Private function to slash SSJ users' funds\n     * @param _campaignID The ID of the campaign\n     */\n    function slashSSJUsers(uint256 _campaignID) private {\n        for (uint i = 0; i < campaignApprovals[_campaignID].length; i++) {\n            address slashedUser = campaignApprovals[_campaignID][i];\n            ssjVaults[slashedUser] -= 0.025 ether;\n            dstBalances[slashedUser] -= 10;\n            if (ssjVaults[slashedUser] < 0.05 ether || dstBalances[slashedUser] < 500) {\n                // If the SSJ User has less than 10% of the starting needed ETH\n                address payable user = payable(slashedUser);\n                user.transfer(ssjVaults[slashedUser]);\n                ssjVaults[slashedUser] = 0;\n            }\n        }\n    }\n\n    /**\n     * @dev Private function to reward SSJ users based on campaign donation percentage\n     * @param _campaignID The ID of the campaign\n     */\n    function rewardSSJUsers(uint256 _campaignID) private {\n\n        if(campaigns[_campaignID].status == CampaignStatus.BANNED) {\n            \n            for (uint i = 0; i < campaignDisapprovals[_campaignID].length; i++) {\n                address rewardedUser = campaignDisapprovals[_campaignID][i];\n                ssjVaults[rewardedUser] += (campaigns[_campaignID].weiLimit * 5 / 100) / (campaignDisapprovals[_campaignID].length + campaignRevisionDisapprovals[_campaignID].length);\n            }\n\n            for (uint i = 0; i < campaignRevisionDisapprovals[_campaignID].length; i++) {\n                address rewardedUser = campaignRevisionDisapprovals[_campaignID][i];\n                ssjVaults[rewardedUser] += (campaigns[_campaignID].weiLimit * 5 / 100) / (campaignDisapprovals[_campaignID].length + campaignRevisionDisapprovals[_campaignID].length);\n            }\n        }\n\n        if(campaigns[_campaignID].status == CampaignStatus.ENDED) {\n\n            uint percentage = campaigns[_campaignID].donatedWei * 100 / campaigns[_campaignID].weiLimit;\n            if (percentage <= 5) {\n                return;\n            }\n\n            uint rewardToSplit = (campaigns[_campaignID].weiLimit * 5 / 100) * (percentage / 100);\n\n            for (uint i = 0; i < campaignApprovals[_campaignID].length; i++) {\n                address rewardedUser = campaignApprovals[_campaignID][i];\n                ssjVaults[rewardedUser] += rewardToSplit / (campaignApprovals[_campaignID].length + campaignRevisionApprovals[_campaignID].length);\n            }\n        }\n    }\n\n    /**\n     * @dev Private function to reward users who reported a campaign\n     * @param _campaignID The ID of the campaign\n     */\n    function rewardReporters(uint256 _campaignID) private {\n        for (uint i = 0; i < campaignReports[_campaignID].length; i++) {\n            address rewardedUser = campaignReports[_campaignID][i];\n            dstBalances[rewardedUser] += 2;\n        }\n    }\n\n    function refundDonators(uint256 _campaignID) private {\n        for (uint i = 0; i < donators[_campaignID].length; i++) {\n            address payable user = payable(donators[_campaignID][i].donator);\n            user.transfer(donators[_campaignID][i].donatedWei);\n        }\n    }\n\n    function getUserCombactLvl(address _user) public view returns (uint256) {\n        if(dstBalances[_user] * 10 >= 9000) {\n            return 9000;\n        } else {\n            return dstBalances[_user] * 10;\n        }\n    }\n\n    /**\n     * @dev Public function to create a new campaign\n     * @param _weiLimit Maximum amount of ETH that can be donated to the campaign\n     * @param _weekDuration Duration of the campaign in weeks\n     */\n    function createCampaign(uint256 _weiLimit, uint16 _weekDuration) public payable {\n        require(msg.value == _weiLimit * 5 / 100, \"You have to deposit 5% of the weiLimit!\");\n        require(_weiLimit > 0.05 ether, \"The donation limit must be greater than 0.05 ETH\");\n        require(_weiLimit % 0.005 ether == 0, \"The donation limit must be a multiple of 0.005 ETH\");\n        require(_weiLimit <= 0.1 ether * getUserCombactLvl(msg.sender), \"Your combact level is too low for the requested ETH!\");\n        require(_weekDuration > 8, \"The campaign duration (expressed in weeks) must be greater than 8\");\n\n        campaigns.push(\n            Campaign({\n                owner: msg.sender,\n                id: campaigns.length, \n                status: CampaignStatus.PENDING,\n                weiLimit: _weiLimit,\n                donatedWei: 0,\n                creationTime: block.timestamp,\n                revisionTime: 0,\n                weekDuration: _weekDuration\n            })\n        );\n\n        emit CampaignCreation(campaigns.length-1);\n    }\n\n    // Function to get a window of 20 elements starting from the last one\n    function getCampaigns(uint256 _campaignWindow) public view returns (Campaign[] memory) {\n        require(_campaignWindow > 0, \"Window size must be greater than 0\");\n        require(int256(campaigns.length) - int256(_campaignWindow-1) * 20 >= 0, \"The window size is too large\");\n\n        // Calculate the starting index for the window\n        int256 startIndex = int256(campaigns.length) - int256(_campaignWindow) * 20;\n        if (startIndex < 0) {\n            startIndex = 0;\n        }\n\n        // Calculate the actual number of elements to include in the result\n        uint256 numElements = uint256(startIndex + 20) <= campaigns.length ? 20 : campaigns.length - uint256(startIndex);\n\n        // Create a memory array to store the window of elements\n        Campaign[] memory result = new Campaign[](numElements);\n\n        // Use a loop to copy the elements to the result array\n        for (uint256 i = 0; i < numElements; i++) {\n            result[i] = campaigns[uint256(startIndex + int256(i))];\n        }\n\n        return result;\n    }\n\n    function getOwnedCampaigns(address _owner) public view returns (Campaign[] memory) {\n        uint256 ownedCampaignCount = 0;\n\n        // Count the number of campaigns owned by the specified address\n        for (uint256 i = 0; i < campaigns.length; i++) {\n            if (campaigns[i].owner == _owner) {\n                ownedCampaignCount++;\n            }\n        }\n\n        // Create an array to hold the owned campaigns\n        Campaign[] memory ownedCampaigns = new Campaign[](ownedCampaignCount);\n        uint256 currentIndex = 0;\n\n        // Populate the array with owned campaigns\n        for (uint256 i = 0; i < campaigns.length; i++) {\n            if (campaigns[i].owner == _owner) {\n                ownedCampaigns[currentIndex] = campaigns[i];\n                currentIndex++;\n            }\n        }\n\n        return ownedCampaigns;\n    }\n\n    function getTimestamp() public view returns(uint) {\n        return block.timestamp;\n    }\n\n    /**\n     * @dev Public function to donate to an active campaign\n     * @param _id The ID of the campaign\n     */\n    function donateCampaign(uint256 _id) public payable {\n        require(_id < campaigns.length, \"The specified campaign does not exist\");\n        require(campaigns[_id].status == CampaignStatus.ACTIVE, \"The specified campaign is not active\");\n        require(block.timestamp <= campaigns[_id].creationTime + (campaigns[_id].weekDuration * 1 weeks), \"The specified campaign is no more active, the owner should finalize it\");\n        require(campaigns[_id].weiLimit - campaigns[_id].donatedWei - msg.value >= 0, \"The donation value is too high!\");\n        require(msg.value > 0, \"The donation must be greater than zero\");\n        require(msg.value % 0.0005 ether == 0, \"You can donate only using steps of 0.0005 ETH\");\n\n        campaigns[_id].donatedWei += msg.value; // Update the campaign's donatedWei field\n        dstBalances[msg.sender] += msg.value / 0.0005 ether;\n        donators[_id].push(Donation({\n            donator: msg.sender,\n            donatedWei: msg.value\n            })\n        );\n    }\n\n    /**\n     * @dev Public function to report a campaign\n     * @param _id The ID of the campaign\n     */\n    function reportCampaign(uint256 _id) public {\n        require(_id < campaigns.length, \"The specified campaign does not exist\");\n        require(campaigns[_id].status == CampaignStatus.ACTIVE, \"The specified campaign is not active\");\n        require(dstBalances[msg.sender] > 0, \"You must have at least 1 DST\");\n\n        dstBalances[msg.sender] -= 1;\n        campaignReports[_id].push(msg.sender);\n\n        if (campaignReports[_id].length > 1) {\n            // More than 100 reports, then the campaign is put in revision state\n            campaigns[_id].status = CampaignStatus.REVISION;\n            campaigns[_id].revisionTime = block.timestamp;\n        }\n    }\n\n    function finalizeCampaign(uint256 _id) public {\n        require(campaigns[_id].status == CampaignStatus.PENDING, \"The specified campaign is not pending!\");\n        require(block.timestamp > campaigns[_id].creationTime + 0 days, \"You can finalize it after 7 days!\");\n        require(msg.sender == campaigns[_id].owner, \"You cannot finalize this campaign as you are not the owner!\");\n\n        if (campaignApprovals[_id].length > campaignDisapprovals[_id].length) {\n            campaigns[_id].status = CampaignStatus.ACTIVE;\n        } else {\n            campaigns[_id].status = CampaignStatus.DISAPPROVED;\n        }\n    }\n\n    function terminateCampaign(uint256 _id) public {\n        require(campaigns[_id].status == CampaignStatus.ACTIVE, \"The specified campaign is not active!\");\n        require(block.timestamp >= campaigns[_id].creationTime + (campaigns[_id].weekDuration * 0 weeks), \"You can finalize it after 7 days!\");\n        require(msg.sender == campaigns[_id].owner, \"You cannot terminate this campaign as you are not the owner!\");\n\n        campaigns[_id].status = CampaignStatus.ENDED;\n        rewardSSJUsers(_id);\n\n        delete campaignRevisionApprovals[_id];\n        delete campaignRevisionDisapprovals[_id];\n\n        address payable campaignOwner = payable(campaigns[_id].owner);\n        campaignOwner.transfer(campaigns[_id].donatedWei);\n    }\n\n    function finalizeRevisionCampaign(uint256 _id) public {\n        require(campaigns[_id].status == CampaignStatus.REVISION, \"The specified campaign is not active!\");\n        require(block.timestamp >= campaigns[_id].revisionTime + 0 days, \"You can finalize it after 7 days!\");\n        require(msg.sender == campaigns[_id].owner, \"You cannot finalize this campaign as you are not the owner!\");\n\n        if (campaignRevisionApprovals[_id].length > campaignRevisionDisapprovals[_id].length) {\n            campaigns[_id].status = CampaignStatus.ACTIVE;\n            campaigns[_id].revisionTime = 0;\n        } else {\n            campaigns[_id].status = CampaignStatus.BANNED;\n            slashSSJUsers(_id);\n            rewardReporters(_id);\n            rewardSSJUsers(_id);\n            refundDonators(_id);\n            delete campaignRevisionApprovals[_id];\n            delete campaignRevisionDisapprovals[_id];\n        }\n    }\n\n    /**\n     * @dev Public function for SSJ users to vote (approve or disapprove) a pending campaign\n     * @param _id The ID of the campaign\n     * @param _approval Whether the user approves or disapproves the campaign\n     */\n    function voteForCampaign(uint256 _id, bool _approval) public returns(uint256) {\n        require(ssjVaults[msg.sender] > 0, \"You are not part of the SuperSaiyan Set!\");\n        require(campaigns[_id].status == CampaignStatus.PENDING, \"The specified campaign is not pending!\");\n        require(block.timestamp < campaigns[_id].creationTime + 7 days, \"The campaign is too old, you cannot vote anymore!\");\n        require(!addressInArray(msg.sender, campaignApprovals[_id]), \"You have already approved this campaign\");\n        require(!addressInArray(msg.sender, campaignDisapprovals[_id]), \"You have already disapproved this campaign\");\n\n        // Record the approval or disapproval vote\n        if (_approval) {\n            campaignApprovals[_id].push(msg.sender);\n        } else {\n            campaignDisapprovals[_id].push(msg.sender);\n        }\n\n        return ssjVaults[msg.sender];\n    }\n\n    /**\n     * @dev Public function for SSJ users to vote (approve or disapprove) a revisioned campaign\n     * @param _id The ID of the campaign\n     * @param _approval Whether the user approves or disapproves the campaign\n     */\n    function revisionCampaign(uint256 _id, bool _approval) public {\n        require(ssjVaults[msg.sender] > 0, \"You are not part of the SuperSaiyan Set!\");\n        require(campaigns[_id].status == CampaignStatus.REVISION, \"The specified campaign is not in revision!\");\n        require(block.timestamp < campaigns[_id].revisionTime + 7 days, \"The revision is too old, you cannot vote anymore!\");\n        require(!addressInArray(msg.sender, campaignRevisionApprovals[_id]), \"You have already approved this campaign\");\n        require(!addressInArray(msg.sender, campaignRevisionDisapprovals[_id]), \"You have already disapproved this campaign\");\n        require(!addressInArray(msg.sender, campaignApprovals[_id]), \"You have voted this campaign while it was pending, therefore you cannot vote for the revision\");\n        require(!addressInArray(msg.sender, campaignDisapprovals[_id]), \"You have voted this campaign while it was pending, therefore you cannot vote for the revision\");\n\n        // Record the approval or disapproval vote\n        if (_approval) {\n            campaignRevisionApprovals[_id].push(msg.sender);\n        } else {\n            campaignRevisionDisapprovals[_id].push(msg.sender);\n        }\n    }\n\n    /**\n     * @dev Public function for users to become part of the SuperSaiyan Set\n     */\n    function becomeSSJ() public payable {\n        require(ssjVaults[msg.sender] == 0, \"You are already part of the SuperSaiyan Set!\");\n        require(dstBalances[msg.sender] >= 500, \"You must hold at least 500 DST to become part of the SuperSaiyan Set!\");\n        require(msg.value >= 0.5 ether, \"You have to deposit at least 0.5 ETH to become a SuperSaiyan!\");\n\n        ssjVaults[msg.sender] = msg.value;\n    }\n\n    /**\n     * @dev Public function for users to exit the SuperSaiyan Set and become a normal user\n     */\n    function becomeNormalUser() public {\n        require(ssjVaults[msg.sender] > 0, \"You are not part of the SuperSaiyan Set!\");\n\n        address payable user = payable(msg.sender);\n        user.transfer(ssjVaults[msg.sender]);\n        ssjVaults[msg.sender] = 0;\n    }\n\n    /**\n     * @dev Public function for the contract creator to terminate the contract and withdraw funds\n     */\n    function terminate() public {\n        require(msg.sender == minter, \"You cannot terminate the contract!\");\n        payable(minter).transfer(address(this).balance);\n    }\n}\n",
  "sourcePath": "/ContainerFiles/contracts/DragonBlock.sol",
  "compiler": {
    "name": "solc",
    "version": "0.8.13+commit.abaa5c0e.Emscripten.clang"
  },
  "schemaVersion": "3.4.16",
  "updatedAt": "2024-01-05T20:56:36.367Z",
  "networkType": "ethereum",
  "devdoc": {
    "details": "A decentralized crowdfunding platform where users can create campaigns, donate, and vote using SuperSaiyan (SSJ) tokens.",
    "kind": "dev",
    "methods": {
      "becomeNormalUser()": {
        "details": "Public function for users to exit the SuperSaiyan Set and become a normal user"
      },
      "becomeSSJ()": {
        "details": "Public function for users to become part of the SuperSaiyan Set"
      },
      "constructor": {
        "details": "Constructor to initialize the contract"
      },
      "createCampaign(uint256,uint16)": {
        "details": "Public function to create a new campaign",
        "params": {
          "_weekDuration": "Duration of the campaign in weeks",
          "_weiLimit": "Maximum amount of ETH that can be donated to the campaign"
        }
      },
      "donateCampaign(uint256)": {
        "details": "Public function to donate to an active campaign",
        "params": {
          "_id": "The ID of the campaign"
        }
      },
      "reportCampaign(uint256)": {
        "details": "Public function to report a campaign",
        "params": {
          "_id": "The ID of the campaign"
        }
      },
      "revisionCampaign(uint256,bool)": {
        "details": "Public function for SSJ users to vote (approve or disapprove) a revisioned campaign",
        "params": {
          "_approval": "Whether the user approves or disapproves the campaign",
          "_id": "The ID of the campaign"
        }
      },
      "terminate()": {
        "details": "Public function for the contract creator to terminate the contract and withdraw funds"
      },
      "voteForCampaign(uint256,bool)": {
        "details": "Public function for SSJ users to vote (approve or disapprove) a pending campaign",
        "params": {
          "_approval": "Whether the user approves or disapproves the campaign",
          "_id": "The ID of the campaign"
        }
      }
    },
    "title": "DragonBlock Smart Contract",
    "version": 1
  },
  "userdoc": {
    "kind": "user",
    "methods": {},
    "version": 1
  }
}