{
  "contractName": "DragonBlockDEMO",
  "abi": [
    {
      "inputs": [
        {
          "internalType": "address",
          "name": "_oracleAddress",
          "type": "address"
        }
      ],
      "stateMutability": "nonpayable",
      "type": "constructor"
    },
    {
      "anonymous": false,
      "inputs": [
        {
          "indexed": false,
          "internalType": "uint256",
          "name": "campaignId",
          "type": "uint256"
        }
      ],
      "name": "CampaignCreation",
      "type": "event"
    },
    {
      "inputs": [
        {
          "internalType": "uint256",
          "name": "",
          "type": "uint256"
        }
      ],
      "name": "campaigns",
      "outputs": [
        {
          "internalType": "address",
          "name": "owner",
          "type": "address"
        },
        {
          "internalType": "uint256",
          "name": "id",
          "type": "uint256"
        },
        {
          "internalType": "enum DragonBlockDEMO.CampaignStatus",
          "name": "status",
          "type": "uint8"
        },
        {
          "internalType": "uint256",
          "name": "weiLimit",
          "type": "uint256"
        },
        {
          "internalType": "uint256",
          "name": "donatedWei",
          "type": "uint256"
        },
        {
          "internalType": "uint256",
          "name": "creationTime",
          "type": "uint256"
        },
        {
          "internalType": "uint256",
          "name": "revisionTime",
          "type": "uint256"
        },
        {
          "internalType": "uint16",
          "name": "weekDuration",
          "type": "uint16"
        }
      ],
      "stateMutability": "view",
      "type": "function",
      "constant": true
    },
    {
      "inputs": [
        {
          "internalType": "address",
          "name": "",
          "type": "address"
        }
      ],
      "name": "dstBalances",
      "outputs": [
        {
          "internalType": "uint256",
          "name": "",
          "type": "uint256"
        }
      ],
      "stateMutability": "view",
      "type": "function",
      "constant": true
    },
    {
      "inputs": [],
      "name": "minter",
      "outputs": [
        {
          "internalType": "address",
          "name": "",
          "type": "address"
        }
      ],
      "stateMutability": "view",
      "type": "function",
      "constant": true
    },
    {
      "inputs": [
        {
          "internalType": "address",
          "name": "",
          "type": "address"
        }
      ],
      "name": "ssjVaults",
      "outputs": [
        {
          "internalType": "uint256",
          "name": "",
          "type": "uint256"
        }
      ],
      "stateMutability": "view",
      "type": "function",
      "constant": true
    },
    {
      "inputs": [
        {
          "internalType": "address",
          "name": "",
          "type": "address"
        }
      ],
      "name": "verifiedUsers",
      "outputs": [
        {
          "internalType": "bool",
          "name": "",
          "type": "bool"
        }
      ],
      "stateMutability": "view",
      "type": "function",
      "constant": true
    },
    {
      "inputs": [
        {
          "internalType": "address",
          "name": "_verifiedUser",
          "type": "address"
        }
      ],
      "name": "_callback",
      "outputs": [],
      "stateMutability": "nonpayable",
      "type": "function"
    },
    {
      "inputs": [],
      "name": "verifyUser",
      "outputs": [],
      "stateMutability": "nonpayable",
      "type": "function"
    },
    {
      "inputs": [
        {
          "internalType": "address",
          "name": "_user",
          "type": "address"
        }
      ],
      "name": "getUserCombatLvl",
      "outputs": [
        {
          "internalType": "uint256",
          "name": "",
          "type": "uint256"
        }
      ],
      "stateMutability": "view",
      "type": "function",
      "constant": true
    },
    {
      "inputs": [
        {
          "internalType": "uint256",
          "name": "_weiLimit",
          "type": "uint256"
        },
        {
          "internalType": "uint16",
          "name": "_weekDuration",
          "type": "uint16"
        }
      ],
      "name": "createCampaign",
      "outputs": [],
      "stateMutability": "payable",
      "type": "function",
      "payable": true
    },
    {
      "inputs": [
        {
          "internalType": "uint256",
          "name": "_campaignWindow",
          "type": "uint256"
        }
      ],
      "name": "getCampaigns",
      "outputs": [
        {
          "components": [
            {
              "internalType": "address",
              "name": "owner",
              "type": "address"
            },
            {
              "internalType": "uint256",
              "name": "id",
              "type": "uint256"
            },
            {
              "internalType": "enum DragonBlockDEMO.CampaignStatus",
              "name": "status",
              "type": "uint8"
            },
            {
              "internalType": "uint256",
              "name": "weiLimit",
              "type": "uint256"
            },
            {
              "internalType": "uint256",
              "name": "donatedWei",
              "type": "uint256"
            },
            {
              "internalType": "uint256",
              "name": "creationTime",
              "type": "uint256"
            },
            {
              "internalType": "uint256",
              "name": "revisionTime",
              "type": "uint256"
            },
            {
              "internalType": "uint16",
              "name": "weekDuration",
              "type": "uint16"
            }
          ],
          "internalType": "struct DragonBlockDEMO.Campaign[]",
          "name": "",
          "type": "tuple[]"
        }
      ],
      "stateMutability": "view",
      "type": "function",
      "constant": true
    },
    {
      "inputs": [
        {
          "internalType": "address",
          "name": "_owner",
          "type": "address"
        }
      ],
      "name": "getOwnedCampaigns",
      "outputs": [
        {
          "components": [
            {
              "internalType": "address",
              "name": "owner",
              "type": "address"
            },
            {
              "internalType": "uint256",
              "name": "id",
              "type": "uint256"
            },
            {
              "internalType": "enum DragonBlockDEMO.CampaignStatus",
              "name": "status",
              "type": "uint8"
            },
            {
              "internalType": "uint256",
              "name": "weiLimit",
              "type": "uint256"
            },
            {
              "internalType": "uint256",
              "name": "donatedWei",
              "type": "uint256"
            },
            {
              "internalType": "uint256",
              "name": "creationTime",
              "type": "uint256"
            },
            {
              "internalType": "uint256",
              "name": "revisionTime",
              "type": "uint256"
            },
            {
              "internalType": "uint16",
              "name": "weekDuration",
              "type": "uint16"
            }
          ],
          "internalType": "struct DragonBlockDEMO.Campaign[]",
          "name": "",
          "type": "tuple[]"
        }
      ],
      "stateMutability": "view",
      "type": "function",
      "constant": true
    },
    {
      "inputs": [
        {
          "internalType": "uint256",
          "name": "_id",
          "type": "uint256"
        }
      ],
      "name": "donateCampaign",
      "outputs": [],
      "stateMutability": "payable",
      "type": "function",
      "payable": true
    },
    {
      "inputs": [
        {
          "internalType": "uint256",
          "name": "_id",
          "type": "uint256"
        }
      ],
      "name": "reportCampaign",
      "outputs": [],
      "stateMutability": "nonpayable",
      "type": "function"
    },
    {
      "inputs": [
        {
          "internalType": "uint256",
          "name": "_id",
          "type": "uint256"
        }
      ],
      "name": "finalizeCampaign",
      "outputs": [],
      "stateMutability": "nonpayable",
      "type": "function"
    },
    {
      "inputs": [
        {
          "internalType": "uint256",
          "name": "_id",
          "type": "uint256"
        }
      ],
      "name": "terminateCampaign",
      "outputs": [],
      "stateMutability": "nonpayable",
      "type": "function"
    },
    {
      "inputs": [
        {
          "internalType": "uint256",
          "name": "_id",
          "type": "uint256"
        }
      ],
      "name": "finalizeRevisionCampaign",
      "outputs": [],
      "stateMutability": "nonpayable",
      "type": "function"
    },
    {
      "inputs": [
        {
          "internalType": "uint256",
          "name": "_id",
          "type": "uint256"
        },
        {
          "internalType": "bool",
          "name": "_approval",
          "type": "bool"
        }
      ],
      "name": "voteForCampaign",
      "outputs": [
        {
          "internalType": "uint256",
          "name": "",
          "type": "uint256"
        }
      ],
      "stateMutability": "nonpayable",
      "type": "function"
    },
    {
      "inputs": [
        {
          "internalType": "uint256",
          "name": "_id",
          "type": "uint256"
        },
        {
          "internalType": "bool",
          "name": "_approval",
          "type": "bool"
        }
      ],
      "name": "revisionCampaign",
      "outputs": [],
      "stateMutability": "nonpayable",
      "type": "function"
    },
    {
      "inputs": [],
      "name": "becomeSSJ",
      "outputs": [],
      "stateMutability": "payable",
      "type": "function",
      "payable": true
    },
    {
      "inputs": [],
      "name": "becomeNormalUser",
      "outputs": [],
      "stateMutability": "nonpayable",
      "type": "function"
    },
    {
      "inputs": [],
      "name": "terminate",
      "outputs": [],
      "stateMutability": "nonpayable",
      "type": "function"
    }
  ],
  "bytecode": "0x60806040523480156200001157600080fd5b5060405162005c6238038062005c62833981810160405281019062000037919062000170565b33600a60006101000a81548173ffffffffffffffffffffffffffffffffffffffff021916908373ffffffffffffffffffffffffffffffffffffffff1602179055506103e8600160003373ffffffffffffffffffffffffffffffffffffffff1673ffffffffffffffffffffffffffffffffffffffff1681526020019081526020016000208190555080600b60006101000a81548173ffffffffffffffffffffffffffffffffffffffff021916908373ffffffffffffffffffffffffffffffffffffffff16021790555050620001a2565b600080fd5b600073ffffffffffffffffffffffffffffffffffffffff82169050919050565b600062000138826200010b565b9050919050565b6200014a816200012b565b81146200015657600080fd5b50565b6000815190506200016a816200013f565b92915050565b60006020828403121562000189576200018862000106565b5b6000620001998482850162000159565b91505092915050565b615ab080620001b26000396000f3fe6080604052600436106101295760003560e01c80636a288ef9116100ab578063bc7586fe1161006f578063bc7586fe146103b2578063db62877f146103bc578063e0968d6b146103e5578063e35fe3661461040e578063f4de5f871461044b578063fb58ca821461048857610129565b80636a288ef9146102dc5780636b5ca27d146103195780637ae47317146103425780638ffff8b01461037f578063954074821461039b57610129565b8063141961bc116100f2578063141961bc1461021357806317b3cdd21461025757806324005d581461026e5780632c780755146102975780635f52fdcd146102b357610129565b80623e63ab1461012e578063075461721461016b5780630c08bf88146101965780631050d9ef146101ad57806312abd905146101ea575b600080fd5b34801561013a57600080fd5b5061015560048036038101906101509190613e7d565b6104c5565b6040516101629190613ec3565b60405180910390f35b34801561017757600080fd5b506101806104dd565b60405161018d9190613eed565b60405180910390f35b3480156101a257600080fd5b506101ab610503565b005b3480156101b957600080fd5b506101d460048036038101906101cf9190613e7d565b6105fe565b6040516101e1919061410c565b60405180910390f35b3480156101f657600080fd5b50610211600480360381019061020c9190614192565b6108ea565b005b34801561021f57600080fd5b5061023a600480360381019061023591906141d2565b610d70565b60405161024e98979695949392919061421d565b60405180910390f35b34801561026357600080fd5b5061026c610e03565b005b34801561027a57600080fd5b50610295600480360381019061029091906141d2565b610fe4565b005b6102b160048036038101906102ac91906142c7565b611337565b005b3480156102bf57600080fd5b506102da60048036038101906102d59190613e7d565b611713565b005b3480156102e857600080fd5b5061030360048036038101906102fe9190613e7d565b61176e565b6040516103109190613ec3565b60405180910390f35b34801561032557600080fd5b50610340600480360381019061033b91906141d2565b611786565b005b34801561034e57600080fd5b50610369600480360381019061036491906141d2565b611aa9565b604051610376919061410c565b60405180910390f35b610399600480360381019061039491906141d2565b611d7a565b005b3480156103a757600080fd5b506103b0612258565b005b6103ba61233b565b005b3480156103c857600080fd5b506103e360048036038101906103de91906141d2565b61255e565b005b3480156103f157600080fd5b5061040c600480360381019061040791906141d2565b612939565b005b34801561041a57600080fd5b5061043560048036038101906104309190613e7d565b612ce9565b6040516104429190614316565b60405180910390f35b34801561045757600080fd5b50610472600480360381019061046d9190613e7d565b612d09565b60405161047f9190613ec3565b60405180910390f35b34801561049457600080fd5b506104af60048036038101906104aa9190614192565b612d78565b6040516104bc9190613ec3565b60405180910390f35b60026020528060005260406000206000915090505481565b600a60009054906101000a900473ffffffffffffffffffffffffffffffffffffffff1681565b600a60009054906101000a900473ffffffffffffffffffffffffffffffffffffffff1673ffffffffffffffffffffffffffffffffffffffff163373ffffffffffffffffffffffffffffffffffffffff1614610593576040517f08c379a000000000000000000000000000000000000000000000000000000000815260040161058a906143b4565b60405180910390fd5b600a60009054906101000a900473ffffffffffffffffffffffffffffffffffffffff1673ffffffffffffffffffffffffffffffffffffffff166108fc479081150290604051600060405180830381858888f193505050501580156105fb573d6000803e3d6000fd5b50565b60606000805b6000805490508110156106ab578373ffffffffffffffffffffffffffffffffffffffff166000828154811061063c5761063b6143d4565b5b906000526020600020906008020160000160009054906101000a900473ffffffffffffffffffffffffffffffffffffffff1673ffffffffffffffffffffffffffffffffffffffff160361069857818061069490614432565b9250505b80806106a390614432565b915050610604565b5060008167ffffffffffffffff8111156106c8576106c761447a565b5b60405190808252806020026020018201604052801561070157816020015b6106ee613d6b565b8152602001906001900390816106e65790505b5090506000805b6000805490508110156108de578573ffffffffffffffffffffffffffffffffffffffff16600082815481106107405761073f6143d4565b5b906000526020600020906008020160000160009054906101000a900473ffffffffffffffffffffffffffffffffffffffff1673ffffffffffffffffffffffffffffffffffffffff16036108cb57600081815481106107a1576107a06143d4565b5b9060005260206000209060080201604051806101000160405290816000820160009054906101000a900473ffffffffffffffffffffffffffffffffffffffff1673ffffffffffffffffffffffffffffffffffffffff1673ffffffffffffffffffffffffffffffffffffffff168152602001600182015481526020016002820160009054906101000a900460ff1660058111156108405761083f613f52565b5b600581111561085257610851613f52565b5b8152602001600382015481526020016004820154815260200160058201548152602001600682015481526020016007820160009054906101000a900461ffff1661ffff1661ffff16815250508383815181106108b1576108b06143d4565b5b602002602001018190525081806108c790614432565b9250505b80806108d690614432565b915050610708565b50819350505050919050565b600860003373ffffffffffffffffffffffffffffffffffffffff1673ffffffffffffffffffffffffffffffffffffffff16815260200190815260200160002060009054906101000a900460ff16610976576040517f08c379a000000000000000000000000000000000000000000000000000000000815260040161096d906144f5565b60405180910390fd5b6000600260003373ffffffffffffffffffffffffffffffffffffffff1673ffffffffffffffffffffffffffffffffffffffff16815260200190815260200160002054116109f8576040517f08c379a00000000000000000000000000000000000000000000000000000000081526004016109ef90614561565b60405180910390fd5b81610a15336003600084815260200190815260200160002061318c565b15610a55576040517f08c379a0000000000000000000000000000000000000000000000000000000008152600401610a4c906145f3565b60405180910390fd5b610a71336004600084815260200190815260200160002061318c565b15610ab1576040517f08c379a0000000000000000000000000000000000000000000000000000000008152600401610aa890614685565b60405180910390fd5b60036005811115610ac557610ac4613f52565b5b60008481548110610ad957610ad86143d4565b5b906000526020600020906008020160020160009054906101000a900460ff166005811115610b0a57610b09613f52565b5b14610b4a576040517f08c379a0000000000000000000000000000000000000000000000000000000008152600401610b4190614717565b60405180910390fd5b62093a8060008481548110610b6257610b616143d4565b5b906000526020600020906008020160060154610b7e9190614737565b4210610bbf576040517f08c379a0000000000000000000000000000000000000000000000000000000008152600401610bb6906147ff565b60405180910390fd5b610bdb336005600086815260200190815260200160002061318c565b15610c1b576040517f08c379a0000000000000000000000000000000000000000000000000000000008152600401610c1290614891565b60405180910390fd5b610c37336006600086815260200190815260200160002061318c565b15610c77576040517f08c379a0000000000000000000000000000000000000000000000000000000008152600401610c6e90614923565b60405180910390fd5b8115610cf65760056000848152602001908152602001600020339080600181540180825580915050600190039060005260206000200160009091909190916101000a81548173ffffffffffffffffffffffffffffffffffffffff021916908373ffffffffffffffffffffffffffffffffffffffff160217905550610d6b565b60066000848152602001908152602001600020339080600181540180825580915050600190039060005260206000200160009091909190916101000a81548173ffffffffffffffffffffffffffffffffffffffff021916908373ffffffffffffffffffffffffffffffffffffffff1602179055505b505050565b60008181548110610d8057600080fd5b90600052602060002090600802016000915090508060000160009054906101000a900473ffffffffffffffffffffffffffffffffffffffff16908060010154908060020160009054906101000a900460ff16908060030154908060040154908060050154908060060154908060070160009054906101000a900461ffff16905088565b600860003373ffffffffffffffffffffffffffffffffffffffff1673ffffffffffffffffffffffffffffffffffffffff16815260200190815260200160002060009054906101000a900460ff16610e8f576040517f08c379a0000000000000000000000000000000000000000000000000000000008152600401610e86906144f5565b60405180910390fd5b6000600260003373ffffffffffffffffffffffffffffffffffffffff1673ffffffffffffffffffffffffffffffffffffffff1681526020019081526020016000205411610f11576040517f08c379a0000000000000000000000000000000000000000000000000000000008152600401610f0890614561565b60405180910390fd5b60003390508073ffffffffffffffffffffffffffffffffffffffff166108fc600260003373ffffffffffffffffffffffffffffffffffffffff1673ffffffffffffffffffffffffffffffffffffffff168152602001908152602001600020549081150290604051600060405180830381858888f19350505050158015610f9b573d6000803e3d6000fd5b506000600260003373ffffffffffffffffffffffffffffffffffffffff1673ffffffffffffffffffffffffffffffffffffffff1681526020019081526020016000208190555050565b600860003373ffffffffffffffffffffffffffffffffffffffff1673ffffffffffffffffffffffffffffffffffffffff16815260200190815260200160002060009054906101000a900460ff16611070576040517f08c379a0000000000000000000000000000000000000000000000000000000008152600401611067906144f5565b60405180910390fd5b60008054905081106110b7576040517f08c379a00000000000000000000000000000000000000000000000000000000081526004016110ae906149b5565b60405180910390fd5b600160058111156110cb576110ca613f52565b5b600082815481106110df576110de6143d4565b5b906000526020600020906008020160020160009054906101000a900460ff1660058111156111105761110f613f52565b5b14611150576040517f08c379a000000000000000000000000000000000000000000000000000000000815260040161114790614a47565b60405180910390fd5b6000600160003373ffffffffffffffffffffffffffffffffffffffff1673ffffffffffffffffffffffffffffffffffffffff16815260200190815260200160002054116111d2576040517f08c379a00000000000000000000000000000000000000000000000000000000081526004016111c990614ab3565b60405180910390fd5b60018060003373ffffffffffffffffffffffffffffffffffffffff1673ffffffffffffffffffffffffffffffffffffffff16815260200190815260200160002060008282546112219190614ad3565b9250508190555060076000828152602001908152602001600020339080600181540180825580915050600190039060005260206000200160009091909190916101000a81548173ffffffffffffffffffffffffffffffffffffffff021916908373ffffffffffffffffffffffffffffffffffffffff160217905550600160076000838152602001908152602001600020805490501115611334576003600082815481106112d1576112d06143d4565b5b906000526020600020906008020160020160006101000a81548160ff0219169083600581111561130457611303613f52565b5b0217905550426000828154811061131e5761131d6143d4565b5b9060005260206000209060080201600601819055505b50565b600860003373ffffffffffffffffffffffffffffffffffffffff1673ffffffffffffffffffffffffffffffffffffffff16815260200190815260200160002060009054906101000a900460ff166113c3576040517f08c379a00000000000000000000000000000000000000000000000000000000081526004016113ba906144f5565b60405180910390fd5b60646005836113d29190614b07565b6113dc9190614b90565b341461141d576040517f08c379a000000000000000000000000000000000000000000000000000000000815260040161141490614c33565b60405180910390fd5b66b1a2bc2ec500008211611466576040517f08c379a000000000000000000000000000000000000000000000000000000000815260040161145d90614cc5565b60405180910390fd5b60006611c37937e080008361147b9190614ce5565b146114bb576040517f08c379a00000000000000000000000000000000000000000000000000000000081526004016114b290614d88565b60405180910390fd5b6114c433612d09565b67016345785d8a00006114d79190614b07565b821115611519576040517f08c379a000000000000000000000000000000000000000000000000000000000815260040161151090614e1a565b60405180910390fd5b60088161ffff1611611560576040517f08c379a000000000000000000000000000000000000000000000000000000000815260040161155790614ed2565b60405180910390fd5b60006040518061010001604052803373ffffffffffffffffffffffffffffffffffffffff1681526020016000805490508152602001600060058111156115a9576115a8613f52565b5b815260200184815260200160008152602001428152602001600081526020018361ffff16815250908060018154018082558091505060019003906000526020600020906008020160009091909190915060008201518160000160006101000a81548173ffffffffffffffffffffffffffffffffffffffff021916908373ffffffffffffffffffffffffffffffffffffffff1602179055506020820151816001015560408201518160020160006101000a81548160ff0219169083600581111561167557611674613f52565b5b0217905550606082015181600301556080820151816004015560a0820151816005015560c0820151816006015560e08201518160070160006101000a81548161ffff021916908361ffff16021790555050507fddc542354787cb630b12d547bef306670ab435a3efdf62eeacf8532c042390ec60016000805490506116fa9190614ad3565b6040516117079190613ec3565b60405180910390a15050565b6001600860008373ffffffffffffffffffffffffffffffffffffffff1673ffffffffffffffffffffffffffffffffffffffff16815260200190815260200160002060006101000a81548160ff02191690831515021790555050565b60016020528060005260406000206000915090505481565b600860003373ffffffffffffffffffffffffffffffffffffffff1673ffffffffffffffffffffffffffffffffffffffff16815260200190815260200160002060009054906101000a900460ff16611812576040517f08c379a0000000000000000000000000000000000000000000000000000000008152600401611809906144f5565b60405180910390fd5b6000600581111561182657611825613f52565b5b6000828154811061183a576118396143d4565b5b906000526020600020906008020160020160009054906101000a900460ff16600581111561186b5761186a613f52565b5b146118ab576040517f08c379a00000000000000000000000000000000000000000000000000000000081526004016118a290614f64565b60405180910390fd5b60008082815481106118c0576118bf6143d4565b5b9060005260206000209060080201600501546118dc9190614737565b421161191d576040517f08c379a000000000000000000000000000000000000000000000000000000000815260040161191490614ff6565b60405180910390fd5b60008181548110611931576119306143d4565b5b906000526020600020906008020160000160009054906101000a900473ffffffffffffffffffffffffffffffffffffffff1673ffffffffffffffffffffffffffffffffffffffff163373ffffffffffffffffffffffffffffffffffffffff16146119d0576040517f08c379a00000000000000000000000000000000000000000000000000000000081526004016119c790615088565b60405180910390fd5b600460008281526020019081526020016000208054905060036000838152602001908152602001600020805490501115611a5757600160008281548110611a1a57611a196143d4565b5b906000526020600020906008020160020160006101000a81548160ff02191690836005811115611a4d57611a4c613f52565b5b0217905550611aa6565b600260008281548110611a6d57611a6c6143d4565b5b906000526020600020906008020160020160006101000a81548160ff02191690836005811115611aa057611a9f613f52565b5b02179055505b50565b606060008211611aee576040517f08c379a0000000000000000000000000000000000000000000000000000000008152600401611ae59061511a565b60405180910390fd5b60006014600184611aff9190614ad3565b611b099190615144565b600080549050611b19919061525b565b1215611b5a576040517f08c379a0000000000000000000000000000000000000000000000000000000008152600401611b519061533b565b60405180910390fd5b6000601483611b699190615144565b600080549050611b79919061525b565b90506000811215611b8957600090505b60008080549050601483611b9d919061535b565b1115611bb95781600080549050611bb49190614ad3565b611bbc565b60145b905060008167ffffffffffffffff811115611bda57611bd961447a565b5b604051908082528060200260200182016040528015611c1357816020015b611c00613d6b565b815260200190600190039081611bf85790505b50905060005b82811015611d6e5760008185611c2f919061535b565b81548110611c4057611c3f6143d4565b5b9060005260206000209060080201604051806101000160405290816000820160009054906101000a900473ffffffffffffffffffffffffffffffffffffffff1673ffffffffffffffffffffffffffffffffffffffff1673ffffffffffffffffffffffffffffffffffffffff168152602001600182015481526020016002820160009054906101000a900460ff166005811115611cdf57611cde613f52565b5b6005811115611cf157611cf0613f52565b5b8152602001600382015481526020016004820154815260200160058201548152602001600682015481526020016007820160009054906101000a900461ffff1661ffff1661ffff1681525050828281518110611d5057611d4f6143d4565b5b60200260200101819052508080611d6690614432565b915050611c19565b50809350505050919050565b600860003373ffffffffffffffffffffffffffffffffffffffff1673ffffffffffffffffffffffffffffffffffffffff16815260200190815260200160002060009054906101000a900460ff16611e06576040517f08c379a0000000000000000000000000000000000000000000000000000000008152600401611dfd906144f5565b60405180910390fd5b6000805490508110611e4d576040517f08c379a0000000000000000000000000000000000000000000000000000000008152600401611e44906149b5565b60405180910390fd5b60016005811115611e6157611e60613f52565b5b60008281548110611e7557611e746143d4565b5b906000526020600020906008020160020160009054906101000a900460ff166005811115611ea657611ea5613f52565b5b14611ee6576040517f08c379a0000000000000000000000000000000000000000000000000000000008152600401611edd90614a47565b60405180910390fd5b62093a8060008281548110611efe57611efd6143d4565b5b906000526020600020906008020160070160009054906101000a900461ffff1661ffff16611f2c91906153fe565b62ffffff1660008281548110611f4557611f446143d4565b5b906000526020600020906008020160050154611f619190614737565b421115611fa3576040517f08c379a0000000000000000000000000000000000000000000000000000000008152600401611f9a906154d3565b60405180910390fd5b60003460008381548110611fba57611fb96143d4565b5b90600052602060002090600802016004015460008481548110611fe057611fdf6143d4565b5b906000526020600020906008020160030154611ffc9190614ad3565b6120069190614ad3565b1015612047576040517f08c379a000000000000000000000000000000000000000000000000000000000815260040161203e9061553f565b60405180910390fd5b6000341161208a576040517f08c379a0000000000000000000000000000000000000000000000000000000008152600401612081906155d1565b60405180910390fd5b60006601c6bf526340003461209f9190614ce5565b146120df576040517f08c379a00000000000000000000000000000000000000000000000000000000081526004016120d690615663565b60405180910390fd5b6064605f346120ee9190614b07565b6120f89190614b90565b6000828154811061210c5761210b6143d4565b5b9060005260206000209060080201600401600082825461212c9190614737565b925050819055506601c6bf52634000346121469190614b90565b600160003373ffffffffffffffffffffffffffffffffffffffff1673ffffffffffffffffffffffffffffffffffffffff16815260200190815260200160002060008282546121949190614737565b925050819055506009600082815260200190815260200160002060405180604001604052803373ffffffffffffffffffffffffffffffffffffffff16815260200134815250908060018154018082558091505060019003906000526020600020906002020160009091909190915060008201518160000160006101000a81548173ffffffffffffffffffffffffffffffffffffffff021916908373ffffffffffffffffffffffffffffffffffffffff16021790555060208201518160010155505050565b600860003373ffffffffffffffffffffffffffffffffffffffff1673ffffffffffffffffffffffffffffffffffffffff16815260200190815260200160002060009054906101000a900460ff1661233957600b60009054906101000a900473ffffffffffffffffffffffffffffffffffffffff1673ffffffffffffffffffffffffffffffffffffffff1663f3b9025c33306040518363ffffffff1660e01b8152600401612306929190615683565b600060405180830381600087803b15801561232057600080fd5b505af1158015612334573d6000803e3d6000fd5b505050505b565b600860003373ffffffffffffffffffffffffffffffffffffffff1673ffffffffffffffffffffffffffffffffffffffff16815260200190815260200160002060009054906101000a900460ff166123c7576040517f08c379a00000000000000000000000000000000000000000000000000000000081526004016123be906144f5565b60405180910390fd5b6000600260003373ffffffffffffffffffffffffffffffffffffffff1673ffffffffffffffffffffffffffffffffffffffff1681526020019081526020016000205414612449576040517f08c379a00000000000000000000000000000000000000000000000000000000081526004016124409061571e565b60405180910390fd5b6101f4600160003373ffffffffffffffffffffffffffffffffffffffff1673ffffffffffffffffffffffffffffffffffffffff1681526020019081526020016000205410156124cd576040517f08c379a00000000000000000000000000000000000000000000000000000000081526004016124c4906157d6565b60405180910390fd5b6706f05b59d3b20000341015612518576040517f08c379a000000000000000000000000000000000000000000000000000000000815260040161250f90615868565b60405180910390fd5b34600260003373ffffffffffffffffffffffffffffffffffffffff1673ffffffffffffffffffffffffffffffffffffffff16815260200190815260200160002081905550565b600860003373ffffffffffffffffffffffffffffffffffffffff1673ffffffffffffffffffffffffffffffffffffffff16815260200190815260200160002060009054906101000a900460ff166125ea576040517f08c379a00000000000000000000000000000000000000000000000000000000081526004016125e1906144f5565b60405180910390fd5b600160058111156125fe576125fd613f52565b5b60008281548110612612576126116143d4565b5b906000526020600020906008020160020160009054906101000a900460ff16600581111561264357612642613f52565b5b14612683576040517f08c379a000000000000000000000000000000000000000000000000000000000815260040161267a906158fa565b60405180910390fd5b6000808281548110612698576126976143d4565b5b906000526020600020906008020160070160009054906101000a900461ffff166126c2919061591a565b61ffff16600082815481106126da576126d96143d4565b5b9060005260206000209060080201600501546126f69190614737565b421015612738576040517f08c379a000000000000000000000000000000000000000000000000000000000815260040161272f90614ff6565b60405180910390fd5b6000818154811061274c5761274b6143d4565b5b906000526020600020906008020160000160009054906101000a900473ffffffffffffffffffffffffffffffffffffffff1673ffffffffffffffffffffffffffffffffffffffff163373ffffffffffffffffffffffffffffffffffffffff16146127eb576040517f08c379a00000000000000000000000000000000000000000000000000000000081526004016127e2906159c8565b60405180910390fd5b600560008281548110612801576128006143d4565b5b906000526020600020906008020160020160006101000a81548160ff0219169083600581111561283457612833613f52565b5b021790555061284281613239565b6005600082815260200190815260200160002060006128619190613ddc565b6006600082815260200190815260200160002060006128809190613ddc565b6000808281548110612895576128946143d4565b5b906000526020600020906008020160000160009054906101000a900473ffffffffffffffffffffffffffffffffffffffff1690508073ffffffffffffffffffffffffffffffffffffffff166108fc600084815481106128f7576128f66143d4565b5b9060005260206000209060080201600401549081150290604051600060405180830381858888f19350505050158015612934573d6000803e3d6000fd5b505050565b600860003373ffffffffffffffffffffffffffffffffffffffff1673ffffffffffffffffffffffffffffffffffffffff16815260200190815260200160002060009054906101000a900460ff166129c5576040517f08c379a00000000000000000000000000000000000000000000000000000000081526004016129bc906144f5565b60405180910390fd5b600360058111156129d9576129d8613f52565b5b600082815481106129ed576129ec6143d4565b5b906000526020600020906008020160020160009054906101000a900460ff166005811115612a1e57612a1d613f52565b5b14612a5e576040517f08c379a0000000000000000000000000000000000000000000000000000000008152600401612a5590614717565b60405180910390fd5b6000808281548110612a7357612a726143d4565b5b906000526020600020906008020160060154612a8f9190614737565b421015612ad1576040517f08c379a0000000000000000000000000000000000000000000000000000000008152600401612ac890614ff6565b60405180910390fd5b60008181548110612ae557612ae46143d4565b5b906000526020600020906008020160000160009054906101000a900473ffffffffffffffffffffffffffffffffffffffff1673ffffffffffffffffffffffffffffffffffffffff163373ffffffffffffffffffffffffffffffffffffffff1614612b84576040517f08c379a0000000000000000000000000000000000000000000000000000000008152600401612b7b90615088565b60405180910390fd5b600660008281526020019081526020016000208054905060056000838152602001908152602001600020805490501115612c3557600160008281548110612bce57612bcd6143d4565b5b906000526020600020906008020160020160006101000a81548160ff02191690836005811115612c0157612c00613f52565b5b02179055506000808281548110612c1b57612c1a6143d4565b5b906000526020600020906008020160060181905550612ce6565b600460008281548110612c4b57612c4a6143d4565b5b906000526020600020906008020160020160006101000a81548160ff02191690836005811115612c7e57612c7d613f52565b5b0217905550612c8c816138ca565b612c9581613b76565b612c9e81613239565b612ca781613c5a565b600560008281526020019081526020016000206000612cc69190613ddc565b600660008281526020019081526020016000206000612ce59190613ddc565b5b50565b60086020528060005260406000206000915054906101000a900460ff1681565b600080600a600160008573ffffffffffffffffffffffffffffffffffffffff1673ffffffffffffffffffffffffffffffffffffffff16815260200190815260200160002054612d589190614b07565b90506123288110612d6e57612328915050612d73565b809150505b919050565b6000600860003373ffffffffffffffffffffffffffffffffffffffff1673ffffffffffffffffffffffffffffffffffffffff16815260200190815260200160002060009054906101000a900460ff16612e06576040517f08c379a0000000000000000000000000000000000000000000000000000000008152600401612dfd906144f5565b60405180910390fd5b6000600260003373ffffffffffffffffffffffffffffffffffffffff1673ffffffffffffffffffffffffffffffffffffffff1681526020019081526020016000205411612e88576040517f08c379a0000000000000000000000000000000000000000000000000000000008152600401612e7f90614561565b60405180910390fd5b82612ea5336003600084815260200190815260200160002061318c565b15612ee5576040517f08c379a0000000000000000000000000000000000000000000000000000000008152600401612edc906145f3565b60405180910390fd5b612f01336004600084815260200190815260200160002061318c565b15612f41576040517f08c379a0000000000000000000000000000000000000000000000000000000008152600401612f3890614685565b60405180910390fd5b60006005811115612f5557612f54613f52565b5b60008581548110612f6957612f686143d4565b5b906000526020600020906008020160020160009054906101000a900460ff166005811115612f9a57612f99613f52565b5b14612fda576040517f08c379a0000000000000000000000000000000000000000000000000000000008152600401612fd190614f64565b60405180910390fd5b62093a8060008581548110612ff257612ff16143d4565b5b90600052602060002090600802016005015461300e9190614737565b421061304f576040517f08c379a000000000000000000000000000000000000000000000000000000000815260040161304690615a5a565b60405180910390fd5b82156130ce5760036000858152602001908152602001600020339080600181540180825580915050600190039060005260206000200160009091909190916101000a81548173ffffffffffffffffffffffffffffffffffffffff021916908373ffffffffffffffffffffffffffffffffffffffff160217905550613143565b60046000858152602001908152602001600020339080600181540180825580915050600190039060005260206000200160009091909190916101000a81548173ffffffffffffffffffffffffffffffffffffffff021916908373ffffffffffffffffffffffffffffffffffffffff1602179055505b600260003373ffffffffffffffffffffffffffffffffffffffff1673ffffffffffffffffffffffffffffffffffffffff1681526020019081526020016000205491505092915050565b600080600090505b828054905081101561322d578373ffffffffffffffffffffffffffffffffffffffff168382815481106131ca576131c96143d4565b5b9060005260206000200160009054906101000a900473ffffffffffffffffffffffffffffffffffffffff1673ffffffffffffffffffffffffffffffffffffffff160361321a576001915050613233565b808061322590614432565b915050613194565b50600090505b92915050565b6004600581111561324d5761324c613f52565b5b60008281548110613261576132606143d4565b5b906000526020600020906008020160020160009054906101000a900460ff16600581111561329257613291613f52565b5b036135565760005b60046000838152602001908152602001600020805490508110156133f55760006004600084815260200190815260200160002082815481106132df576132de6143d4565b5b9060005260206000200160009054906101000a900473ffffffffffffffffffffffffffffffffffffffff169050600660008481526020019081526020016000208054905060046000858152602001908152602001600020805490506133449190614737565b606460056000868154811061335c5761335b6143d4565b5b9060005260206000209060080201600301546133789190614b07565b6133829190614b90565b61338c9190614b90565b600260008373ffffffffffffffffffffffffffffffffffffffff1673ffffffffffffffffffffffffffffffffffffffff16815260200190815260200160002060008282546133da9190614737565b925050819055505080806133ed90614432565b91505061329a565b5060005b600660008381526020019081526020016000208054905081101561355457600060066000848152602001908152602001600020828154811061343e5761343d6143d4565b5b9060005260206000200160009054906101000a900473ffffffffffffffffffffffffffffffffffffffff169050600660008481526020019081526020016000208054905060046000858152602001908152602001600020805490506134a39190614737565b60646005600086815481106134bb576134ba6143d4565b5b9060005260206000209060080201600301546134d79190614b07565b6134e19190614b90565b6134eb9190614b90565b600260008373ffffffffffffffffffffffffffffffffffffffff1673ffffffffffffffffffffffffffffffffffffffff16815260200190815260200160002060008282546135399190614737565b9250508190555050808061354c90614432565b9150506133f9565b505b60058081111561356957613568613f52565b5b6000828154811061357d5761357c6143d4565b5b906000526020600020906008020160020160009054906101000a900460ff1660058111156135ae576135ad613f52565b5b036138c65760008082815481106135c8576135c76143d4565b5b9060005260206000209060080201600301546064600084815481106135f0576135ef6143d4565b5b90600052602060002090600802016004015461360c9190614b07565b6136169190614b90565b90506005811161362657506138c7565b60006064826064600560008781548110613643576136426143d4565b5b90600052602060002090600802016003015461365f9190614b07565b6136699190614b90565b6136739190614b07565b61367d9190614b90565b905060005b60036000858152602001908152602001600020805490508110156137a05760006003600086815260200190815260200160002082815481106136c7576136c66143d4565b5b9060005260206000200160009054906101000a900473ffffffffffffffffffffffffffffffffffffffff1690506005600086815260200190815260200160002080549050600360008781526020019081526020016000208054905061372c9190614737565b836137379190614b90565b600260008373ffffffffffffffffffffffffffffffffffffffff1673ffffffffffffffffffffffffffffffffffffffff16815260200190815260200160002060008282546137859190614737565b9250508190555050808061379890614432565b915050613682565b5060005b60056000858152602001908152602001600020805490508110156138c25760006005600086815260200190815260200160002082815481106137e9576137e86143d4565b5b9060005260206000200160009054906101000a900473ffffffffffffffffffffffffffffffffffffffff1690506005600086815260200190815260200160002080549050600360008781526020019081526020016000208054905061384e9190614737565b836138599190614b90565b600260008373ffffffffffffffffffffffffffffffffffffffff1673ffffffffffffffffffffffffffffffffffffffff16815260200190815260200160002060008282546138a79190614737565b925050819055505080806138ba90614432565b9150506137a4565b5050505b5b50565b60005b6003600083815260200190815260200160002080549050811015613b72576000600360008481526020019081526020016000208281548110613912576139116143d4565b5b9060005260206000200160009054906101000a900473ffffffffffffffffffffffffffffffffffffffff1690506658d15e17628000600260008373ffffffffffffffffffffffffffffffffffffffff1673ffffffffffffffffffffffffffffffffffffffff16815260200190815260200160002060008282546139959190614ad3565b92505081905550600a600160008373ffffffffffffffffffffffffffffffffffffffff1673ffffffffffffffffffffffffffffffffffffffff16815260200190815260200160002060008282546139ec9190614ad3565b9250508190555066b1a2bc2ec50000600260008373ffffffffffffffffffffffffffffffffffffffff1673ffffffffffffffffffffffffffffffffffffffff168152602001908152602001600020541080613a8757506101f4600160008373ffffffffffffffffffffffffffffffffffffffff1673ffffffffffffffffffffffffffffffffffffffff16815260200190815260200160002054105b15613b5e5760008190508073ffffffffffffffffffffffffffffffffffffffff166108fc600260008573ffffffffffffffffffffffffffffffffffffffff1673ffffffffffffffffffffffffffffffffffffffff168152602001908152602001600020549081150290604051600060405180830381858888f19350505050158015613b16573d6000803e3d6000fd5b506000600260008473ffffffffffffffffffffffffffffffffffffffff1673ffffffffffffffffffffffffffffffffffffffff16815260200190815260200160002081905550505b508080613b6a90614432565b9150506138cd565b5050565b60005b6007600083815260200190815260200160002080549050811015613c56576000600760008481526020019081526020016000208281548110613bbe57613bbd6143d4565b5b9060005260206000200160009054906101000a900473ffffffffffffffffffffffffffffffffffffffff1690506002600160008373ffffffffffffffffffffffffffffffffffffffff1673ffffffffffffffffffffffffffffffffffffffff1681526020019081526020016000206000828254613c3b9190614737565b92505081905550508080613c4e90614432565b915050613b79565b5050565b60005b6009600083815260200190815260200160002080549050811015613d67576000600960008481526020019081526020016000208281548110613ca257613ca16143d4565b5b906000526020600020906002020160000160009054906101000a900473ffffffffffffffffffffffffffffffffffffffff1690508073ffffffffffffffffffffffffffffffffffffffff166108fc600960008681526020019081526020016000208481548110613d1557613d146143d4565b5b9060005260206000209060020201600101549081150290604051600060405180830381858888f19350505050158015613d52573d6000803e3d6000fd5b50508080613d5f90614432565b915050613c5d565b5050565b604051806101000160405280600073ffffffffffffffffffffffffffffffffffffffff1681526020016000815260200160006005811115613daf57613dae613f52565b5b815260200160008152602001600081526020016000815260200160008152602001600061ffff1681525090565b5080546000825590600052602060002090810190613dfa9190613dfd565b50565b5b80821115613e16576000816000905550600101613dfe565b5090565b600080fd5b600073ffffffffffffffffffffffffffffffffffffffff82169050919050565b6000613e4a82613e1f565b9050919050565b613e5a81613e3f565b8114613e6557600080fd5b50565b600081359050613e7781613e51565b92915050565b600060208284031215613e9357613e92613e1a565b5b6000613ea184828501613e68565b91505092915050565b6000819050919050565b613ebd81613eaa565b82525050565b6000602082019050613ed86000830184613eb4565b92915050565b613ee781613e3f565b82525050565b6000602082019050613f026000830184613ede565b92915050565b600081519050919050565b600082825260208201905092915050565b6000819050602082019050919050565b613f3d81613e3f565b82525050565b613f4c81613eaa565b82525050565b7f4e487b7100000000000000000000000000000000000000000000000000000000600052602160045260246000fd5b60068110613f9257613f91613f52565b5b50565b6000819050613fa382613f81565b919050565b6000613fb382613f95565b9050919050565b613fc381613fa8565b82525050565b600061ffff82169050919050565b613fe081613fc9565b82525050565b61010082016000820151613ffd6000850182613f34565b5060208201516140106020850182613f43565b5060408201516140236040850182613fba565b5060608201516140366060850182613f43565b5060808201516140496080850182613f43565b5060a082015161405c60a0850182613f43565b5060c082015161406f60c0850182613f43565b5060e082015161408260e0850182613fd7565b50505050565b60006140948383613fe6565b6101008301905092915050565b6000602082019050919050565b60006140b982613f08565b6140c38185613f13565b93506140ce83613f24565b8060005b838110156140ff5781516140e68882614088565b97506140f1836140a1565b9250506001810190506140d2565b5085935050505092915050565b6000602082019050818103600083015261412681846140ae565b905092915050565b61413781613eaa565b811461414257600080fd5b50565b6000813590506141548161412e565b92915050565b60008115159050919050565b61416f8161415a565b811461417a57600080fd5b50565b60008135905061418c81614166565b92915050565b600080604083850312156141a9576141a8613e1a565b5b60006141b785828601614145565b92505060206141c88582860161417d565b9150509250929050565b6000602082840312156141e8576141e7613e1a565b5b60006141f684828501614145565b91505092915050565b61420881613fa8565b82525050565b61421781613fc9565b82525050565b600061010082019050614233600083018b613ede565b614240602083018a613eb4565b61424d60408301896141ff565b61425a6060830188613eb4565b6142676080830187613eb4565b61427460a0830186613eb4565b61428160c0830185613eb4565b61428e60e083018461420e565b9998505050505050505050565b6142a481613fc9565b81146142af57600080fd5b50565b6000813590506142c18161429b565b92915050565b600080604083850312156142de576142dd613e1a565b5b60006142ec85828601614145565b92505060206142fd858286016142b2565b9150509250929050565b6143108161415a565b82525050565b600060208201905061432b6000830184614307565b92915050565b600082825260208201905092915050565b7f596f752063616e6e6f74207465726d696e6174652074686520636f6e7472616360008201527f7421000000000000000000000000000000000000000000000000000000000000602082015250565b600061439e602283614331565b91506143a982614342565b604082019050919050565b600060208201905081810360008301526143cd81614391565b9050919050565b7f4e487b7100000000000000000000000000000000000000000000000000000000600052603260045260246000fd5b7f4e487b7100000000000000000000000000000000000000000000000000000000600052601160045260246000fd5b600061443d82613eaa565b91507fffffffffffffffffffffffffffffffffffffffffffffffffffffffffffffffff820361446f5761446e614403565b5b600182019050919050565b7f4e487b7100000000000000000000000000000000000000000000000000000000600052604160045260246000fd5b7f596f7520617265206e6f74206120766572696669656420757365722100000000600082015250565b60006144df601c83614331565b91506144ea826144a9565b602082019050919050565b6000602082019050818103600083015261450e816144d2565b9050919050565b7f596f7520617265206e6f7420612053534a210000000000000000000000000000600082015250565b600061454b601283614331565b915061455682614515565b602082019050919050565b6000602082019050818103600083015261457a8161453e565b9050919050565b7f596f75206861766520616c726561647920617070726f7665642074686973206360008201527f616d706169676e00000000000000000000000000000000000000000000000000602082015250565b60006145dd602783614331565b91506145e882614581565b604082019050919050565b6000602082019050818103600083015261460c816145d0565b9050919050565b7f596f75206861766520616c726561647920646973617070726f7665642074686960008201527f732063616d706169676e00000000000000000000000000000000000000000000602082015250565b600061466f602a83614331565b915061467a82614613565b604082019050919050565b6000602082019050818103600083015261469e81614662565b9050919050565b7f546865207370656369666965642063616d706169676e206973206e6f7420696e60008201527f207265766973696f6e2100000000000000000000000000000000000000000000602082015250565b6000614701602a83614331565b915061470c826146a5565b604082019050919050565b60006020820190508181036000830152614730816146f4565b9050919050565b600061474282613eaa565b915061474d83613eaa565b9250827fffffffffffffffffffffffffffffffffffffffffffffffffffffffffffffffff0382111561478257614781614403565b5b828201905092915050565b7f546865207265766973696f6e20697320746f6f206f6c642c20796f752063616e60008201527f6e6f7420766f746520616e796d6f726521000000000000000000000000000000602082015250565b60006147e9603183614331565b91506147f48261478d565b604082019050919050565b60006020820190508181036000830152614818816147dc565b9050919050565b7f596f75206861766520616c726561647920617070726f7665642074686973206360008201527f616d706169676e207265766973696f6e00000000000000000000000000000000602082015250565b600061487b603083614331565b91506148868261481f565b604082019050919050565b600060208201905081810360008301526148aa8161486e565b9050919050565b7f596f75206861766520616c726561647920646973617070726f7665642074686960008201527f732063616d706169676e207265766973696f6e00000000000000000000000000602082015250565b600061490d603383614331565b9150614918826148b1565b604082019050919050565b6000602082019050818103600083015261493c81614900565b9050919050565b7f546865207370656369666965642063616d706169676e20646f6573206e6f742060008201527f6578697374000000000000000000000000000000000000000000000000000000602082015250565b600061499f602583614331565b91506149aa82614943565b604082019050919050565b600060208201905081810360008301526149ce81614992565b9050919050565b7f546865207370656369666965642063616d706169676e206973206e6f7420616360008201527f7469766500000000000000000000000000000000000000000000000000000000602082015250565b6000614a31602483614331565b9150614a3c826149d5565b604082019050919050565b60006020820190508181036000830152614a6081614a24565b9050919050565b7f596f75206d7573742068617665206174206c6561737420312044535400000000600082015250565b6000614a9d601c83614331565b9150614aa882614a67565b602082019050919050565b60006020820190508181036000830152614acc81614a90565b9050919050565b6000614ade82613eaa565b9150614ae983613eaa565b925082821015614afc57614afb614403565b5b828203905092915050565b6000614b1282613eaa565b9150614b1d83613eaa565b9250817fffffffffffffffffffffffffffffffffffffffffffffffffffffffffffffffff0483118215151615614b5657614b55614403565b5b828202905092915050565b7f4e487b7100000000000000000000000000000000000000000000000000000000600052601260045260246000fd5b6000614b9b82613eaa565b9150614ba683613eaa565b925082614bb657614bb5614b61565b5b828204905092915050565b7f596f75206861766520746f206465706f736974203525206f662074686520776560008201527f694c696d69742100000000000000000000000000000000000000000000000000602082015250565b6000614c1d602783614331565b9150614c2882614bc1565b604082019050919050565b60006020820190508181036000830152614c4c81614c10565b9050919050565b7f54686520646f6e6174696f6e206c696d6974206d75737420626520677265617460008201527f6572207468616e20302e30352045544800000000000000000000000000000000602082015250565b6000614caf603083614331565b9150614cba82614c53565b604082019050919050565b60006020820190508181036000830152614cde81614ca2565b9050919050565b6000614cf082613eaa565b9150614cfb83613eaa565b925082614d0b57614d0a614b61565b5b828206905092915050565b7f54686520646f6e6174696f6e206c696d6974206d7573742062652061206d756c60008201527f7469706c65206f6620302e303035204554480000000000000000000000000000602082015250565b6000614d72603283614331565b9150614d7d82614d16565b604082019050919050565b60006020820190508181036000830152614da181614d65565b9050919050565b7f596f757220636f6d626174206c6576656c20697320746f6f206c6f7720666f7260008201527f2074686520726571756573746564204554482100000000000000000000000000602082015250565b6000614e04603383614331565b9150614e0f82614da8565b604082019050919050565b60006020820190508181036000830152614e3381614df7565b9050919050565b7f5468652063616d706169676e206475726174696f6e202865787072657373656460008201527f20696e207765656b7329206d7573742062652067726561746572207468616e2060208201527f3800000000000000000000000000000000000000000000000000000000000000604082015250565b6000614ebc604183614331565b9150614ec782614e3a565b606082019050919050565b60006020820190508181036000830152614eeb81614eaf565b9050919050565b7f546865207370656369666965642063616d706169676e206973206e6f7420706560008201527f6e64696e67210000000000000000000000000000000000000000000000000000602082015250565b6000614f4e602683614331565b9150614f5982614ef2565b604082019050919050565b60006020820190508181036000830152614f7d81614f41565b9050919050565b7f596f752063616e2066696e616c697a652069742061667465722037206461797360008201527f2100000000000000000000000000000000000000000000000000000000000000602082015250565b6000614fe0602183614331565b9150614feb82614f84565b604082019050919050565b6000602082019050818103600083015261500f81614fd3565b9050919050565b7f596f752063616e6e6f742066696e616c697a6520746869732063616d7061696760008201527f6e20617320796f7520617265206e6f7420746865206f776e6572210000000000602082015250565b6000615072603b83614331565b915061507d82615016565b604082019050919050565b600060208201905081810360008301526150a181615065565b9050919050565b7f57696e646f772073697a65206d7573742062652067726561746572207468616e60008201527f2030000000000000000000000000000000000000000000000000000000000000602082015250565b6000615104602283614331565b915061510f826150a8565b604082019050919050565b60006020820190508181036000830152615133816150f7565b9050919050565b6000819050919050565b600061514f8261513a565b915061515a8361513a565b9250827f7fffffffffffffffffffffffffffffffffffffffffffffffffffffffffffffff048211600084136000841316161561519957615198614403565b5b817f800000000000000000000000000000000000000000000000000000000000000005831260008412600084131616156151d6576151d5614403565b5b827f8000000000000000000000000000000000000000000000000000000000000000058212600084136000841216161561521357615212614403565b5b827f7fffffffffffffffffffffffffffffffffffffffffffffffffffffffffffffff05821260008412600084121616156152505761524f614403565b5b828202905092915050565b60006152668261513a565b91506152718361513a565b9250827f8000000000000000000000000000000000000000000000000000000000000000018212600084121516156152ac576152ab614403565b5b827f7fffffffffffffffffffffffffffffffffffffffffffffffffffffffffffffff0182136000841216156152e4576152e3614403565b5b828203905092915050565b7f5468652077696e646f772073697a6520697320746f6f206c6172676500000000600082015250565b6000615325601c83614331565b9150615330826152ef565b602082019050919050565b6000602082019050818103600083015261535481615318565b9050919050565b60006153668261513a565b91506153718361513a565b9250817f7fffffffffffffffffffffffffffffffffffffffffffffffffffffffffffffff038313600083121516156153ac576153ab614403565b5b817f80000000000000000000000000000000000000000000000000000000000000000383126000831216156153e4576153e3614403565b5b828201905092915050565b600062ffffff82169050919050565b6000615409826153ef565b9150615414836153ef565b92508162ffffff04831182151516156154305761542f614403565b5b828202905092915050565b7f546865207370656369666965642063616d706169676e206973206e6f206c6f6e60008201527f676572206163746976653b20746865206f776e65722073686f756c642066696e60208201527f616c697a65206974000000000000000000000000000000000000000000000000604082015250565b60006154bd604883614331565b91506154c88261543b565b606082019050919050565b600060208201905081810360008301526154ec816154b0565b9050919050565b7f54686520646f6e6174696f6e2076616c756520697320746f6f20686967682100600082015250565b6000615529601f83614331565b9150615534826154f3565b602082019050919050565b600060208201905081810360008301526155588161551c565b9050919050565b7f54686520646f6e6174696f6e206d75737420626520677265617465722074686160008201527f6e207a65726f0000000000000000000000000000000000000000000000000000602082015250565b60006155bb602683614331565b91506155c68261555f565b604082019050919050565b600060208201905081810360008301526155ea816155ae565b9050919050565b7f596f752063616e20646f6e617465206f6e6c79207573696e672073746570732060008201527f6f6620302e303030352045544800000000000000000000000000000000000000602082015250565b600061564d602d83614331565b9150615658826155f1565b604082019050919050565b6000602082019050818103600083015261567c81615640565b9050919050565b60006040820190506156986000830185613ede565b6156a56020830184613ede565b9392505050565b7f596f752061726520616c72656164792070617274206f6620746865205375706560008201527f7253616979616e20536574210000000000000000000000000000000000000000602082015250565b6000615708602c83614331565b9150615713826156ac565b604082019050919050565b60006020820190508181036000830152615737816156fb565b9050919050565b7f596f75206d75737420686f6c64206174206c656173742035303020445354207460008201527f6f206265636f6d652070617274206f662074686520537570657253616979616e60208201527f2053657421000000000000000000000000000000000000000000000000000000604082015250565b60006157c0604583614331565b91506157cb8261573e565b606082019050919050565b600060208201905081810360008301526157ef816157b3565b9050919050565b7f596f75206861766520746f206465706f736974206174206c6561737420302e3560008201527f2045544820746f206265636f6d65206120537570657253616979616e21000000602082015250565b6000615852603d83614331565b915061585d826157f6565b604082019050919050565b6000602082019050818103600083015261588181615845565b9050919050565b7f546865207370656369666965642063616d706169676e206973206e6f7420616360008201527f7469766521000000000000000000000000000000000000000000000000000000602082015250565b60006158e4602583614331565b91506158ef82615888565b604082019050919050565b60006020820190508181036000830152615913816158d7565b9050919050565b600061592582613fc9565b915061593083613fc9565b92508161ffff048311821515161561594b5761594a614403565b5b828202905092915050565b7f596f752063616e6e6f74207465726d696e61746520746869732063616d70616960008201527f676e20617320796f7520617265206e6f7420746865206f776e65722100000000602082015250565b60006159b2603c83614331565b91506159bd82615956565b604082019050919050565b600060208201905081810360008301526159e1816159a5565b9050919050565b7f5468652063616d706169676e20697320746f6f206f6c642c20796f752063616e60008201527f6e6f7420766f746520616e796d6f726521000000000000000000000000000000602082015250565b6000615a44603183614331565b9150615a4f826159e8565b604082019050919050565b60006020820190508181036000830152615a7381615a37565b905091905056fea26469706673582212209119b1412952fd3e42e4b240464344c3ad82e7c473642c4f9d00f92dae3f3aee64736f6c634300080d0033",
  "immutableReferences": {},
  "source": "// SPDX-License-Identifier: MIT\npragma solidity ^0.8.0;\n\nimport \"./UsingOracle.sol\";\nimport \"./DragonBlockOracle.sol\";\n\n/**\n * @title DragonBlock Smart Contract\n * @dev A decentralized crowdfunding platform where users can create campaigns, donate, and vote using SuperSaiyan (SSJ) tokens.\n */\ncontract DragonBlockDEMO is UsingOracle \n{\n    // Enum to represent different statuses of a campaign\n    enum CampaignStatus \n    {\n        PENDING,\n        ACTIVE,\n        DISAPPROVED,\n        REVISION,\n        BANNED,\n        ENDED\n    }\n\n    // Struct to represent a campaign\n    struct Campaign \n    {\n        address owner;          // Address of the campaign owner\n        uint256 id;             // Unique identifier for the campaign\n        CampaignStatus status;  // Current status of the campaign\n        uint256 weiLimit;       // Maximum amount of ETH that can be donated to the campaign\n        uint256 donatedWei;     // Total ETH donated to the campaign\n        uint256 creationTime;   // Timestamp when the campaign was created\n        uint256 revisionTime;   // Timestamp when the campaign entered the revision state\n        uint16 weekDuration;    // Duration of the campaign in weeks\n    }\n\n    event CampaignCreation(uint256 campaignId); // Event to notify the campaign creation returning its ID\n\n    Campaign[] public campaigns; // Array to store all campaigns\n\n    mapping(address => uint) public dstBalances; // Mapping to track DST balances of users (Key: address of the user)\n\n    mapping(address => uint256) public ssjVaults; // Mapping to track users who are part of the SuperSaiyan Set (Key: address of the user)\n\n    // Mapping to store addresses that approved or disapproved a campaign (Key: campaign ID)\n    mapping(uint256 => address[]) private campaignApprovals; \n    mapping(uint256 => address[]) private campaignDisapprovals;\n\n    // Mapping to store addresses that approved or disapproved a revisioned campaign (Key: campaign ID)\n    mapping(uint256 => address[]) private campaignRevisionApprovals;\n    mapping(uint256 => address[]) private campaignRevisionDisapprovals;\n\n    mapping(uint256 => address[]) private campaignReports; // Mapping to store addresses that reported a campaign (Key: campaign ID)\n\n    mapping(address => bool) public verifiedUsers; // Mapping to track of users who are already been verified (Key: address of the user)\n\n    // Struct to represent a donation\n    struct Donation \n    {\n        address donator;\n        uint256 donatedWei;\n    }\n\n    mapping (uint256 => Donation[]) private donators; // Mapping to track of donations made to a certain campaign (Key: campaign ID)\n\n    address public minter; // Address of the contract creator\n\n    DragonBlockOracle private oracle; // DragonBlockOracle instance\n\n\n    /**\n     * @dev Modifier to check if the caller is a verified user.\n     */\n    modifier isVerified() \n    {\n        // Check if the caller is a verified user\n        require(verifiedUsers[msg.sender], \"You are not a verified user!\");\n        _;  // Continue with the function execution if the check passes\n    }\n\n\n\n    /**\n     * @dev Modifier to check if the caller is part of the SuperSaiyan Set.\n     */\n    modifier isSSJ() \n    {\n        // Check if the caller is part of the SuperSaiyan Set\n        require(ssjVaults[msg.sender] > 0, \"You are not a SSJ!\");\n        _;  // Continue with the function execution if the check passes\n    }\n\n\n\n    /**\n     * @dev Modifier to check if the caller has not voted on a specific campaign.\n     * @param _id The ID of the campaign for which the caller's vote is being checked.\n     */\n    modifier hasNotVoted(uint256 _id) \n    {\n        // Check if the caller has not already voted on the campaign\n        require(!addressInArray(msg.sender, campaignApprovals[_id]), \"You have already approved this campaign\");\n        require(!addressInArray(msg.sender, campaignDisapprovals[_id]), \"You have already disapproved this campaign\");\n        _;  // Continue with the function execution if the check passes\n    }\n\n\n\n    /**\n     * @dev Constructor to initialize the contract\n     * @param _oracleAddress Address of the DragonBlockOracle contract\n     */\n    constructor(address _oracleAddress) \n    {\n        minter = msg.sender; // Initialize DST balance for a default address\n        dstBalances[msg.sender] = 1000;\n        oracle = DragonBlockOracle(_oracleAddress);\n        //verifiedUsers[msg.sender] = true;\n    }\n\n\n\n    /**\n     * @dev Callback function triggered by the Oracle contract upon user verification.\n     * @param _verifiedUser The address of the verified user.\n     */\n    function _callback(address _verifiedUser) override public \n    { verifiedUsers[_verifiedUser] = true; }\n\n\n\n    /**\n     * @dev Checks if an address exists in a given array of addresses.\n     * @param _address The address to be checked for existence in the array.\n     * @param _listOfAddresses The array of addresses in which the existence is to be checked.\n     * @return bool A boolean indicating whether the address exists in the array (true) or not (false).\n     * @dev The function iterates through the array to find if the specified address matches any element.\n     * @dev Returns true if the address is found in the array, otherwise returns false.\n     */\n    function addressInArray(address _address, address[] storage _listOfAddresses) private view returns(bool) \n    {\n        for (uint i = 0; i < _listOfAddresses.length; i++) // Loop on the elements\n        {\n            if (_listOfAddresses[i] == _address) // If we found the address\n            { return true; }\n        }\n        return false;\n    }\n\n\n\n    /**\n     * @dev Slashes SuperSaiyan (SSJ) users who approved a campaign, reducing their vault ETH balance and DST balance.\n     * @param _campaignID The unique identifier of the campaign for which SSJ users are to be slashed.\n     * @dev The function iterates through the list of users who approved the specified campaign and slashes their SSJ status.\n     * @dev Slashing involves deducting 0.025 ETH from the user's SSJ vault and 10 DST from their balance.\n     * @dev If the user's SSJ vault or DST balance falls below a certain threshold, their SSJ status is revoked, and remaining ETH is returned.\n     */\n    function slashSSJUsers(uint256 _campaignID) private \n    {\n        for (uint i = 0; i < campaignApprovals[_campaignID].length; i++) // Loop on the users who have approved the campaign to slash them\n        {\n            address slashedUser = campaignApprovals[_campaignID][i];\n            ssjVaults[slashedUser] -= 0.025 ether; // Remove 0.025 ETH from the vault\n            dstBalances[slashedUser] -= 10; // Remove 10 DST from the balance\n            \n            if (ssjVaults[slashedUser] < 0.05 ether || dstBalances[slashedUser] < 500) // If the user has not enough DST or ETH in the vault\n            {\n                address payable user = payable(slashedUser);\n                user.transfer(ssjVaults[slashedUser]);\n                ssjVaults[slashedUser] = 0; // The user is no longer a SSJ\n            }\n        }\n    }\n\n\n\n    /**\n     * @dev Rewards SuperSaiyan (SSJ) users based on their approval or disapproval of a campaign.\n     * @param _campaignID The unique identifier of the campaign for which SSJ users are to be rewarded.\n     * @dev The function checks the status of the specified campaign and rewards SSJ users accordingly.\n     * @dev If the campaign has been banned, it rewards users who disapproved the campaign while it was pending or in revision.\n     * @dev If the campaign has ended, it rewards users who approved the campaign while it was pending or in revision, based on the completion percentage.\n     * @dev Rewards are distributed proportionally among users based on their contribution to the disapproval or approval process.\n     */\n    function rewardSSJUsers(uint256 _campaignID) private \n    {\n        // If the campaign has been banned, reward users who have disapproved the campaign while was pending or while was in revision\n        if(campaigns[_campaignID].status == CampaignStatus.BANNED) \n        {   \n            for (uint i = 0; i < campaignDisapprovals[_campaignID].length; i++) // Reward the users who have disapprove the campaign while was pending\n            {\n                address rewardedUser = campaignDisapprovals[_campaignID][i];\n                ssjVaults[rewardedUser] += (campaigns[_campaignID].weiLimit * 5 / 100) / (campaignDisapprovals[_campaignID].length + campaignRevisionDisapprovals[_campaignID].length);\n            }\n\n            for (uint i = 0; i < campaignRevisionDisapprovals[_campaignID].length; i++) // Reward the users who have disapprove the campaign while was in revision\n            {\n                address rewardedUser = campaignRevisionDisapprovals[_campaignID][i];\n                ssjVaults[rewardedUser] += (campaigns[_campaignID].weiLimit * 5 / 100) / (campaignDisapprovals[_campaignID].length + campaignRevisionDisapprovals[_campaignID].length);\n            }\n        }\n\n        // If the campaign has been banned, reward users who have approved the campaign while was pending or while was in revision\n        if(campaigns[_campaignID].status == CampaignStatus.ENDED) \n        {\n            // Users are rewarded if the completion percentage is higher than 5%\n            uint percentage = campaigns[_campaignID].donatedWei * 100 / campaigns[_campaignID].weiLimit; \n            if (percentage <= 5) \n            { return; }\n\n            uint rewardToSplit = campaigns[_campaignID].weiLimit * 5 / 100 * percentage / 100; // Reward to be splitted among the users\n\n            for (uint i = 0; i < campaignApprovals[_campaignID].length; i++) // Reward the users who have disapprove the campaign while was pending\n            {\n                address rewardedUser = campaignApprovals[_campaignID][i];\n                ssjVaults[rewardedUser] += rewardToSplit / (campaignApprovals[_campaignID].length + campaignRevisionApprovals[_campaignID].length);\n            }\n\n            for (uint i = 0; i < campaignRevisionApprovals[_campaignID].length; i++) // Reward the users who have disapprove the campaign while was in revision\n            {\n                address rewardedUser = campaignRevisionApprovals[_campaignID][i];\n                ssjVaults[rewardedUser] += rewardToSplit / (campaignApprovals[_campaignID].length + campaignRevisionApprovals[_campaignID].length);\n            }\n        }\n    }\n\n\n\n    /**\n     * @dev Rewards users who reported a campaign during the revision phase.\n     * @param _campaignID The unique identifier of the campaign for which reporters are to be rewarded.\n     * @dev The function iterates through the list of users who reported the specified campaign during the revision phase.\n     * @dev Each user is rewarded with 2 DST added to their balance.\n     */\n    function rewardReporters(uint256 _campaignID) private \n    {\n        for (uint i = 0; i < campaignReports[_campaignID].length; i++) // Reward the users who have reported the campaign while was in revision\n        {\n            address rewardedUser = campaignReports[_campaignID][i];\n            dstBalances[rewardedUser] += 2; // Add 2 DST to their balance\n        }\n    }\n\n\n\n    /**\n     * @dev Refunds the donated funds to the users who contributed to a specific campaign.\n     * @param _campaignID The unique identifier of the campaign for which the refund is to be processed.\n     * @dev The function iterates through the list of donators for the specified campaign and transfers the donated funds back to each donator.\n     * @dev This function is used in scenarios where a campaign is banned and funds need to be returned to the donators.\n     */\n    function refundDonators(uint256 _campaignID) private \n    {\n        for (uint i = 0; i < donators[_campaignID].length; i++) // Iterate through the list of donators for the specified campaign\n        {\n            address payable user = payable(donators[_campaignID][i].donator); // Retrieve the donator's address\n            user.transfer(donators[_campaignID][i].donatedWei); // Transfer the donated funds back to the donator\n        } \n    }\n\n\n\n    /**\n     * @dev Verifies a user by interacting with the DragonBlock Oracle.\n     * @dev Checks if the caller's address is not already verified and initiates the verification process through the DragonBlock Oracle.\n     * @dev If the caller's address is not verified, the function calls the `verifyUser` function on the DragonBlock Oracle contract.\n     */\n    function verifyUser() public \n    {\n        if (!verifiedUsers[msg.sender]) // Check if the caller's address is not already verified\n        { oracle.verifyUser(msg.sender, address(this)); } // Initiate the verification process through the DragonBlockOracle\n    }\n\n\n\n    /**\n     * @dev Retrieves the combat level of a user based on their DST balance.\n     * @param _user The address of the user for whom the combat level is to be calculated.\n     * @return uint256 representing the combat level of the user.\n     * @dev Calculates the combat level by multiplying the user's DST balance by 10.\n     * @dev If the resulting combat level is greater than or equal to 9000, the function returns 9000.\n     * @dev Otherwise, it returns the calculated combat level based on the user's DST balance.\n     */\n    function getUserCombatLvl(address _user) public view returns (uint256) \n    {\n        uint256 combatLevel = dstBalances[_user] * 10; // Calculate the combat level by multiplying the user's DST balance by 10\n\n        if (combatLevel >= 9000) // If the combat level is greater than or equal to 9000, return 9000\n        { return 9000; } \n        else // Return the calculated combat level based on the user's DST balance\n        { return combatLevel; }\n    }\n\n\n\n    /**\n     * @dev Creates a new campaign with specified donation limit and duration.\n     * @param _weiLimit The donation limit for the campaign, expressed in ETH.\n     * @param _weekDuration The duration of the campaign in weeks.\n     * @dev The function performs various validations to ensure the correctness of input parameters and the user's combat level.\n     * @dev If all validations pass, a new campaign is created with the specified details, and the campaign ID is emitted through an event.\n     */\n    function createCampaign(uint256 _weiLimit, uint16 _weekDuration) isVerified() public payable \n    {\n        require(msg.value == _weiLimit * 5 / 100, \"You have to deposit 5% of the weiLimit!\"); // Require that the sender deposits 5% of the weiLimit\n        require(_weiLimit > 0.05 ether, \"The donation limit must be greater than 0.05 ETH\"); // Require that the donation limit is greater than 0.05 ETH\n        require(_weiLimit % 0.005 ether == 0, \"The donation limit must be a multiple of 0.005 ETH\"); // Require that the donation limit is a multiple of 0.005 ETH\n        require(_weiLimit <= 0.1 ether * getUserCombatLvl(msg.sender), \"Your combat level is too low for the requested ETH!\"); // Require that the donation limit is within the combat level threshold\n        require(_weekDuration > 8, \"The campaign duration (expressed in weeks) must be greater than 8\"); // Require that the campaign duration is greater than 8 weeks\n\n        // Create a new campaign with the specified details\n        campaigns.push(\n            Campaign({\n                owner: msg.sender,\n                id: campaigns.length, \n                status: CampaignStatus.PENDING,\n                weiLimit: _weiLimit,\n                donatedWei: 0,\n                creationTime: block.timestamp,\n                revisionTime: 0,\n                weekDuration: _weekDuration\n            })\n        );\n\n        emit CampaignCreation(campaigns.length-1); // Emit an event indicating the creation of a new campaign with its ID\n    }\n\n\n\n    /**\n     * @dev Retrieves a window of campaigns based on the specified window size.\n     * @param _campaignWindow The size of the campaign window to retrieve.\n     * @return An array of Campaign structs representing the campaigns within the specified window.\n     * @dev The function performs validations to ensure a valid window size and calculates the starting index for the window.\n     * @dev It then creates a memory array to store the window of campaigns and copies the elements to the result array.\n     * @dev The result array contains a maximum of 20 campaigns, or fewer if there are fewer campaigns than the window size.\n     */\n    function getCampaigns(uint256 _campaignWindow) public view returns (Campaign[] memory) \n    {\n        require(_campaignWindow > 0, \"Window size must be greater than 0\"); // Require that the window size is greater than 0\n        require(int256(campaigns.length) - int256(_campaignWindow-1) * 20 >= 0, \"The window size is too large\"); // Require that the window size is within the available campaigns\n\n        // Calculate the starting index for the window\n        int256 startIndex = int256(campaigns.length) - int256(_campaignWindow) * 20;\n        if (startIndex < 0) \n        { startIndex = 0; }\n\n        uint256 numElements = uint256(startIndex + 20) <= campaigns.length ? 20 : campaigns.length - uint256(startIndex); // Calculate the actual number of elements to include in the result\n\n        Campaign[] memory result = new Campaign[](numElements); // Create a memory array to store the window of elements\n\n        for (uint256 i = 0; i < numElements; i++) // Use a loop to copy the elements to the result array\n        { result[i] = campaigns[uint256(startIndex + int256(i))]; }\n\n        return result; // Return the array of campaigns within the specified window\n    }\n\n\n\n    /**\n     * @dev Retrieves an array of campaigns owned by the specified address.\n     * @param _owner The address of the owner for whom to retrieve owned campaigns.\n     * @return An array of Campaign structs representing the campaigns owned by the specified address.\n     * @dev The function counts the number of campaigns owned by the specified address, creates an array to hold the owned campaigns, and populates the array with the owned campaigns.\n     * @dev The result array contains all campaigns owned by the specified address, or an empty array if there are no owned campaigns.\n     */\n    function getOwnedCampaigns(address _owner) public view returns (Campaign[] memory) \n    {\n        uint256 ownedCampaignCount = 0; // Initialize a variable to count the number of campaigns owned by the specified address\n\n        // Count the number of campaigns owned by the specified address\n        for (uint256 i = 0; i < campaigns.length; i++) \n        {\n            if (campaigns[i].owner == _owner) \n            { ownedCampaignCount++; }\n        }\n\n        Campaign[] memory ownedCampaigns = new Campaign[](ownedCampaignCount); // Create an array to hold the owned campaigns\n        uint256 currentIndex = 0;\n\n        // Populate the array with owned campaigns\n        for (uint256 i = 0; i < campaigns.length; i++) \n        {\n            if (campaigns[i].owner == _owner) \n            {\n                ownedCampaigns[currentIndex] = campaigns[i];\n                currentIndex++;\n            }\n        }\n\n        return ownedCampaigns; // Return the array of campaigns owned by the specified address\n    }\n\n\n    \n    /**\n     * @dev Allows a user to donate to an active campaign.\n     * @param _id The unique identifier of the campaign to which the user wants to donate.\n     * @dev The function checks various conditions, such as campaign existence, active status, donation window, and donation amount validity.\n     * @dev If all conditions are met, the function updates the campaign's donation details and the user's DST balance accordingly.\n     * @dev The function also records the donation details, including the donator's address and the donated amount.\n     * @dev The donation must be in increments of 0.0005 ETH.\n     * @dev The donated amount is converted to DST based on the conversion rate of 0.0005 ETH to 1 DST.\n     */\n    function donateCampaign(uint256 _id) isVerified() public payable\n    {\n        require(_id < campaigns.length, \"The specified campaign does not exist\"); // Check if the specified campaign exists\n        require(campaigns[_id].status == CampaignStatus.ACTIVE, \"The specified campaign is not active\"); // Check if the specified campaign is active\n        require(block.timestamp <= campaigns[_id].creationTime + (campaigns[_id].weekDuration * 1 weeks), \"The specified campaign is no longer active; the owner should finalize it\"); // Check if the donation window for the campaign is still open\n        require(campaigns[_id].weiLimit - campaigns[_id].donatedWei - msg.value >= 0, \"The donation value is too high!\"); // Check if the donation amount is within the allowed range\n        require(msg.value > 0, \"The donation must be greater than zero\"); // Check if the donation amount is greater than zero\n        require(msg.value % 0.0005 ether == 0, \"You can donate only using steps of 0.0005 ETH\"); // Check if the donation amount is in increments of 0.0005 ETH\n\n        campaigns[_id].donatedWei += msg.value * 95 / 100; // Update the campaign's donatedWei field with the received donation (only the 95% is destinated as donation, 5% is kept in the contract for the fees)\n        dstBalances[msg.sender] += msg.value / 0.0005 ether; // Convert the donated amount to DST based on the conversion rate of 0.0005 ETH to 1 DST\n\n        // Record the donation details, including the donator's address and the donated amount\n        donators[_id].push(Donation({\n            donator: msg.sender,\n            donatedWei: msg.value\n        }));\n    }\n\n\n\n    /**\n     * @dev Allows a user to report an active campaign.\n     * @param _id The unique identifier of the campaign to be reported.\n     * @dev The function checks various conditions, such as campaign existence, active status, and the user's DST balance.\n     * @dev If all conditions are met, the function deducts 1 DST from the user, records the report, and checks if the campaign needs to enter the revision state.\n     * @dev If more than one report is received, the campaign is marked as \"REVISION\" with the timestamp of the revision state.\n     */\n    function reportCampaign(uint256 _id) isVerified() public \n    {\n        require(_id < campaigns.length, \"The specified campaign does not exist\"); // Check if the specified campaign exists\n        require(campaigns[_id].status == CampaignStatus.ACTIVE, \"The specified campaign is not active\"); // Check if the specified campaign is active\n        require(dstBalances[msg.sender] > 0, \"You must have at least 1 DST\"); // Check if the user has at least 1 DST to report the campaign\n\n        dstBalances[msg.sender] -= 1; // Deduct 1 DST from the user's balance for reporting the campaign\n        campaignReports[_id].push(msg.sender); // Record the user's report for the campaign\n\n        // Check if more than one report has been received\n        if (campaignReports[_id].length > 1) \n        {\n            // If more than 100 report is received, mark the campaign as \"REVISION\" and record the revision timestamp\n            campaigns[_id].status = CampaignStatus.REVISION;\n            campaigns[_id].revisionTime = block.timestamp;\n        }\n    }\n\n\n\n    /**\n     * @dev Allows the owner of a pending campaign to finalize and determine its status.\n     * @param _id The unique identifier of the campaign to be finalized.\n     * @dev The function checks various conditions, such as campaign status, elapsed time, and ownership, before finalizing the campaign.\n     * @dev If the campaign has more approvals than disapprovals, it is marked as \"ACTIVE.\" Otherwise, it is marked as \"DISAPPROVED.\"\n     */\n    function finalizeCampaign(uint256 _id) isVerified() public \n    {\n        require(campaigns[_id].status == CampaignStatus.PENDING, \"The specified campaign is not pending!\"); // Check if the specified campaign is in the \"PENDING\" status\n        require(block.timestamp > campaigns[_id].creationTime + 0 days, \"You can finalize it after 7 days!\"); // Check if at least 7 days have passed since the campaign creation for finalization\n        require(msg.sender == campaigns[_id].owner, \"You cannot finalize this campaign as you are not the owner!\"); // Check if the caller is the owner of the campaign\n\n        // Determine the campaign status based on approvals and disapprovals\n        if (campaignApprovals[_id].length > campaignDisapprovals[_id].length) \n        { campaigns[_id].status = CampaignStatus.ACTIVE; } // If the campaign has more approvals than disapprovals, mark it as \"ACTIVE\"\n        else \n        { campaigns[_id].status = CampaignStatus.DISAPPROVED; } // If the campaign has more disapprovals than approvals, mark it as \"DISAPPROVED\"\n    }\n\n\n\n    /**\n     * @dev Allows the owner of an active campaign to terminate it, marking it as \"ENDED.\"\n     * @param _id The unique identifier of the campaign to be terminated.\n     * @dev The function checks various conditions, such as campaign status, elapsed time, and ownership, before terminating the campaign.\n     * @dev Upon termination, the campaign is marked as \"ENDED,\" SSJ users are rewarded, and the remaining funds are transferred to the campaign owner.\n     * @dev Additionally, approval and disapproval lists for revisioned campaigns are cleared to maintain data integrity.\n     */\n    function terminateCampaign(uint256 _id) isVerified() public \n    { \n        require(campaigns[_id].status == CampaignStatus.ACTIVE, \"The specified campaign is not active!\"); // Check if the specified campaign is in the \"ACTIVE\" status\n        require(block.timestamp >= campaigns[_id].creationTime + (campaigns[_id].weekDuration * 0 days), \"You can finalize it after 7 days!\"); // Check if at least 7 days have passed since the campaign creation for termination\n        require(msg.sender == campaigns[_id].owner, \"You cannot terminate this campaign as you are not the owner!\"); // Check if the caller is the owner of the campaign\n\n        campaigns[_id].status = CampaignStatus.ENDED; // Mark the campaign as \"ENDED\"\n        rewardSSJUsers(_id); // Reward SuperSaiyan (SSJ) users who participated in the campaign\n\n        // Clear approval and disapproval lists for revisioned campaigns\n        delete campaignRevisionApprovals[_id];\n        delete campaignRevisionDisapprovals[_id];\n\n        // Transfer the remaining funds to the campaign owner\n        address payable campaignOwner = payable(campaigns[_id].owner);\n        campaignOwner.transfer(campaigns[_id].donatedWei);\n    }\n\n\n\n    /**\n     * @dev Allows the owner of a campaign in \"REVISION\" state to finalize it, updating its status.\n     * @param _id The unique identifier of the campaign to be finalized.\n     * @dev The function checks various conditions, such as campaign status, elapsed time, and ownership, before finalizing the campaign.\n     * @dev If more approvals than disapprovals are received, the campaign status is updated to \"ACTIVE.\"\n     * @dev If disapprovals surpass approvals, the campaign is marked as \"BANNED,\" and associated actions (slashing SSJ users, rewarding reporters, rewarding SSJ users, refunding donators) are performed.\n     * @dev Approval and disapproval lists for revisioned campaigns are cleared to maintain data integrity.\n     */\n    function finalizeRevisionCampaign(uint256 _id) isVerified() public \n    {\n        require(campaigns[_id].status == CampaignStatus.REVISION, \"The specified campaign is not in revision!\"); // Check if the specified campaign is in the \"REVISION\" status\n        require(block.timestamp >= campaigns[_id].revisionTime + (0 days), \"You can finalize it after 7 days!\"); // Check if at least 7 days have passed since the revision started for finalization\n        require(msg.sender == campaigns[_id].owner, \"You cannot finalize this campaign as you are not the owner!\"); // Check if the caller is the owner of the campaign\n\n        // Check the number of approvals and disapprovals for decision-making\n        if (campaignRevisionApprovals[_id].length > campaignRevisionDisapprovals[_id].length) \n        {\n            // More approvals than disapprovals, update the campaign status to \"ACTIVE\"\n            campaigns[_id].status = CampaignStatus.ACTIVE;\n            campaigns[_id].revisionTime = 0; // Reset revision time\n        } \n        else \n        {\n            campaigns[_id].status = CampaignStatus.BANNED; // More disapprovals than approvals, mark the campaign as \"BANNED\"\n\n            // Perform associated actions (slash SSJ users, reward reporters, reward SSJ users, refund donators)\n            slashSSJUsers(_id);\n            rewardReporters(_id);\n            rewardSSJUsers(_id);\n            refundDonators(_id);\n\n            // Clear approval and disapproval lists for revisioned campaigns\n            delete campaignRevisionApprovals[_id];\n            delete campaignRevisionDisapprovals[_id];\n        }\n    }\n\n\n\n    /**\n     * @dev Allows SuperSaiyan Set members to vote (approve or disapprove) for a pending campaign.\n     * @param _id The unique identifier of the campaign to vote for.\n     * @param _approval A boolean indicating whether the voter approves (true) or disapproves (false) of the campaign.\n     * @return The remaining SSJ (SuperSaiyan) vault balance of the voter after the vote.\n     * @dev The function checks various conditions, such as SSJ membership, campaign status, elapsed time, and previous votes, before recording the vote.\n     * @dev The function updates the approval or disapproval lists for the specified campaign based on the voter's choice.\n     */\n    function voteForCampaign(uint256 _id, bool _approval) isVerified() isSSJ() hasNotVoted(_id) public returns (uint256) \n    {\n        require(campaigns[_id].status == CampaignStatus.PENDING, \"The specified campaign is not pending!\"); // Check if the specified campaign is in \"PENDING\" status\n        require(block.timestamp < campaigns[_id].creationTime + 7 days, \"The campaign is too old, you cannot vote anymore!\"); // Check if the current timestamp is within 7 days of the campaign creation\n\n        // Record the approval or disapproval vote based on the voter's choice\n        if (_approval) \n        { campaignApprovals[_id].push(msg.sender); } \n        else \n        { campaignDisapprovals[_id].push(msg.sender); }\n        \n        return ssjVaults[msg.sender]; // Return the remaining SSJ (SuperSaiyan) vault balance of the voter after the vote\n    }\n    \n\n\n    /**\n     * @dev Allows SuperSaiyan Set members to vote (approve or disapprove) for the revision of a campaign.\n     * @param _id The unique identifier of the campaign to vote for revision.\n     * @param _approval A boolean indicating whether the voter approves (true) or disapproves (false) of the revision.\n     * @dev The function checks various conditions, such as SSJ membership, campaign status, elapsed time, previous votes, and voting history, before recording the vote.\n     * @dev The function updates the approval or disapproval lists for the revision of the specified campaign based on the voter's choice.\n     */\n    function revisionCampaign(uint256 _id, bool _approval) isVerified() isSSJ() hasNotVoted(_id) public \n    {\n        require(campaigns[_id].status == CampaignStatus.REVISION, \"The specified campaign is not in revision!\"); // Check if the specified campaign is in \"REVISION\" status\n        require(block.timestamp < campaigns[_id].revisionTime + 7 days, \"The revision is too old, you cannot vote anymore!\"); // Check if the current timestamp is within 7 days of the campaign revision\n\n        // Check if the voter has not already voted for the revision of the specified campaign\n        require(!addressInArray(msg.sender, campaignRevisionApprovals[_id]), \"You have already approved this campaign revision\");\n        require(!addressInArray(msg.sender, campaignRevisionDisapprovals[_id]), \"You have already disapproved this campaign revision\");\n\n        // Record the approval or disapproval vote for the revision\n        if (_approval) \n        { campaignRevisionApprovals[_id].push(msg.sender); } \n        else \n        { campaignRevisionDisapprovals[_id].push(msg.sender); }\n    }\n\n\n\n    /**\n     * @dev Allows users to become part of the SuperSaiyan Set by depositing ETH and meeting certain requirements.\n     * @dev The function checks various conditions, such as current SSJ membership, DST balance, and the required deposit, before adding the caller to the SuperSaiyan Set.\n     * @dev Upon successful execution, the function sets the caller's SSJ vault balance to the deposited ETH amount.\n     */\n    function becomeSSJ() isVerified() public payable \n    {\n        require(ssjVaults[msg.sender] == 0, \"You are already part of the SuperSaiyan Set!\"); // Check if the caller is not already part of the SuperSaiyan Set\n        require(dstBalances[msg.sender] >= 500, \"You must hold at least 500 DST to become part of the SuperSaiyan Set!\"); // Check if the caller holds at least 500 DST to become part of the SuperSaiyan Set\n        require(msg.value >= 0.5 ether, \"You have to deposit at least 0.5 ETH to become a SuperSaiyan!\"); // Check if the caller has deposited at least 0.5 ETH to become a SuperSaiyan\n\n        ssjVaults[msg.sender] = msg.value; // Set the caller's SSJ vault balance to the deposited ETH amount\n    }\n\n\n\n    /**\n     * @dev Allows users to transition from the SuperSaiyan Set to become a normal user by withdrawing their deposited ETH.\n     * @dev The function checks whether the caller is part of the SuperSaiyan Set, and if so, transfers the deposited ETH back to the caller and sets their SSJ vault balance to zero.\n     */\n    function becomeNormalUser() isVerified() isSSJ() public \n    {\n        // Transfer the deposited ETH back to the caller\n        address payable user = payable(msg.sender);\n        user.transfer(ssjVaults[msg.sender]);\n\n        ssjVaults[msg.sender] = 0; // Set the caller's SSJ vault balance to zero\n    }\n\n\n\n    /**\n     * @dev Public function for the contract creator to terminate the contract and withdraw funds\n     */\n    function terminate() public \n    {\n        require(msg.sender == minter, \"You cannot terminate the contract!\");\n        payable(minter).transfer(address(this).balance);\n    }\n}",
  "sourcePath": "/ContainerFiles/contracts/DragonBlockDEMO.sol",
  "compiler": {
    "name": "solc",
    "version": "0.8.13+commit.abaa5c0e.Emscripten.clang"
  },
  "schemaVersion": "3.4.16",
  "updatedAt": "2024-01-18T09:42:21.765Z",
  "networkType": "ethereum",
  "devdoc": {
    "details": "A decentralized crowdfunding platform where users can create campaigns, donate, and vote using SuperSaiyan (SSJ) tokens.",
    "kind": "dev",
    "methods": {
      "_callback(address)": {
        "details": "Callback function triggered by the Oracle contract upon user verification.",
        "params": {
          "_verifiedUser": "The address of the verified user."
        }
      },
      "becomeNormalUser()": {
        "details": "Allows users to transition from the SuperSaiyan Set to become a normal user by withdrawing their deposited ETH.The function checks whether the caller is part of the SuperSaiyan Set, and if so, transfers the deposited ETH back to the caller and sets their SSJ vault balance to zero."
      },
      "becomeSSJ()": {
        "details": "Allows users to become part of the SuperSaiyan Set by depositing ETH and meeting certain requirements.The function checks various conditions, such as current SSJ membership, DST balance, and the required deposit, before adding the caller to the SuperSaiyan Set.Upon successful execution, the function sets the caller's SSJ vault balance to the deposited ETH amount."
      },
      "constructor": {
        "details": "Constructor to initialize the contract",
        "params": {
          "_oracleAddress": "Address of the DragonBlockOracle contract"
        }
      },
      "createCampaign(uint256,uint16)": {
        "details": "Creates a new campaign with specified donation limit and duration.The function performs various validations to ensure the correctness of input parameters and the user's combat level.If all validations pass, a new campaign is created with the specified details, and the campaign ID is emitted through an event.",
        "params": {
          "_weekDuration": "The duration of the campaign in weeks.",
          "_weiLimit": "The donation limit for the campaign, expressed in ETH."
        }
      },
      "donateCampaign(uint256)": {
        "details": "Allows a user to donate to an active campaign.The function checks various conditions, such as campaign existence, active status, donation window, and donation amount validity.If all conditions are met, the function updates the campaign's donation details and the user's DST balance accordingly.The function also records the donation details, including the donator's address and the donated amount.The donation must be in increments of 0.0005 ETH.The donated amount is converted to DST based on the conversion rate of 0.0005 ETH to 1 DST.",
        "params": {
          "_id": "The unique identifier of the campaign to which the user wants to donate."
        }
      },
      "finalizeCampaign(uint256)": {
        "details": "Allows the owner of a pending campaign to finalize and determine its status.The function checks various conditions, such as campaign status, elapsed time, and ownership, before finalizing the campaign.If the campaign has more approvals than disapprovals, it is marked as \"ACTIVE.\" Otherwise, it is marked as \"DISAPPROVED.\"",
        "params": {
          "_id": "The unique identifier of the campaign to be finalized."
        }
      },
      "finalizeRevisionCampaign(uint256)": {
        "details": "Allows the owner of a campaign in \"REVISION\" state to finalize it, updating its status.The function checks various conditions, such as campaign status, elapsed time, and ownership, before finalizing the campaign.If more approvals than disapprovals are received, the campaign status is updated to \"ACTIVE.\"If disapprovals surpass approvals, the campaign is marked as \"BANNED,\" and associated actions (slashing SSJ users, rewarding reporters, rewarding SSJ users, refunding donators) are performed.Approval and disapproval lists for revisioned campaigns are cleared to maintain data integrity.",
        "params": {
          "_id": "The unique identifier of the campaign to be finalized."
        }
      },
      "getCampaigns(uint256)": {
        "details": "Retrieves a window of campaigns based on the specified window size.The function performs validations to ensure a valid window size and calculates the starting index for the window.It then creates a memory array to store the window of campaigns and copies the elements to the result array.The result array contains a maximum of 20 campaigns, or fewer if there are fewer campaigns than the window size.",
        "params": {
          "_campaignWindow": "The size of the campaign window to retrieve."
        },
        "returns": {
          "_0": "An array of Campaign structs representing the campaigns within the specified window."
        }
      },
      "getOwnedCampaigns(address)": {
        "details": "Retrieves an array of campaigns owned by the specified address.The function counts the number of campaigns owned by the specified address, creates an array to hold the owned campaigns, and populates the array with the owned campaigns.The result array contains all campaigns owned by the specified address, or an empty array if there are no owned campaigns.",
        "params": {
          "_owner": "The address of the owner for whom to retrieve owned campaigns."
        },
        "returns": {
          "_0": "An array of Campaign structs representing the campaigns owned by the specified address."
        }
      },
      "getUserCombatLvl(address)": {
        "details": "Retrieves the combat level of a user based on their DST balance.Calculates the combat level by multiplying the user's DST balance by 10.If the resulting combat level is greater than or equal to 9000, the function returns 9000.Otherwise, it returns the calculated combat level based on the user's DST balance.",
        "params": {
          "_user": "The address of the user for whom the combat level is to be calculated."
        },
        "returns": {
          "_0": "uint256 representing the combat level of the user."
        }
      },
      "reportCampaign(uint256)": {
        "details": "Allows a user to report an active campaign.The function checks various conditions, such as campaign existence, active status, and the user's DST balance.If all conditions are met, the function deducts 1 DST from the user, records the report, and checks if the campaign needs to enter the revision state.If more than one report is received, the campaign is marked as \"REVISION\" with the timestamp of the revision state.",
        "params": {
          "_id": "The unique identifier of the campaign to be reported."
        }
      },
      "revisionCampaign(uint256,bool)": {
        "details": "Allows SuperSaiyan Set members to vote (approve or disapprove) for the revision of a campaign.The function checks various conditions, such as SSJ membership, campaign status, elapsed time, previous votes, and voting history, before recording the vote.The function updates the approval or disapproval lists for the revision of the specified campaign based on the voter's choice.",
        "params": {
          "_approval": "A boolean indicating whether the voter approves (true) or disapproves (false) of the revision.",
          "_id": "The unique identifier of the campaign to vote for revision."
        }
      },
      "terminate()": {
        "details": "Public function for the contract creator to terminate the contract and withdraw funds"
      },
      "terminateCampaign(uint256)": {
        "details": "Allows the owner of an active campaign to terminate it, marking it as \"ENDED.\"The function checks various conditions, such as campaign status, elapsed time, and ownership, before terminating the campaign.Upon termination, the campaign is marked as \"ENDED,\" SSJ users are rewarded, and the remaining funds are transferred to the campaign owner.Additionally, approval and disapproval lists for revisioned campaigns are cleared to maintain data integrity.",
        "params": {
          "_id": "The unique identifier of the campaign to be terminated."
        }
      },
      "verifyUser()": {
        "details": "Verifies a user by interacting with the DragonBlock Oracle.Checks if the caller's address is not already verified and initiates the verification process through the DragonBlock Oracle.If the caller's address is not verified, the function calls the `verifyUser` function on the DragonBlock Oracle contract."
      },
      "voteForCampaign(uint256,bool)": {
        "details": "Allows SuperSaiyan Set members to vote (approve or disapprove) for a pending campaign.The function checks various conditions, such as SSJ membership, campaign status, elapsed time, and previous votes, before recording the vote.The function updates the approval or disapproval lists for the specified campaign based on the voter's choice.",
        "params": {
          "_approval": "A boolean indicating whether the voter approves (true) or disapproves (false) of the campaign.",
          "_id": "The unique identifier of the campaign to vote for."
        },
        "returns": {
          "_0": "The remaining SSJ (SuperSaiyan) vault balance of the voter after the vote."
        }
      }
    },
    "title": "DragonBlock Smart Contract",
    "version": 1
  },
  "userdoc": {
    "kind": "user",
    "methods": {},
    "version": 1
  }
}