{
  "contractName": "DragonBlockOracle",
  "abi": [
    {
      "inputs": [],
      "stateMutability": "nonpayable",
      "type": "constructor"
    },
    {
      "anonymous": false,
      "inputs": [
        {
          "indexed": true,
          "internalType": "address",
          "name": "userAddress",
          "type": "address"
        },
        {
          "indexed": false,
          "internalType": "uint256",
          "name": "requestId",
          "type": "uint256"
        }
      ],
      "name": "UserVerification",
      "type": "event"
    },
    {
      "inputs": [],
      "name": "minter",
      "outputs": [
        {
          "internalType": "address",
          "name": "",
          "type": "address"
        }
      ],
      "stateMutability": "view",
      "type": "function",
      "constant": true
    },
    {
      "inputs": [
        {
          "internalType": "uint256",
          "name": "",
          "type": "uint256"
        }
      ],
      "name": "requests",
      "outputs": [
        {
          "internalType": "bool",
          "name": "done",
          "type": "bool"
        },
        {
          "internalType": "uint256",
          "name": "yesVote",
          "type": "uint256"
        },
        {
          "internalType": "uint256",
          "name": "noVote",
          "type": "uint256"
        },
        {
          "internalType": "address",
          "name": "userToVerify",
          "type": "address"
        },
        {
          "internalType": "address",
          "name": "callerContract",
          "type": "address"
        }
      ],
      "stateMutability": "view",
      "type": "function",
      "constant": true
    },
    {
      "inputs": [
        {
          "internalType": "address",
          "name": "_userAddress",
          "type": "address"
        },
        {
          "internalType": "address",
          "name": "_callerContract",
          "type": "address"
        }
      ],
      "name": "verifyUser",
      "outputs": [],
      "stateMutability": "nonpayable",
      "type": "function"
    },
    {
      "inputs": [
        {
          "internalType": "uint256",
          "name": "_requestId",
          "type": "uint256"
        },
        {
          "internalType": "bool",
          "name": "_vote",
          "type": "bool"
        }
      ],
      "name": "vote",
      "outputs": [],
      "stateMutability": "nonpayable",
      "type": "function"
    }
  ],
  "bytecode": "0x608060405234801561001057600080fd5b5033600360006101000a81548173ffffffffffffffffffffffffffffffffffffffff021916908373ffffffffffffffffffffffffffffffffffffffff16021790555060016000803373ffffffffffffffffffffffffffffffffffffffff1673ffffffffffffffffffffffffffffffffffffffff16815260200190815260200160002060006101000a81548160ff021916908315150217905550610b93806100b86000396000f3fe608060405234801561001057600080fd5b506004361061004c5760003560e01c8063075461721461005157806381d12c581461006f578063c9d27afe146100a3578063f3b9025c146100bf575b600080fd5b6100596100db565b6040516100669190610799565b60405180910390f35b610089600480360381019061008491906107ef565b610101565b60405161009a959493929190610846565b60405180910390f35b6100bd60048036038101906100b891906108c5565b610194565b005b6100d960048036038101906100d49190610931565b6105ae565b005b600360009054906101000a900473ffffffffffffffffffffffffffffffffffffffff1681565b6002818154811061011157600080fd5b90600052602060002090600502016000915090508060000160009054906101000a900460ff16908060010154908060020154908060030160009054906101000a900473ffffffffffffffffffffffffffffffffffffffff16908060040160009054906101000a900473ffffffffffffffffffffffffffffffffffffffff16905085565b6000600283815481106101aa576101a9610971565b5b906000526020600020906005020190506000803373ffffffffffffffffffffffffffffffffffffffff1673ffffffffffffffffffffffffffffffffffffffff16815260200190815260200160002060009054906101000a900460ff16610245576040517f08c379a000000000000000000000000000000000000000000000000000000000815260040161023c906109fd565b60405180910390fd5b6001600084815260200190815260200160002060003373ffffffffffffffffffffffffffffffffffffffff1673ffffffffffffffffffffffffffffffffffffffff16815260200190815260200160002060009054906101000a900460ff16156102e3576040517f08c379a00000000000000000000000000000000000000000000000000000000081526004016102da90610a69565b60405180910390fd5b8060000160009054906101000a900460ff166105a957600180600085815260200190815260200160002060003373ffffffffffffffffffffffffffffffffffffffff1673ffffffffffffffffffffffffffffffffffffffff16815260200190815260200160002060006101000a81548160ff021916908315150217905550811561038857600181600101600082825461037c9190610ab8565b925050819055506103a5565b600181600201600082825461039d9190610ab8565b925050819055505b60018160010154106105035760016000808360030160009054906101000a900473ffffffffffffffffffffffffffffffffffffffff1673ffffffffffffffffffffffffffffffffffffffff1673ffffffffffffffffffffffffffffffffffffffff16815260200190815260200160002060006101000a81548160ff02191690831515021790555060018160000160006101000a81548160ff02191690831515021790555060008160040160009054906101000a900473ffffffffffffffffffffffffffffffffffffffff1690508073ffffffffffffffffffffffffffffffffffffffff16635f52fdcd8360030160009054906101000a900473ffffffffffffffffffffffffffffffffffffffff166040518263ffffffff1660e01b81526004016104cf9190610799565b600060405180830381600087803b1580156104e957600080fd5b505af11580156104fd573d6000803e3d6000fd5b50505050505b60018160020154106105a85760008060008360030160009054906101000a900473ffffffffffffffffffffffffffffffffffffffff1673ffffffffffffffffffffffffffffffffffffffff1673ffffffffffffffffffffffffffffffffffffffff16815260200190815260200160002060006101000a81548160ff02191690831515021790555060018160000160006101000a81548160ff0219169083151502179055505b5b505050565b60026040518060a0016040528060001515815260200160008152602001600081526020018473ffffffffffffffffffffffffffffffffffffffff1681526020018373ffffffffffffffffffffffffffffffffffffffff16815250908060018154018082558091505060019003906000526020600020906005020160009091909190915060008201518160000160006101000a81548160ff021916908315150217905550602082015181600101556040820151816002015560608201518160030160006101000a81548173ffffffffffffffffffffffffffffffffffffffff021916908373ffffffffffffffffffffffffffffffffffffffff16021790555060808201518160040160006101000a81548173ffffffffffffffffffffffffffffffffffffffff021916908373ffffffffffffffffffffffffffffffffffffffff16021790555050508173ffffffffffffffffffffffffffffffffffffffff167fbaf2b2dda2f8c816e147ef59048dc720c9f073980b2836a8da96890977828364600160028054905061073f9190610b0e565b60405161074c9190610b42565b60405180910390a25050565b600073ffffffffffffffffffffffffffffffffffffffff82169050919050565b600061078382610758565b9050919050565b61079381610778565b82525050565b60006020820190506107ae600083018461078a565b92915050565b600080fd5b6000819050919050565b6107cc816107b9565b81146107d757600080fd5b50565b6000813590506107e9816107c3565b92915050565b600060208284031215610805576108046107b4565b5b6000610813848285016107da565b91505092915050565b60008115159050919050565b6108318161081c565b82525050565b610840816107b9565b82525050565b600060a08201905061085b6000830188610828565b6108686020830187610837565b6108756040830186610837565b610882606083018561078a565b61088f608083018461078a565b9695505050505050565b6108a28161081c565b81146108ad57600080fd5b50565b6000813590506108bf81610899565b92915050565b600080604083850312156108dc576108db6107b4565b5b60006108ea858286016107da565b92505060206108fb858286016108b0565b9150509250929050565b61090e81610778565b811461091957600080fd5b50565b60008135905061092b81610905565b92915050565b60008060408385031215610948576109476107b4565b5b60006109568582860161091c565b92505060206109678582860161091c565b9150509250929050565b7f4e487b7100000000000000000000000000000000000000000000000000000000600052603260045260246000fd5b600082825260208201905092915050565b7f596f7520617265206e6f74206120766572696669656420757365722100000000600082015250565b60006109e7601c836109a0565b91506109f2826109b1565b602082019050919050565b60006020820190508181036000830152610a16816109da565b9050919050565b7f596f75206861766520616c726561647920766f74656421000000000000000000600082015250565b6000610a536017836109a0565b9150610a5e82610a1d565b602082019050919050565b60006020820190508181036000830152610a8281610a46565b9050919050565b7f4e487b7100000000000000000000000000000000000000000000000000000000600052601160045260246000fd5b6000610ac3826107b9565b9150610ace836107b9565b9250827fffffffffffffffffffffffffffffffffffffffffffffffffffffffffffffffff03821115610b0357610b02610a89565b5b828201905092915050565b6000610b19826107b9565b9150610b24836107b9565b925082821015610b3757610b36610a89565b5b828203905092915050565b6000602082019050610b576000830184610837565b9291505056fea26469706673582212208fd0dba62914bf9b5b4815d00f884fb8e7a8efe13239e22d83b6ef386a2fb2de64736f6c634300080d0033",
  "immutableReferences": {},
  "source": "// SPDX-License-Identifier: MIT\npragma solidity ^0.8.0;\n\nimport \"./UsingOracle.sol\";\n\n/**\n * @title DragonBlockOracle\n * @dev An Oracle contract to verify users based on votes from other users.\n */\ncontract DragonBlockOracle {\n\n    // Struct to represent an Oracle request\n    struct OracleRequest \n    {\n        bool done;\n        uint256 yesVote;\n        uint256 noVote;\n        address userToVerify;\n        address callerContract;\n    }\n\n    mapping(address => bool) private verifiedUsers; // Mapping to store whether an address is a verified user\n\n    mapping(uint256 => mapping(address => bool)) voters; // Mapping to track whether a user has voted for a specific request\n\n    OracleRequest[] public requests; // Array to store Oracle requests\n\n    event UserVerification(address indexed userAddress, uint256 requestId); // Event emitted when a user is verified\n\n    address public minter; // Address of the contract creator (minter)\n\n\n\n    /**\n     * @dev Constructor function to initialize the contract.\n     * The contract creator (minter) is marked as a verified user.\n     */\n    constructor() \n    {\n        minter = msg.sender;\n        verifiedUsers[msg.sender] = true;\n    }\n\n\n\n    /**\n     * @dev Initiates a user verification request.\n     * @param _userAddress The address of the user to be verified.\n     * @param _callerContract The address of the contract initiating the verification request.\n     */\n    function verifyUser(address _userAddress, address _callerContract) public \n    {\n        // Create a new Oracle request and push it to the array\n        requests.push(OracleRequest({\n            done: false,\n            yesVote: 0,\n            noVote: 0,\n            userToVerify: _userAddress,\n            callerContract: _callerContract\n        }));\n\n        emit UserVerification(_userAddress, requests.length - 1); // Emit an event indicating the user verification request\n    }\n\n\n\n    /**\n     * @dev Allows users to vote on a user verification request.\n     * @param _requestId The ID of the verification request.\n     * @param _vote The vote (true for yes, false for no).\n     */\n    function vote(uint256 _requestId, bool _vote) public \n    {\n        OracleRequest storage request = requests[_requestId]; // Get the Oracle request from the array\n\n        // Require that the voter is a verified user and has not voted before\n        require(verifiedUsers[msg.sender], \"You are not a verified user!\");\n        require(!voters[_requestId][msg.sender], \"You have already voted!\");\n\n        if (!request.done) // Check if the request is not already marked as done \n        {\n            voters[_requestId][msg.sender] = true; // Mark the user as voted for this request\n\n            if (_vote) // Update vote counts based on the user's vote\n            { request.yesVote += 1; } \n            else \n            { request.noVote += 1; }\n\n            // If enough 'yes' votes, mark the user as verified and trigger callback in the caller contract\n            if (request.yesVote >= 1) \n            {\n                verifiedUsers[request.userToVerify] = true;\n                request.done = true;\n                UsingOracle caller = UsingOracle(request.callerContract);\n                caller._callback(request.userToVerify);\n            }\n\n            // If enough 'no' votes, mark the user as not verified\n            if (request.noVote >= 1) \n            {\n                verifiedUsers[request.userToVerify] = false;\n                request.done = true;\n            }\n        }\n    }\n}\n",
  "sourcePath": "/ContainerFiles/contracts/DragonBlockOracle.sol",
  "compiler": {
    "name": "solc",
    "version": "0.8.13+commit.abaa5c0e.Emscripten.clang"
  },
  "schemaVersion": "3.4.16",
  "updatedAt": "2024-01-07T18:32:16.988Z",
  "networkType": "ethereum",
  "devdoc": {
    "details": "An Oracle contract to verify users based on votes from other users.",
    "kind": "dev",
    "methods": {
      "constructor": {
        "details": "Constructor function to initialize the contract. The contract creator (minter) is marked as a verified user."
      },
      "verifyUser(address,address)": {
        "details": "Initiates a user verification request.",
        "params": {
          "_callerContract": "The address of the contract initiating the verification request.",
          "_userAddress": "The address of the user to be verified."
        }
      },
      "vote(uint256,bool)": {
        "details": "Allows users to vote on a user verification request.",
        "params": {
          "_requestId": "The ID of the verification request.",
          "_vote": "The vote (true for yes, false for no)."
        }
      }
    },
    "title": "DragonBlockOracle",
    "version": 1
  },
  "userdoc": {
    "kind": "user",
    "methods": {},
    "version": 1
  }
}