{
  "contractName": "DragonBlockOracle",
  "abi": [
    {
      "inputs": [],
      "stateMutability": "nonpayable",
      "type": "constructor"
    },
    {
      "anonymous": false,
      "inputs": [
        {
          "indexed": true,
          "internalType": "address",
          "name": "userAddress",
          "type": "address"
        },
        {
          "indexed": false,
          "internalType": "uint256",
          "name": "requestId",
          "type": "uint256"
        }
      ],
      "name": "UserVerification",
      "type": "event"
    },
    {
      "inputs": [],
      "name": "minter",
      "outputs": [
        {
          "internalType": "address",
          "name": "",
          "type": "address"
        }
      ],
      "stateMutability": "view",
      "type": "function",
      "constant": true
    },
    {
      "inputs": [
        {
          "internalType": "uint256",
          "name": "",
          "type": "uint256"
        }
      ],
      "name": "requests",
      "outputs": [
        {
          "internalType": "bool",
          "name": "done",
          "type": "bool"
        },
        {
          "internalType": "uint256",
          "name": "yesVote",
          "type": "uint256"
        },
        {
          "internalType": "uint256",
          "name": "noVote",
          "type": "uint256"
        },
        {
          "internalType": "address",
          "name": "userToVerify",
          "type": "address"
        },
        {
          "internalType": "address",
          "name": "callerContract",
          "type": "address"
        }
      ],
      "stateMutability": "view",
      "type": "function",
      "constant": true
    },
    {
      "inputs": [
        {
          "internalType": "address",
          "name": "_userAddress",
          "type": "address"
        },
        {
          "internalType": "address",
          "name": "_callerContract",
          "type": "address"
        }
      ],
      "name": "verifyUser",
      "outputs": [],
      "stateMutability": "nonpayable",
      "type": "function"
    },
    {
      "inputs": [
        {
          "internalType": "uint256",
          "name": "_requestId",
          "type": "uint256"
        },
        {
          "internalType": "bool",
          "name": "_vote",
          "type": "bool"
        }
      ],
      "name": "vote",
      "outputs": [],
      "stateMutability": "nonpayable",
      "type": "function"
    },
    {
      "inputs": [],
      "name": "terminate",
      "outputs": [],
      "stateMutability": "nonpayable",
      "type": "function"
    }
  ],
  "bytecode": "0x608060405234801561001057600080fd5b5033600360006101000a81548173ffffffffffffffffffffffffffffffffffffffff021916908373ffffffffffffffffffffffffffffffffffffffff16021790555060016000803373ffffffffffffffffffffffffffffffffffffffff1673ffffffffffffffffffffffffffffffffffffffff16815260200190815260200160002060006101000a81548160ff021916908315150217905550610d35806100b86000396000f3fe608060405234801561001057600080fd5b50600436106100575760003560e01c8063075461721461005c5780630c08bf881461007a57806381d12c5814610084578063c9d27afe146100b8578063f3b9025c146100d4575b600080fd5b6100646100f0565b60405161007191906108a9565b60405180910390f35b610082610116565b005b61009e600480360381019061009991906108ff565b610211565b6040516100af959493929190610956565b60405180910390f35b6100d260048036038101906100cd91906109d5565b6102a4565b005b6100ee60048036038101906100e99190610a41565b6106be565b005b600360009054906101000a900473ffffffffffffffffffffffffffffffffffffffff1681565b600360009054906101000a900473ffffffffffffffffffffffffffffffffffffffff1673ffffffffffffffffffffffffffffffffffffffff163373ffffffffffffffffffffffffffffffffffffffff16146101a6576040517f08c379a000000000000000000000000000000000000000000000000000000000815260040161019d90610b04565b60405180910390fd5b600360009054906101000a900473ffffffffffffffffffffffffffffffffffffffff1673ffffffffffffffffffffffffffffffffffffffff166108fc479081150290604051600060405180830381858888f1935050505015801561020e573d6000803e3d6000fd5b50565b6002818154811061022157600080fd5b90600052602060002090600502016000915090508060000160009054906101000a900460ff16908060010154908060020154908060030160009054906101000a900473ffffffffffffffffffffffffffffffffffffffff16908060040160009054906101000a900473ffffffffffffffffffffffffffffffffffffffff16905085565b6000600283815481106102ba576102b9610b24565b5b906000526020600020906005020190506000803373ffffffffffffffffffffffffffffffffffffffff1673ffffffffffffffffffffffffffffffffffffffff16815260200190815260200160002060009054906101000a900460ff16610355576040517f08c379a000000000000000000000000000000000000000000000000000000000815260040161034c90610b9f565b60405180910390fd5b6001600084815260200190815260200160002060003373ffffffffffffffffffffffffffffffffffffffff1673ffffffffffffffffffffffffffffffffffffffff16815260200190815260200160002060009054906101000a900460ff16156103f3576040517f08c379a00000000000000000000000000000000000000000000000000000000081526004016103ea90610c0b565b60405180910390fd5b8060000160009054906101000a900460ff166106b957600180600085815260200190815260200160002060003373ffffffffffffffffffffffffffffffffffffffff1673ffffffffffffffffffffffffffffffffffffffff16815260200190815260200160002060006101000a81548160ff021916908315150217905550811561049857600181600101600082825461048c9190610c5a565b925050819055506104b5565b60018160020160008282546104ad9190610c5a565b925050819055505b60018160010154106106135760016000808360030160009054906101000a900473ffffffffffffffffffffffffffffffffffffffff1673ffffffffffffffffffffffffffffffffffffffff1673ffffffffffffffffffffffffffffffffffffffff16815260200190815260200160002060006101000a81548160ff02191690831515021790555060018160000160006101000a81548160ff02191690831515021790555060008160040160009054906101000a900473ffffffffffffffffffffffffffffffffffffffff1690508073ffffffffffffffffffffffffffffffffffffffff16635f52fdcd8360030160009054906101000a900473ffffffffffffffffffffffffffffffffffffffff166040518263ffffffff1660e01b81526004016105df91906108a9565b600060405180830381600087803b1580156105f957600080fd5b505af115801561060d573d6000803e3d6000fd5b50505050505b60018160020154106106b85760008060008360030160009054906101000a900473ffffffffffffffffffffffffffffffffffffffff1673ffffffffffffffffffffffffffffffffffffffff1673ffffffffffffffffffffffffffffffffffffffff16815260200190815260200160002060006101000a81548160ff02191690831515021790555060018160000160006101000a81548160ff0219169083151502179055505b5b505050565b60026040518060a0016040528060001515815260200160008152602001600081526020018473ffffffffffffffffffffffffffffffffffffffff1681526020018373ffffffffffffffffffffffffffffffffffffffff16815250908060018154018082558091505060019003906000526020600020906005020160009091909190915060008201518160000160006101000a81548160ff021916908315150217905550602082015181600101556040820151816002015560608201518160030160006101000a81548173ffffffffffffffffffffffffffffffffffffffff021916908373ffffffffffffffffffffffffffffffffffffffff16021790555060808201518160040160006101000a81548173ffffffffffffffffffffffffffffffffffffffff021916908373ffffffffffffffffffffffffffffffffffffffff16021790555050508173ffffffffffffffffffffffffffffffffffffffff167fbaf2b2dda2f8c816e147ef59048dc720c9f073980b2836a8da96890977828364600160028054905061084f9190610cb0565b60405161085c9190610ce4565b60405180910390a25050565b600073ffffffffffffffffffffffffffffffffffffffff82169050919050565b600061089382610868565b9050919050565b6108a381610888565b82525050565b60006020820190506108be600083018461089a565b92915050565b600080fd5b6000819050919050565b6108dc816108c9565b81146108e757600080fd5b50565b6000813590506108f9816108d3565b92915050565b600060208284031215610915576109146108c4565b5b6000610923848285016108ea565b91505092915050565b60008115159050919050565b6109418161092c565b82525050565b610950816108c9565b82525050565b600060a08201905061096b6000830188610938565b6109786020830187610947565b6109856040830186610947565b610992606083018561089a565b61099f608083018461089a565b9695505050505050565b6109b28161092c565b81146109bd57600080fd5b50565b6000813590506109cf816109a9565b92915050565b600080604083850312156109ec576109eb6108c4565b5b60006109fa858286016108ea565b9250506020610a0b858286016109c0565b9150509250929050565b610a1e81610888565b8114610a2957600080fd5b50565b600081359050610a3b81610a15565b92915050565b60008060408385031215610a5857610a576108c4565b5b6000610a6685828601610a2c565b9250506020610a7785828601610a2c565b9150509250929050565b600082825260208201905092915050565b7f596f752063616e6e6f74207465726d696e6174652074686520636f6e7472616360008201527f7421000000000000000000000000000000000000000000000000000000000000602082015250565b6000610aee602283610a81565b9150610af982610a92565b604082019050919050565b60006020820190508181036000830152610b1d81610ae1565b9050919050565b7f4e487b7100000000000000000000000000000000000000000000000000000000600052603260045260246000fd5b7f596f7520617265206e6f74206120766572696669656420757365722100000000600082015250565b6000610b89601c83610a81565b9150610b9482610b53565b602082019050919050565b60006020820190508181036000830152610bb881610b7c565b9050919050565b7f596f75206861766520616c726561647920766f74656421000000000000000000600082015250565b6000610bf5601783610a81565b9150610c0082610bbf565b602082019050919050565b60006020820190508181036000830152610c2481610be8565b9050919050565b7f4e487b7100000000000000000000000000000000000000000000000000000000600052601160045260246000fd5b6000610c65826108c9565b9150610c70836108c9565b9250827fffffffffffffffffffffffffffffffffffffffffffffffffffffffffffffffff03821115610ca557610ca4610c2b565b5b828201905092915050565b6000610cbb826108c9565b9150610cc6836108c9565b925082821015610cd957610cd8610c2b565b5b828203905092915050565b6000602082019050610cf96000830184610947565b9291505056fea264697066735822122043340198d9c2d17439be324d1b636f7db13d4f749093f7630c828c3f0936f6c964736f6c634300080d0033",
  "immutableReferences": {},
  "source": "// SPDX-License-Identifier: MIT\npragma solidity ^0.8.0;\n\nimport \"./UsingOracle.sol\";\n\n/**\n * @title DragonBlockOracle\n * @dev An Oracle contract to verify users based on votes from other users.\n */\ncontract DragonBlockOracle {\n\n    // Struct to represent an Oracle request\n    struct OracleRequest \n    {\n        bool done;\n        uint256 yesVote;\n        uint256 noVote;\n        address userToVerify;\n        address callerContract;\n    }\n\n    mapping(address => bool) private verifiedUsers; // Mapping to store whether an address is a verified user\n\n    mapping(uint256 => mapping(address => bool)) voters; // Mapping to track whether a user has voted for a specific request\n\n    OracleRequest[] public requests; // Array to store Oracle requests\n\n    event UserVerification(address indexed userAddress, uint256 requestId); // Event emitted when a user is verified\n\n    address public minter; // Address of the contract creator (minter)\n\n\n\n    /**\n     * @dev Constructor function to initialize the contract.\n     * The contract creator (minter) is marked as a verified user.\n     */\n    constructor() \n    {\n        minter = msg.sender;\n        verifiedUsers[msg.sender] = true;\n    }\n\n\n\n    /**\n     * @dev Initiates a user verification request.\n     * @param _userAddress The address of the user to be verified.\n     * @param _callerContract The address of the contract initiating the verification request.\n     */\n    function verifyUser(address _userAddress, address _callerContract) public \n    {\n        // Create a new Oracle request and push it to the array\n        requests.push(OracleRequest({\n            done: false,\n            yesVote: 0,\n            noVote: 0,\n            userToVerify: _userAddress,\n            callerContract: _callerContract\n        }));\n\n        emit UserVerification(_userAddress, requests.length - 1); // Emit an event indicating the user verification request\n    }\n\n\n\n    /**\n     * @dev Allows users to vote on a user verification request.\n     * @param _requestId The ID of the verification request.\n     * @param _vote The vote (true for yes, false for no).\n     */\n    function vote(uint256 _requestId, bool _vote) public \n    {\n        OracleRequest storage request = requests[_requestId]; // Get the Oracle request from the array\n\n        // Require that the voter is a verified user and has not voted before\n        require(verifiedUsers[msg.sender], \"You are not a verified user!\");\n        require(!voters[_requestId][msg.sender], \"You have already voted!\");\n\n        if (!request.done) // Check if the request is not already marked as done \n        {\n            voters[_requestId][msg.sender] = true; // Mark the user as voted for this request\n\n            if (_vote) // Update vote counts based on the user's vote\n            { request.yesVote += 1; } \n            else \n            { request.noVote += 1; }\n\n            // If enough 'yes' votes, mark the user as verified and trigger callback in the caller contract\n            if (request.yesVote >= 1) \n            {\n                verifiedUsers[request.userToVerify] = true;\n                request.done = true;\n                UsingOracle caller = UsingOracle(request.callerContract);\n                caller._callback(request.userToVerify);\n            }\n\n            // If enough 'no' votes, mark the user as not verified\n            if (request.noVote >= 1) \n            {\n                verifiedUsers[request.userToVerify] = false;\n                request.done = true;\n            }\n        }\n    }\n\n    /**\n     * @dev Public function for the contract creator to terminate the contract and withdraw funds\n     */\n    function terminate() public \n    {\n        require(msg.sender == minter, \"You cannot terminate the contract!\");\n        payable(minter).transfer(address(this).balance);\n    }\n}\n",
  "sourcePath": "/ContainerFiles/contracts/DragonBlockOracle.sol",
  "compiler": {
    "name": "solc",
    "version": "0.8.13+commit.abaa5c0e.Emscripten.clang"
  },
  "schemaVersion": "3.4.16",
  "updatedAt": "2024-01-18T09:42:21.783Z",
  "networkType": "ethereum",
  "devdoc": {
    "details": "An Oracle contract to verify users based on votes from other users.",
    "kind": "dev",
    "methods": {
      "constructor": {
        "details": "Constructor function to initialize the contract. The contract creator (minter) is marked as a verified user."
      },
      "terminate()": {
        "details": "Public function for the contract creator to terminate the contract and withdraw funds"
      },
      "verifyUser(address,address)": {
        "details": "Initiates a user verification request.",
        "params": {
          "_callerContract": "The address of the contract initiating the verification request.",
          "_userAddress": "The address of the user to be verified."
        }
      },
      "vote(uint256,bool)": {
        "details": "Allows users to vote on a user verification request.",
        "params": {
          "_requestId": "The ID of the verification request.",
          "_vote": "The vote (true for yes, false for no)."
        }
      }
    },
    "title": "DragonBlockOracle",
    "version": 1
  },
  "userdoc": {
    "kind": "user",
    "methods": {},
    "version": 1
  }
}