{
  "contractName": "DragonBlock",
  "abi": [
    {
      "inputs": [
        {
          "internalType": "address",
          "name": "_oracleAddress",
          "type": "address"
        }
      ],
      "stateMutability": "nonpayable",
      "type": "constructor"
    },
    {
      "anonymous": false,
      "inputs": [
        {
          "indexed": false,
          "internalType": "uint256",
          "name": "campaignId",
          "type": "uint256"
        }
      ],
      "name": "CampaignCreation",
      "type": "event"
    },
    {
      "inputs": [
        {
          "internalType": "uint256",
          "name": "",
          "type": "uint256"
        }
      ],
      "name": "campaigns",
      "outputs": [
        {
          "internalType": "address",
          "name": "owner",
          "type": "address"
        },
        {
          "internalType": "uint256",
          "name": "id",
          "type": "uint256"
        },
        {
          "internalType": "enum DragonBlock.CampaignStatus",
          "name": "status",
          "type": "uint8"
        },
        {
          "internalType": "uint256",
          "name": "weiLimit",
          "type": "uint256"
        },
        {
          "internalType": "uint256",
          "name": "donatedWei",
          "type": "uint256"
        },
        {
          "internalType": "uint256",
          "name": "creationTime",
          "type": "uint256"
        },
        {
          "internalType": "uint256",
          "name": "revisionTime",
          "type": "uint256"
        },
        {
          "internalType": "uint16",
          "name": "weekDuration",
          "type": "uint16"
        }
      ],
      "stateMutability": "view",
      "type": "function",
      "constant": true
    },
    {
      "inputs": [
        {
          "internalType": "address",
          "name": "",
          "type": "address"
        }
      ],
      "name": "dstBalances",
      "outputs": [
        {
          "internalType": "uint256",
          "name": "",
          "type": "uint256"
        }
      ],
      "stateMutability": "view",
      "type": "function",
      "constant": true
    },
    {
      "inputs": [],
      "name": "minter",
      "outputs": [
        {
          "internalType": "address",
          "name": "",
          "type": "address"
        }
      ],
      "stateMutability": "view",
      "type": "function",
      "constant": true
    },
    {
      "inputs": [
        {
          "internalType": "address",
          "name": "",
          "type": "address"
        }
      ],
      "name": "ssjVaults",
      "outputs": [
        {
          "internalType": "uint256",
          "name": "",
          "type": "uint256"
        }
      ],
      "stateMutability": "view",
      "type": "function",
      "constant": true
    },
    {
      "inputs": [
        {
          "internalType": "address",
          "name": "",
          "type": "address"
        }
      ],
      "name": "verifiedUsers",
      "outputs": [
        {
          "internalType": "bool",
          "name": "",
          "type": "bool"
        }
      ],
      "stateMutability": "view",
      "type": "function",
      "constant": true
    },
    {
      "inputs": [
        {
          "internalType": "address",
          "name": "_verifiedUser",
          "type": "address"
        }
      ],
      "name": "_callback",
      "outputs": [],
      "stateMutability": "nonpayable",
      "type": "function"
    },
    {
      "inputs": [],
      "name": "verifyUser",
      "outputs": [],
      "stateMutability": "nonpayable",
      "type": "function"
    },
    {
      "inputs": [
        {
          "internalType": "address",
          "name": "_user",
          "type": "address"
        }
      ],
      "name": "getUserCombactLvl",
      "outputs": [
        {
          "internalType": "uint256",
          "name": "",
          "type": "uint256"
        }
      ],
      "stateMutability": "view",
      "type": "function",
      "constant": true
    },
    {
      "inputs": [
        {
          "internalType": "uint256",
          "name": "_weiLimit",
          "type": "uint256"
        },
        {
          "internalType": "uint16",
          "name": "_weekDuration",
          "type": "uint16"
        }
      ],
      "name": "createCampaign",
      "outputs": [],
      "stateMutability": "payable",
      "type": "function",
      "payable": true
    },
    {
      "inputs": [
        {
          "internalType": "uint256",
          "name": "_campaignWindow",
          "type": "uint256"
        }
      ],
      "name": "getCampaigns",
      "outputs": [
        {
          "components": [
            {
              "internalType": "address",
              "name": "owner",
              "type": "address"
            },
            {
              "internalType": "uint256",
              "name": "id",
              "type": "uint256"
            },
            {
              "internalType": "enum DragonBlock.CampaignStatus",
              "name": "status",
              "type": "uint8"
            },
            {
              "internalType": "uint256",
              "name": "weiLimit",
              "type": "uint256"
            },
            {
              "internalType": "uint256",
              "name": "donatedWei",
              "type": "uint256"
            },
            {
              "internalType": "uint256",
              "name": "creationTime",
              "type": "uint256"
            },
            {
              "internalType": "uint256",
              "name": "revisionTime",
              "type": "uint256"
            },
            {
              "internalType": "uint16",
              "name": "weekDuration",
              "type": "uint16"
            }
          ],
          "internalType": "struct DragonBlock.Campaign[]",
          "name": "",
          "type": "tuple[]"
        }
      ],
      "stateMutability": "view",
      "type": "function",
      "constant": true
    },
    {
      "inputs": [
        {
          "internalType": "address",
          "name": "_owner",
          "type": "address"
        }
      ],
      "name": "getOwnedCampaigns",
      "outputs": [
        {
          "components": [
            {
              "internalType": "address",
              "name": "owner",
              "type": "address"
            },
            {
              "internalType": "uint256",
              "name": "id",
              "type": "uint256"
            },
            {
              "internalType": "enum DragonBlock.CampaignStatus",
              "name": "status",
              "type": "uint8"
            },
            {
              "internalType": "uint256",
              "name": "weiLimit",
              "type": "uint256"
            },
            {
              "internalType": "uint256",
              "name": "donatedWei",
              "type": "uint256"
            },
            {
              "internalType": "uint256",
              "name": "creationTime",
              "type": "uint256"
            },
            {
              "internalType": "uint256",
              "name": "revisionTime",
              "type": "uint256"
            },
            {
              "internalType": "uint16",
              "name": "weekDuration",
              "type": "uint16"
            }
          ],
          "internalType": "struct DragonBlock.Campaign[]",
          "name": "",
          "type": "tuple[]"
        }
      ],
      "stateMutability": "view",
      "type": "function",
      "constant": true
    },
    {
      "inputs": [
        {
          "internalType": "uint256",
          "name": "_id",
          "type": "uint256"
        }
      ],
      "name": "donateCampaign",
      "outputs": [],
      "stateMutability": "payable",
      "type": "function",
      "payable": true
    },
    {
      "inputs": [
        {
          "internalType": "uint256",
          "name": "_id",
          "type": "uint256"
        }
      ],
      "name": "reportCampaign",
      "outputs": [],
      "stateMutability": "nonpayable",
      "type": "function"
    },
    {
      "inputs": [
        {
          "internalType": "uint256",
          "name": "_id",
          "type": "uint256"
        }
      ],
      "name": "finalizeCampaign",
      "outputs": [],
      "stateMutability": "nonpayable",
      "type": "function"
    },
    {
      "inputs": [
        {
          "internalType": "uint256",
          "name": "_id",
          "type": "uint256"
        }
      ],
      "name": "terminateCampaign",
      "outputs": [],
      "stateMutability": "nonpayable",
      "type": "function"
    },
    {
      "inputs": [
        {
          "internalType": "uint256",
          "name": "_id",
          "type": "uint256"
        }
      ],
      "name": "finalizeRevisionCampaign",
      "outputs": [],
      "stateMutability": "nonpayable",
      "type": "function"
    },
    {
      "inputs": [
        {
          "internalType": "uint256",
          "name": "_id",
          "type": "uint256"
        },
        {
          "internalType": "bool",
          "name": "_approval",
          "type": "bool"
        }
      ],
      "name": "voteForCampaign",
      "outputs": [
        {
          "internalType": "uint256",
          "name": "",
          "type": "uint256"
        }
      ],
      "stateMutability": "nonpayable",
      "type": "function"
    },
    {
      "inputs": [
        {
          "internalType": "uint256",
          "name": "_id",
          "type": "uint256"
        },
        {
          "internalType": "bool",
          "name": "_approval",
          "type": "bool"
        }
      ],
      "name": "revisionCampaign",
      "outputs": [],
      "stateMutability": "nonpayable",
      "type": "function"
    },
    {
      "inputs": [],
      "name": "becomeSSJ",
      "outputs": [],
      "stateMutability": "payable",
      "type": "function",
      "payable": true
    },
    {
      "inputs": [],
      "name": "becomeNormalUser",
      "outputs": [],
      "stateMutability": "nonpayable",
      "type": "function"
    },
    {
      "inputs": [],
      "name": "terminate",
      "outputs": [],
      "stateMutability": "nonpayable",
      "type": "function"
    }
  ],
  "bytecode": "0x60806040523480156200001157600080fd5b506040516200553f3803806200553f83398181016040528101906200003791906200016f565b33600b60006101000a81548173ffffffffffffffffffffffffffffffffffffffff021916908373ffffffffffffffffffffffffffffffffffffffff1602179055506103e8600260003373ffffffffffffffffffffffffffffffffffffffff1673ffffffffffffffffffffffffffffffffffffffff16815260200190815260200160002081905550806000806101000a81548173ffffffffffffffffffffffffffffffffffffffff021916908373ffffffffffffffffffffffffffffffffffffffff16021790555050620001a1565b600080fd5b600073ffffffffffffffffffffffffffffffffffffffff82169050919050565b600062000137826200010a565b9050919050565b62000149816200012a565b81146200015557600080fd5b50565b60008151905062000169816200013e565b92915050565b60006020828403121562000188576200018762000105565b5b6000620001988482850162000158565b91505092915050565b61538e80620001b16000396000f3fe6080604052600436106101295760003560e01c80635f52fdcd116100ab578063954074821161006f57806395407482146103d8578063bc7586fe146103ef578063db62877f146103f9578063e0968d6b14610422578063e35fe3661461044b578063fb58ca821461048857610129565b80635f52fdcd146102f05780636a288ef9146103195780636b5ca27d146103565780637ae473171461037f5780638ffff8b0146103bc57610129565b8063141961bc116100f2578063141961bc1461021357806317b3cdd21461025757806324005d581461026e57806324be0891146102975780632c780755146102d457610129565b80623e63ab1461012e578063075461721461016b5780630c08bf88146101965780631050d9ef146101ad57806312abd905146101ea575b600080fd5b34801561013a57600080fd5b506101556004803603810190610150919061380d565b6104c5565b6040516101629190613853565b60405180910390f35b34801561017757600080fd5b506101806104dd565b60405161018d919061387d565b60405180910390f35b3480156101a257600080fd5b506101ab610503565b005b3480156101b957600080fd5b506101d460048036038101906101cf919061380d565b6105fe565b6040516101e19190613a9c565b60405180910390f35b3480156101f657600080fd5b50610211600480360381019061020c9190613b22565b6108ea565b005b34801561021f57600080fd5b5061023a60048036038101906102359190613b62565b610ce2565b60405161024e989796959493929190613bad565b60405180910390f35b34801561026357600080fd5b5061026c610d75565b005b34801561027a57600080fd5b5061029560048036038101906102909190613b62565b610eca565b005b3480156102a357600080fd5b506102be60048036038101906102b9919061380d565b611192565b6040516102cb9190613853565b60405180910390f35b6102ee60048036038101906102e99190613c57565b611246565b005b3480156102fc57600080fd5b506103176004803603810190610312919061380d565b611595565b005b34801561032557600080fd5b50610340600480360381019061033b919061380d565b6115f0565b60405161034d9190613853565b60405180910390f35b34801561036257600080fd5b5061037d60048036038101906103789190613b62565b611608565b005b34801561038b57600080fd5b506103a660048036038101906103a19190613b62565b61189f565b6040516103b39190613a9c565b60405180910390f35b6103d660048036038101906103d19190613b62565b611b71565b005b3480156103e457600080fd5b506103ed611fab565b005b6103f761208c565b005b34801561040557600080fd5b50610420600480360381019061041b9190613b62565b612223565b005b34801561042e57600080fd5b5061044960048036038101906104449190613b62565b612574565b005b34801561045757600080fd5b50610472600480360381019061046d919061380d565b612899565b60405161047f9190613ca6565b60405180910390f35b34801561049457600080fd5b506104af60048036038101906104aa9190613b22565b6128b9565b6040516104bc9190613853565b60405180910390f35b60036020528060005260406000206000915090505481565b600b60009054906101000a900473ffffffffffffffffffffffffffffffffffffffff1681565b600b60009054906101000a900473ffffffffffffffffffffffffffffffffffffffff1673ffffffffffffffffffffffffffffffffffffffff163373ffffffffffffffffffffffffffffffffffffffff1614610593576040517f08c379a000000000000000000000000000000000000000000000000000000000815260040161058a90613d44565b60405180910390fd5b600b60009054906101000a900473ffffffffffffffffffffffffffffffffffffffff1673ffffffffffffffffffffffffffffffffffffffff166108fc479081150290604051600060405180830381858888f193505050501580156105fb573d6000803e3d6000fd5b50565b60606000805b6001805490508110156106ab578373ffffffffffffffffffffffffffffffffffffffff166001828154811061063c5761063b613d64565b5b906000526020600020906008020160000160009054906101000a900473ffffffffffffffffffffffffffffffffffffffff1673ffffffffffffffffffffffffffffffffffffffff160361069857818061069490613dc2565b9250505b80806106a390613dc2565b915050610604565b5060008167ffffffffffffffff8111156106c8576106c7613e0a565b5b60405190808252806020026020018201604052801561070157816020015b6106ee6136fb565b8152602001906001900390816106e65790505b5090506000805b6001805490508110156108de578573ffffffffffffffffffffffffffffffffffffffff16600182815481106107405761073f613d64565b5b906000526020600020906008020160000160009054906101000a900473ffffffffffffffffffffffffffffffffffffffff1673ffffffffffffffffffffffffffffffffffffffff16036108cb57600181815481106107a1576107a0613d64565b5b9060005260206000209060080201604051806101000160405290816000820160009054906101000a900473ffffffffffffffffffffffffffffffffffffffff1673ffffffffffffffffffffffffffffffffffffffff1673ffffffffffffffffffffffffffffffffffffffff168152602001600182015481526020016002820160009054906101000a900460ff1660058111156108405761083f6138e2565b5b6005811115610852576108516138e2565b5b8152602001600382015481526020016004820154815260200160058201548152602001600682015481526020016007820160009054906101000a900461ffff1661ffff1661ffff16815250508383815181106108b1576108b0613d64565b5b602002602001018190525081806108c790613dc2565b9250505b80806108d690613dc2565b915050610708565b50819350505050919050565b6000600360003373ffffffffffffffffffffffffffffffffffffffff1673ffffffffffffffffffffffffffffffffffffffff168152602001908152602001600020541161096c576040517f08c379a000000000000000000000000000000000000000000000000000000000815260040161096390613eab565b60405180910390fd5b600360058111156109805761097f6138e2565b5b6001838154811061099457610993613d64565b5b906000526020600020906008020160020160009054906101000a900460ff1660058111156109c5576109c46138e2565b5b14610a05576040517f08c379a00000000000000000000000000000000000000000000000000000000081526004016109fc90613f3d565b60405180910390fd5b62093a8060018381548110610a1d57610a1c613d64565b5b906000526020600020906008020160060154610a399190613f5d565b4210610a7a576040517f08c379a0000000000000000000000000000000000000000000000000000000008152600401610a7190614025565b60405180910390fd5b610a963360066000858152602001908152602001600020612c3e565b15610ad6576040517f08c379a0000000000000000000000000000000000000000000000000000000008152600401610acd906140b7565b60405180910390fd5b610af23360076000858152602001908152602001600020612c3e565b15610b32576040517f08c379a0000000000000000000000000000000000000000000000000000000008152600401610b2990614149565b60405180910390fd5b610b4e3360046000858152602001908152602001600020612c3e565b15610b8e576040517f08c379a0000000000000000000000000000000000000000000000000000000008152600401610b8590614201565b60405180910390fd5b610baa3360056000858152602001908152602001600020612c3e565b15610bea576040517f08c379a0000000000000000000000000000000000000000000000000000000008152600401610be190614201565b60405180910390fd5b8015610c695760066000838152602001908152602001600020339080600181540180825580915050600190039060005260206000200160009091909190916101000a81548173ffffffffffffffffffffffffffffffffffffffff021916908373ffffffffffffffffffffffffffffffffffffffff160217905550610cde565b60076000838152602001908152602001600020339080600181540180825580915050600190039060005260206000200160009091909190916101000a81548173ffffffffffffffffffffffffffffffffffffffff021916908373ffffffffffffffffffffffffffffffffffffffff1602179055505b5050565b60018181548110610cf257600080fd5b90600052602060002090600802016000915090508060000160009054906101000a900473ffffffffffffffffffffffffffffffffffffffff16908060010154908060020160009054906101000a900460ff16908060030154908060040154908060050154908060060154908060070160009054906101000a900461ffff16905088565b6000600360003373ffffffffffffffffffffffffffffffffffffffff1673ffffffffffffffffffffffffffffffffffffffff1681526020019081526020016000205411610df7576040517f08c379a0000000000000000000000000000000000000000000000000000000008152600401610dee90613eab565b60405180910390fd5b60003390508073ffffffffffffffffffffffffffffffffffffffff166108fc600360003373ffffffffffffffffffffffffffffffffffffffff1673ffffffffffffffffffffffffffffffffffffffff168152602001908152602001600020549081150290604051600060405180830381858888f19350505050158015610e81573d6000803e3d6000fd5b506000600360003373ffffffffffffffffffffffffffffffffffffffff1673ffffffffffffffffffffffffffffffffffffffff1681526020019081526020016000208190555050565b6001805490508110610f11576040517f08c379a0000000000000000000000000000000000000000000000000000000008152600401610f0890614293565b60405180910390fd5b60016005811115610f2557610f246138e2565b5b60018281548110610f3957610f38613d64565b5b906000526020600020906008020160020160009054906101000a900460ff166005811115610f6a57610f696138e2565b5b14610faa576040517f08c379a0000000000000000000000000000000000000000000000000000000008152600401610fa190614325565b60405180910390fd5b6000600260003373ffffffffffffffffffffffffffffffffffffffff1673ffffffffffffffffffffffffffffffffffffffff168152602001908152602001600020541161102c576040517f08c379a000000000000000000000000000000000000000000000000000000000815260040161102390614391565b60405180910390fd5b6001600260003373ffffffffffffffffffffffffffffffffffffffff1673ffffffffffffffffffffffffffffffffffffffff168152602001908152602001600020600082825461107c91906143b1565b9250508190555060086000828152602001908152602001600020339080600181540180825580915050600190039060005260206000200160009091909190916101000a81548173ffffffffffffffffffffffffffffffffffffffff021916908373ffffffffffffffffffffffffffffffffffffffff16021790555060016008600083815260200190815260200160002080549050111561118f5760036001828154811061112c5761112b613d64565b5b906000526020600020906008020160020160006101000a81548160ff0219169083600581111561115f5761115e6138e2565b5b0217905550426001828154811061117957611178613d64565b5b9060005260206000209060080201600601819055505b50565b6000612328600a600260008573ffffffffffffffffffffffffffffffffffffffff1673ffffffffffffffffffffffffffffffffffffffff168152602001908152602001600020546111e391906143e5565b106111f2576123289050611241565b600a600260008473ffffffffffffffffffffffffffffffffffffffff1673ffffffffffffffffffffffffffffffffffffffff1681526020019081526020016000205461123e91906143e5565b90505b919050565b606460058361125591906143e5565b61125f919061446e565b34146112a0576040517f08c379a000000000000000000000000000000000000000000000000000000000815260040161129790614511565b60405180910390fd5b66b1a2bc2ec5000082116112e9576040517f08c379a00000000000000000000000000000000000000000000000000000000081526004016112e0906145a3565b60405180910390fd5b60006611c37937e08000836112fe91906145c3565b1461133e576040517f08c379a000000000000000000000000000000000000000000000000000000000815260040161133590614666565b60405180910390fd5b61134733611192565b67016345785d8a000061135a91906143e5565b82111561139c576040517f08c379a0000000000000000000000000000000000000000000000000000000008152600401611393906146f8565b60405180910390fd5b60088161ffff16116113e3576040517f08c379a00000000000000000000000000000000000000000000000000000000081526004016113da906147b0565b60405180910390fd5b60016040518061010001604052803373ffffffffffffffffffffffffffffffffffffffff16815260200160018054905081526020016000600581111561142c5761142b6138e2565b5b815260200184815260200160008152602001428152602001600081526020018361ffff16815250908060018154018082558091505060019003906000526020600020906008020160009091909190915060008201518160000160006101000a81548173ffffffffffffffffffffffffffffffffffffffff021916908373ffffffffffffffffffffffffffffffffffffffff1602179055506020820151816001015560408201518160020160006101000a81548160ff021916908360058111156114f8576114f76138e2565b5b0217905550606082015181600301556080820151816004015560a0820151816005015560c0820151816006015560e08201518160070160006101000a81548161ffff021916908361ffff16021790555050507fddc542354787cb630b12d547bef306670ab435a3efdf62eeacf8532c042390ec6001808054905061157c91906143b1565b6040516115899190613853565b60405180910390a15050565b6001600960008373ffffffffffffffffffffffffffffffffffffffff1673ffffffffffffffffffffffffffffffffffffffff16815260200190815260200160002060006101000a81548160ff02191690831515021790555050565b60026020528060005260406000206000915090505481565b6000600581111561161c5761161b6138e2565b5b600182815481106116305761162f613d64565b5b906000526020600020906008020160020160009054906101000a900460ff166005811115611661576116606138e2565b5b146116a1576040517f08c379a000000000000000000000000000000000000000000000000000000000815260040161169890614842565b60405180910390fd5b6000600182815481106116b7576116b6613d64565b5b9060005260206000209060080201600501546116d39190613f5d565b4211611714576040517f08c379a000000000000000000000000000000000000000000000000000000000815260040161170b906148d4565b60405180910390fd5b6001818154811061172857611727613d64565b5b906000526020600020906008020160000160009054906101000a900473ffffffffffffffffffffffffffffffffffffffff1673ffffffffffffffffffffffffffffffffffffffff163373ffffffffffffffffffffffffffffffffffffffff16146117c7576040517f08c379a00000000000000000000000000000000000000000000000000000000081526004016117be90614966565b60405180910390fd5b60056000828152602001908152602001600020805490506004600083815260200190815260200160002080549050111561184d5760018082815481106118105761180f613d64565b5b906000526020600020906008020160020160006101000a81548160ff02191690836005811115611843576118426138e2565b5b021790555061189c565b60026001828154811061186357611862613d64565b5b906000526020600020906008020160020160006101000a81548160ff02191690836005811115611896576118956138e2565b5b02179055505b50565b6060600082116118e4576040517f08c379a00000000000000000000000000000000000000000000000000000000081526004016118db906149f8565b60405180910390fd5b600060146001846118f591906143b1565b6118ff9190614a22565b60018054905061190f9190614b39565b1215611950576040517f08c379a000000000000000000000000000000000000000000000000000000000815260040161194790614c19565b60405180910390fd5b600060148361195f9190614a22565b60018054905061196f9190614b39565b9050600081121561197f57600090505b60006001805490506014836119949190614c39565b11156119b057816001805490506119ab91906143b1565b6119b3565b60145b905060008167ffffffffffffffff8111156119d1576119d0613e0a565b5b604051908082528060200260200182016040528015611a0a57816020015b6119f76136fb565b8152602001906001900390816119ef5790505b50905060005b82811015611b655760018185611a269190614c39565b81548110611a3757611a36613d64565b5b9060005260206000209060080201604051806101000160405290816000820160009054906101000a900473ffffffffffffffffffffffffffffffffffffffff1673ffffffffffffffffffffffffffffffffffffffff1673ffffffffffffffffffffffffffffffffffffffff168152602001600182015481526020016002820160009054906101000a900460ff166005811115611ad657611ad56138e2565b5b6005811115611ae857611ae76138e2565b5b8152602001600382015481526020016004820154815260200160058201548152602001600682015481526020016007820160009054906101000a900461ffff1661ffff1661ffff1681525050828281518110611b4757611b46613d64565b5b60200260200101819052508080611b5d90613dc2565b915050611a10565b50809350505050919050565b6001805490508110611bb8576040517f08c379a0000000000000000000000000000000000000000000000000000000008152600401611baf90614293565b60405180910390fd5b60016005811115611bcc57611bcb6138e2565b5b60018281548110611be057611bdf613d64565b5b906000526020600020906008020160020160009054906101000a900460ff166005811115611c1157611c106138e2565b5b14611c51576040517f08c379a0000000000000000000000000000000000000000000000000000000008152600401611c4890614325565b60405180910390fd5b62093a8060018281548110611c6957611c68613d64565b5b906000526020600020906008020160070160009054906101000a900461ffff1661ffff16611c979190614cdc565b62ffffff1660018281548110611cb057611caf613d64565b5b906000526020600020906008020160050154611ccc9190613f5d565b421115611d0e576040517f08c379a0000000000000000000000000000000000000000000000000000000008152600401611d0590614db1565b60405180910390fd5b60003460018381548110611d2557611d24613d64565b5b90600052602060002090600802016004015460018481548110611d4b57611d4a613d64565b5b906000526020600020906008020160030154611d6791906143b1565b611d7191906143b1565b1015611db2576040517f08c379a0000000000000000000000000000000000000000000000000000000008152600401611da990614e1d565b60405180910390fd5b60003411611df5576040517f08c379a0000000000000000000000000000000000000000000000000000000008152600401611dec90614eaf565b60405180910390fd5b60006601c6bf5263400034611e0a91906145c3565b14611e4a576040517f08c379a0000000000000000000000000000000000000000000000000000000008152600401611e4190614f41565b60405180910390fd5b3460018281548110611e5f57611e5e613d64565b5b90600052602060002090600802016004016000828254611e7f9190613f5d565b925050819055506601c6bf5263400034611e99919061446e565b600260003373ffffffffffffffffffffffffffffffffffffffff1673ffffffffffffffffffffffffffffffffffffffff1681526020019081526020016000206000828254611ee79190613f5d565b92505081905550600a600082815260200190815260200160002060405180604001604052803373ffffffffffffffffffffffffffffffffffffffff16815260200134815250908060018154018082558091505060019003906000526020600020906002020160009091909190915060008201518160000160006101000a81548173ffffffffffffffffffffffffffffffffffffffff021916908373ffffffffffffffffffffffffffffffffffffffff16021790555060208201518160010155505050565b600960003373ffffffffffffffffffffffffffffffffffffffff1673ffffffffffffffffffffffffffffffffffffffff16815260200190815260200160002060009054906101000a900460ff1661208a5760008054906101000a900473ffffffffffffffffffffffffffffffffffffffff1673ffffffffffffffffffffffffffffffffffffffff1663f3b9025c33306040518363ffffffff1660e01b8152600401612057929190614f61565b600060405180830381600087803b15801561207157600080fd5b505af1158015612085573d6000803e3d6000fd5b505050505b565b6000600360003373ffffffffffffffffffffffffffffffffffffffff1673ffffffffffffffffffffffffffffffffffffffff168152602001908152602001600020541461210e576040517f08c379a000000000000000000000000000000000000000000000000000000000815260040161210590614ffc565b60405180910390fd5b6101f4600260003373ffffffffffffffffffffffffffffffffffffffff1673ffffffffffffffffffffffffffffffffffffffff168152602001908152602001600020541015612192576040517f08c379a0000000000000000000000000000000000000000000000000000000008152600401612189906150b4565b60405180910390fd5b6706f05b59d3b200003410156121dd576040517f08c379a00000000000000000000000000000000000000000000000000000000081526004016121d490615146565b60405180910390fd5b34600360003373ffffffffffffffffffffffffffffffffffffffff1673ffffffffffffffffffffffffffffffffffffffff16815260200190815260200160002081905550565b60016005811115612237576122366138e2565b5b6001828154811061224b5761224a613d64565b5b906000526020600020906008020160020160009054906101000a900460ff16600581111561227c5761227b6138e2565b5b146122bc576040517f08c379a00000000000000000000000000000000000000000000000000000000081526004016122b3906151d8565b60405180910390fd5b6000600182815481106122d2576122d1613d64565b5b906000526020600020906008020160070160009054906101000a900461ffff166122fc91906151f8565b61ffff166001828154811061231457612313613d64565b5b9060005260206000209060080201600501546123309190613f5d565b421015612372576040517f08c379a0000000000000000000000000000000000000000000000000000000008152600401612369906148d4565b60405180910390fd5b6001818154811061238657612385613d64565b5b906000526020600020906008020160000160009054906101000a900473ffffffffffffffffffffffffffffffffffffffff1673ffffffffffffffffffffffffffffffffffffffff163373ffffffffffffffffffffffffffffffffffffffff1614612425576040517f08c379a000000000000000000000000000000000000000000000000000000000815260040161241c906152a6565b60405180910390fd5b60056001828154811061243b5761243a613d64565b5b906000526020600020906008020160020160006101000a81548160ff0219169083600581111561246e5761246d6138e2565b5b021790555061247c81612ceb565b60066000828152602001908152602001600020600061249b919061376c565b6007600082815260200190815260200160002060006124ba919061376c565b6000600182815481106124d0576124cf613d64565b5b906000526020600020906008020160000160009054906101000a900473ffffffffffffffffffffffffffffffffffffffff1690508073ffffffffffffffffffffffffffffffffffffffff166108fc6001848154811061253257612531613d64565b5b9060005260206000209060080201600401549081150290604051600060405180830381858888f1935050505015801561256f573d6000803e3d6000fd5b505050565b60036005811115612588576125876138e2565b5b6001828154811061259c5761259b613d64565b5b906000526020600020906008020160020160009054906101000a900460ff1660058111156125cd576125cc6138e2565b5b1461260d576040517f08c379a0000000000000000000000000000000000000000000000000000000008152600401612604906151d8565b60405180910390fd5b60006001828154811061262357612622613d64565b5b90600052602060002090600802016006015461263f9190613f5d565b421015612681576040517f08c379a0000000000000000000000000000000000000000000000000000000008152600401612678906148d4565b60405180910390fd5b6001818154811061269557612694613d64565b5b906000526020600020906008020160000160009054906101000a900473ffffffffffffffffffffffffffffffffffffffff1673ffffffffffffffffffffffffffffffffffffffff163373ffffffffffffffffffffffffffffffffffffffff1614612734576040517f08c379a000000000000000000000000000000000000000000000000000000000815260040161272b90614966565b60405180910390fd5b6007600082815260200190815260200160002080549050600660008381526020019081526020016000208054905011156127e557600180828154811061277d5761277c613d64565b5b906000526020600020906008020160020160006101000a81548160ff021916908360058111156127b0576127af6138e2565b5b02179055506000600182815481106127cb576127ca613d64565b5b906000526020600020906008020160060181905550612896565b6004600182815481106127fb576127fa613d64565b5b906000526020600020906008020160020160006101000a81548160ff0219169083600581111561282e5761282d6138e2565b5b021790555061283c8161325b565b61284581613507565b61284e81612ceb565b612857816135ea565b600660008281526020019081526020016000206000612876919061376c565b600760008281526020019081526020016000206000612895919061376c565b5b50565b60096020528060005260406000206000915054906101000a900460ff1681565b600080600360003373ffffffffffffffffffffffffffffffffffffffff1673ffffffffffffffffffffffffffffffffffffffff168152602001908152602001600020541161293c576040517f08c379a000000000000000000000000000000000000000000000000000000000815260040161293390613eab565b60405180910390fd5b600060058111156129505761294f6138e2565b5b6001848154811061296457612963613d64565b5b906000526020600020906008020160020160009054906101000a900460ff166005811115612995576129946138e2565b5b146129d5576040517f08c379a00000000000000000000000000000000000000000000000000000000081526004016129cc90614842565b60405180910390fd5b62093a80600184815481106129ed576129ec613d64565b5b906000526020600020906008020160050154612a099190613f5d565b4210612a4a576040517f08c379a0000000000000000000000000000000000000000000000000000000008152600401612a4190615338565b60405180910390fd5b612a663360046000868152602001908152602001600020612c3e565b15612aa6576040517f08c379a0000000000000000000000000000000000000000000000000000000008152600401612a9d906140b7565b60405180910390fd5b612ac23360056000868152602001908152602001600020612c3e565b15612b02576040517f08c379a0000000000000000000000000000000000000000000000000000000008152600401612af990614149565b60405180910390fd5b8115612b815760046000848152602001908152602001600020339080600181540180825580915050600190039060005260206000200160009091909190916101000a81548173ffffffffffffffffffffffffffffffffffffffff021916908373ffffffffffffffffffffffffffffffffffffffff160217905550612bf6565b60056000848152602001908152602001600020339080600181540180825580915050600190039060005260206000200160009091909190916101000a81548173ffffffffffffffffffffffffffffffffffffffff021916908373ffffffffffffffffffffffffffffffffffffffff1602179055505b600360003373ffffffffffffffffffffffffffffffffffffffff1673ffffffffffffffffffffffffffffffffffffffff16815260200190815260200160002054905092915050565b600080600090505b8280549050811015612cdf578373ffffffffffffffffffffffffffffffffffffffff16838281548110612c7c57612c7b613d64565b5b9060005260206000200160009054906101000a900473ffffffffffffffffffffffffffffffffffffffff1673ffffffffffffffffffffffffffffffffffffffff1603612ccc576001915050612ce5565b8080612cd790613dc2565b915050612c46565b50600090505b92915050565b60046005811115612cff57612cfe6138e2565b5b60018281548110612d1357612d12613d64565b5b906000526020600020906008020160020160009054906101000a900460ff166005811115612d4457612d436138e2565b5b036130085760005b6005600083815260200190815260200160002080549050811015612ea7576000600560008481526020019081526020016000208281548110612d9157612d90613d64565b5b9060005260206000200160009054906101000a900473ffffffffffffffffffffffffffffffffffffffff16905060076000848152602001908152602001600020805490506005600085815260200190815260200160002080549050612df69190613f5d565b6064600560018681548110612e0e57612e0d613d64565b5b906000526020600020906008020160030154612e2a91906143e5565b612e34919061446e565b612e3e919061446e565b600360008373ffffffffffffffffffffffffffffffffffffffff1673ffffffffffffffffffffffffffffffffffffffff1681526020019081526020016000206000828254612e8c9190613f5d565b92505081905550508080612e9f90613dc2565b915050612d4c565b5060005b6007600083815260200190815260200160002080549050811015613006576000600760008481526020019081526020016000208281548110612ef057612eef613d64565b5b9060005260206000200160009054906101000a900473ffffffffffffffffffffffffffffffffffffffff16905060076000848152602001908152602001600020805490506005600085815260200190815260200160002080549050612f559190613f5d565b6064600560018681548110612f6d57612f6c613d64565b5b906000526020600020906008020160030154612f8991906143e5565b612f93919061446e565b612f9d919061446e565b600360008373ffffffffffffffffffffffffffffffffffffffff1673ffffffffffffffffffffffffffffffffffffffff1681526020019081526020016000206000828254612feb9190613f5d565b92505081905550508080612ffe90613dc2565b915050612eab565b505b60058081111561301b5761301a6138e2565b5b6001828154811061302f5761302e613d64565b5b906000526020600020906008020160020160009054906101000a900460ff1660058111156130605761305f6138e2565b5b036132575760006001828154811061307b5761307a613d64565b5b9060005260206000209060080201600301546064600184815481106130a3576130a2613d64565b5b9060005260206000209060080201600401546130bf91906143e5565b6130c9919061446e565b9050600581116130d95750613258565b60006064826130e8919061446e565b6064600560018681548110613100576130ff613d64565b5b90600052602060002090600802016003015461311c91906143e5565b613126919061446e565b61313091906143e5565b905060005b600460008581526020019081526020016000208054905081101561325357600060046000868152602001908152602001600020828154811061317a57613179613d64565b5b9060005260206000200160009054906101000a900473ffffffffffffffffffffffffffffffffffffffff169050600660008681526020019081526020016000208054905060046000878152602001908152602001600020805490506131df9190613f5d565b836131ea919061446e565b600360008373ffffffffffffffffffffffffffffffffffffffff1673ffffffffffffffffffffffffffffffffffffffff16815260200190815260200160002060008282546132389190613f5d565b9250508190555050808061324b90613dc2565b915050613135565b5050505b5b50565b60005b60046000838152602001908152602001600020805490508110156135035760006004600084815260200190815260200160002082815481106132a3576132a2613d64565b5b9060005260206000200160009054906101000a900473ffffffffffffffffffffffffffffffffffffffff1690506658d15e17628000600360008373ffffffffffffffffffffffffffffffffffffffff1673ffffffffffffffffffffffffffffffffffffffff168152602001908152602001600020600082825461332691906143b1565b92505081905550600a600260008373ffffffffffffffffffffffffffffffffffffffff1673ffffffffffffffffffffffffffffffffffffffff168152602001908152602001600020600082825461337d91906143b1565b9250508190555066b1a2bc2ec50000600360008373ffffffffffffffffffffffffffffffffffffffff1673ffffffffffffffffffffffffffffffffffffffff16815260200190815260200160002054108061341857506101f4600260008373ffffffffffffffffffffffffffffffffffffffff1673ffffffffffffffffffffffffffffffffffffffff16815260200190815260200160002054105b156134ef5760008190508073ffffffffffffffffffffffffffffffffffffffff166108fc600360008573ffffffffffffffffffffffffffffffffffffffff1673ffffffffffffffffffffffffffffffffffffffff168152602001908152602001600020549081150290604051600060405180830381858888f193505050501580156134a7573d6000803e3d6000fd5b506000600360008473ffffffffffffffffffffffffffffffffffffffff1673ffffffffffffffffffffffffffffffffffffffff16815260200190815260200160002081905550505b5080806134fb90613dc2565b91505061325e565b5050565b60005b60086000838152602001908152602001600020805490508110156135e657600060086000848152602001908152602001600020828154811061354f5761354e613d64565b5b9060005260206000200160009054906101000a900473ffffffffffffffffffffffffffffffffffffffff16905060028060008373ffffffffffffffffffffffffffffffffffffffff1673ffffffffffffffffffffffffffffffffffffffff16815260200190815260200160002060008282546135cb9190613f5d565b925050819055505080806135de90613dc2565b91505061350a565b5050565b60005b600a6000838152602001908152602001600020805490508110156136f7576000600a6000848152602001908152602001600020828154811061363257613631613d64565b5b906000526020600020906002020160000160009054906101000a900473ffffffffffffffffffffffffffffffffffffffff1690508073ffffffffffffffffffffffffffffffffffffffff166108fc600a600086815260200190815260200160002084815481106136a5576136a4613d64565b5b9060005260206000209060020201600101549081150290604051600060405180830381858888f193505050501580156136e2573d6000803e3d6000fd5b505080806136ef90613dc2565b9150506135ed565b5050565b604051806101000160405280600073ffffffffffffffffffffffffffffffffffffffff168152602001600081526020016000600581111561373f5761373e6138e2565b5b815260200160008152602001600081526020016000815260200160008152602001600061ffff1681525090565b508054600082559060005260206000209081019061378a919061378d565b50565b5b808211156137a657600081600090555060010161378e565b5090565b600080fd5b600073ffffffffffffffffffffffffffffffffffffffff82169050919050565b60006137da826137af565b9050919050565b6137ea816137cf565b81146137f557600080fd5b50565b600081359050613807816137e1565b92915050565b600060208284031215613823576138226137aa565b5b6000613831848285016137f8565b91505092915050565b6000819050919050565b61384d8161383a565b82525050565b60006020820190506138686000830184613844565b92915050565b613877816137cf565b82525050565b6000602082019050613892600083018461386e565b92915050565b600081519050919050565b600082825260208201905092915050565b6000819050602082019050919050565b6138cd816137cf565b82525050565b6138dc8161383a565b82525050565b7f4e487b7100000000000000000000000000000000000000000000000000000000600052602160045260246000fd5b60068110613922576139216138e2565b5b50565b600081905061393382613911565b919050565b600061394382613925565b9050919050565b61395381613938565b82525050565b600061ffff82169050919050565b61397081613959565b82525050565b6101008201600082015161398d60008501826138c4565b5060208201516139a060208501826138d3565b5060408201516139b3604085018261394a565b5060608201516139c660608501826138d3565b5060808201516139d960808501826138d3565b5060a08201516139ec60a08501826138d3565b5060c08201516139ff60c08501826138d3565b5060e0820151613a1260e0850182613967565b50505050565b6000613a248383613976565b6101008301905092915050565b6000602082019050919050565b6000613a4982613898565b613a5381856138a3565b9350613a5e836138b4565b8060005b83811015613a8f578151613a768882613a18565b9750613a8183613a31565b925050600181019050613a62565b5085935050505092915050565b60006020820190508181036000830152613ab68184613a3e565b905092915050565b613ac78161383a565b8114613ad257600080fd5b50565b600081359050613ae481613abe565b92915050565b60008115159050919050565b613aff81613aea565b8114613b0a57600080fd5b50565b600081359050613b1c81613af6565b92915050565b60008060408385031215613b3957613b386137aa565b5b6000613b4785828601613ad5565b9250506020613b5885828601613b0d565b9150509250929050565b600060208284031215613b7857613b776137aa565b5b6000613b8684828501613ad5565b91505092915050565b613b9881613938565b82525050565b613ba781613959565b82525050565b600061010082019050613bc3600083018b61386e565b613bd0602083018a613844565b613bdd6040830189613b8f565b613bea6060830188613844565b613bf76080830187613844565b613c0460a0830186613844565b613c1160c0830185613844565b613c1e60e0830184613b9e565b9998505050505050505050565b613c3481613959565b8114613c3f57600080fd5b50565b600081359050613c5181613c2b565b92915050565b60008060408385031215613c6e57613c6d6137aa565b5b6000613c7c85828601613ad5565b9250506020613c8d85828601613c42565b9150509250929050565b613ca081613aea565b82525050565b6000602082019050613cbb6000830184613c97565b92915050565b600082825260208201905092915050565b7f596f752063616e6e6f74207465726d696e6174652074686520636f6e7472616360008201527f7421000000000000000000000000000000000000000000000000000000000000602082015250565b6000613d2e602283613cc1565b9150613d3982613cd2565b604082019050919050565b60006020820190508181036000830152613d5d81613d21565b9050919050565b7f4e487b7100000000000000000000000000000000000000000000000000000000600052603260045260246000fd5b7f4e487b7100000000000000000000000000000000000000000000000000000000600052601160045260246000fd5b6000613dcd8261383a565b91507fffffffffffffffffffffffffffffffffffffffffffffffffffffffffffffffff8203613dff57613dfe613d93565b5b600182019050919050565b7f4e487b7100000000000000000000000000000000000000000000000000000000600052604160045260246000fd5b7f596f7520617265206e6f742070617274206f662074686520537570657253616960008201527f79616e2053657421000000000000000000000000000000000000000000000000602082015250565b6000613e95602883613cc1565b9150613ea082613e39565b604082019050919050565b60006020820190508181036000830152613ec481613e88565b9050919050565b7f546865207370656369666965642063616d706169676e206973206e6f7420696e60008201527f207265766973696f6e2100000000000000000000000000000000000000000000602082015250565b6000613f27602a83613cc1565b9150613f3282613ecb565b604082019050919050565b60006020820190508181036000830152613f5681613f1a565b9050919050565b6000613f688261383a565b9150613f738361383a565b9250827fffffffffffffffffffffffffffffffffffffffffffffffffffffffffffffffff03821115613fa857613fa7613d93565b5b828201905092915050565b7f546865207265766973696f6e20697320746f6f206f6c642c20796f752063616e60008201527f6e6f7420766f746520616e796d6f726521000000000000000000000000000000602082015250565b600061400f603183613cc1565b915061401a82613fb3565b604082019050919050565b6000602082019050818103600083015261403e81614002565b9050919050565b7f596f75206861766520616c726561647920617070726f7665642074686973206360008201527f616d706169676e00000000000000000000000000000000000000000000000000602082015250565b60006140a1602783613cc1565b91506140ac82614045565b604082019050919050565b600060208201905081810360008301526140d081614094565b9050919050565b7f596f75206861766520616c726561647920646973617070726f7665642074686960008201527f732063616d706169676e00000000000000000000000000000000000000000000602082015250565b6000614133602a83613cc1565b915061413e826140d7565b604082019050919050565b6000602082019050818103600083015261416281614126565b9050919050565b7f596f75206861766520766f74656420746869732063616d706169676e2077686960008201527f6c65206974207761732070656e64696e672c207468657265666f726520796f7560208201527f2063616e6e6f7420766f746520666f7220746865207265766973696f6e000000604082015250565b60006141eb605d83613cc1565b91506141f682614169565b606082019050919050565b6000602082019050818103600083015261421a816141de565b9050919050565b7f546865207370656369666965642063616d706169676e20646f6573206e6f742060008201527f6578697374000000000000000000000000000000000000000000000000000000602082015250565b600061427d602583613cc1565b915061428882614221565b604082019050919050565b600060208201905081810360008301526142ac81614270565b9050919050565b7f546865207370656369666965642063616d706169676e206973206e6f7420616360008201527f7469766500000000000000000000000000000000000000000000000000000000602082015250565b600061430f602483613cc1565b915061431a826142b3565b604082019050919050565b6000602082019050818103600083015261433e81614302565b9050919050565b7f596f75206d7573742068617665206174206c6561737420312044535400000000600082015250565b600061437b601c83613cc1565b915061438682614345565b602082019050919050565b600060208201905081810360008301526143aa8161436e565b9050919050565b60006143bc8261383a565b91506143c78361383a565b9250828210156143da576143d9613d93565b5b828203905092915050565b60006143f08261383a565b91506143fb8361383a565b9250817fffffffffffffffffffffffffffffffffffffffffffffffffffffffffffffffff048311821515161561443457614433613d93565b5b828202905092915050565b7f4e487b7100000000000000000000000000000000000000000000000000000000600052601260045260246000fd5b60006144798261383a565b91506144848361383a565b9250826144945761449361443f565b5b828204905092915050565b7f596f75206861766520746f206465706f736974203525206f662074686520776560008201527f694c696d69742100000000000000000000000000000000000000000000000000602082015250565b60006144fb602783613cc1565b91506145068261449f565b604082019050919050565b6000602082019050818103600083015261452a816144ee565b9050919050565b7f54686520646f6e6174696f6e206c696d6974206d75737420626520677265617460008201527f6572207468616e20302e30352045544800000000000000000000000000000000602082015250565b600061458d603083613cc1565b915061459882614531565b604082019050919050565b600060208201905081810360008301526145bc81614580565b9050919050565b60006145ce8261383a565b91506145d98361383a565b9250826145e9576145e861443f565b5b828206905092915050565b7f54686520646f6e6174696f6e206c696d6974206d7573742062652061206d756c60008201527f7469706c65206f6620302e303035204554480000000000000000000000000000602082015250565b6000614650603283613cc1565b915061465b826145f4565b604082019050919050565b6000602082019050818103600083015261467f81614643565b9050919050565b7f596f757220636f6d62616374206c6576656c20697320746f6f206c6f7720666f60008201527f7220746865207265717565737465642045544821000000000000000000000000602082015250565b60006146e2603483613cc1565b91506146ed82614686565b604082019050919050565b60006020820190508181036000830152614711816146d5565b9050919050565b7f5468652063616d706169676e206475726174696f6e202865787072657373656460008201527f20696e207765656b7329206d7573742062652067726561746572207468616e2060208201527f3800000000000000000000000000000000000000000000000000000000000000604082015250565b600061479a604183613cc1565b91506147a582614718565b606082019050919050565b600060208201905081810360008301526147c98161478d565b9050919050565b7f546865207370656369666965642063616d706169676e206973206e6f7420706560008201527f6e64696e67210000000000000000000000000000000000000000000000000000602082015250565b600061482c602683613cc1565b9150614837826147d0565b604082019050919050565b6000602082019050818103600083015261485b8161481f565b9050919050565b7f596f752063616e2066696e616c697a652069742061667465722037206461797360008201527f2100000000000000000000000000000000000000000000000000000000000000602082015250565b60006148be602183613cc1565b91506148c982614862565b604082019050919050565b600060208201905081810360008301526148ed816148b1565b9050919050565b7f596f752063616e6e6f742066696e616c697a6520746869732063616d7061696760008201527f6e20617320796f7520617265206e6f7420746865206f776e6572210000000000602082015250565b6000614950603b83613cc1565b915061495b826148f4565b604082019050919050565b6000602082019050818103600083015261497f81614943565b9050919050565b7f57696e646f772073697a65206d7573742062652067726561746572207468616e60008201527f2030000000000000000000000000000000000000000000000000000000000000602082015250565b60006149e2602283613cc1565b91506149ed82614986565b604082019050919050565b60006020820190508181036000830152614a11816149d5565b9050919050565b6000819050919050565b6000614a2d82614a18565b9150614a3883614a18565b9250827f7fffffffffffffffffffffffffffffffffffffffffffffffffffffffffffffff0482116000841360008413161615614a7757614a76613d93565b5b817f80000000000000000000000000000000000000000000000000000000000000000583126000841260008413161615614ab457614ab3613d93565b5b827f80000000000000000000000000000000000000000000000000000000000000000582126000841360008412161615614af157614af0613d93565b5b827f7fffffffffffffffffffffffffffffffffffffffffffffffffffffffffffffff0582126000841260008412161615614b2e57614b2d613d93565b5b828202905092915050565b6000614b4482614a18565b9150614b4f83614a18565b9250827f800000000000000000000000000000000000000000000000000000000000000001821260008412151615614b8a57614b89613d93565b5b827f7fffffffffffffffffffffffffffffffffffffffffffffffffffffffffffffff018213600084121615614bc257614bc1613d93565b5b828203905092915050565b7f5468652077696e646f772073697a6520697320746f6f206c6172676500000000600082015250565b6000614c03601c83613cc1565b9150614c0e82614bcd565b602082019050919050565b60006020820190508181036000830152614c3281614bf6565b9050919050565b6000614c4482614a18565b9150614c4f83614a18565b9250817f7fffffffffffffffffffffffffffffffffffffffffffffffffffffffffffffff03831360008312151615614c8a57614c89613d93565b5b817f8000000000000000000000000000000000000000000000000000000000000000038312600083121615614cc257614cc1613d93565b5b828201905092915050565b600062ffffff82169050919050565b6000614ce782614ccd565b9150614cf283614ccd565b92508162ffffff0483118215151615614d0e57614d0d613d93565b5b828202905092915050565b7f546865207370656369666965642063616d706169676e206973206e6f206d6f7260008201527f65206163746976652c20746865206f776e65722073686f756c642066696e616c60208201527f697a652069740000000000000000000000000000000000000000000000000000604082015250565b6000614d9b604683613cc1565b9150614da682614d19565b606082019050919050565b60006020820190508181036000830152614dca81614d8e565b9050919050565b7f54686520646f6e6174696f6e2076616c756520697320746f6f20686967682100600082015250565b6000614e07601f83613cc1565b9150614e1282614dd1565b602082019050919050565b60006020820190508181036000830152614e3681614dfa565b9050919050565b7f54686520646f6e6174696f6e206d75737420626520677265617465722074686160008201527f6e207a65726f0000000000000000000000000000000000000000000000000000602082015250565b6000614e99602683613cc1565b9150614ea482614e3d565b604082019050919050565b60006020820190508181036000830152614ec881614e8c565b9050919050565b7f596f752063616e20646f6e617465206f6e6c79207573696e672073746570732060008201527f6f6620302e303030352045544800000000000000000000000000000000000000602082015250565b6000614f2b602d83613cc1565b9150614f3682614ecf565b604082019050919050565b60006020820190508181036000830152614f5a81614f1e565b9050919050565b6000604082019050614f76600083018561386e565b614f83602083018461386e565b9392505050565b7f596f752061726520616c72656164792070617274206f6620746865205375706560008201527f7253616979616e20536574210000000000000000000000000000000000000000602082015250565b6000614fe6602c83613cc1565b9150614ff182614f8a565b604082019050919050565b6000602082019050818103600083015261501581614fd9565b9050919050565b7f596f75206d75737420686f6c64206174206c656173742035303020445354207460008201527f6f206265636f6d652070617274206f662074686520537570657253616979616e60208201527f2053657421000000000000000000000000000000000000000000000000000000604082015250565b600061509e604583613cc1565b91506150a98261501c565b606082019050919050565b600060208201905081810360008301526150cd81615091565b9050919050565b7f596f75206861766520746f206465706f736974206174206c6561737420302e3560008201527f2045544820746f206265636f6d65206120537570657253616979616e21000000602082015250565b6000615130603d83613cc1565b915061513b826150d4565b604082019050919050565b6000602082019050818103600083015261515f81615123565b9050919050565b7f546865207370656369666965642063616d706169676e206973206e6f7420616360008201527f7469766521000000000000000000000000000000000000000000000000000000602082015250565b60006151c2602583613cc1565b91506151cd82615166565b604082019050919050565b600060208201905081810360008301526151f1816151b5565b9050919050565b600061520382613959565b915061520e83613959565b92508161ffff048311821515161561522957615228613d93565b5b828202905092915050565b7f596f752063616e6e6f74207465726d696e61746520746869732063616d70616960008201527f676e20617320796f7520617265206e6f7420746865206f776e65722100000000602082015250565b6000615290603c83613cc1565b915061529b82615234565b604082019050919050565b600060208201905081810360008301526152bf81615283565b9050919050565b7f5468652063616d706169676e20697320746f6f206f6c642c20796f752063616e60008201527f6e6f7420766f746520616e796d6f726521000000000000000000000000000000602082015250565b6000615322603183613cc1565b915061532d826152c6565b604082019050919050565b6000602082019050818103600083015261535181615315565b905091905056fea26469706673582212205c26e468bac2c8ae9d1d0fb5b982ee7178c408fcaf797e8f1aae45da21c0a62e64736f6c634300080d0033",
  "immutableReferences": {},
  "source": "// SPDX-License-Identifier: MIT\npragma solidity ^0.8.0;\n\nimport \"./UsingOracle.sol\";\nimport \"./DragonBlockOracle.sol\";\n\n/**\n * @title DragonBlock Smart Contract\n * @dev A decentralized crowdfunding platform where users can create campaigns, donate, and vote using SuperSaiyan (SSJ) tokens.\n */\ncontract DragonBlock is UsingOracle {\n\n    function _callback(address _verifiedUser) override public {\n        verifiedUsers[_verifiedUser] = true;\n    }\n\n    DragonBlockOracle private oracle;\n\n    // Enum to represent different statuses of a campaign\n    enum CampaignStatus {\n        PENDING,\n        ACTIVE,\n        DISAPPROVED,\n        REVISION,\n        BANNED,\n        ENDED\n    }\n\n    // Struct to represent a campaign\n    struct Campaign {\n        address owner;          // Address of the campaign owner\n        uint256 id;             // Unique identifier for the campaign\n        CampaignStatus status;  // Current status of the campaign\n        uint256 weiLimit;       // Maximum amount of ETH that can be donated to the campaign\n        uint256 donatedWei;     // Total ETH donated to the campaign\n        uint256 creationTime;   // Timestamp when the campaign was created\n        uint256 revisionTime;   // Timestamp when the campaign entered the revision state\n        uint16 weekDuration;    // Duration of the campaign in weeks\n    }\n\n    event CampaignCreation(uint256 campaignId);\n\n    // Array to store all campaigns\n    Campaign[] public campaigns;\n\n    // Mapping to track DST balances of users\n    mapping(address => uint) public dstBalances;\n\n    // Mapping to track users who are part of the SuperSaiyan Set\n    mapping(address => uint256) public ssjVaults;\n\n    // Mapping to store addresses that approved or disapproved a campaign\n    mapping(uint256 => address[]) private campaignApprovals;\n    mapping(uint256 => address[]) private campaignDisapprovals;\n\n    // Mapping to store addresses that approved or disapproved a revisioned campaign\n    mapping(uint256 => address[]) private campaignRevisionApprovals;\n    mapping(uint256 => address[]) private campaignRevisionDisapprovals;\n\n    // Mapping to store addresses that reported a campaign\n    mapping(uint256 => address[]) private campaignReports;\n\n    mapping(address => bool) public verifiedUsers;\n\n    struct Donation {\n        address donator;\n        uint256 donatedWei;\n    }\n    mapping (uint256 => Donation[]) private donators;\n\n    // Address of the contract creator\n    address public minter;\n\n    /**\n     * @dev Constructor to initialize the contract\n     */\n    constructor(address _oracleAddress) {\n        minter = msg.sender; // Initialize DST balance for a default address\n        dstBalances[msg.sender] = 1000;\n        oracle = DragonBlockOracle(_oracleAddress);\n        //verifiedUsers[msg.sender] = true;\n    }\n\n    /**\n     * @dev Private function to check if an address is in an array\n     * @param _address The address to check\n     * @param _listOfAddresses The array of addresses to search\n     * @return Whether the address is in the array or not\n     */\n    function addressInArray(address _address, address[] storage _listOfAddresses) private view returns(bool) {\n        for (uint i = 0; i < _listOfAddresses.length; i++) {\n            if (_listOfAddresses[i] == _address) {\n                return true;\n            }\n        }\n        return false;\n    }\n\n    /**\n     * @dev Private function to slash SSJ users' funds\n     * @param _campaignID The ID of the campaign\n     */\n    function slashSSJUsers(uint256 _campaignID) private {\n        for (uint i = 0; i < campaignApprovals[_campaignID].length; i++) {\n            address slashedUser = campaignApprovals[_campaignID][i];\n            ssjVaults[slashedUser] -= 0.025 ether;\n            dstBalances[slashedUser] -= 10;\n            if (ssjVaults[slashedUser] < 0.05 ether || dstBalances[slashedUser] < 500) {\n                // If the SSJ User has less than 10% of the starting needed ETH\n                address payable user = payable(slashedUser);\n                user.transfer(ssjVaults[slashedUser]);\n                ssjVaults[slashedUser] = 0;\n            }\n        }\n    }\n\n    /**\n     * @dev Private function to reward SSJ users based on campaign donation percentage\n     * @param _campaignID The ID of the campaign\n     */\n    function rewardSSJUsers(uint256 _campaignID) private {\n\n        if(campaigns[_campaignID].status == CampaignStatus.BANNED) {\n            \n            for (uint i = 0; i < campaignDisapprovals[_campaignID].length; i++) {\n                address rewardedUser = campaignDisapprovals[_campaignID][i];\n                ssjVaults[rewardedUser] += (campaigns[_campaignID].weiLimit * 5 / 100) / (campaignDisapprovals[_campaignID].length + campaignRevisionDisapprovals[_campaignID].length);\n            }\n\n            for (uint i = 0; i < campaignRevisionDisapprovals[_campaignID].length; i++) {\n                address rewardedUser = campaignRevisionDisapprovals[_campaignID][i];\n                ssjVaults[rewardedUser] += (campaigns[_campaignID].weiLimit * 5 / 100) / (campaignDisapprovals[_campaignID].length + campaignRevisionDisapprovals[_campaignID].length);\n            }\n        }\n\n        if(campaigns[_campaignID].status == CampaignStatus.ENDED) {\n\n            uint percentage = campaigns[_campaignID].donatedWei * 100 / campaigns[_campaignID].weiLimit;\n            if (percentage <= 5) {\n                return;\n            }\n\n            uint rewardToSplit = (campaigns[_campaignID].weiLimit * 5 / 100) * (percentage / 100);\n\n            for (uint i = 0; i < campaignApprovals[_campaignID].length; i++) {\n                address rewardedUser = campaignApprovals[_campaignID][i];\n                ssjVaults[rewardedUser] += rewardToSplit / (campaignApprovals[_campaignID].length + campaignRevisionApprovals[_campaignID].length);\n            }\n        }\n    }\n\n    /**\n     * @dev Private function to reward users who reported a campaign\n     * @param _campaignID The ID of the campaign\n     */\n    function rewardReporters(uint256 _campaignID) private {\n        for (uint i = 0; i < campaignReports[_campaignID].length; i++) {\n            address rewardedUser = campaignReports[_campaignID][i];\n            dstBalances[rewardedUser] += 2;\n        }\n    }\n\n    function refundDonators(uint256 _campaignID) private {\n        for (uint i = 0; i < donators[_campaignID].length; i++) {\n            address payable user = payable(donators[_campaignID][i].donator);\n            user.transfer(donators[_campaignID][i].donatedWei);\n        }\n    }\n\n    function verifyUser() public {\n        if(!verifiedUsers[msg.sender]) {\n            oracle.verifyUser(msg.sender, address(this));\n        }\n    }\n\n    function getUserCombactLvl(address _user) public view returns (uint256) {\n        if(dstBalances[_user] * 10 >= 9000) {\n            return 9000;\n        } else {\n            return dstBalances[_user] * 10;\n        }\n    }\n\n    /**\n     * @dev Public function to create a new campaign\n     * @param _weiLimit Maximum amount of ETH that can be donated to the campaign\n     * @param _weekDuration Duration of the campaign in weeks\n     */\n    function createCampaign(uint256 _weiLimit, uint16 _weekDuration) public payable {\n        require(msg.value == _weiLimit * 5 / 100, \"You have to deposit 5% of the weiLimit!\");\n        require(_weiLimit > 0.05 ether, \"The donation limit must be greater than 0.05 ETH\");\n        require(_weiLimit % 0.005 ether == 0, \"The donation limit must be a multiple of 0.005 ETH\");\n        require(_weiLimit <= 0.1 ether * getUserCombactLvl(msg.sender), \"Your combact level is too low for the requested ETH!\");\n        require(_weekDuration > 8, \"The campaign duration (expressed in weeks) must be greater than 8\"); \n\n        campaigns.push(\n            Campaign({\n                owner: msg.sender,\n                id: campaigns.length, \n                status: CampaignStatus.PENDING,\n                weiLimit: _weiLimit,\n                donatedWei: 0,\n                creationTime: block.timestamp,\n                revisionTime: 0,\n                weekDuration: _weekDuration\n            })\n        );\n\n        emit CampaignCreation(campaigns.length-1);\n    }\n\n    // Function to get a window of 20 elements starting from the last one\n    function getCampaigns(uint256 _campaignWindow) public view returns (Campaign[] memory) {\n        require(_campaignWindow > 0, \"Window size must be greater than 0\");\n        require(int256(campaigns.length) - int256(_campaignWindow-1) * 20 >= 0, \"The window size is too large\");\n\n        // Calculate the starting index for the window\n        int256 startIndex = int256(campaigns.length) - int256(_campaignWindow) * 20;\n        if (startIndex < 0) {\n            startIndex = 0;\n        }\n\n        // Calculate the actual number of elements to include in the result\n        uint256 numElements = uint256(startIndex + 20) <= campaigns.length ? 20 : campaigns.length - uint256(startIndex);\n\n        // Create a memory array to store the window of elements\n        Campaign[] memory result = new Campaign[](numElements);\n\n        // Use a loop to copy the elements to the result array\n        for (uint256 i = 0; i < numElements; i++) {\n            result[i] = campaigns[uint256(startIndex + int256(i))];\n        }\n\n        return result;\n    }\n\n    function getOwnedCampaigns(address _owner) public view returns (Campaign[] memory) {\n        uint256 ownedCampaignCount = 0;\n\n        // Count the number of campaigns owned by the specified address\n        for (uint256 i = 0; i < campaigns.length; i++) {\n            if (campaigns[i].owner == _owner) {\n                ownedCampaignCount++;\n            }\n        }\n\n        // Create an array to hold the owned campaigns\n        Campaign[] memory ownedCampaigns = new Campaign[](ownedCampaignCount);\n        uint256 currentIndex = 0;\n\n        // Populate the array with owned campaigns\n        for (uint256 i = 0; i < campaigns.length; i++) {\n            if (campaigns[i].owner == _owner) {\n                ownedCampaigns[currentIndex] = campaigns[i];\n                currentIndex++;\n            }\n        }\n\n        return ownedCampaigns;\n    }\n\n    /**\n     * @dev Public function to donate to an active campaign\n     * @param _id The ID of the campaign\n     */\n    function donateCampaign(uint256 _id) public payable {\n        require(_id < campaigns.length, \"The specified campaign does not exist\");\n        require(campaigns[_id].status == CampaignStatus.ACTIVE, \"The specified campaign is not active\");\n        require(block.timestamp <= campaigns[_id].creationTime + (campaigns[_id].weekDuration * 1 weeks), \"The specified campaign is no more active, the owner should finalize it\");\n        require(campaigns[_id].weiLimit - campaigns[_id].donatedWei - msg.value >= 0, \"The donation value is too high!\");\n        require(msg.value > 0, \"The donation must be greater than zero\");\n        require(msg.value % 0.0005 ether == 0, \"You can donate only using steps of 0.0005 ETH\");\n\n        campaigns[_id].donatedWei += msg.value; // Update the campaign's donatedWei field\n        dstBalances[msg.sender] += msg.value / 0.0005 ether;\n        donators[_id].push(Donation({\n            donator: msg.sender,\n            donatedWei: msg.value\n            })\n        );\n    }\n\n    /**\n     * @dev Public function to report a campaign\n     * @param _id The ID of the campaign\n     */\n    function reportCampaign(uint256 _id) public {\n        require(_id < campaigns.length, \"The specified campaign does not exist\");\n        require(campaigns[_id].status == CampaignStatus.ACTIVE, \"The specified campaign is not active\");\n        require(dstBalances[msg.sender] > 0, \"You must have at least 1 DST\");\n\n        dstBalances[msg.sender] -= 1;\n        campaignReports[_id].push(msg.sender);\n\n        if (campaignReports[_id].length > 1) {\n            // More than 100 reports, then the campaign is put in revision state\n            campaigns[_id].status = CampaignStatus.REVISION;\n            campaigns[_id].revisionTime = block.timestamp;\n        }\n    }\n\n    function finalizeCampaign(uint256 _id) public {\n        require(campaigns[_id].status == CampaignStatus.PENDING, \"The specified campaign is not pending!\");\n        require(block.timestamp > campaigns[_id].creationTime + 0 days, \"You can finalize it after 7 days!\");\n        require(msg.sender == campaigns[_id].owner, \"You cannot finalize this campaign as you are not the owner!\");\n\n        if (campaignApprovals[_id].length > campaignDisapprovals[_id].length) {\n            campaigns[_id].status = CampaignStatus.ACTIVE;\n        } else {\n            campaigns[_id].status = CampaignStatus.DISAPPROVED;\n        }\n    }\n\n    function terminateCampaign(uint256 _id) public {\n        require(campaigns[_id].status == CampaignStatus.ACTIVE, \"The specified campaign is not active!\");\n        require(block.timestamp >= campaigns[_id].creationTime + (campaigns[_id].weekDuration * 0 weeks), \"You can finalize it after 7 days!\");\n        require(msg.sender == campaigns[_id].owner, \"You cannot terminate this campaign as you are not the owner!\");\n\n        campaigns[_id].status = CampaignStatus.ENDED;\n        rewardSSJUsers(_id);\n\n        delete campaignRevisionApprovals[_id];\n        delete campaignRevisionDisapprovals[_id];\n\n        address payable campaignOwner = payable(campaigns[_id].owner);\n        campaignOwner.transfer(campaigns[_id].donatedWei);\n    }\n\n    function finalizeRevisionCampaign(uint256 _id) public {\n        require(campaigns[_id].status == CampaignStatus.REVISION, \"The specified campaign is not active!\");\n        require(block.timestamp >= campaigns[_id].revisionTime + 0 days, \"You can finalize it after 7 days!\");\n        require(msg.sender == campaigns[_id].owner, \"You cannot finalize this campaign as you are not the owner!\");\n\n        if (campaignRevisionApprovals[_id].length > campaignRevisionDisapprovals[_id].length) {\n            campaigns[_id].status = CampaignStatus.ACTIVE;\n            campaigns[_id].revisionTime = 0;\n        } else {\n            campaigns[_id].status = CampaignStatus.BANNED;\n            slashSSJUsers(_id);\n            rewardReporters(_id);\n            rewardSSJUsers(_id);\n            refundDonators(_id);\n            delete campaignRevisionApprovals[_id];\n            delete campaignRevisionDisapprovals[_id];\n        }\n    }\n\n    /**\n     * @dev Public function for SSJ users to vote (approve or disapprove) a pending campaign\n     * @param _id The ID of the campaign\n     * @param _approval Whether the user approves or disapproves the campaign\n     */\n    function voteForCampaign(uint256 _id, bool _approval) public returns(uint256) {\n        require(ssjVaults[msg.sender] > 0, \"You are not part of the SuperSaiyan Set!\");\n        require(campaigns[_id].status == CampaignStatus.PENDING, \"The specified campaign is not pending!\");\n        require(block.timestamp < campaigns[_id].creationTime + 7 days, \"The campaign is too old, you cannot vote anymore!\");\n        require(!addressInArray(msg.sender, campaignApprovals[_id]), \"You have already approved this campaign\");\n        require(!addressInArray(msg.sender, campaignDisapprovals[_id]), \"You have already disapproved this campaign\");\n\n        // Record the approval or disapproval vote\n        if (_approval) {\n            campaignApprovals[_id].push(msg.sender);\n        } else {\n            campaignDisapprovals[_id].push(msg.sender);\n        }\n\n        return ssjVaults[msg.sender];\n    }\n\n    /**\n     * @dev Public function for SSJ users to vote (approve or disapprove) a revisioned campaign\n     * @param _id The ID of the campaign\n     * @param _approval Whether the user approves or disapproves the campaign\n     */\n    function revisionCampaign(uint256 _id, bool _approval) public {\n        require(ssjVaults[msg.sender] > 0, \"You are not part of the SuperSaiyan Set!\");\n        require(campaigns[_id].status == CampaignStatus.REVISION, \"The specified campaign is not in revision!\");\n        require(block.timestamp < campaigns[_id].revisionTime + 7 days, \"The revision is too old, you cannot vote anymore!\");\n        require(!addressInArray(msg.sender, campaignRevisionApprovals[_id]), \"You have already approved this campaign\");\n        require(!addressInArray(msg.sender, campaignRevisionDisapprovals[_id]), \"You have already disapproved this campaign\");\n        require(!addressInArray(msg.sender, campaignApprovals[_id]), \"You have voted this campaign while it was pending, therefore you cannot vote for the revision\");\n        require(!addressInArray(msg.sender, campaignDisapprovals[_id]), \"You have voted this campaign while it was pending, therefore you cannot vote for the revision\");\n\n        // Record the approval or disapproval vote\n        if (_approval) {\n            campaignRevisionApprovals[_id].push(msg.sender);\n        } else {\n            campaignRevisionDisapprovals[_id].push(msg.sender);\n        }\n    }\n\n    /**\n     * @dev Public function for users to become part of the SuperSaiyan Set\n     */\n    function becomeSSJ() public payable {\n        require(ssjVaults[msg.sender] == 0, \"You are already part of the SuperSaiyan Set!\");\n        require(dstBalances[msg.sender] >= 500, \"You must hold at least 500 DST to become part of the SuperSaiyan Set!\");\n        require(msg.value >= 0.5 ether, \"You have to deposit at least 0.5 ETH to become a SuperSaiyan!\");\n\n        ssjVaults[msg.sender] = msg.value;\n    }\n\n    /**\n     * @dev Public function for users to exit the SuperSaiyan Set and become a normal user\n     */\n    function becomeNormalUser() public {\n        require(ssjVaults[msg.sender] > 0, \"You are not part of the SuperSaiyan Set!\");\n\n        address payable user = payable(msg.sender);\n        user.transfer(ssjVaults[msg.sender]);\n        ssjVaults[msg.sender] = 0;\n    }\n\n    /**\n     * @dev Public function for the contract creator to terminate the contract and withdraw funds\n     */\n    function terminate() public {\n        require(msg.sender == minter, \"You cannot terminate the contract!\");\n        payable(minter).transfer(address(this).balance);\n    }\n}",
  "sourcePath": "/ContainerFiles/contracts/DragonBlock.sol",
  "compiler": {
    "name": "solc",
    "version": "0.8.13+commit.abaa5c0e.Emscripten.clang"
  },
  "schemaVersion": "3.4.16",
  "updatedAt": "2024-01-06T17:08:45.405Z",
  "networkType": "ethereum",
  "devdoc": {
    "details": "A decentralized crowdfunding platform where users can create campaigns, donate, and vote using SuperSaiyan (SSJ) tokens.",
    "kind": "dev",
    "methods": {
      "becomeNormalUser()": {
        "details": "Public function for users to exit the SuperSaiyan Set and become a normal user"
      },
      "becomeSSJ()": {
        "details": "Public function for users to become part of the SuperSaiyan Set"
      },
      "constructor": {
        "details": "Constructor to initialize the contract"
      },
      "createCampaign(uint256,uint16)": {
        "details": "Public function to create a new campaign",
        "params": {
          "_weekDuration": "Duration of the campaign in weeks",
          "_weiLimit": "Maximum amount of ETH that can be donated to the campaign"
        }
      },
      "donateCampaign(uint256)": {
        "details": "Public function to donate to an active campaign",
        "params": {
          "_id": "The ID of the campaign"
        }
      },
      "reportCampaign(uint256)": {
        "details": "Public function to report a campaign",
        "params": {
          "_id": "The ID of the campaign"
        }
      },
      "revisionCampaign(uint256,bool)": {
        "details": "Public function for SSJ users to vote (approve or disapprove) a revisioned campaign",
        "params": {
          "_approval": "Whether the user approves or disapproves the campaign",
          "_id": "The ID of the campaign"
        }
      },
      "terminate()": {
        "details": "Public function for the contract creator to terminate the contract and withdraw funds"
      },
      "voteForCampaign(uint256,bool)": {
        "details": "Public function for SSJ users to vote (approve or disapprove) a pending campaign",
        "params": {
          "_approval": "Whether the user approves or disapproves the campaign",
          "_id": "The ID of the campaign"
        }
      }
    },
    "title": "DragonBlock Smart Contract",
    "version": 1
  },
  "userdoc": {
    "kind": "user",
    "methods": {},
    "version": 1
  }
}