{
  "contractName": "DragonBlock",
  "abi": [
    {
      "inputs": [],
      "stateMutability": "nonpayable",
      "type": "constructor"
    },
    {
      "anonymous": false,
      "inputs": [
        {
          "indexed": false,
          "internalType": "uint256",
          "name": "campaignId",
          "type": "uint256"
        }
      ],
      "name": "CampaignCreation",
      "type": "event"
    },
    {
      "inputs": [
        {
          "internalType": "uint256",
          "name": "",
          "type": "uint256"
        }
      ],
      "name": "campaigns",
      "outputs": [
        {
          "internalType": "address",
          "name": "owner",
          "type": "address"
        },
        {
          "internalType": "uint256",
          "name": "id",
          "type": "uint256"
        },
        {
          "internalType": "enum DragonBlock.CampaignStatus",
          "name": "status",
          "type": "uint8"
        },
        {
          "internalType": "uint256",
          "name": "weiLimit",
          "type": "uint256"
        },
        {
          "internalType": "uint256",
          "name": "donatedWei",
          "type": "uint256"
        },
        {
          "internalType": "uint256",
          "name": "creationTime",
          "type": "uint256"
        },
        {
          "internalType": "uint256",
          "name": "revisionTime",
          "type": "uint256"
        },
        {
          "internalType": "uint16",
          "name": "weekDuration",
          "type": "uint16"
        }
      ],
      "stateMutability": "view",
      "type": "function",
      "constant": true
    },
    {
      "inputs": [
        {
          "internalType": "address",
          "name": "",
          "type": "address"
        }
      ],
      "name": "dstBalances",
      "outputs": [
        {
          "internalType": "uint256",
          "name": "",
          "type": "uint256"
        }
      ],
      "stateMutability": "view",
      "type": "function",
      "constant": true
    },
    {
      "inputs": [],
      "name": "minter",
      "outputs": [
        {
          "internalType": "address",
          "name": "",
          "type": "address"
        }
      ],
      "stateMutability": "view",
      "type": "function",
      "constant": true
    },
    {
      "inputs": [
        {
          "internalType": "address",
          "name": "",
          "type": "address"
        }
      ],
      "name": "ssjVaults",
      "outputs": [
        {
          "internalType": "uint256",
          "name": "",
          "type": "uint256"
        }
      ],
      "stateMutability": "view",
      "type": "function",
      "constant": true
    },
    {
      "inputs": [
        {
          "internalType": "uint256",
          "name": "_weiLimit",
          "type": "uint256"
        },
        {
          "internalType": "uint16",
          "name": "_weekDuration",
          "type": "uint16"
        }
      ],
      "name": "createCampaign",
      "outputs": [],
      "stateMutability": "payable",
      "type": "function",
      "payable": true
    },
    {
      "inputs": [
        {
          "internalType": "uint256",
          "name": "_campaignWindow",
          "type": "uint256"
        }
      ],
      "name": "getCampaigns",
      "outputs": [
        {
          "components": [
            {
              "internalType": "address",
              "name": "owner",
              "type": "address"
            },
            {
              "internalType": "uint256",
              "name": "id",
              "type": "uint256"
            },
            {
              "internalType": "enum DragonBlock.CampaignStatus",
              "name": "status",
              "type": "uint8"
            },
            {
              "internalType": "uint256",
              "name": "weiLimit",
              "type": "uint256"
            },
            {
              "internalType": "uint256",
              "name": "donatedWei",
              "type": "uint256"
            },
            {
              "internalType": "uint256",
              "name": "creationTime",
              "type": "uint256"
            },
            {
              "internalType": "uint256",
              "name": "revisionTime",
              "type": "uint256"
            },
            {
              "internalType": "uint16",
              "name": "weekDuration",
              "type": "uint16"
            }
          ],
          "internalType": "struct DragonBlock.Campaign[]",
          "name": "",
          "type": "tuple[]"
        }
      ],
      "stateMutability": "view",
      "type": "function",
      "constant": true
    },
    {
      "inputs": [
        {
          "internalType": "uint256",
          "name": "_id",
          "type": "uint256"
        }
      ],
      "name": "donateCampaign",
      "outputs": [],
      "stateMutability": "payable",
      "type": "function",
      "payable": true
    },
    {
      "inputs": [
        {
          "internalType": "uint256",
          "name": "_id",
          "type": "uint256"
        }
      ],
      "name": "reportCampaign",
      "outputs": [],
      "stateMutability": "nonpayable",
      "type": "function"
    },
    {
      "inputs": [
        {
          "internalType": "uint256",
          "name": "_id",
          "type": "uint256"
        },
        {
          "internalType": "bool",
          "name": "_approval",
          "type": "bool"
        }
      ],
      "name": "voteForCampaign",
      "outputs": [
        {
          "internalType": "uint256",
          "name": "",
          "type": "uint256"
        }
      ],
      "stateMutability": "nonpayable",
      "type": "function"
    },
    {
      "inputs": [
        {
          "internalType": "uint256",
          "name": "_id",
          "type": "uint256"
        },
        {
          "internalType": "bool",
          "name": "_approval",
          "type": "bool"
        }
      ],
      "name": "revisionCampaign",
      "outputs": [],
      "stateMutability": "nonpayable",
      "type": "function"
    },
    {
      "inputs": [],
      "name": "becomeSSJ",
      "outputs": [],
      "stateMutability": "payable",
      "type": "function",
      "payable": true
    },
    {
      "inputs": [],
      "name": "becomeNormalUser",
      "outputs": [],
      "stateMutability": "nonpayable",
      "type": "function"
    },
    {
      "inputs": [],
      "name": "terminate",
      "outputs": [],
      "stateMutability": "nonpayable",
      "type": "function"
    }
  ],
  "bytecode": "0x608060405234801561001057600080fd5b5033600960006101000a81548173ffffffffffffffffffffffffffffffffffffffff021916908373ffffffffffffffffffffffffffffffffffffffff16021790555060c86001600073715428e23981a4dc06a20559ac17d81c20b9bb0273ffffffffffffffffffffffffffffffffffffffff1673ffffffffffffffffffffffffffffffffffffffff16815260200190815260200160002081905550613bac806100ba6000396000f3fe6080604052600436106100c15760003560e01c806324005d581161007f5780637ae47317116100595780637ae473171461024b5780638ffff8b014610288578063bc7586fe146102a4578063fb58ca82146102ae576100c1565b806324005d58146101c95780632c780755146101f25780636a288ef91461020e576100c1565b80623e63ab146100c657806307546172146101035780630c08bf881461012e57806312abd90514610145578063141961bc1461016e57806317b3cdd2146101b2575b600080fd5b3480156100d257600080fd5b506100ed60048036038101906100e89190612602565b6102eb565b6040516100fa9190612648565b60405180910390f35b34801561010f57600080fd5b50610118610303565b6040516101259190612672565b60405180910390f35b34801561013a57600080fd5b50610143610329565b005b34801561015157600080fd5b5061016c600480360381019061016791906126f1565b610424565b005b34801561017a57600080fd5b5061019560048036038101906101909190612731565b6108e4565b6040516101a99897969594939291906127f2565b60405180910390f35b3480156101be57600080fd5b506101c7610977565b005b3480156101d557600080fd5b506101f060048036038101906101eb9190612731565b610acc565b005b61020c6004803603810190610207919061289c565b610d93565b005b34801561021a57600080fd5b5061023560048036038101906102309190612602565b611085565b6040516102429190612648565b60405180910390f35b34801561025757600080fd5b50610272600480360381019061026d9190612731565b61109d565b60405161027f9190612a6a565b60405180910390f35b6102a2600480360381019061029d9190612731565b61136e565b005b6102ac61192d565b005b3480156102ba57600080fd5b506102d560048036038101906102d091906126f1565b611ac3565b6040516102e29190612648565b60405180910390f35b60026020528060005260406000206000915090505481565b600960009054906101000a900473ffffffffffffffffffffffffffffffffffffffff1681565b600960009054906101000a900473ffffffffffffffffffffffffffffffffffffffff1673ffffffffffffffffffffffffffffffffffffffff163373ffffffffffffffffffffffffffffffffffffffff16146103b9576040517f08c379a00000000000000000000000000000000000000000000000000000000081526004016103b090612b0f565b60405180910390fd5b600960009054906101000a900473ffffffffffffffffffffffffffffffffffffffff1673ffffffffffffffffffffffffffffffffffffffff166108fc479081150290604051600060405180830381858888f19350505050158015610421573d6000803e3d6000fd5b50565b6000600260003373ffffffffffffffffffffffffffffffffffffffff1673ffffffffffffffffffffffffffffffffffffffff16815260200190815260200160002054116104a6576040517f08c379a000000000000000000000000000000000000000000000000000000000815260040161049d90612ba1565b60405180910390fd5b600360058111156104ba576104b961275e565b5b600083815481106104ce576104cd612bc1565b5b906000526020600020906008020160020160009054906101000a900460ff1660058111156104ff576104fe61275e565b5b1461053f576040517f08c379a000000000000000000000000000000000000000000000000000000000815260040161053690612c62565b60405180910390fd5b61055b3360056000858152602001908152602001600020611ec3565b1561059b576040517f08c379a000000000000000000000000000000000000000000000000000000000815260040161059290612cf4565b60405180910390fd5b6105b73360066000858152602001908152602001600020611ec3565b156105f7576040517f08c379a00000000000000000000000000000000000000000000000000000000081526004016105ee90612d86565b60405180910390fd5b80156106765760056000838152602001908152602001600020339080600181540180825580915050600190039060005260206000200160009091909190916101000a81548173ffffffffffffffffffffffffffffffffffffffff021916908373ffffffffffffffffffffffffffffffffffffffff1602179055506106eb565b60066000838152602001908152602001600020339080600181540180825580915050600190039060005260206000200160009091909190916101000a81548173ffffffffffffffffffffffffffffffffffffffff021916908373ffffffffffffffffffffffffffffffffffffffff1602179055505b600360058111156106ff576106fe61275e565b5b6000838154811061071357610712612bc1565b5b906000526020600020906008020160020160009054906101000a900460ff1660058111156107445761074361275e565b5b1480156107815750600080838154811061076157610760612bc1565b5b90600052602060002090600802016006015461077d9190612dd5565b4210155b156108e057600660008381526020019081526020016000208054905060056000848152602001908152602001600020805490501115610875576001600083815481106107d0576107cf612bc1565b5b906000526020600020906008020160020160006101000a81548160ff021916908360058111156108035761080261275e565b5b0217905550600080838154811061081d5761081c612bc1565b5b90600052602060002090600802016006018190555060056000838152602001908152602001600020600061085191906124f0565b60066000838152602001908152602001600020600061087091906124f0565b6108df565b60046000838154811061088b5761088a612bc1565b5b906000526020600020906008020160020160006101000a81548160ff021916908360058111156108be576108bd61275e565b5b02179055506108cc82611f70565b6108d582612176565b6108de8261225a565b5b5b5050565b600081815481106108f457600080fd5b90600052602060002090600802016000915090508060000160009054906101000a900473ffffffffffffffffffffffffffffffffffffffff16908060010154908060020160009054906101000a900460ff16908060030154908060040154908060050154908060060154908060070160009054906101000a900461ffff16905088565b6000600260003373ffffffffffffffffffffffffffffffffffffffff1673ffffffffffffffffffffffffffffffffffffffff16815260200190815260200160002054116109f9576040517f08c379a00000000000000000000000000000000000000000000000000000000081526004016109f090612ba1565b60405180910390fd5b60003390508073ffffffffffffffffffffffffffffffffffffffff166108fc600260003373ffffffffffffffffffffffffffffffffffffffff1673ffffffffffffffffffffffffffffffffffffffff168152602001908152602001600020549081150290604051600060405180830381858888f19350505050158015610a83573d6000803e3d6000fd5b506000600260003373ffffffffffffffffffffffffffffffffffffffff1673ffffffffffffffffffffffffffffffffffffffff1681526020019081526020016000208190555050565b6000805490508110610b13576040517f08c379a0000000000000000000000000000000000000000000000000000000008152600401610b0a90612e9d565b60405180910390fd5b60016005811115610b2757610b2661275e565b5b60008281548110610b3b57610b3a612bc1565b5b906000526020600020906008020160020160009054906101000a900460ff166005811115610b6c57610b6b61275e565b5b14610bac576040517f08c379a0000000000000000000000000000000000000000000000000000000008152600401610ba390612f2f565b60405180910390fd5b6000600160003373ffffffffffffffffffffffffffffffffffffffff1673ffffffffffffffffffffffffffffffffffffffff1681526020019081526020016000205411610c2e576040517f08c379a0000000000000000000000000000000000000000000000000000000008152600401610c2590612f9b565b60405180910390fd5b60018060003373ffffffffffffffffffffffffffffffffffffffff1673ffffffffffffffffffffffffffffffffffffffff1681526020019081526020016000206000828254610c7d9190612fbb565b9250508190555060076000828152602001908152602001600020339080600181540180825580915050600190039060005260206000200160009091909190916101000a81548173ffffffffffffffffffffffffffffffffffffffff021916908373ffffffffffffffffffffffffffffffffffffffff160217905550600160076000838152602001908152602001600020805490501115610d9057600360008281548110610d2d57610d2c612bc1565b5b906000526020600020906008020160020160006101000a81548160ff02191690836005811115610d6057610d5f61275e565b5b02179055504260008281548110610d7a57610d79612bc1565b5b9060005260206000209060080201600601819055505b50565b6064600583610da29190612fef565b610dac9190613078565b3414610ded576040517f08c379a0000000000000000000000000000000000000000000000000000000008152600401610de49061311b565b60405180910390fd5b66b1a2bc2ec500008211610e36576040517f08c379a0000000000000000000000000000000000000000000000000000000008152600401610e2d906131ad565b60405180910390fd5b60006611c37937e0800083610e4b91906131cd565b14610e8b576040517f08c379a0000000000000000000000000000000000000000000000000000000008152600401610e8290613270565b60405180910390fd5b60008161ffff1611610ed2576040517f08c379a0000000000000000000000000000000000000000000000000000000008152600401610ec990613328565b60405180910390fd5b60006040518061010001604052803373ffffffffffffffffffffffffffffffffffffffff168152602001600080549050815260200160006005811115610f1b57610f1a61275e565b5b815260200184815260200160008152602001428152602001600081526020018361ffff16815250908060018154018082558091505060019003906000526020600020906008020160009091909190915060008201518160000160006101000a81548173ffffffffffffffffffffffffffffffffffffffff021916908373ffffffffffffffffffffffffffffffffffffffff1602179055506020820151816001015560408201518160020160006101000a81548160ff02191690836005811115610fe757610fe661275e565b5b0217905550606082015181600301556080820151816004015560a0820151816005015560c0820151816006015560e08201518160070160006101000a81548161ffff021916908361ffff16021790555050507fddc542354787cb630b12d547bef306670ab435a3efdf62eeacf8532c042390ec600160008054905061106c9190612fbb565b6040516110799190612648565b60405180910390a15050565b60016020528060005260406000206000915090505481565b6060600082116110e2576040517f08c379a00000000000000000000000000000000000000000000000000000000081526004016110d9906133ba565b60405180910390fd5b600060146001846110f39190612fbb565b6110fd91906133e4565b60008054905061110d91906134fb565b121561114e576040517f08c379a0000000000000000000000000000000000000000000000000000000008152600401611145906135db565b60405180910390fd5b600060148361115d91906133e4565b60008054905061116d91906134fb565b9050600081121561117d57600090505b6000808054905060148361119191906135fb565b11156111ad57816000805490506111a89190612fbb565b6111b0565b60145b905060008167ffffffffffffffff8111156111ce576111cd61368f565b5b60405190808252806020026020018201604052801561120757816020015b6111f4612511565b8152602001906001900390816111ec5790505b50905060005b82811015611362576000818561122391906135fb565b8154811061123457611233612bc1565b5b9060005260206000209060080201604051806101000160405290816000820160009054906101000a900473ffffffffffffffffffffffffffffffffffffffff1673ffffffffffffffffffffffffffffffffffffffff1673ffffffffffffffffffffffffffffffffffffffff168152602001600182015481526020016002820160009054906101000a900460ff1660058111156112d3576112d261275e565b5b60058111156112e5576112e461275e565b5b8152602001600382015481526020016004820154815260200160058201548152602001600682015481526020016007820160009054906101000a900461ffff1661ffff1661ffff168152505082828151811061134457611343612bc1565b5b6020026020010181905250808061135a906136be565b91505061120d565b50809350505050919050565b60008054905081106113b5576040517f08c379a00000000000000000000000000000000000000000000000000000000081526004016113ac90612e9d565b60405180910390fd5b600160058111156113c9576113c861275e565b5b600082815481106113dd576113dc612bc1565b5b906000526020600020906008020160020160009054906101000a900460ff16600581111561140e5761140d61275e565b5b1461144e576040517f08c379a000000000000000000000000000000000000000000000000000000000815260040161144590612f2f565b60405180910390fd5b6000346000838154811061146557611464612bc1565b5b9060005260206000209060080201600401546000848154811061148b5761148a612bc1565b5b9060005260206000209060080201600301546114a79190612fbb565b6114b19190612fbb565b10156114f2576040517f08c379a00000000000000000000000000000000000000000000000000000000081526004016114e990613778565b60405180910390fd5b60003411611535576040517f08c379a000000000000000000000000000000000000000000000000000000000815260040161152c9061380a565b60405180910390fd5b60006601c6bf526340003461154a91906131cd565b1461158a576040517f08c379a00000000000000000000000000000000000000000000000000000000081526004016115819061389c565b60405180910390fd5b346000828154811061159f5761159e612bc1565b5b906000526020600020906008020160040160008282546115bf9190612dd5565b9250508190555061c350346115d49190613078565b600160003373ffffffffffffffffffffffffffffffffffffffff1673ffffffffffffffffffffffffffffffffffffffff16815260200190815260200160002060008282546116229190612dd5565b925050819055506008600082815260200190815260200160002060405180604001604052803373ffffffffffffffffffffffffffffffffffffffff16815260200134815250908060018154018082558091505060019003906000526020600020906002020160009091909190915060008201518160000160006101000a81548173ffffffffffffffffffffffffffffffffffffffff021916908373ffffffffffffffffffffffffffffffffffffffff160217905550602082015181600101555050600160058111156116f7576116f661275e565b5b6000828154811061170b5761170a612bc1565b5b906000526020600020906008020160020160009054906101000a900460ff16600581111561173c5761173b61275e565b5b148015611817575062093a806000828154811061175c5761175b612bc1565b5b906000526020600020906008020160070160009054906101000a900461ffff1661ffff1661178a91906138cb565b62ffffff16600082815481106117a3576117a2612bc1565b5b9060005260206000209060080201600501546117bf9190612dd5565b421015806118165750600081815481106117dc576117db612bc1565b5b9060005260206000209060080201600301546000828154811061180257611801612bc1565b5b906000526020600020906008020160040154145b5b1561192a5760056000828154811061183257611831612bc1565b5b906000526020600020906008020160020160006101000a81548160ff021916908360058111156118655761186461275e565b5b02179055506118738161236b565b600080828154811061188857611887612bc1565b5b906000526020600020906008020160000160009054906101000a900473ffffffffffffffffffffffffffffffffffffffff1690508073ffffffffffffffffffffffffffffffffffffffff166108fc600084815481106118ea576118e9612bc1565b5b9060005260206000209060080201600401549081150290604051600060405180830381858888f19350505050158015611927573d6000803e3d6000fd5b50505b50565b6000600260003373ffffffffffffffffffffffffffffffffffffffff1673ffffffffffffffffffffffffffffffffffffffff16815260200190815260200160002054146119af576040517f08c379a00000000000000000000000000000000000000000000000000000000081526004016119a69061397a565b60405180910390fd5b6064600160003373ffffffffffffffffffffffffffffffffffffffff1673ffffffffffffffffffffffffffffffffffffffff168152602001908152602001600020541015611a32576040517f08c379a0000000000000000000000000000000000000000000000000000000008152600401611a2990613a32565b60405180910390fd5b6706f05b59d3b20000341015611a7d576040517f08c379a0000000000000000000000000000000000000000000000000000000008152600401611a7490613ac4565b60405180910390fd5b34600260003373ffffffffffffffffffffffffffffffffffffffff1673ffffffffffffffffffffffffffffffffffffffff16815260200190815260200160002081905550565b6000806005811115611ad857611ad761275e565b5b60008481548110611aec57611aeb612bc1565b5b906000526020600020906008020160020160009054906101000a900460ff166005811115611b1d57611b1c61275e565b5b14611b5d576040517f08c379a0000000000000000000000000000000000000000000000000000000008152600401611b5490613b56565b60405180910390fd5b611b793360036000868152602001908152602001600020611ec3565b15611bb9576040517f08c379a0000000000000000000000000000000000000000000000000000000008152600401611bb090612cf4565b60405180910390fd5b611bd53360046000868152602001908152602001600020611ec3565b15611c15576040517f08c379a0000000000000000000000000000000000000000000000000000000008152600401611c0c90612d86565b60405180910390fd5b8115611c945760036000848152602001908152602001600020339080600181540180825580915050600190039060005260206000200160009091909190916101000a81548173ffffffffffffffffffffffffffffffffffffffff021916908373ffffffffffffffffffffffffffffffffffffffff160217905550611d09565b60046000848152602001908152602001600020339080600181540180825580915050600190039060005260206000200160009091909190916101000a81548173ffffffffffffffffffffffffffffffffffffffff021916908373ffffffffffffffffffffffffffffffffffffffff1602179055505b60006005811115611d1d57611d1c61275e565b5b60008481548110611d3157611d30612bc1565b5b906000526020600020906008020160020160009054906101000a900460ff166005811115611d6257611d6161275e565b5b148015611d9f57506000808481548110611d7f57611d7e612bc1565b5b906000526020600020906008020160050154611d9b9190612dd5565b4210155b15611e7b57600460008481526020019081526020016000208054905060036000858152602001908152602001600020805490501115611e2b57600160008481548110611dee57611ded612bc1565b5b906000526020600020906008020160020160006101000a81548160ff02191690836005811115611e2157611e2061275e565b5b0217905550611e7a565b600260008481548110611e4157611e40612bc1565b5b906000526020600020906008020160020160006101000a81548160ff02191690836005811115611e7457611e7361275e565b5b02179055505b5b600260003373ffffffffffffffffffffffffffffffffffffffff1673ffffffffffffffffffffffffffffffffffffffff16815260200190815260200160002054905092915050565b600080600090505b8280549050811015611f64578373ffffffffffffffffffffffffffffffffffffffff16838281548110611f0157611f00612bc1565b5b9060005260206000200160009054906101000a900473ffffffffffffffffffffffffffffffffffffffff1673ffffffffffffffffffffffffffffffffffffffff1603611f51576001915050611f6a565b8080611f5c906136be565b915050611ecb565b50600090505b92915050565b60005b6003600083815260200190815260200160002080549050811015612172576000600360008481526020019081526020016000208281548110611fb857611fb7612bc1565b5b9060005260206000200160009054906101000a900473ffffffffffffffffffffffffffffffffffffffff1690506203d090600260008373ffffffffffffffffffffffffffffffffffffffff1673ffffffffffffffffffffffffffffffffffffffff16815260200190815260200160002060008282546120379190612fbb565b9250508190555066b1a2bc2ec50000600260008373ffffffffffffffffffffffffffffffffffffffff1673ffffffffffffffffffffffffffffffffffffffff16815260200190815260200160002054101561215e5760008190508073ffffffffffffffffffffffffffffffffffffffff166108fc600260008573ffffffffffffffffffffffffffffffffffffffff1673ffffffffffffffffffffffffffffffffffffffff168152602001908152602001600020549081150290604051600060405180830381858888f19350505050158015612116573d6000803e3d6000fd5b506000600260008473ffffffffffffffffffffffffffffffffffffffff1673ffffffffffffffffffffffffffffffffffffffff16815260200190815260200160002081905550505b50808061216a906136be565b915050611f73565b5050565b60005b60076000838152602001908152602001600020805490508110156122565760006007600084815260200190815260200160002082815481106121be576121bd612bc1565b5b9060005260206000200160009054906101000a900473ffffffffffffffffffffffffffffffffffffffff1690506002600160008373ffffffffffffffffffffffffffffffffffffffff1673ffffffffffffffffffffffffffffffffffffffff168152602001908152602001600020600082825461223b9190612dd5565b9250508190555050808061224e906136be565b915050612179565b5050565b60005b60086000838152602001908152602001600020805490508110156123675760006008600084815260200190815260200160002082815481106122a2576122a1612bc1565b5b906000526020600020906002020160000160009054906101000a900473ffffffffffffffffffffffffffffffffffffffff1690508073ffffffffffffffffffffffffffffffffffffffff166108fc60086000868152602001908152602001600020848154811061231557612314612bc1565b5b9060005260206000209060020201600101549081150290604051600060405180830381858888f19350505050158015612352573d6000803e3d6000fd5b5050808061235f906136be565b91505061225d565b5050565b60008082815481106123805761237f612bc1565b5b9060005260206000209060080201600301546064600084815481106123a8576123a7612bc1565b5b9060005260206000209060080201600401546123c49190612fef565b6123ce9190613078565b9050600581116123de57506124ed565b60005b60036000848152602001908152602001600020805490508110156124ea57600060036000858152602001908152602001600020828154811061242657612425612bc1565b5b9060005260206000200160009054906101000a900473ffffffffffffffffffffffffffffffffffffffff16905060036000858152602001908152602001600020805490508360646124779190612fbb565b6124819190613078565b600260008373ffffffffffffffffffffffffffffffffffffffff1673ffffffffffffffffffffffffffffffffffffffff16815260200190815260200160002060008282546124cf9190612dd5565b925050819055505080806124e2906136be565b9150506123e1565b50505b50565b508054600082559060005260206000209081019061250e9190612582565b50565b604051806101000160405280600073ffffffffffffffffffffffffffffffffffffffff16815260200160008152602001600060058111156125555761255461275e565b5b815260200160008152602001600081526020016000815260200160008152602001600061ffff1681525090565b5b8082111561259b576000816000905550600101612583565b5090565b600080fd5b600073ffffffffffffffffffffffffffffffffffffffff82169050919050565b60006125cf826125a4565b9050919050565b6125df816125c4565b81146125ea57600080fd5b50565b6000813590506125fc816125d6565b92915050565b6000602082840312156126185761261761259f565b5b6000612626848285016125ed565b91505092915050565b6000819050919050565b6126428161262f565b82525050565b600060208201905061265d6000830184612639565b92915050565b61266c816125c4565b82525050565b60006020820190506126876000830184612663565b92915050565b6126968161262f565b81146126a157600080fd5b50565b6000813590506126b38161268d565b92915050565b60008115159050919050565b6126ce816126b9565b81146126d957600080fd5b50565b6000813590506126eb816126c5565b92915050565b600080604083850312156127085761270761259f565b5b6000612716858286016126a4565b9250506020612727858286016126dc565b9150509250929050565b6000602082840312156127475761274661259f565b5b6000612755848285016126a4565b91505092915050565b7f4e487b7100000000000000000000000000000000000000000000000000000000600052602160045260246000fd5b6006811061279e5761279d61275e565b5b50565b60008190506127af8261278d565b919050565b60006127bf826127a1565b9050919050565b6127cf816127b4565b82525050565b600061ffff82169050919050565b6127ec816127d5565b82525050565b600061010082019050612808600083018b612663565b612815602083018a612639565b61282260408301896127c6565b61282f6060830188612639565b61283c6080830187612639565b61284960a0830186612639565b61285660c0830185612639565b61286360e08301846127e3565b9998505050505050505050565b612879816127d5565b811461288457600080fd5b50565b60008135905061289681612870565b92915050565b600080604083850312156128b3576128b261259f565b5b60006128c1858286016126a4565b92505060206128d285828601612887565b9150509250929050565b600081519050919050565b600082825260208201905092915050565b6000819050602082019050919050565b612911816125c4565b82525050565b6129208161262f565b82525050565b61292f816127b4565b82525050565b61293e816127d5565b82525050565b6101008201600082015161295b6000850182612908565b50602082015161296e6020850182612917565b5060408201516129816040850182612926565b5060608201516129946060850182612917565b5060808201516129a76080850182612917565b5060a08201516129ba60a0850182612917565b5060c08201516129cd60c0850182612917565b5060e08201516129e060e0850182612935565b50505050565b60006129f28383612944565b6101008301905092915050565b6000602082019050919050565b6000612a17826128dc565b612a2181856128e7565b9350612a2c836128f8565b8060005b83811015612a5d578151612a4488826129e6565b9750612a4f836129ff565b925050600181019050612a30565b5085935050505092915050565b60006020820190508181036000830152612a848184612a0c565b905092915050565b600082825260208201905092915050565b7f596f752063616e6e6f74207465726d696e6174652074686520636f6e7472616360008201527f7421000000000000000000000000000000000000000000000000000000000000602082015250565b6000612af9602283612a8c565b9150612b0482612a9d565b604082019050919050565b60006020820190508181036000830152612b2881612aec565b9050919050565b7f596f7520617265206e6f742070617274206f662074686520537570657253616960008201527f79616e2053657421000000000000000000000000000000000000000000000000602082015250565b6000612b8b602883612a8c565b9150612b9682612b2f565b604082019050919050565b60006020820190508181036000830152612bba81612b7e565b9050919050565b7f4e487b7100000000000000000000000000000000000000000000000000000000600052603260045260246000fd5b7f546865207370656369666965642063616d706169676e206973206e6f7420696e60008201527f207265766973696f6e2100000000000000000000000000000000000000000000602082015250565b6000612c4c602a83612a8c565b9150612c5782612bf0565b604082019050919050565b60006020820190508181036000830152612c7b81612c3f565b9050919050565b7f596f75206861766520616c726561647920617070726f7665642074686973206360008201527f616d706169676e00000000000000000000000000000000000000000000000000602082015250565b6000612cde602783612a8c565b9150612ce982612c82565b604082019050919050565b60006020820190508181036000830152612d0d81612cd1565b9050919050565b7f596f75206861766520616c726561647920646973617070726f7665642074686960008201527f732063616d706169676e00000000000000000000000000000000000000000000602082015250565b6000612d70602a83612a8c565b9150612d7b82612d14565b604082019050919050565b60006020820190508181036000830152612d9f81612d63565b9050919050565b7f4e487b7100000000000000000000000000000000000000000000000000000000600052601160045260246000fd5b6000612de08261262f565b9150612deb8361262f565b9250827fffffffffffffffffffffffffffffffffffffffffffffffffffffffffffffffff03821115612e2057612e1f612da6565b5b828201905092915050565b7f546865207370656369666965642063616d706169676e20646f6573206e6f742060008201527f6578697374000000000000000000000000000000000000000000000000000000602082015250565b6000612e87602583612a8c565b9150612e9282612e2b565b604082019050919050565b60006020820190508181036000830152612eb681612e7a565b9050919050565b7f546865207370656369666965642063616d706169676e206973206e6f7420616360008201527f7469766500000000000000000000000000000000000000000000000000000000602082015250565b6000612f19602483612a8c565b9150612f2482612ebd565b604082019050919050565b60006020820190508181036000830152612f4881612f0c565b9050919050565b7f596f75206d7573742068617665206174206c6561737420312044535400000000600082015250565b6000612f85601c83612a8c565b9150612f9082612f4f565b602082019050919050565b60006020820190508181036000830152612fb481612f78565b9050919050565b6000612fc68261262f565b9150612fd18361262f565b925082821015612fe457612fe3612da6565b5b828203905092915050565b6000612ffa8261262f565b91506130058361262f565b9250817fffffffffffffffffffffffffffffffffffffffffffffffffffffffffffffffff048311821515161561303e5761303d612da6565b5b828202905092915050565b7f4e487b7100000000000000000000000000000000000000000000000000000000600052601260045260246000fd5b60006130838261262f565b915061308e8361262f565b92508261309e5761309d613049565b5b828204905092915050565b7f596f75206861766520746f206465706f736974203525206f662074686520776560008201527f694c696d69742100000000000000000000000000000000000000000000000000602082015250565b6000613105602783612a8c565b9150613110826130a9565b604082019050919050565b60006020820190508181036000830152613134816130f8565b9050919050565b7f54686520646f6e6174696f6e206c696d6974206d75737420626520677265617460008201527f6572207468616e20302e30352045544800000000000000000000000000000000602082015250565b6000613197603083612a8c565b91506131a28261313b565b604082019050919050565b600060208201905081810360008301526131c68161318a565b9050919050565b60006131d88261262f565b91506131e38361262f565b9250826131f3576131f2613049565b5b828206905092915050565b7f54686520646f6e6174696f6e206c696d6974206d7573742062652061206d756c60008201527f7469706c65206f6620302e303035204554480000000000000000000000000000602082015250565b600061325a603283612a8c565b9150613265826131fe565b604082019050919050565b600060208201905081810360008301526132898161324d565b9050919050565b7f5468652063616d706169676e206475726174696f6e202865787072657373656460008201527f20696e207765656b7329206d7573742062652067726561746572207468616e2060208201527f3000000000000000000000000000000000000000000000000000000000000000604082015250565b6000613312604183612a8c565b915061331d82613290565b606082019050919050565b6000602082019050818103600083015261334181613305565b9050919050565b7f57696e646f772073697a65206d7573742062652067726561746572207468616e60008201527f2030000000000000000000000000000000000000000000000000000000000000602082015250565b60006133a4602283612a8c565b91506133af82613348565b604082019050919050565b600060208201905081810360008301526133d381613397565b9050919050565b6000819050919050565b60006133ef826133da565b91506133fa836133da565b9250827f7fffffffffffffffffffffffffffffffffffffffffffffffffffffffffffffff048211600084136000841316161561343957613438612da6565b5b817f8000000000000000000000000000000000000000000000000000000000000000058312600084126000841316161561347657613475612da6565b5b827f800000000000000000000000000000000000000000000000000000000000000005821260008413600084121616156134b3576134b2612da6565b5b827f7fffffffffffffffffffffffffffffffffffffffffffffffffffffffffffffff05821260008412600084121616156134f0576134ef612da6565b5b828202905092915050565b6000613506826133da565b9150613511836133da565b9250827f80000000000000000000000000000000000000000000000000000000000000000182126000841215161561354c5761354b612da6565b5b827f7fffffffffffffffffffffffffffffffffffffffffffffffffffffffffffffff01821360008412161561358457613583612da6565b5b828203905092915050565b7f5468652077696e646f772073697a6520697320746f6f206c6172676500000000600082015250565b60006135c5601c83612a8c565b91506135d08261358f565b602082019050919050565b600060208201905081810360008301526135f4816135b8565b9050919050565b6000613606826133da565b9150613611836133da565b9250817f7fffffffffffffffffffffffffffffffffffffffffffffffffffffffffffffff0383136000831215161561364c5761364b612da6565b5b817f800000000000000000000000000000000000000000000000000000000000000003831260008312161561368457613683612da6565b5b828201905092915050565b7f4e487b7100000000000000000000000000000000000000000000000000000000600052604160045260246000fd5b60006136c98261262f565b91507fffffffffffffffffffffffffffffffffffffffffffffffffffffffffffffffff82036136fb576136fa612da6565b5b600182019050919050565b7f546865206c696d697420666f7220746869732063616d706169676e206861732060008201527f6265656e20726561636865640000000000000000000000000000000000000000602082015250565b6000613762602c83612a8c565b915061376d82613706565b604082019050919050565b6000602082019050818103600083015261379181613755565b9050919050565b7f54686520646f6e6174696f6e206d75737420626520677265617465722074686160008201527f6e207a65726f0000000000000000000000000000000000000000000000000000602082015250565b60006137f4602683612a8c565b91506137ff82613798565b604082019050919050565b60006020820190508181036000830152613823816137e7565b9050919050565b7f596f752063616e20646f6e617465206f6e6c79207573696e672073746570732060008201527f6f6620302e303030352045544800000000000000000000000000000000000000602082015250565b6000613886602d83612a8c565b91506138918261382a565b604082019050919050565b600060208201905081810360008301526138b581613879565b9050919050565b600062ffffff82169050919050565b60006138d6826138bc565b91506138e1836138bc565b92508162ffffff04831182151516156138fd576138fc612da6565b5b828202905092915050565b7f596f752061726520616c72656164792070617274206f6620746865205375706560008201527f7253616979616e20536574210000000000000000000000000000000000000000602082015250565b6000613964602c83612a8c565b915061396f82613908565b604082019050919050565b6000602082019050818103600083015261399381613957565b9050919050565b7f596f75206d75737420686f6c64206174206c656173742031303020445354207460008201527f6f206265636f6d652070617274206f662074686520537570657253616979616e60208201527f2053657421000000000000000000000000000000000000000000000000000000604082015250565b6000613a1c604583612a8c565b9150613a278261399a565b606082019050919050565b60006020820190508181036000830152613a4b81613a0f565b9050919050565b7f596f75206861766520746f206465706f736974206174206c6561737420302e3560008201527f2045544820746f206265636f6d65206120537570657253616979616e21000000602082015250565b6000613aae603d83612a8c565b9150613ab982613a52565b604082019050919050565b60006020820190508181036000830152613add81613aa1565b9050919050565b7f546865207370656369666965642063616d706169676e206973206e6f7420706560008201527f6e64696e67210000000000000000000000000000000000000000000000000000602082015250565b6000613b40602683612a8c565b9150613b4b82613ae4565b604082019050919050565b60006020820190508181036000830152613b6f81613b33565b905091905056fea26469706673582212206376f54c014de1dc7140c4e8837f26844378931d3c153a576867efcd9ff9bdac64736f6c634300080d0033",
  "immutableReferences": {},
  "source": "// SPDX-License-Identifier: MIT\npragma solidity ^0.8.0;\n\n/**\n * @title DragonBlock Smart Contract\n * @dev A decentralized crowdfunding platform where users can create campaigns, donate, and vote using SuperSaiyan (SSJ) tokens.\n */\ncontract DragonBlock {\n\n    // Enum to represent different statuses of a campaign\n    enum CampaignStatus {\n        PENDING,\n        ACTIVE,\n        DISAPPROVED,\n        REVISION,\n        BANNED,\n        ENDED\n    }\n\n    // Struct to represent a campaign\n    struct Campaign {\n        address owner;          // Address of the campaign owner\n        uint256 id;             // Unique identifier for the campaign\n        CampaignStatus status;  // Current status of the campaign\n        uint256 weiLimit;       // Maximum amount of ETH that can be donated to the campaign\n        uint256 donatedWei;     // Total ETH donated to the campaign\n        uint256 creationTime;   // Timestamp when the campaign was created\n        uint256 revisionTime;   // Timestamp when the campaign entered the revision state\n        uint16 weekDuration;    // Duration of the campaign in weeks\n    }\n\n    event CampaignCreation(uint256 campaignId);\n\n    // Array to store all campaigns\n    Campaign[] public campaigns;\n\n    // Mapping to track DST balances of users\n    mapping(address => uint) public dstBalances;\n\n    // Mapping to track users who are part of the SuperSaiyan Set\n    mapping(address => uint256) public ssjVaults;\n\n    // Mapping to store addresses that approved or disapproved a campaign\n    mapping(uint256 => address[]) private campaignApprovals;\n    mapping(uint256 => address[]) private campaignDisapprovals;\n\n    // Mapping to store addresses that approved or disapproved a revisioned campaign\n    mapping(uint256 => address[]) private campaignRevisionApprovals;\n    mapping(uint256 => address[]) private campaignRevisionDisapprovals;\n\n    // Mapping to store addresses that reported a campaign\n    mapping(uint256 => address[]) private campaignReports;\n\n    struct Donation {\n        address donator;\n        uint256 donatedWei;\n    }\n    mapping (uint256 => Donation[]) private donators;\n\n    // Address of the contract creator\n    address public minter;\n\n    /**\n     * @dev Constructor to initialize the contract\n     */\n    constructor() {\n        minter = msg.sender; // Initialize DST balance for a default address\n        dstBalances[0x715428e23981A4DC06a20559AC17D81C20b9bB02] = 200;\n    }\n\n    /**\n     * @dev Private function to check if an address is in an array\n     * @param _address The address to check\n     * @param _listOfAddresses The array of addresses to search\n     * @return Whether the address is in the array or not\n     */\n    function addressInArray(address _address, address[] storage _listOfAddresses) private view returns(bool) {\n        for (uint i = 0; i < _listOfAddresses.length; i++) {\n            if (_listOfAddresses[i] == _address) {\n                return true;\n            }\n        }\n        return false;\n    }\n\n    /**\n     * @dev Private function to slash SSJ users' funds\n     * @param _campaignID The ID of the campaign\n     */\n    function slashSSJUsers(uint256 _campaignID) private {\n        for (uint i = 0; i < campaignApprovals[_campaignID].length; i++) {\n            address slashedUser = campaignApprovals[_campaignID][i];\n            ssjVaults[slashedUser] -= 250000;\n            if (ssjVaults[slashedUser] < 0.05 ether) {\n                // If the SSJ User has less than 10% of the starting needed ETH\n                address payable user = payable(slashedUser);\n                user.transfer(ssjVaults[slashedUser]);\n                ssjVaults[slashedUser] = 0;\n            }\n        }\n    }\n\n    /**\n     * @dev Private function to reward SSJ users based on campaign donation percentage\n     * @param _campaignID The ID of the campaign\n     */\n    function rewardSSJUsers(uint256 _campaignID) private {\n        uint percentage = campaigns[_campaignID].donatedWei * 100 / campaigns[_campaignID].weiLimit;\n        if (percentage <= 5) {\n            return;\n        }\n\n        for (uint i = 0; i < campaignApprovals[_campaignID].length; i++) {\n            address rewardedUser = campaignApprovals[_campaignID][i];\n            ssjVaults[rewardedUser] += (100 - percentage) / campaignApprovals[_campaignID].length;\n        }\n    }\n\n    /**\n     * @dev Private function to reward users who reported a campaign\n     * @param _campaignID The ID of the campaign\n     */\n    function rewardReporters(uint256 _campaignID) private {\n        for (uint i = 0; i < campaignReports[_campaignID].length; i++) {\n            address rewardedUser = campaignReports[_campaignID][i];\n            dstBalances[rewardedUser] += 2;\n        }\n    }\n\n    function refundDonators(uint256 _campaignID) private {\n        for (uint i = 0; i < donators[_campaignID].length; i++) {\n            address payable user = payable(donators[_campaignID][i].donator);\n            user.transfer(donators[_campaignID][i].donatedWei);\n        }\n    }\n\n    /**\n     * @dev Public function to create a new campaign\n     * @param _weiLimit Maximum amount of ETH that can be donated to the campaign\n     * @param _weekDuration Duration of the campaign in weeks\n     */\n    function createCampaign(uint256 _weiLimit, uint16 _weekDuration) public payable {\n        require(msg.value == _weiLimit * 5 / 100, \"You have to deposit 5% of the weiLimit!\");\n        require(_weiLimit > 0.05 ether, \"The donation limit must be greater than 0.05 ETH\");\n        require(_weiLimit % 0.005 ether == 0, \"The donation limit must be a multiple of 0.005 ETH\");\n        require(_weekDuration > 0, \"The campaign duration (expressed in weeks) must be greater than 0\");\n\n        campaigns.push(\n            Campaign({\n                owner: msg.sender,\n                id: campaigns.length, \n                status: CampaignStatus.PENDING,\n                weiLimit: _weiLimit,\n                donatedWei: 0,\n                creationTime: block.timestamp,\n                revisionTime: 0,\n                weekDuration: _weekDuration\n            })\n        );\n\n        emit CampaignCreation(campaigns.length-1);\n    }\n\n    // Function to get a window of 20 elements starting from the last one\n    function getCampaigns(uint256 _campaignWindow) public view returns (Campaign[] memory) {\n        require(_campaignWindow > 0, \"Window size must be greater than 0\");\n        require(int256(campaigns.length) - int256(_campaignWindow-1) * 20 >= 0, \"The window size is too large\");\n\n        // Calculate the starting index for the window\n        int256 startIndex = int256(campaigns.length) - int256(_campaignWindow) * 20;\n        if (startIndex < 0) {\n            startIndex = 0;\n        }\n\n        // Calculate the actual number of elements to include in the result\n        uint256 numElements = uint256(startIndex + 20) <= campaigns.length ? 20 : campaigns.length - uint256(startIndex);\n\n        // Create a memory array to store the window of elements\n        Campaign[] memory result = new Campaign[](numElements);\n\n        // Use a loop to copy the elements to the result array\n        for (uint256 i = 0; i < numElements; i++) {\n            result[i] = campaigns[uint256(startIndex + int256(i))];\n        }\n\n        return result;\n    }\n\n\n    /**\n     * @dev Public function to donate to an active campaign\n     * @param _id The ID of the campaign\n     */\n    function donateCampaign(uint256 _id) public payable {\n        require(_id < campaigns.length, \"The specified campaign does not exist\");\n        require(campaigns[_id].status == CampaignStatus.ACTIVE, \"The specified campaign is not active\");\n        require(campaigns[_id].weiLimit - campaigns[_id].donatedWei - msg.value >= 0, \"The limit for this campaign has been reached\");\n        require(msg.value > 0, \"The donation must be greater than zero\");\n        require(msg.value % 0.0005 ether == 0, \"You can donate only using steps of 0.0005 ETH\");\n\n        campaigns[_id].donatedWei += msg.value; // Update the campaign's donatedWei field\n        dstBalances[msg.sender] += msg.value / 50000;\n        donators[_id].push(Donation({\n            donator: msg.sender,\n            donatedWei: msg.value\n            })\n        );\n\n        if (campaigns[_id].status == CampaignStatus.ACTIVE && (block.timestamp >= campaigns[_id].creationTime + campaigns[_id].weekDuration * 1 weeks || campaigns[_id].donatedWei == campaigns[_id].weiLimit)) {\n                campaigns[_id].status = CampaignStatus.ENDED;\n                rewardSSJUsers(_id);\n\n                address payable campaignOwner = payable(campaigns[_id].owner);\n                campaignOwner.transfer(campaigns[_id].donatedWei);\n            }\n    }\n\n    /**\n     * @dev Public function to report a campaign\n     * @param _id The ID of the campaign\n     */\n    function reportCampaign(uint256 _id) public {\n        require(_id < campaigns.length, \"The specified campaign does not exist\");\n        require(campaigns[_id].status == CampaignStatus.ACTIVE, \"The specified campaign is not active\");\n        require(dstBalances[msg.sender] > 0, \"You must have at least 1 DST\");\n\n        dstBalances[msg.sender] -= 1;\n        campaignReports[_id].push(msg.sender);\n\n        if (campaignReports[_id].length > 1) {\n            // More than 100 reports, then the campaign is put in revision state\n            campaigns[_id].status = CampaignStatus.REVISION;\n            campaigns[_id].revisionTime = block.timestamp;\n        }\n    }\n\n    /**\n     * @dev Public function for SSJ users to vote (approve or disapprove) a pending campaign\n     * @param _id The ID of the campaign\n     * @param _approval Whether the user approves or disapproves the campaign\n     */\n    function voteForCampaign(uint256 _id, bool _approval) public returns(uint256) {\n        //require(ssjVaults[msg.sender] > 0, \"You are not part of the SuperSaiyan Set!\");\n        require(campaigns[_id].status == CampaignStatus.PENDING, \"The specified campaign is not pending!\");\n        require(!addressInArray(msg.sender, campaignApprovals[_id]), \"You have already approved this campaign\");\n        require(!addressInArray(msg.sender, campaignDisapprovals[_id]), \"You have already disapproved this campaign\");\n\n        // Record the approval or disapproval vote\n        if (_approval) {\n            campaignApprovals[_id].push(msg.sender);\n        } else {\n            campaignDisapprovals[_id].push(msg.sender);\n        }\n\n        if (campaigns[_id].status == CampaignStatus.PENDING && block.timestamp >= campaigns[_id].creationTime + 0 days) {\n            // Check if the voting period has ended\n            if (campaignApprovals[_id].length > campaignDisapprovals[_id].length) {\n                campaigns[_id].status = CampaignStatus.ACTIVE;\n            } else {\n                campaigns[_id].status = CampaignStatus.DISAPPROVED;\n            }\n        }\n\n        return ssjVaults[msg.sender];\n    }\n\n    /**\n     * @dev Public function for SSJ users to vote (approve or disapprove) a revisioned campaign\n     * @param _id The ID of the campaign\n     * @param _approval Whether the user approves or disapproves the campaign\n     */\n    function revisionCampaign(uint256 _id, bool _approval) public {\n        require(ssjVaults[msg.sender] > 0, \"You are not part of the SuperSaiyan Set!\");\n        require(campaigns[_id].status == CampaignStatus.REVISION, \"The specified campaign is not in revision!\");\n        require(!addressInArray(msg.sender, campaignRevisionApprovals[_id]), \"You have already approved this campaign\");\n        require(!addressInArray(msg.sender, campaignRevisionDisapprovals[_id]), \"You have already disapproved this campaign\");\n\n        // Record the approval or disapproval vote\n        if (_approval) {\n            campaignRevisionApprovals[_id].push(msg.sender);\n        } else {\n            campaignRevisionDisapprovals[_id].push(msg.sender);\n        }\n\n        if (campaigns[_id].status == CampaignStatus.REVISION && block.timestamp >= campaigns[_id].revisionTime + 0 days) {\n            // Check if the voting period has ended\n            if (campaignRevisionApprovals[_id].length > campaignRevisionDisapprovals[_id].length) {\n                campaigns[_id].status = CampaignStatus.ACTIVE;\n                campaigns[_id].revisionTime = 0;\n                delete campaignRevisionApprovals[_id];\n                delete campaignRevisionDisapprovals[_id];\n            } else {\n                campaigns[_id].status = CampaignStatus.BANNED;\n                slashSSJUsers(_id);\n                rewardReporters(_id);\n                refundDonators(_id);\n            }\n        }\n    }\n\n    /**\n     * @dev Public function for users to become part of the SuperSaiyan Set\n     */\n    function becomeSSJ() public payable {\n        require(ssjVaults[msg.sender] == 0, \"You are already part of the SuperSaiyan Set!\");\n        require(dstBalances[msg.sender] >= 100, \"You must hold at least 100 DST to become part of the SuperSaiyan Set!\");\n        require(msg.value >= 0.5 ether, \"You have to deposit at least 0.5 ETH to become a SuperSaiyan!\");\n\n        ssjVaults[msg.sender] = msg.value;\n    }\n\n    /**\n     * @dev Public function for users to exit the SuperSaiyan Set and become a normal user\n     */\n    function becomeNormalUser() public {\n        require(ssjVaults[msg.sender] > 0, \"You are not part of the SuperSaiyan Set!\");\n\n        address payable user = payable(msg.sender);\n        user.transfer(ssjVaults[msg.sender]);\n        ssjVaults[msg.sender] = 0;\n    }\n\n    /**\n     * @dev Public function for the contract creator to terminate the contract and withdraw funds\n     */\n    function terminate() public {\n        require(msg.sender == minter, \"You cannot terminate the contract!\");\n        payable(minter).transfer(address(this).balance);\n    }\n}\n",
  "sourcePath": "/ContainerFiles/contracts/DragonBlock.sol",
  "compiler": {
    "name": "solc",
    "version": "0.8.13+commit.abaa5c0e.Emscripten.clang"
  },
  "schemaVersion": "3.4.16",
  "updatedAt": "2024-01-04T12:11:13.147Z",
  "networkType": "ethereum",
  "devdoc": {
    "details": "A decentralized crowdfunding platform where users can create campaigns, donate, and vote using SuperSaiyan (SSJ) tokens.",
    "kind": "dev",
    "methods": {
      "becomeNormalUser()": {
        "details": "Public function for users to exit the SuperSaiyan Set and become a normal user"
      },
      "becomeSSJ()": {
        "details": "Public function for users to become part of the SuperSaiyan Set"
      },
      "constructor": {
        "details": "Constructor to initialize the contract"
      },
      "createCampaign(uint256,uint16)": {
        "details": "Public function to create a new campaign",
        "params": {
          "_weekDuration": "Duration of the campaign in weeks",
          "_weiLimit": "Maximum amount of ETH that can be donated to the campaign"
        }
      },
      "donateCampaign(uint256)": {
        "details": "Public function to donate to an active campaign",
        "params": {
          "_id": "The ID of the campaign"
        }
      },
      "reportCampaign(uint256)": {
        "details": "Public function to report a campaign",
        "params": {
          "_id": "The ID of the campaign"
        }
      },
      "revisionCampaign(uint256,bool)": {
        "details": "Public function for SSJ users to vote (approve or disapprove) a revisioned campaign",
        "params": {
          "_approval": "Whether the user approves or disapproves the campaign",
          "_id": "The ID of the campaign"
        }
      },
      "terminate()": {
        "details": "Public function for the contract creator to terminate the contract and withdraw funds"
      },
      "voteForCampaign(uint256,bool)": {
        "details": "Public function for SSJ users to vote (approve or disapprove) a pending campaign",
        "params": {
          "_approval": "Whether the user approves or disapproves the campaign",
          "_id": "The ID of the campaign"
        }
      }
    },
    "title": "DragonBlock Smart Contract",
    "version": 1
  },
  "userdoc": {
    "kind": "user",
    "methods": {},
    "version": 1
  }
}