{
  "contractName": "DragonBlock",
  "abi": [
    {
      "inputs": [],
      "stateMutability": "nonpayable",
      "type": "constructor"
    },
    {
      "anonymous": false,
      "inputs": [
        {
          "indexed": false,
          "internalType": "uint256",
          "name": "campaignId",
          "type": "uint256"
        }
      ],
      "name": "CampaignCreation",
      "type": "event"
    },
    {
      "inputs": [
        {
          "internalType": "uint256",
          "name": "",
          "type": "uint256"
        }
      ],
      "name": "campaigns",
      "outputs": [
        {
          "internalType": "address",
          "name": "owner",
          "type": "address"
        },
        {
          "internalType": "uint256",
          "name": "id",
          "type": "uint256"
        },
        {
          "internalType": "enum DragonBlock.CampaignStatus",
          "name": "status",
          "type": "uint8"
        },
        {
          "internalType": "uint256",
          "name": "weiLimit",
          "type": "uint256"
        },
        {
          "internalType": "uint256",
          "name": "donatedWei",
          "type": "uint256"
        },
        {
          "internalType": "uint256",
          "name": "creationTime",
          "type": "uint256"
        },
        {
          "internalType": "uint256",
          "name": "revisionTime",
          "type": "uint256"
        },
        {
          "internalType": "uint16",
          "name": "weekDuration",
          "type": "uint16"
        }
      ],
      "stateMutability": "view",
      "type": "function",
      "constant": true
    },
    {
      "inputs": [
        {
          "internalType": "address",
          "name": "",
          "type": "address"
        }
      ],
      "name": "dstBalances",
      "outputs": [
        {
          "internalType": "uint256",
          "name": "",
          "type": "uint256"
        }
      ],
      "stateMutability": "view",
      "type": "function",
      "constant": true
    },
    {
      "inputs": [],
      "name": "minter",
      "outputs": [
        {
          "internalType": "address",
          "name": "",
          "type": "address"
        }
      ],
      "stateMutability": "view",
      "type": "function",
      "constant": true
    },
    {
      "inputs": [
        {
          "internalType": "address",
          "name": "",
          "type": "address"
        }
      ],
      "name": "ssjVaults",
      "outputs": [
        {
          "internalType": "uint256",
          "name": "",
          "type": "uint256"
        }
      ],
      "stateMutability": "view",
      "type": "function",
      "constant": true
    },
    {
      "inputs": [
        {
          "internalType": "address",
          "name": "_user",
          "type": "address"
        }
      ],
      "name": "getUserCombactLvl",
      "outputs": [
        {
          "internalType": "uint256",
          "name": "",
          "type": "uint256"
        }
      ],
      "stateMutability": "view",
      "type": "function",
      "constant": true
    },
    {
      "inputs": [
        {
          "internalType": "uint256",
          "name": "_weiLimit",
          "type": "uint256"
        },
        {
          "internalType": "uint16",
          "name": "_weekDuration",
          "type": "uint16"
        }
      ],
      "name": "createCampaign",
      "outputs": [],
      "stateMutability": "payable",
      "type": "function",
      "payable": true
    },
    {
      "inputs": [
        {
          "internalType": "uint256",
          "name": "_campaignWindow",
          "type": "uint256"
        }
      ],
      "name": "getCampaigns",
      "outputs": [
        {
          "components": [
            {
              "internalType": "address",
              "name": "owner",
              "type": "address"
            },
            {
              "internalType": "uint256",
              "name": "id",
              "type": "uint256"
            },
            {
              "internalType": "enum DragonBlock.CampaignStatus",
              "name": "status",
              "type": "uint8"
            },
            {
              "internalType": "uint256",
              "name": "weiLimit",
              "type": "uint256"
            },
            {
              "internalType": "uint256",
              "name": "donatedWei",
              "type": "uint256"
            },
            {
              "internalType": "uint256",
              "name": "creationTime",
              "type": "uint256"
            },
            {
              "internalType": "uint256",
              "name": "revisionTime",
              "type": "uint256"
            },
            {
              "internalType": "uint16",
              "name": "weekDuration",
              "type": "uint16"
            }
          ],
          "internalType": "struct DragonBlock.Campaign[]",
          "name": "",
          "type": "tuple[]"
        }
      ],
      "stateMutability": "view",
      "type": "function",
      "constant": true
    },
    {
      "inputs": [
        {
          "internalType": "address",
          "name": "_owner",
          "type": "address"
        }
      ],
      "name": "getOwnedCampaigns",
      "outputs": [
        {
          "components": [
            {
              "internalType": "address",
              "name": "owner",
              "type": "address"
            },
            {
              "internalType": "uint256",
              "name": "id",
              "type": "uint256"
            },
            {
              "internalType": "enum DragonBlock.CampaignStatus",
              "name": "status",
              "type": "uint8"
            },
            {
              "internalType": "uint256",
              "name": "weiLimit",
              "type": "uint256"
            },
            {
              "internalType": "uint256",
              "name": "donatedWei",
              "type": "uint256"
            },
            {
              "internalType": "uint256",
              "name": "creationTime",
              "type": "uint256"
            },
            {
              "internalType": "uint256",
              "name": "revisionTime",
              "type": "uint256"
            },
            {
              "internalType": "uint16",
              "name": "weekDuration",
              "type": "uint16"
            }
          ],
          "internalType": "struct DragonBlock.Campaign[]",
          "name": "",
          "type": "tuple[]"
        }
      ],
      "stateMutability": "view",
      "type": "function",
      "constant": true
    },
    {
      "inputs": [
        {
          "internalType": "uint256",
          "name": "_id",
          "type": "uint256"
        }
      ],
      "name": "donateCampaign",
      "outputs": [],
      "stateMutability": "payable",
      "type": "function",
      "payable": true
    },
    {
      "inputs": [
        {
          "internalType": "uint256",
          "name": "_id",
          "type": "uint256"
        }
      ],
      "name": "reportCampaign",
      "outputs": [],
      "stateMutability": "nonpayable",
      "type": "function"
    },
    {
      "inputs": [
        {
          "internalType": "uint256",
          "name": "_id",
          "type": "uint256"
        }
      ],
      "name": "finalizeCampaign",
      "outputs": [],
      "stateMutability": "nonpayable",
      "type": "function"
    },
    {
      "inputs": [
        {
          "internalType": "uint256",
          "name": "_id",
          "type": "uint256"
        }
      ],
      "name": "terminateCampaign",
      "outputs": [],
      "stateMutability": "nonpayable",
      "type": "function"
    },
    {
      "inputs": [
        {
          "internalType": "uint256",
          "name": "_id",
          "type": "uint256"
        }
      ],
      "name": "finalizeRevisionCampaign",
      "outputs": [],
      "stateMutability": "nonpayable",
      "type": "function"
    },
    {
      "inputs": [
        {
          "internalType": "uint256",
          "name": "_id",
          "type": "uint256"
        },
        {
          "internalType": "bool",
          "name": "_approval",
          "type": "bool"
        }
      ],
      "name": "voteForCampaign",
      "outputs": [
        {
          "internalType": "uint256",
          "name": "",
          "type": "uint256"
        }
      ],
      "stateMutability": "nonpayable",
      "type": "function"
    },
    {
      "inputs": [
        {
          "internalType": "uint256",
          "name": "_id",
          "type": "uint256"
        },
        {
          "internalType": "bool",
          "name": "_approval",
          "type": "bool"
        }
      ],
      "name": "revisionCampaign",
      "outputs": [],
      "stateMutability": "nonpayable",
      "type": "function"
    },
    {
      "inputs": [],
      "name": "becomeSSJ",
      "outputs": [],
      "stateMutability": "payable",
      "type": "function",
      "payable": true
    },
    {
      "inputs": [],
      "name": "becomeNormalUser",
      "outputs": [],
      "stateMutability": "nonpayable",
      "type": "function"
    },
    {
      "inputs": [],
      "name": "terminate",
      "outputs": [],
      "stateMutability": "nonpayable",
      "type": "function"
    }
  ],
  "bytecode": "0x608060405234801561001057600080fd5b5033600960006101000a81548173ffffffffffffffffffffffffffffffffffffffff021916908373ffffffffffffffffffffffffffffffffffffffff1602179055506103e8600160003373ffffffffffffffffffffffffffffffffffffffff1673ffffffffffffffffffffffffffffffffffffffff1681526020019081526020016000208190555061513c806100a76000396000f3fe6080604052600436106101085760003560e01c80632c780755116100955780638ffff8b0116100645780638ffff8b014610372578063bc7586fe1461038e578063db62877f14610398578063e0968d6b146103c1578063fb58ca82146103ea57610108565b80632c780755146102b35780636a288ef9146102cf5780636b5ca27d1461030c5780637ae473171461033557610108565b806312abd905116100dc57806312abd905146101c9578063141961bc146101f257806317b3cdd21461023657806324005d581461024d57806324be08911461027657610108565b80623e63ab1461010d578063075461721461014a5780630c08bf88146101755780631050d9ef1461018c575b600080fd5b34801561011957600080fd5b50610134600480360381019061012f919061360e565b610427565b6040516101419190613654565b60405180910390f35b34801561015657600080fd5b5061015f61043f565b60405161016c919061367e565b60405180910390f35b34801561018157600080fd5b5061018a610465565b005b34801561019857600080fd5b506101b360048036038101906101ae919061360e565b610560565b6040516101c0919061389d565b60405180910390f35b3480156101d557600080fd5b506101f060048036038101906101eb9190613923565b61084c565b005b3480156101fe57600080fd5b5061021960048036038101906102149190613963565b610c44565b60405161022d9897969594939291906139ae565b60405180910390f35b34801561024257600080fd5b5061024b610cd7565b005b34801561025957600080fd5b50610274600480360381019061026f9190613963565b610e2c565b005b34801561028257600080fd5b5061029d6004803603810190610298919061360e565b6110f3565b6040516102aa9190613654565b60405180910390f35b6102cd60048036038101906102c89190613a58565b6111a7565b005b3480156102db57600080fd5b506102f660048036038101906102f1919061360e565b6114f7565b6040516103039190613654565b60405180910390f35b34801561031857600080fd5b50610333600480360381019061032e9190613963565b61150f565b005b34801561034157600080fd5b5061035c60048036038101906103579190613963565b6117a6565b604051610369919061389d565b60405180910390f35b61038c60048036038101906103879190613963565b611a77565b005b610396611eb0565b005b3480156103a457600080fd5b506103bf60048036038101906103ba9190613963565b612047565b005b3480156103cd57600080fd5b506103e860048036038101906103e39190613963565b612396565b005b3480156103f657600080fd5b50610411600480360381019061040c9190613923565b6126ba565b60405161041e9190613654565b60405180910390f35b60026020528060005260406000206000915090505481565b600960009054906101000a900473ffffffffffffffffffffffffffffffffffffffff1681565b600960009054906101000a900473ffffffffffffffffffffffffffffffffffffffff1673ffffffffffffffffffffffffffffffffffffffff163373ffffffffffffffffffffffffffffffffffffffff16146104f5576040517f08c379a00000000000000000000000000000000000000000000000000000000081526004016104ec90613b1b565b60405180910390fd5b600960009054906101000a900473ffffffffffffffffffffffffffffffffffffffff1673ffffffffffffffffffffffffffffffffffffffff166108fc479081150290604051600060405180830381858888f1935050505015801561055d573d6000803e3d6000fd5b50565b60606000805b60008054905081101561060d578373ffffffffffffffffffffffffffffffffffffffff166000828154811061059e5761059d613b3b565b5b906000526020600020906008020160000160009054906101000a900473ffffffffffffffffffffffffffffffffffffffff1673ffffffffffffffffffffffffffffffffffffffff16036105fa5781806105f690613b99565b9250505b808061060590613b99565b915050610566565b5060008167ffffffffffffffff81111561062a57610629613be1565b5b60405190808252806020026020018201604052801561066357816020015b6106506134fc565b8152602001906001900390816106485790505b5090506000805b600080549050811015610840578573ffffffffffffffffffffffffffffffffffffffff16600082815481106106a2576106a1613b3b565b5b906000526020600020906008020160000160009054906101000a900473ffffffffffffffffffffffffffffffffffffffff1673ffffffffffffffffffffffffffffffffffffffff160361082d576000818154811061070357610702613b3b565b5b9060005260206000209060080201604051806101000160405290816000820160009054906101000a900473ffffffffffffffffffffffffffffffffffffffff1673ffffffffffffffffffffffffffffffffffffffff1673ffffffffffffffffffffffffffffffffffffffff168152602001600182015481526020016002820160009054906101000a900460ff1660058111156107a2576107a16136e3565b5b60058111156107b4576107b36136e3565b5b8152602001600382015481526020016004820154815260200160058201548152602001600682015481526020016007820160009054906101000a900461ffff1661ffff1661ffff168152505083838151811061081357610812613b3b565b5b6020026020010181905250818061082990613b99565b9250505b808061083890613b99565b91505061066a565b50819350505050919050565b6000600260003373ffffffffffffffffffffffffffffffffffffffff1673ffffffffffffffffffffffffffffffffffffffff16815260200190815260200160002054116108ce576040517f08c379a00000000000000000000000000000000000000000000000000000000081526004016108c590613c82565b60405180910390fd5b600360058111156108e2576108e16136e3565b5b600083815481106108f6576108f5613b3b565b5b906000526020600020906008020160020160009054906101000a900460ff166005811115610927576109266136e3565b5b14610967576040517f08c379a000000000000000000000000000000000000000000000000000000000815260040161095e90613d14565b60405180910390fd5b62093a806000838154811061097f5761097e613b3b565b5b90600052602060002090600802016006015461099b9190613d34565b42106109dc576040517f08c379a00000000000000000000000000000000000000000000000000000000081526004016109d390613dfc565b60405180910390fd5b6109f83360056000858152602001908152602001600020612a3f565b15610a38576040517f08c379a0000000000000000000000000000000000000000000000000000000008152600401610a2f90613e8e565b60405180910390fd5b610a543360066000858152602001908152602001600020612a3f565b15610a94576040517f08c379a0000000000000000000000000000000000000000000000000000000008152600401610a8b90613f20565b60405180910390fd5b610ab03360036000858152602001908152602001600020612a3f565b15610af0576040517f08c379a0000000000000000000000000000000000000000000000000000000008152600401610ae790613fd8565b60405180910390fd5b610b0c3360046000858152602001908152602001600020612a3f565b15610b4c576040517f08c379a0000000000000000000000000000000000000000000000000000000008152600401610b4390613fd8565b60405180910390fd5b8015610bcb5760056000838152602001908152602001600020339080600181540180825580915050600190039060005260206000200160009091909190916101000a81548173ffffffffffffffffffffffffffffffffffffffff021916908373ffffffffffffffffffffffffffffffffffffffff160217905550610c40565b60066000838152602001908152602001600020339080600181540180825580915050600190039060005260206000200160009091909190916101000a81548173ffffffffffffffffffffffffffffffffffffffff021916908373ffffffffffffffffffffffffffffffffffffffff1602179055505b5050565b60008181548110610c5457600080fd5b90600052602060002090600802016000915090508060000160009054906101000a900473ffffffffffffffffffffffffffffffffffffffff16908060010154908060020160009054906101000a900460ff16908060030154908060040154908060050154908060060154908060070160009054906101000a900461ffff16905088565b6000600260003373ffffffffffffffffffffffffffffffffffffffff1673ffffffffffffffffffffffffffffffffffffffff1681526020019081526020016000205411610d59576040517f08c379a0000000000000000000000000000000000000000000000000000000008152600401610d5090613c82565b60405180910390fd5b60003390508073ffffffffffffffffffffffffffffffffffffffff166108fc600260003373ffffffffffffffffffffffffffffffffffffffff1673ffffffffffffffffffffffffffffffffffffffff168152602001908152602001600020549081150290604051600060405180830381858888f19350505050158015610de3573d6000803e3d6000fd5b506000600260003373ffffffffffffffffffffffffffffffffffffffff1673ffffffffffffffffffffffffffffffffffffffff1681526020019081526020016000208190555050565b6000805490508110610e73576040517f08c379a0000000000000000000000000000000000000000000000000000000008152600401610e6a9061406a565b60405180910390fd5b60016005811115610e8757610e866136e3565b5b60008281548110610e9b57610e9a613b3b565b5b906000526020600020906008020160020160009054906101000a900460ff166005811115610ecc57610ecb6136e3565b5b14610f0c576040517f08c379a0000000000000000000000000000000000000000000000000000000008152600401610f03906140fc565b60405180910390fd5b6000600160003373ffffffffffffffffffffffffffffffffffffffff1673ffffffffffffffffffffffffffffffffffffffff1681526020019081526020016000205411610f8e576040517f08c379a0000000000000000000000000000000000000000000000000000000008152600401610f8590614168565b60405180910390fd5b60018060003373ffffffffffffffffffffffffffffffffffffffff1673ffffffffffffffffffffffffffffffffffffffff1681526020019081526020016000206000828254610fdd9190614188565b9250508190555060076000828152602001908152602001600020339080600181540180825580915050600190039060005260206000200160009091909190916101000a81548173ffffffffffffffffffffffffffffffffffffffff021916908373ffffffffffffffffffffffffffffffffffffffff1602179055506001600760008381526020019081526020016000208054905011156110f05760036000828154811061108d5761108c613b3b565b5b906000526020600020906008020160020160006101000a81548160ff021916908360058111156110c0576110bf6136e3565b5b021790555042600082815481106110da576110d9613b3b565b5b9060005260206000209060080201600601819055505b50565b6000612328600a600160008573ffffffffffffffffffffffffffffffffffffffff1673ffffffffffffffffffffffffffffffffffffffff1681526020019081526020016000205461114491906141bc565b106111535761232890506111a2565b600a600160008473ffffffffffffffffffffffffffffffffffffffff1673ffffffffffffffffffffffffffffffffffffffff1681526020019081526020016000205461119f91906141bc565b90505b919050565b60646005836111b691906141bc565b6111c09190614245565b3414611201576040517f08c379a00000000000000000000000000000000000000000000000000000000081526004016111f8906142e8565b60405180910390fd5b66b1a2bc2ec50000821161124a576040517f08c379a00000000000000000000000000000000000000000000000000000000081526004016112419061437a565b60405180910390fd5b60006611c37937e080008361125f919061439a565b1461129f576040517f08c379a00000000000000000000000000000000000000000000000000000000081526004016112969061443d565b60405180910390fd5b6112a8336110f3565b67016345785d8a00006112bb91906141bc565b8211156112fd576040517f08c379a00000000000000000000000000000000000000000000000000000000081526004016112f4906144cf565b60405180910390fd5b60088161ffff1611611344576040517f08c379a000000000000000000000000000000000000000000000000000000000815260040161133b90614587565b60405180910390fd5b60006040518061010001604052803373ffffffffffffffffffffffffffffffffffffffff16815260200160008054905081526020016000600581111561138d5761138c6136e3565b5b815260200184815260200160008152602001428152602001600081526020018361ffff16815250908060018154018082558091505060019003906000526020600020906008020160009091909190915060008201518160000160006101000a81548173ffffffffffffffffffffffffffffffffffffffff021916908373ffffffffffffffffffffffffffffffffffffffff1602179055506020820151816001015560408201518160020160006101000a81548160ff02191690836005811115611459576114586136e3565b5b0217905550606082015181600301556080820151816004015560a0820151816005015560c0820151816006015560e08201518160070160006101000a81548161ffff021916908361ffff16021790555050507fddc542354787cb630b12d547bef306670ab435a3efdf62eeacf8532c042390ec60016000805490506114de9190614188565b6040516114eb9190613654565b60405180910390a15050565b60016020528060005260406000206000915090505481565b60006005811115611523576115226136e3565b5b6000828154811061153757611536613b3b565b5b906000526020600020906008020160020160009054906101000a900460ff166005811115611568576115676136e3565b5b146115a8576040517f08c379a000000000000000000000000000000000000000000000000000000000815260040161159f90614619565b60405180910390fd5b60008082815481106115bd576115bc613b3b565b5b9060005260206000209060080201600501546115d99190613d34565b421161161a576040517f08c379a0000000000000000000000000000000000000000000000000000000008152600401611611906146ab565b60405180910390fd5b6000818154811061162e5761162d613b3b565b5b906000526020600020906008020160000160009054906101000a900473ffffffffffffffffffffffffffffffffffffffff1673ffffffffffffffffffffffffffffffffffffffff163373ffffffffffffffffffffffffffffffffffffffff16146116cd576040517f08c379a00000000000000000000000000000000000000000000000000000000081526004016116c49061473d565b60405180910390fd5b6004600082815260200190815260200160002080549050600360008381526020019081526020016000208054905011156117545760016000828154811061171757611716613b3b565b5b906000526020600020906008020160020160006101000a81548160ff0219169083600581111561174a576117496136e3565b5b02179055506117a3565b60026000828154811061176a57611769613b3b565b5b906000526020600020906008020160020160006101000a81548160ff0219169083600581111561179d5761179c6136e3565b5b02179055505b50565b6060600082116117eb576040517f08c379a00000000000000000000000000000000000000000000000000000000081526004016117e2906147cf565b60405180910390fd5b600060146001846117fc9190614188565b61180691906147f9565b6000805490506118169190614910565b1215611857576040517f08c379a000000000000000000000000000000000000000000000000000000000815260040161184e906149f0565b60405180910390fd5b600060148361186691906147f9565b6000805490506118769190614910565b9050600081121561188657600090505b6000808054905060148361189a9190614a10565b11156118b657816000805490506118b19190614188565b6118b9565b60145b905060008167ffffffffffffffff8111156118d7576118d6613be1565b5b60405190808252806020026020018201604052801561191057816020015b6118fd6134fc565b8152602001906001900390816118f55790505b50905060005b82811015611a6b576000818561192c9190614a10565b8154811061193d5761193c613b3b565b5b9060005260206000209060080201604051806101000160405290816000820160009054906101000a900473ffffffffffffffffffffffffffffffffffffffff1673ffffffffffffffffffffffffffffffffffffffff1673ffffffffffffffffffffffffffffffffffffffff168152602001600182015481526020016002820160009054906101000a900460ff1660058111156119dc576119db6136e3565b5b60058111156119ee576119ed6136e3565b5b8152602001600382015481526020016004820154815260200160058201548152602001600682015481526020016007820160009054906101000a900461ffff1661ffff1661ffff1681525050828281518110611a4d57611a4c613b3b565b5b60200260200101819052508080611a6390613b99565b915050611916565b50809350505050919050565b6000805490508110611abe576040517f08c379a0000000000000000000000000000000000000000000000000000000008152600401611ab59061406a565b60405180910390fd5b60016005811115611ad257611ad16136e3565b5b60008281548110611ae657611ae5613b3b565b5b906000526020600020906008020160020160009054906101000a900460ff166005811115611b1757611b166136e3565b5b14611b57576040517f08c379a0000000000000000000000000000000000000000000000000000000008152600401611b4e906140fc565b60405180910390fd5b62093a8060008281548110611b6f57611b6e613b3b565b5b906000526020600020906008020160070160009054906101000a900461ffff1661ffff16611b9d9190614ab3565b62ffffff1660008281548110611bb657611bb5613b3b565b5b906000526020600020906008020160050154611bd29190613d34565b4210611c13576040517f08c379a0000000000000000000000000000000000000000000000000000000008152600401611c0a90614b88565b60405180910390fd5b60003460008381548110611c2a57611c29613b3b565b5b90600052602060002090600802016004015460008481548110611c5057611c4f613b3b565b5b906000526020600020906008020160030154611c6c9190614188565b611c769190614188565b1015611cb7576040517f08c379a0000000000000000000000000000000000000000000000000000000008152600401611cae90614bf4565b60405180910390fd5b60003411611cfa576040517f08c379a0000000000000000000000000000000000000000000000000000000008152600401611cf190614c86565b60405180910390fd5b60006601c6bf5263400034611d0f919061439a565b14611d4f576040517f08c379a0000000000000000000000000000000000000000000000000000000008152600401611d4690614d18565b60405180910390fd5b3460008281548110611d6457611d63613b3b565b5b90600052602060002090600802016004016000828254611d849190613d34565b925050819055506601c6bf5263400034611d9e9190614245565b600160003373ffffffffffffffffffffffffffffffffffffffff1673ffffffffffffffffffffffffffffffffffffffff1681526020019081526020016000206000828254611dec9190613d34565b925050819055506008600082815260200190815260200160002060405180604001604052803373ffffffffffffffffffffffffffffffffffffffff16815260200134815250908060018154018082558091505060019003906000526020600020906002020160009091909190915060008201518160000160006101000a81548173ffffffffffffffffffffffffffffffffffffffff021916908373ffffffffffffffffffffffffffffffffffffffff16021790555060208201518160010155505050565b6000600260003373ffffffffffffffffffffffffffffffffffffffff1673ffffffffffffffffffffffffffffffffffffffff1681526020019081526020016000205414611f32576040517f08c379a0000000000000000000000000000000000000000000000000000000008152600401611f2990614daa565b60405180910390fd5b6101f4600160003373ffffffffffffffffffffffffffffffffffffffff1673ffffffffffffffffffffffffffffffffffffffff168152602001908152602001600020541015611fb6576040517f08c379a0000000000000000000000000000000000000000000000000000000008152600401611fad90614e62565b60405180910390fd5b6706f05b59d3b20000341015612001576040517f08c379a0000000000000000000000000000000000000000000000000000000008152600401611ff890614ef4565b60405180910390fd5b34600260003373ffffffffffffffffffffffffffffffffffffffff1673ffffffffffffffffffffffffffffffffffffffff16815260200190815260200160002081905550565b6001600581111561205b5761205a6136e3565b5b6000828154811061206f5761206e613b3b565b5b906000526020600020906008020160020160009054906101000a900460ff1660058111156120a05761209f6136e3565b5b146120e0576040517f08c379a00000000000000000000000000000000000000000000000000000000081526004016120d790614f86565b60405180910390fd5b60008082815481106120f5576120f4613b3b565b5b906000526020600020906008020160070160009054906101000a900461ffff1661211f9190614fa6565b61ffff166000828154811061213757612136613b3b565b5b9060005260206000209060080201600501546121539190613d34565b421015612195576040517f08c379a000000000000000000000000000000000000000000000000000000000815260040161218c906146ab565b60405180910390fd5b600081815481106121a9576121a8613b3b565b5b906000526020600020906008020160000160009054906101000a900473ffffffffffffffffffffffffffffffffffffffff1673ffffffffffffffffffffffffffffffffffffffff163373ffffffffffffffffffffffffffffffffffffffff1614612248576040517f08c379a000000000000000000000000000000000000000000000000000000000815260040161223f90615054565b60405180910390fd5b60056000828154811061225e5761225d613b3b565b5b906000526020600020906008020160020160006101000a81548160ff02191690836005811115612291576122906136e3565b5b021790555061229f81612aec565b6005600082815260200190815260200160002060006122be919061356d565b6006600082815260200190815260200160002060006122dd919061356d565b60008082815481106122f2576122f1613b3b565b5b906000526020600020906008020160000160009054906101000a900473ffffffffffffffffffffffffffffffffffffffff1690508073ffffffffffffffffffffffffffffffffffffffff166108fc6000848154811061235457612353613b3b565b5b9060005260206000209060080201600401549081150290604051600060405180830381858888f19350505050158015612391573d6000803e3d6000fd5b505050565b600360058111156123aa576123a96136e3565b5b600082815481106123be576123bd613b3b565b5b906000526020600020906008020160020160009054906101000a900460ff1660058111156123ef576123ee6136e3565b5b1461242f576040517f08c379a000000000000000000000000000000000000000000000000000000000815260040161242690614f86565b60405180910390fd5b600080828154811061244457612443613b3b565b5b9060005260206000209060080201600601546124609190613d34565b4210156124a2576040517f08c379a0000000000000000000000000000000000000000000000000000000008152600401612499906146ab565b60405180910390fd5b600081815481106124b6576124b5613b3b565b5b906000526020600020906008020160000160009054906101000a900473ffffffffffffffffffffffffffffffffffffffff1673ffffffffffffffffffffffffffffffffffffffff163373ffffffffffffffffffffffffffffffffffffffff1614612555576040517f08c379a000000000000000000000000000000000000000000000000000000000815260040161254c9061473d565b60405180910390fd5b6006600082815260200190815260200160002080549050600560008381526020019081526020016000208054905011156126065760016000828154811061259f5761259e613b3b565b5b906000526020600020906008020160020160006101000a81548160ff021916908360058111156125d2576125d16136e3565b5b021790555060008082815481106125ec576125eb613b3b565b5b9060005260206000209060080201600601819055506126b7565b60046000828154811061261c5761261b613b3b565b5b906000526020600020906008020160020160006101000a81548160ff0219169083600581111561264f5761264e6136e3565b5b021790555061265d8161305b565b61266681613307565b61266f81612aec565b612678816133eb565b600560008281526020019081526020016000206000612697919061356d565b6006600082815260200190815260200160002060006126b6919061356d565b5b50565b600080600260003373ffffffffffffffffffffffffffffffffffffffff1673ffffffffffffffffffffffffffffffffffffffff168152602001908152602001600020541161273d576040517f08c379a000000000000000000000000000000000000000000000000000000000815260040161273490613c82565b60405180910390fd5b60006005811115612751576127506136e3565b5b6000848154811061276557612764613b3b565b5b906000526020600020906008020160020160009054906101000a900460ff166005811115612796576127956136e3565b5b146127d6576040517f08c379a00000000000000000000000000000000000000000000000000000000081526004016127cd90614619565b60405180910390fd5b62093a80600084815481106127ee576127ed613b3b565b5b90600052602060002090600802016005015461280a9190613d34565b421061284b576040517f08c379a0000000000000000000000000000000000000000000000000000000008152600401612842906150e6565b60405180910390fd5b6128673360036000868152602001908152602001600020612a3f565b156128a7576040517f08c379a000000000000000000000000000000000000000000000000000000000815260040161289e90613e8e565b60405180910390fd5b6128c33360046000868152602001908152602001600020612a3f565b15612903576040517f08c379a00000000000000000000000000000000000000000000000000000000081526004016128fa90613f20565b60405180910390fd5b81156129825760036000848152602001908152602001600020339080600181540180825580915050600190039060005260206000200160009091909190916101000a81548173ffffffffffffffffffffffffffffffffffffffff021916908373ffffffffffffffffffffffffffffffffffffffff1602179055506129f7565b60046000848152602001908152602001600020339080600181540180825580915050600190039060005260206000200160009091909190916101000a81548173ffffffffffffffffffffffffffffffffffffffff021916908373ffffffffffffffffffffffffffffffffffffffff1602179055505b600260003373ffffffffffffffffffffffffffffffffffffffff1673ffffffffffffffffffffffffffffffffffffffff16815260200190815260200160002054905092915050565b600080600090505b8280549050811015612ae0578373ffffffffffffffffffffffffffffffffffffffff16838281548110612a7d57612a7c613b3b565b5b9060005260206000200160009054906101000a900473ffffffffffffffffffffffffffffffffffffffff1673ffffffffffffffffffffffffffffffffffffffff1603612acd576001915050612ae6565b8080612ad890613b99565b915050612a47565b50600090505b92915050565b60046005811115612b0057612aff6136e3565b5b60008281548110612b1457612b13613b3b565b5b906000526020600020906008020160020160009054906101000a900460ff166005811115612b4557612b446136e3565b5b03612e095760005b6004600083815260200190815260200160002080549050811015612ca8576000600460008481526020019081526020016000208281548110612b9257612b91613b3b565b5b9060005260206000200160009054906101000a900473ffffffffffffffffffffffffffffffffffffffff16905060066000848152602001908152602001600020805490506004600085815260200190815260200160002080549050612bf79190613d34565b6064600560008681548110612c0f57612c0e613b3b565b5b906000526020600020906008020160030154612c2b91906141bc565b612c359190614245565b612c3f9190614245565b600260008373ffffffffffffffffffffffffffffffffffffffff1673ffffffffffffffffffffffffffffffffffffffff1681526020019081526020016000206000828254612c8d9190613d34565b92505081905550508080612ca090613b99565b915050612b4d565b5060005b6006600083815260200190815260200160002080549050811015612e07576000600660008481526020019081526020016000208281548110612cf157612cf0613b3b565b5b9060005260206000200160009054906101000a900473ffffffffffffffffffffffffffffffffffffffff16905060066000848152602001908152602001600020805490506004600085815260200190815260200160002080549050612d569190613d34565b6064600560008681548110612d6e57612d6d613b3b565b5b906000526020600020906008020160030154612d8a91906141bc565b612d949190614245565b612d9e9190614245565b600260008373ffffffffffffffffffffffffffffffffffffffff1673ffffffffffffffffffffffffffffffffffffffff1681526020019081526020016000206000828254612dec9190613d34565b92505081905550508080612dff90613b99565b915050612cac565b505b600580811115612e1c57612e1b6136e3565b5b60008281548110612e3057612e2f613b3b565b5b906000526020600020906008020160020160009054906101000a900460ff166005811115612e6157612e606136e3565b5b03613057576000808281548110612e7b57612e7a613b3b565b5b906000526020600020906008020160030154606460008481548110612ea357612ea2613b3b565b5b906000526020600020906008020160040154612ebf91906141bc565b612ec99190614245565b905060058111612ed95750613058565b6000606482612ee89190614245565b6064600560008681548110612f0057612eff613b3b565b5b906000526020600020906008020160030154612f1c91906141bc565b612f269190614245565b612f3091906141bc565b905060005b6003600085815260200190815260200160002080549050811015613053576000600360008681526020019081526020016000208281548110612f7a57612f79613b3b565b5b9060005260206000200160009054906101000a900473ffffffffffffffffffffffffffffffffffffffff16905060056000868152602001908152602001600020805490506003600087815260200190815260200160002080549050612fdf9190613d34565b83612fea9190614245565b600260008373ffffffffffffffffffffffffffffffffffffffff1673ffffffffffffffffffffffffffffffffffffffff16815260200190815260200160002060008282546130389190613d34565b9250508190555050808061304b90613b99565b915050612f35565b5050505b5b50565b60005b60036000838152602001908152602001600020805490508110156133035760006003600084815260200190815260200160002082815481106130a3576130a2613b3b565b5b9060005260206000200160009054906101000a900473ffffffffffffffffffffffffffffffffffffffff1690506658d15e17628000600260008373ffffffffffffffffffffffffffffffffffffffff1673ffffffffffffffffffffffffffffffffffffffff16815260200190815260200160002060008282546131269190614188565b92505081905550600a600160008373ffffffffffffffffffffffffffffffffffffffff1673ffffffffffffffffffffffffffffffffffffffff168152602001908152602001600020600082825461317d9190614188565b9250508190555066b1a2bc2ec50000600260008373ffffffffffffffffffffffffffffffffffffffff1673ffffffffffffffffffffffffffffffffffffffff16815260200190815260200160002054108061321857506101f4600160008373ffffffffffffffffffffffffffffffffffffffff1673ffffffffffffffffffffffffffffffffffffffff16815260200190815260200160002054105b156132ef5760008190508073ffffffffffffffffffffffffffffffffffffffff166108fc600260008573ffffffffffffffffffffffffffffffffffffffff1673ffffffffffffffffffffffffffffffffffffffff168152602001908152602001600020549081150290604051600060405180830381858888f193505050501580156132a7573d6000803e3d6000fd5b506000600260008473ffffffffffffffffffffffffffffffffffffffff1673ffffffffffffffffffffffffffffffffffffffff16815260200190815260200160002081905550505b5080806132fb90613b99565b91505061305e565b5050565b60005b60076000838152602001908152602001600020805490508110156133e757600060076000848152602001908152602001600020828154811061334f5761334e613b3b565b5b9060005260206000200160009054906101000a900473ffffffffffffffffffffffffffffffffffffffff1690506002600160008373ffffffffffffffffffffffffffffffffffffffff1673ffffffffffffffffffffffffffffffffffffffff16815260200190815260200160002060008282546133cc9190613d34565b925050819055505080806133df90613b99565b91505061330a565b5050565b60005b60086000838152602001908152602001600020805490508110156134f857600060086000848152602001908152602001600020828154811061343357613432613b3b565b5b906000526020600020906002020160000160009054906101000a900473ffffffffffffffffffffffffffffffffffffffff1690508073ffffffffffffffffffffffffffffffffffffffff166108fc6008600086815260200190815260200160002084815481106134a6576134a5613b3b565b5b9060005260206000209060020201600101549081150290604051600060405180830381858888f193505050501580156134e3573d6000803e3d6000fd5b505080806134f090613b99565b9150506133ee565b5050565b604051806101000160405280600073ffffffffffffffffffffffffffffffffffffffff16815260200160008152602001600060058111156135405761353f6136e3565b5b815260200160008152602001600081526020016000815260200160008152602001600061ffff1681525090565b508054600082559060005260206000209081019061358b919061358e565b50565b5b808211156135a757600081600090555060010161358f565b5090565b600080fd5b600073ffffffffffffffffffffffffffffffffffffffff82169050919050565b60006135db826135b0565b9050919050565b6135eb816135d0565b81146135f657600080fd5b50565b600081359050613608816135e2565b92915050565b600060208284031215613624576136236135ab565b5b6000613632848285016135f9565b91505092915050565b6000819050919050565b61364e8161363b565b82525050565b60006020820190506136696000830184613645565b92915050565b613678816135d0565b82525050565b6000602082019050613693600083018461366f565b92915050565b600081519050919050565b600082825260208201905092915050565b6000819050602082019050919050565b6136ce816135d0565b82525050565b6136dd8161363b565b82525050565b7f4e487b7100000000000000000000000000000000000000000000000000000000600052602160045260246000fd5b60068110613723576137226136e3565b5b50565b600081905061373482613712565b919050565b600061374482613726565b9050919050565b61375481613739565b82525050565b600061ffff82169050919050565b6137718161375a565b82525050565b6101008201600082015161378e60008501826136c5565b5060208201516137a160208501826136d4565b5060408201516137b4604085018261374b565b5060608201516137c760608501826136d4565b5060808201516137da60808501826136d4565b5060a08201516137ed60a08501826136d4565b5060c082015161380060c08501826136d4565b5060e082015161381360e0850182613768565b50505050565b60006138258383613777565b6101008301905092915050565b6000602082019050919050565b600061384a82613699565b61385481856136a4565b935061385f836136b5565b8060005b838110156138905781516138778882613819565b975061388283613832565b925050600181019050613863565b5085935050505092915050565b600060208201905081810360008301526138b7818461383f565b905092915050565b6138c88161363b565b81146138d357600080fd5b50565b6000813590506138e5816138bf565b92915050565b60008115159050919050565b613900816138eb565b811461390b57600080fd5b50565b60008135905061391d816138f7565b92915050565b6000806040838503121561393a576139396135ab565b5b6000613948858286016138d6565b92505060206139598582860161390e565b9150509250929050565b600060208284031215613979576139786135ab565b5b6000613987848285016138d6565b91505092915050565b61399981613739565b82525050565b6139a88161375a565b82525050565b6000610100820190506139c4600083018b61366f565b6139d1602083018a613645565b6139de6040830189613990565b6139eb6060830188613645565b6139f86080830187613645565b613a0560a0830186613645565b613a1260c0830185613645565b613a1f60e083018461399f565b9998505050505050505050565b613a358161375a565b8114613a4057600080fd5b50565b600081359050613a5281613a2c565b92915050565b60008060408385031215613a6f57613a6e6135ab565b5b6000613a7d858286016138d6565b9250506020613a8e85828601613a43565b9150509250929050565b600082825260208201905092915050565b7f596f752063616e6e6f74207465726d696e6174652074686520636f6e7472616360008201527f7421000000000000000000000000000000000000000000000000000000000000602082015250565b6000613b05602283613a98565b9150613b1082613aa9565b604082019050919050565b60006020820190508181036000830152613b3481613af8565b9050919050565b7f4e487b7100000000000000000000000000000000000000000000000000000000600052603260045260246000fd5b7f4e487b7100000000000000000000000000000000000000000000000000000000600052601160045260246000fd5b6000613ba48261363b565b91507fffffffffffffffffffffffffffffffffffffffffffffffffffffffffffffffff8203613bd657613bd5613b6a565b5b600182019050919050565b7f4e487b7100000000000000000000000000000000000000000000000000000000600052604160045260246000fd5b7f596f7520617265206e6f742070617274206f662074686520537570657253616960008201527f79616e2053657421000000000000000000000000000000000000000000000000602082015250565b6000613c6c602883613a98565b9150613c7782613c10565b604082019050919050565b60006020820190508181036000830152613c9b81613c5f565b9050919050565b7f546865207370656369666965642063616d706169676e206973206e6f7420696e60008201527f207265766973696f6e2100000000000000000000000000000000000000000000602082015250565b6000613cfe602a83613a98565b9150613d0982613ca2565b604082019050919050565b60006020820190508181036000830152613d2d81613cf1565b9050919050565b6000613d3f8261363b565b9150613d4a8361363b565b9250827fffffffffffffffffffffffffffffffffffffffffffffffffffffffffffffffff03821115613d7f57613d7e613b6a565b5b828201905092915050565b7f546865207265766973696f6e20697320746f6f206f6c642c20796f752063616e60008201527f6e6f7420766f746520616e796d6f726521000000000000000000000000000000602082015250565b6000613de6603183613a98565b9150613df182613d8a565b604082019050919050565b60006020820190508181036000830152613e1581613dd9565b9050919050565b7f596f75206861766520616c726561647920617070726f7665642074686973206360008201527f616d706169676e00000000000000000000000000000000000000000000000000602082015250565b6000613e78602783613a98565b9150613e8382613e1c565b604082019050919050565b60006020820190508181036000830152613ea781613e6b565b9050919050565b7f596f75206861766520616c726561647920646973617070726f7665642074686960008201527f732063616d706169676e00000000000000000000000000000000000000000000602082015250565b6000613f0a602a83613a98565b9150613f1582613eae565b604082019050919050565b60006020820190508181036000830152613f3981613efd565b9050919050565b7f596f75206861766520766f74656420746869732063616d706169676e2077686960008201527f6c65206974207761732070656e64696e672c207468657265666f726520796f7560208201527f2063616e6e6f7420766f746520666f7220746865207265766973696f6e000000604082015250565b6000613fc2605d83613a98565b9150613fcd82613f40565b606082019050919050565b60006020820190508181036000830152613ff181613fb5565b9050919050565b7f546865207370656369666965642063616d706169676e20646f6573206e6f742060008201527f6578697374000000000000000000000000000000000000000000000000000000602082015250565b6000614054602583613a98565b915061405f82613ff8565b604082019050919050565b6000602082019050818103600083015261408381614047565b9050919050565b7f546865207370656369666965642063616d706169676e206973206e6f7420616360008201527f7469766500000000000000000000000000000000000000000000000000000000602082015250565b60006140e6602483613a98565b91506140f18261408a565b604082019050919050565b60006020820190508181036000830152614115816140d9565b9050919050565b7f596f75206d7573742068617665206174206c6561737420312044535400000000600082015250565b6000614152601c83613a98565b915061415d8261411c565b602082019050919050565b6000602082019050818103600083015261418181614145565b9050919050565b60006141938261363b565b915061419e8361363b565b9250828210156141b1576141b0613b6a565b5b828203905092915050565b60006141c78261363b565b91506141d28361363b565b9250817fffffffffffffffffffffffffffffffffffffffffffffffffffffffffffffffff048311821515161561420b5761420a613b6a565b5b828202905092915050565b7f4e487b7100000000000000000000000000000000000000000000000000000000600052601260045260246000fd5b60006142508261363b565b915061425b8361363b565b92508261426b5761426a614216565b5b828204905092915050565b7f596f75206861766520746f206465706f736974203525206f662074686520776560008201527f694c696d69742100000000000000000000000000000000000000000000000000602082015250565b60006142d2602783613a98565b91506142dd82614276565b604082019050919050565b60006020820190508181036000830152614301816142c5565b9050919050565b7f54686520646f6e6174696f6e206c696d6974206d75737420626520677265617460008201527f6572207468616e20302e30352045544800000000000000000000000000000000602082015250565b6000614364603083613a98565b915061436f82614308565b604082019050919050565b6000602082019050818103600083015261439381614357565b9050919050565b60006143a58261363b565b91506143b08361363b565b9250826143c0576143bf614216565b5b828206905092915050565b7f54686520646f6e6174696f6e206c696d6974206d7573742062652061206d756c60008201527f7469706c65206f6620302e303035204554480000000000000000000000000000602082015250565b6000614427603283613a98565b9150614432826143cb565b604082019050919050565b600060208201905081810360008301526144568161441a565b9050919050565b7f596f757220636f6d62616374206c6576656c20697320746f6f206c6f7720666f60008201527f7220746865207265717565737465642045544821000000000000000000000000602082015250565b60006144b9603483613a98565b91506144c48261445d565b604082019050919050565b600060208201905081810360008301526144e8816144ac565b9050919050565b7f5468652063616d706169676e206475726174696f6e202865787072657373656460008201527f20696e207765656b7329206d7573742062652067726561746572207468616e2060208201527f3800000000000000000000000000000000000000000000000000000000000000604082015250565b6000614571604183613a98565b915061457c826144ef565b606082019050919050565b600060208201905081810360008301526145a081614564565b9050919050565b7f546865207370656369666965642063616d706169676e206973206e6f7420706560008201527f6e64696e67210000000000000000000000000000000000000000000000000000602082015250565b6000614603602683613a98565b915061460e826145a7565b604082019050919050565b60006020820190508181036000830152614632816145f6565b9050919050565b7f596f752063616e2066696e616c697a652069742061667465722037206461797360008201527f2100000000000000000000000000000000000000000000000000000000000000602082015250565b6000614695602183613a98565b91506146a082614639565b604082019050919050565b600060208201905081810360008301526146c481614688565b9050919050565b7f596f752063616e6e6f742066696e616c697a6520746869732063616d7061696760008201527f6e20617320796f7520617265206e6f7420746865206f776e6572210000000000602082015250565b6000614727603b83613a98565b9150614732826146cb565b604082019050919050565b600060208201905081810360008301526147568161471a565b9050919050565b7f57696e646f772073697a65206d7573742062652067726561746572207468616e60008201527f2030000000000000000000000000000000000000000000000000000000000000602082015250565b60006147b9602283613a98565b91506147c48261475d565b604082019050919050565b600060208201905081810360008301526147e8816147ac565b9050919050565b6000819050919050565b6000614804826147ef565b915061480f836147ef565b9250827f7fffffffffffffffffffffffffffffffffffffffffffffffffffffffffffffff048211600084136000841316161561484e5761484d613b6a565b5b817f8000000000000000000000000000000000000000000000000000000000000000058312600084126000841316161561488b5761488a613b6a565b5b827f800000000000000000000000000000000000000000000000000000000000000005821260008413600084121616156148c8576148c7613b6a565b5b827f7fffffffffffffffffffffffffffffffffffffffffffffffffffffffffffffff058212600084126000841216161561490557614904613b6a565b5b828202905092915050565b600061491b826147ef565b9150614926836147ef565b9250827f80000000000000000000000000000000000000000000000000000000000000000182126000841215161561496157614960613b6a565b5b827f7fffffffffffffffffffffffffffffffffffffffffffffffffffffffffffffff01821360008412161561499957614998613b6a565b5b828203905092915050565b7f5468652077696e646f772073697a6520697320746f6f206c6172676500000000600082015250565b60006149da601c83613a98565b91506149e5826149a4565b602082019050919050565b60006020820190508181036000830152614a09816149cd565b9050919050565b6000614a1b826147ef565b9150614a26836147ef565b9250817f7fffffffffffffffffffffffffffffffffffffffffffffffffffffffffffffff03831360008312151615614a6157614a60613b6a565b5b817f8000000000000000000000000000000000000000000000000000000000000000038312600083121615614a9957614a98613b6a565b5b828201905092915050565b600062ffffff82169050919050565b6000614abe82614aa4565b9150614ac983614aa4565b92508162ffffff0483118215151615614ae557614ae4613b6a565b5b828202905092915050565b7f546865207370656369666965642063616d706169676e206973206e6f206d6f7260008201527f65206163746976652c20746865206f776e65722073686f756c642066696e616c60208201527f697a652069740000000000000000000000000000000000000000000000000000604082015250565b6000614b72604683613a98565b9150614b7d82614af0565b606082019050919050565b60006020820190508181036000830152614ba181614b65565b9050919050565b7f54686520646f6e6174696f6e2076616c756520697320746f6f20686967682100600082015250565b6000614bde601f83613a98565b9150614be982614ba8565b602082019050919050565b60006020820190508181036000830152614c0d81614bd1565b9050919050565b7f54686520646f6e6174696f6e206d75737420626520677265617465722074686160008201527f6e207a65726f0000000000000000000000000000000000000000000000000000602082015250565b6000614c70602683613a98565b9150614c7b82614c14565b604082019050919050565b60006020820190508181036000830152614c9f81614c63565b9050919050565b7f596f752063616e20646f6e617465206f6e6c79207573696e672073746570732060008201527f6f6620302e303030352045544800000000000000000000000000000000000000602082015250565b6000614d02602d83613a98565b9150614d0d82614ca6565b604082019050919050565b60006020820190508181036000830152614d3181614cf5565b9050919050565b7f596f752061726520616c72656164792070617274206f6620746865205375706560008201527f7253616979616e20536574210000000000000000000000000000000000000000602082015250565b6000614d94602c83613a98565b9150614d9f82614d38565b604082019050919050565b60006020820190508181036000830152614dc381614d87565b9050919050565b7f596f75206d75737420686f6c64206174206c656173742035303020445354207460008201527f6f206265636f6d652070617274206f662074686520537570657253616979616e60208201527f2053657421000000000000000000000000000000000000000000000000000000604082015250565b6000614e4c604583613a98565b9150614e5782614dca565b606082019050919050565b60006020820190508181036000830152614e7b81614e3f565b9050919050565b7f596f75206861766520746f206465706f736974206174206c6561737420302e3560008201527f2045544820746f206265636f6d65206120537570657253616979616e21000000602082015250565b6000614ede603d83613a98565b9150614ee982614e82565b604082019050919050565b60006020820190508181036000830152614f0d81614ed1565b9050919050565b7f546865207370656369666965642063616d706169676e206973206e6f7420616360008201527f7469766521000000000000000000000000000000000000000000000000000000602082015250565b6000614f70602583613a98565b9150614f7b82614f14565b604082019050919050565b60006020820190508181036000830152614f9f81614f63565b9050919050565b6000614fb18261375a565b9150614fbc8361375a565b92508161ffff0483118215151615614fd757614fd6613b6a565b5b828202905092915050565b7f596f752063616e6e6f74207465726d696e61746520746869732063616d70616960008201527f676e20617320796f7520617265206e6f7420746865206f776e65722100000000602082015250565b600061503e603c83613a98565b915061504982614fe2565b604082019050919050565b6000602082019050818103600083015261506d81615031565b9050919050565b7f5468652063616d706169676e20697320746f6f206f6c642c20796f752063616e60008201527f6e6f7420766f746520616e796d6f726521000000000000000000000000000000602082015250565b60006150d0603183613a98565b91506150db82615074565b604082019050919050565b600060208201905081810360008301526150ff816150c3565b905091905056fea26469706673582212200244c7f345c60b2f11b4b95d1616dcd21b54b0372eec47baad71688e090b3a9e64736f6c634300080d0033",
  "immutableReferences": {},
  "source": "// SPDX-License-Identifier: MIT\npragma solidity ^0.8.0;\n\n/**\n * @title DragonBlock Smart Contract\n * @dev A decentralized crowdfunding platform where users can create campaigns, donate, and vote using SuperSaiyan (SSJ) tokens.\n */\ncontract DragonBlock {\n\n    // Enum to represent different statuses of a campaign\n    enum CampaignStatus {\n        PENDING,\n        ACTIVE,\n        DISAPPROVED,\n        REVISION,\n        BANNED,\n        ENDED\n    }\n\n    // Struct to represent a campaign\n    struct Campaign {\n        address owner;          // Address of the campaign owner\n        uint256 id;             // Unique identifier for the campaign\n        CampaignStatus status;  // Current status of the campaign\n        uint256 weiLimit;       // Maximum amount of ETH that can be donated to the campaign\n        uint256 donatedWei;     // Total ETH donated to the campaign\n        uint256 creationTime;   // Timestamp when the campaign was created\n        uint256 revisionTime;   // Timestamp when the campaign entered the revision state\n        uint16 weekDuration;    // Duration of the campaign in weeks\n    }\n\n    event CampaignCreation(uint256 campaignId);\n\n    // Array to store all campaigns\n    Campaign[] public campaigns;\n\n    // Mapping to track DST balances of users\n    mapping(address => uint) public dstBalances;\n\n    // Mapping to track users who are part of the SuperSaiyan Set\n    mapping(address => uint256) public ssjVaults;\n\n    // Mapping to store addresses that approved or disapproved a campaign\n    mapping(uint256 => address[]) private campaignApprovals;\n    mapping(uint256 => address[]) private campaignDisapprovals;\n\n    // Mapping to store addresses that approved or disapproved a revisioned campaign\n    mapping(uint256 => address[]) private campaignRevisionApprovals;\n    mapping(uint256 => address[]) private campaignRevisionDisapprovals;\n\n    // Mapping to store addresses that reported a campaign\n    mapping(uint256 => address[]) private campaignReports;\n\n    struct Donation {\n        address donator;\n        uint256 donatedWei;\n    }\n    mapping (uint256 => Donation[]) private donators;\n\n    // Address of the contract creator\n    address public minter;\n\n    /**\n     * @dev Constructor to initialize the contract\n     */\n    constructor() {\n        minter = msg.sender; // Initialize DST balance for a default address\n        dstBalances[msg.sender] = 1000;\n    }\n\n    /**\n     * @dev Private function to check if an address is in an array\n     * @param _address The address to check\n     * @param _listOfAddresses The array of addresses to search\n     * @return Whether the address is in the array or not\n     */\n    function addressInArray(address _address, address[] storage _listOfAddresses) private view returns(bool) {\n        for (uint i = 0; i < _listOfAddresses.length; i++) {\n            if (_listOfAddresses[i] == _address) {\n                return true;\n            }\n        }\n        return false;\n    }\n\n    /**\n     * @dev Private function to slash SSJ users' funds\n     * @param _campaignID The ID of the campaign\n     */\n    function slashSSJUsers(uint256 _campaignID) private {\n        for (uint i = 0; i < campaignApprovals[_campaignID].length; i++) {\n            address slashedUser = campaignApprovals[_campaignID][i];\n            ssjVaults[slashedUser] -= 0.025 ether;\n            dstBalances[slashedUser] -= 10;\n            if (ssjVaults[slashedUser] < 0.05 ether || dstBalances[slashedUser] < 500) {\n                // If the SSJ User has less than 10% of the starting needed ETH\n                address payable user = payable(slashedUser);\n                user.transfer(ssjVaults[slashedUser]);\n                ssjVaults[slashedUser] = 0;\n            }\n        }\n    }\n\n    /**\n     * @dev Private function to reward SSJ users based on campaign donation percentage\n     * @param _campaignID The ID of the campaign\n     */\n    function rewardSSJUsers(uint256 _campaignID) private {\n\n        if(campaigns[_campaignID].status == CampaignStatus.BANNED) {\n            \n            for (uint i = 0; i < campaignDisapprovals[_campaignID].length; i++) {\n                address rewardedUser = campaignDisapprovals[_campaignID][i];\n                ssjVaults[rewardedUser] += (campaigns[_campaignID].weiLimit * 5 / 100) / (campaignDisapprovals[_campaignID].length + campaignRevisionDisapprovals[_campaignID].length);\n            }\n\n            for (uint i = 0; i < campaignRevisionDisapprovals[_campaignID].length; i++) {\n                address rewardedUser = campaignRevisionDisapprovals[_campaignID][i];\n                ssjVaults[rewardedUser] += (campaigns[_campaignID].weiLimit * 5 / 100) / (campaignDisapprovals[_campaignID].length + campaignRevisionDisapprovals[_campaignID].length);\n            }\n        }\n\n        if(campaigns[_campaignID].status == CampaignStatus.ENDED) {\n\n            uint percentage = campaigns[_campaignID].donatedWei * 100 / campaigns[_campaignID].weiLimit;\n            if (percentage <= 5) {\n                return;\n            }\n\n            uint rewardToSplit = (campaigns[_campaignID].weiLimit * 5 / 100) * (percentage / 100);\n\n            for (uint i = 0; i < campaignApprovals[_campaignID].length; i++) {\n                address rewardedUser = campaignApprovals[_campaignID][i];\n                ssjVaults[rewardedUser] += rewardToSplit / (campaignApprovals[_campaignID].length + campaignRevisionApprovals[_campaignID].length);\n            }\n        }\n    }\n\n    /**\n     * @dev Private function to reward users who reported a campaign\n     * @param _campaignID The ID of the campaign\n     */\n    function rewardReporters(uint256 _campaignID) private {\n        for (uint i = 0; i < campaignReports[_campaignID].length; i++) {\n            address rewardedUser = campaignReports[_campaignID][i];\n            dstBalances[rewardedUser] += 2;\n        }\n    }\n\n    function refundDonators(uint256 _campaignID) private {\n        for (uint i = 0; i < donators[_campaignID].length; i++) {\n            address payable user = payable(donators[_campaignID][i].donator);\n            user.transfer(donators[_campaignID][i].donatedWei);\n        }\n    }\n\n    function getUserCombactLvl(address _user) public view returns (uint256) {\n        if(dstBalances[_user] * 10 >= 9000) {\n            return 9000;\n        } else {\n            return dstBalances[_user] * 10;\n        }\n    }\n\n    /**\n     * @dev Public function to create a new campaign\n     * @param _weiLimit Maximum amount of ETH that can be donated to the campaign\n     * @param _weekDuration Duration of the campaign in weeks\n     */\n    function createCampaign(uint256 _weiLimit, uint16 _weekDuration) public payable {\n        require(msg.value == _weiLimit * 5 / 100, \"You have to deposit 5% of the weiLimit!\");\n        require(_weiLimit > 0.05 ether, \"The donation limit must be greater than 0.05 ETH\");\n        require(_weiLimit % 0.005 ether == 0, \"The donation limit must be a multiple of 0.005 ETH\");\n        require(_weiLimit <= 0.1 ether * getUserCombactLvl(msg.sender), \"Your combact level is too low for the requested ETH!\");\n        require(_weekDuration > 8, \"The campaign duration (expressed in weeks) must be greater than 8\");\n\n        campaigns.push(\n            Campaign({\n                owner: msg.sender,\n                id: campaigns.length, \n                status: CampaignStatus.PENDING,\n                weiLimit: _weiLimit,\n                donatedWei: 0,\n                creationTime: block.timestamp,\n                revisionTime: 0,\n                weekDuration: _weekDuration\n            })\n        );\n\n        emit CampaignCreation(campaigns.length-1);\n    }\n\n    // Function to get a window of 20 elements starting from the last one\n    function getCampaigns(uint256 _campaignWindow) public view returns (Campaign[] memory) {\n        require(_campaignWindow > 0, \"Window size must be greater than 0\");\n        require(int256(campaigns.length) - int256(_campaignWindow-1) * 20 >= 0, \"The window size is too large\");\n\n        // Calculate the starting index for the window\n        int256 startIndex = int256(campaigns.length) - int256(_campaignWindow) * 20;\n        if (startIndex < 0) {\n            startIndex = 0;\n        }\n\n        // Calculate the actual number of elements to include in the result\n        uint256 numElements = uint256(startIndex + 20) <= campaigns.length ? 20 : campaigns.length - uint256(startIndex);\n\n        // Create a memory array to store the window of elements\n        Campaign[] memory result = new Campaign[](numElements);\n\n        // Use a loop to copy the elements to the result array\n        for (uint256 i = 0; i < numElements; i++) {\n            result[i] = campaigns[uint256(startIndex + int256(i))];\n        }\n\n        return result;\n    }\n\n    function getOwnedCampaigns(address _owner) public view returns (Campaign[] memory) {\n        uint256 ownedCampaignCount = 0;\n\n        // Count the number of campaigns owned by the specified address\n        for (uint256 i = 0; i < campaigns.length; i++) {\n            if (campaigns[i].owner == _owner) {\n                ownedCampaignCount++;\n            }\n        }\n\n        // Create an array to hold the owned campaigns\n        Campaign[] memory ownedCampaigns = new Campaign[](ownedCampaignCount);\n        uint256 currentIndex = 0;\n\n        // Populate the array with owned campaigns\n        for (uint256 i = 0; i < campaigns.length; i++) {\n            if (campaigns[i].owner == _owner) {\n                ownedCampaigns[currentIndex] = campaigns[i];\n                currentIndex++;\n            }\n        }\n\n        return ownedCampaigns;\n    }\n\n\n    /**\n     * @dev Public function to donate to an active campaign\n     * @param _id The ID of the campaign\n     */\n    function donateCampaign(uint256 _id) public payable {\n        require(_id < campaigns.length, \"The specified campaign does not exist\");\n        require(campaigns[_id].status == CampaignStatus.ACTIVE, \"The specified campaign is not active\");\n        require(block.timestamp < campaigns[_id].creationTime + (campaigns[_id].weekDuration * 1 weeks), \"The specified campaign is no more active, the owner should finalize it\");\n        require(campaigns[_id].weiLimit - campaigns[_id].donatedWei - msg.value >= 0, \"The donation value is too high!\");\n        require(msg.value > 0, \"The donation must be greater than zero\");\n        require(msg.value % 0.0005 ether == 0, \"You can donate only using steps of 0.0005 ETH\");\n\n        campaigns[_id].donatedWei += msg.value; // Update the campaign's donatedWei field\n        dstBalances[msg.sender] += msg.value / 0.0005 ether;\n        donators[_id].push(Donation({\n            donator: msg.sender,\n            donatedWei: msg.value\n            })\n        );\n    }\n\n    /**\n     * @dev Public function to report a campaign\n     * @param _id The ID of the campaign\n     */\n    function reportCampaign(uint256 _id) public {\n        require(_id < campaigns.length, \"The specified campaign does not exist\");\n        require(campaigns[_id].status == CampaignStatus.ACTIVE, \"The specified campaign is not active\");\n        require(dstBalances[msg.sender] > 0, \"You must have at least 1 DST\");\n\n        dstBalances[msg.sender] -= 1;\n        campaignReports[_id].push(msg.sender);\n\n        if (campaignReports[_id].length > 1) {\n            // More than 100 reports, then the campaign is put in revision state\n            campaigns[_id].status = CampaignStatus.REVISION;\n            campaigns[_id].revisionTime = block.timestamp;\n        }\n    }\n\n    function finalizeCampaign(uint256 _id) public {\n        require(campaigns[_id].status == CampaignStatus.PENDING, \"The specified campaign is not pending!\");\n        require(block.timestamp > campaigns[_id].creationTime + 0 days, \"You can finalize it after 7 days!\");\n        require(msg.sender == campaigns[_id].owner, \"You cannot finalize this campaign as you are not the owner!\");\n\n        if (campaignApprovals[_id].length > campaignDisapprovals[_id].length) {\n            campaigns[_id].status = CampaignStatus.ACTIVE;\n        } else {\n            campaigns[_id].status = CampaignStatus.DISAPPROVED;\n        }\n    }\n\n    function terminateCampaign(uint256 _id) public {\n        require(campaigns[_id].status == CampaignStatus.ACTIVE, \"The specified campaign is not active!\");\n        require(block.timestamp >= campaigns[_id].creationTime + (campaigns[_id].weekDuration * 0 weeks), \"You can finalize it after 7 days!\");\n        require(msg.sender == campaigns[_id].owner, \"You cannot terminate this campaign as you are not the owner!\");\n\n        campaigns[_id].status = CampaignStatus.ENDED;\n        rewardSSJUsers(_id);\n\n        delete campaignRevisionApprovals[_id];\n        delete campaignRevisionDisapprovals[_id];\n\n        address payable campaignOwner = payable(campaigns[_id].owner);\n        campaignOwner.transfer(campaigns[_id].donatedWei);\n    }\n\n    function finalizeRevisionCampaign(uint256 _id) public {\n        require(campaigns[_id].status == CampaignStatus.REVISION, \"The specified campaign is not active!\");\n        require(block.timestamp >= campaigns[_id].revisionTime + 0 days, \"You can finalize it after 7 days!\");\n        require(msg.sender == campaigns[_id].owner, \"You cannot finalize this campaign as you are not the owner!\");\n\n        if (campaignRevisionApprovals[_id].length > campaignRevisionDisapprovals[_id].length) {\n            campaigns[_id].status = CampaignStatus.ACTIVE;\n            campaigns[_id].revisionTime = 0;\n        } else {\n            campaigns[_id].status = CampaignStatus.BANNED;\n            slashSSJUsers(_id);\n            rewardReporters(_id);\n            rewardSSJUsers(_id);\n            refundDonators(_id);\n            delete campaignRevisionApprovals[_id];\n            delete campaignRevisionDisapprovals[_id];\n        }\n    }\n\n    /**\n     * @dev Public function for SSJ users to vote (approve or disapprove) a pending campaign\n     * @param _id The ID of the campaign\n     * @param _approval Whether the user approves or disapproves the campaign\n     */\n    function voteForCampaign(uint256 _id, bool _approval) public returns(uint256) {\n        require(ssjVaults[msg.sender] > 0, \"You are not part of the SuperSaiyan Set!\");\n        require(campaigns[_id].status == CampaignStatus.PENDING, \"The specified campaign is not pending!\");\n        require(block.timestamp < campaigns[_id].creationTime + 7 days, \"The campaign is too old, you cannot vote anymore!\");\n        require(!addressInArray(msg.sender, campaignApprovals[_id]), \"You have already approved this campaign\");\n        require(!addressInArray(msg.sender, campaignDisapprovals[_id]), \"You have already disapproved this campaign\");\n\n        // Record the approval or disapproval vote\n        if (_approval) {\n            campaignApprovals[_id].push(msg.sender);\n        } else {\n            campaignDisapprovals[_id].push(msg.sender);\n        }\n\n        return ssjVaults[msg.sender];\n    }\n\n    /**\n     * @dev Public function for SSJ users to vote (approve or disapprove) a revisioned campaign\n     * @param _id The ID of the campaign\n     * @param _approval Whether the user approves or disapproves the campaign\n     */\n    function revisionCampaign(uint256 _id, bool _approval) public {\n        require(ssjVaults[msg.sender] > 0, \"You are not part of the SuperSaiyan Set!\");\n        require(campaigns[_id].status == CampaignStatus.REVISION, \"The specified campaign is not in revision!\");\n        require(block.timestamp < campaigns[_id].revisionTime + 7 days, \"The revision is too old, you cannot vote anymore!\");\n        require(!addressInArray(msg.sender, campaignRevisionApprovals[_id]), \"You have already approved this campaign\");\n        require(!addressInArray(msg.sender, campaignRevisionDisapprovals[_id]), \"You have already disapproved this campaign\");\n        require(!addressInArray(msg.sender, campaignApprovals[_id]), \"You have voted this campaign while it was pending, therefore you cannot vote for the revision\");\n        require(!addressInArray(msg.sender, campaignDisapprovals[_id]), \"You have voted this campaign while it was pending, therefore you cannot vote for the revision\");\n\n        // Record the approval or disapproval vote\n        if (_approval) {\n            campaignRevisionApprovals[_id].push(msg.sender);\n        } else {\n            campaignRevisionDisapprovals[_id].push(msg.sender);\n        }\n    }\n\n    /**\n     * @dev Public function for users to become part of the SuperSaiyan Set\n     */\n    function becomeSSJ() public payable {\n        require(ssjVaults[msg.sender] == 0, \"You are already part of the SuperSaiyan Set!\");\n        require(dstBalances[msg.sender] >= 500, \"You must hold at least 500 DST to become part of the SuperSaiyan Set!\");\n        require(msg.value >= 0.5 ether, \"You have to deposit at least 0.5 ETH to become a SuperSaiyan!\");\n\n        ssjVaults[msg.sender] = msg.value;\n    }\n\n    /**\n     * @dev Public function for users to exit the SuperSaiyan Set and become a normal user\n     */\n    function becomeNormalUser() public {\n        require(ssjVaults[msg.sender] > 0, \"You are not part of the SuperSaiyan Set!\");\n\n        address payable user = payable(msg.sender);\n        user.transfer(ssjVaults[msg.sender]);\n        ssjVaults[msg.sender] = 0;\n    }\n\n    /**\n     * @dev Public function for the contract creator to terminate the contract and withdraw funds\n     */\n    function terminate() public {\n        require(msg.sender == minter, \"You cannot terminate the contract!\");\n        payable(minter).transfer(address(this).balance);\n    }\n}\n",
  "sourcePath": "/ContainerFiles/contracts/DragonBlock.sol",
  "compiler": {
    "name": "solc",
    "version": "0.8.13+commit.abaa5c0e.Emscripten.clang"
  },
  "schemaVersion": "3.4.16",
  "updatedAt": "2024-01-05T19:41:50.308Z",
  "networkType": "ethereum",
  "devdoc": {
    "details": "A decentralized crowdfunding platform where users can create campaigns, donate, and vote using SuperSaiyan (SSJ) tokens.",
    "kind": "dev",
    "methods": {
      "becomeNormalUser()": {
        "details": "Public function for users to exit the SuperSaiyan Set and become a normal user"
      },
      "becomeSSJ()": {
        "details": "Public function for users to become part of the SuperSaiyan Set"
      },
      "constructor": {
        "details": "Constructor to initialize the contract"
      },
      "createCampaign(uint256,uint16)": {
        "details": "Public function to create a new campaign",
        "params": {
          "_weekDuration": "Duration of the campaign in weeks",
          "_weiLimit": "Maximum amount of ETH that can be donated to the campaign"
        }
      },
      "donateCampaign(uint256)": {
        "details": "Public function to donate to an active campaign",
        "params": {
          "_id": "The ID of the campaign"
        }
      },
      "reportCampaign(uint256)": {
        "details": "Public function to report a campaign",
        "params": {
          "_id": "The ID of the campaign"
        }
      },
      "revisionCampaign(uint256,bool)": {
        "details": "Public function for SSJ users to vote (approve or disapprove) a revisioned campaign",
        "params": {
          "_approval": "Whether the user approves or disapproves the campaign",
          "_id": "The ID of the campaign"
        }
      },
      "terminate()": {
        "details": "Public function for the contract creator to terminate the contract and withdraw funds"
      },
      "voteForCampaign(uint256,bool)": {
        "details": "Public function for SSJ users to vote (approve or disapprove) a pending campaign",
        "params": {
          "_approval": "Whether the user approves or disapproves the campaign",
          "_id": "The ID of the campaign"
        }
      }
    },
    "title": "DragonBlock Smart Contract",
    "version": 1
  },
  "userdoc": {
    "kind": "user",
    "methods": {},
    "version": 1
  }
}